{
	"Documents/GitHub/VideoSharingDapp/contract.sol": {
		"VideoShare": {
			"abi": [
				{
					"anonymous": false,
					"inputs": [
						{
							"indexed": false,
							"internalType": "uint256",
							"name": "videoId",
							"type": "uint256"
						},
						{
							"indexed": false,
							"internalType": "uint256",
							"name": "commentId",
							"type": "uint256"
						},
						{
							"indexed": false,
							"internalType": "string",
							"name": "text",
							"type": "string"
						},
						{
							"indexed": false,
							"internalType": "uint256",
							"name": "timestamp",
							"type": "uint256"
						}
					],
					"name": "CommentAdded",
					"type": "event"
				},
				{
					"anonymous": false,
					"inputs": [
						{
							"indexed": false,
							"internalType": "uint256",
							"name": "videoId",
							"type": "uint256"
						},
						{
							"indexed": false,
							"internalType": "string",
							"name": "title",
							"type": "string"
						},
						{
							"indexed": false,
							"internalType": "string",
							"name": "description",
							"type": "string"
						},
						{
							"indexed": false,
							"internalType": "string",
							"name": "videoHash",
							"type": "string"
						},
						{
							"indexed": false,
							"internalType": "uint256",
							"name": "timestamp",
							"type": "uint256"
						}
					],
					"name": "VideoUploaded",
					"type": "event"
				},
				{
					"inputs": [
						{
							"internalType": "uint256",
							"name": "_videoId",
							"type": "uint256"
						},
						{
							"internalType": "string",
							"name": "_text",
							"type": "string"
						}
					],
					"name": "addComment",
					"outputs": [],
					"stateMutability": "nonpayable",
					"type": "function"
				},
				{
					"inputs": [
						{
							"internalType": "uint256",
							"name": "_videoId",
							"type": "uint256"
						},
						{
							"internalType": "uint256",
							"name": "_commentId",
							"type": "uint256"
						}
					],
					"name": "getComment",
					"outputs": [
						{
							"internalType": "string",
							"name": "",
							"type": "string"
						},
						{
							"internalType": "address",
							"name": "",
							"type": "address"
						},
						{
							"internalType": "uint256",
							"name": "",
							"type": "uint256"
						}
					],
					"stateMutability": "view",
					"type": "function"
				},
				{
					"inputs": [
						{
							"internalType": "uint256",
							"name": "_videoId",
							"type": "uint256"
						}
					],
					"name": "getCommentCount",
					"outputs": [
						{
							"internalType": "uint256",
							"name": "",
							"type": "uint256"
						}
					],
					"stateMutability": "view",
					"type": "function"
				},
				{
					"inputs": [
						{
							"internalType": "uint256",
							"name": "_videoId",
							"type": "uint256"
						}
					],
					"name": "getVideo",
					"outputs": [
						{
							"internalType": "string",
							"name": "",
							"type": "string"
						},
						{
							"internalType": "string",
							"name": "",
							"type": "string"
						},
						{
							"internalType": "string",
							"name": "",
							"type": "string"
						},
						{
							"internalType": "uint256",
							"name": "",
							"type": "uint256"
						},
						{
							"internalType": "uint256",
							"name": "",
							"type": "uint256"
						}
					],
					"stateMutability": "view",
					"type": "function"
				},
				{
					"inputs": [],
					"name": "getVideoCount",
					"outputs": [
						{
							"internalType": "uint256",
							"name": "",
							"type": "uint256"
						}
					],
					"stateMutability": "view",
					"type": "function"
				},
				{
					"inputs": [
						{
							"internalType": "string",
							"name": "_title",
							"type": "string"
						},
						{
							"internalType": "string",
							"name": "_description",
							"type": "string"
						},
						{
							"internalType": "string",
							"name": "_videoHash",
							"type": "string"
						}
					],
					"name": "uploadVideo",
					"outputs": [],
					"stateMutability": "nonpayable",
					"type": "function"
				},
				{
					"inputs": [],
					"name": "videoCount",
					"outputs": [
						{
							"internalType": "uint256",
							"name": "",
							"type": "uint256"
						}
					],
					"stateMutability": "view",
					"type": "function"
				},
				{
					"inputs": [
						{
							"internalType": "uint256",
							"name": "",
							"type": "uint256"
						}
					],
					"name": "videos",
					"outputs": [
						{
							"internalType": "address",
							"name": "owner",
							"type": "address"
						},
						{
							"internalType": "string",
							"name": "title",
							"type": "string"
						},
						{
							"internalType": "string",
							"name": "description",
							"type": "string"
						},
						{
							"internalType": "string",
							"name": "videoHash",
							"type": "string"
						},
						{
							"internalType": "uint256",
							"name": "timestamp",
							"type": "uint256"
						},
						{
							"internalType": "uint256",
							"name": "commentCount",
							"type": "uint256"
						}
					],
					"stateMutability": "view",
					"type": "function"
				}
			],
			"devdoc": {
				"kind": "dev",
				"methods": {},
				"version": 1
			},
			"evm": {
				"assembly": "    /* \"Documents/GitHub/VideoSharingDapp/contract.sol\":56:2691  contract VideoShare {... */\n  mstore(0x40, 0x80)\n    /* \"Documents/GitHub/VideoSharingDapp/contract.sol\":486:487  0 */\n  0x00\n    /* \"Documents/GitHub/VideoSharingDapp/contract.sol\":458:487  uint256 public videoCount = 0 */\n  0x01\n  sstore\n    /* \"Documents/GitHub/VideoSharingDapp/contract.sol\":56:2691  contract VideoShare {... */\n  callvalue\n  dup1\n  iszero\n  tag_1\n  jumpi\n  0x00\n  dup1\n  revert\ntag_1:\n  pop\n  dataSize(sub_0)\n  dup1\n  dataOffset(sub_0)\n  0x00\n  codecopy\n  0x00\n  return\nstop\n\nsub_0: assembly {\n        /* \"Documents/GitHub/VideoSharingDapp/contract.sol\":56:2691  contract VideoShare {... */\n      mstore(0x40, 0x80)\n      callvalue\n      dup1\n      iszero\n      tag_1\n      jumpi\n      0x00\n      dup1\n      revert\n    tag_1:\n      pop\n      jumpi(tag_2, lt(calldatasize, 0x04))\n      shr(0xe0, calldataload(0x00))\n      dup1\n      0xa286c0b9\n      gt\n      tag_11\n      jumpi\n      dup1\n      0xa286c0b9\n      eq\n      tag_7\n      jumpi\n      dup1\n      0xaa7e5683\n      eq\n      tag_8\n      jumpi\n      dup1\n      0xc61b5f4c\n      eq\n      tag_9\n      jumpi\n      dup1\n      0xe6821bf5\n      eq\n      tag_10\n      jumpi\n      jump(tag_2)\n    tag_11:\n      dup1\n      0x0d4bfb4f\n      eq\n      tag_3\n      jumpi\n      dup1\n      0x2893eca2\n      eq\n      tag_4\n      jumpi\n      dup1\n      0x4875e9fd\n      eq\n      tag_5\n      jumpi\n      dup1\n      0x48892753\n      eq\n      tag_6\n      jumpi\n    tag_2:\n      0x00\n      dup1\n      revert\n        /* \"Documents/GitHub/VideoSharingDapp/contract.sol\":2486:2689  function getCommentCount(uint256 _videoId) public view returns (uint256) {... */\n    tag_3:\n      tag_12\n      0x04\n      dup1\n      calldatasize\n      sub\n      dup2\n      add\n      swap1\n      tag_13\n      swap2\n      swap1\n      tag_14\n      jump\t// in\n    tag_13:\n      tag_15\n      jump\t// in\n    tag_12:\n      mload(0x40)\n      tag_16\n      swap2\n      swap1\n      tag_17\n      jump\t// in\n    tag_16:\n      mload(0x40)\n      dup1\n      swap2\n      sub\n      swap1\n      return\n        /* \"Documents/GitHub/VideoSharingDapp/contract.sol\":1584:1939  function getVideo(uint256 _videoId) public view returns (string memory, string memory, string memory, uint256, uint256) {... */\n    tag_4:\n      tag_18\n      0x04\n      dup1\n      calldatasize\n      sub\n      dup2\n      add\n      swap1\n      tag_19\n      swap2\n      swap1\n      tag_14\n      jump\t// in\n    tag_19:\n      tag_20\n      jump\t// in\n    tag_18:\n      mload(0x40)\n      tag_21\n      swap6\n      swap5\n      swap4\n      swap3\n      swap2\n      swap1\n      tag_22\n      jump\t// in\n    tag_21:\n      mload(0x40)\n      dup1\n      swap2\n      sub\n      swap1\n      return\n        /* \"Documents/GitHub/VideoSharingDapp/contract.sol\":700:1173  function uploadVideo(string memory _title, string memory _description, string memory _videoHash) public {... */\n    tag_5:\n      tag_23\n      0x04\n      dup1\n      calldatasize\n      sub\n      dup2\n      add\n      swap1\n      tag_24\n      swap2\n      swap1\n      tag_25\n      jump\t// in\n    tag_24:\n      tag_26\n      jump\t// in\n    tag_23:\n      stop\n        /* \"Documents/GitHub/VideoSharingDapp/contract.sol\":1945:2385  function getComment(uint256 _videoId, uint256 _commentId) public view returns (string memory, address, uint256) {... */\n    tag_6:\n      tag_27\n      0x04\n      dup1\n      calldatasize\n      sub\n      dup2\n      add\n      swap1\n      tag_28\n      swap2\n      swap1\n      tag_29\n      jump\t// in\n    tag_28:\n      tag_30\n      jump\t// in\n    tag_27:\n      mload(0x40)\n      tag_31\n      swap4\n      swap3\n      swap2\n      swap1\n      tag_32\n      jump\t// in\n    tag_31:\n      mload(0x40)\n      dup1\n      swap2\n      sub\n      swap1\n      return\n        /* \"Documents/GitHub/VideoSharingDapp/contract.sol\":2391:2480  function getVideoCount() public view returns (uint256) {... */\n    tag_7:\n      tag_33\n      tag_34\n      jump\t// in\n    tag_33:\n      mload(0x40)\n      tag_35\n      swap2\n      swap1\n      tag_17\n      jump\t// in\n    tag_35:\n      mload(0x40)\n      dup1\n      swap2\n      sub\n      swap1\n      return\n        /* \"Documents/GitHub/VideoSharingDapp/contract.sol\":1179:1578  function addComment(uint256 _videoId, string memory _text) public {... */\n    tag_8:\n      tag_36\n      0x04\n      dup1\n      calldatasize\n      sub\n      dup2\n      add\n      swap1\n      tag_37\n      swap2\n      swap1\n      tag_38\n      jump\t// in\n    tag_37:\n      tag_39\n      jump\t// in\n    tag_36:\n      stop\n        /* \"Documents/GitHub/VideoSharingDapp/contract.sol\":458:487  uint256 public videoCount = 0 */\n    tag_9:\n      tag_40\n      tag_41\n      jump\t// in\n    tag_40:\n      mload(0x40)\n      tag_42\n      swap2\n      swap1\n      tag_17\n      jump\t// in\n    tag_42:\n      mload(0x40)\n      dup1\n      swap2\n      sub\n      swap1\n      return\n        /* \"Documents/GitHub/VideoSharingDapp/contract.sol\":413:452  mapping(uint256 => Video) public videos */\n    tag_10:\n      tag_43\n      0x04\n      dup1\n      calldatasize\n      sub\n      dup2\n      add\n      swap1\n      tag_44\n      swap2\n      swap1\n      tag_14\n      jump\t// in\n    tag_44:\n      tag_45\n      jump\t// in\n    tag_43:\n      mload(0x40)\n      tag_46\n      swap7\n      swap6\n      swap5\n      swap4\n      swap3\n      swap2\n      swap1\n      tag_47\n      jump\t// in\n    tag_46:\n      mload(0x40)\n      dup1\n      swap2\n      sub\n      swap1\n      return\n        /* \"Documents/GitHub/VideoSharingDapp/contract.sol\":2486:2689  function getCommentCount(uint256 _videoId) public view returns (uint256) {... */\n    tag_15:\n        /* \"Documents/GitHub/VideoSharingDapp/contract.sol\":2550:2557  uint256 */\n      0x00\n        /* \"Documents/GitHub/VideoSharingDapp/contract.sol\":2589:2599  videoCount */\n      sload(0x01)\n        /* \"Documents/GitHub/VideoSharingDapp/contract.sol\":2577:2585  _videoId */\n      dup3\n        /* \"Documents/GitHub/VideoSharingDapp/contract.sol\":2577:2599  _videoId <= videoCount */\n      gt\n      iszero\n        /* \"Documents/GitHub/VideoSharingDapp/contract.sol\":2577:2615  _videoId <= videoCount && _videoId > 0 */\n      dup1\n      iszero\n      tag_49\n      jumpi\n      pop\n        /* \"Documents/GitHub/VideoSharingDapp/contract.sol\":2614:2615  0 */\n      0x00\n        /* \"Documents/GitHub/VideoSharingDapp/contract.sol\":2603:2611  _videoId */\n      dup3\n        /* \"Documents/GitHub/VideoSharingDapp/contract.sol\":2603:2615  _videoId > 0 */\n      gt\n        /* \"Documents/GitHub/VideoSharingDapp/contract.sol\":2577:2615  _videoId <= videoCount && _videoId > 0 */\n    tag_49:\n        /* \"Documents/GitHub/VideoSharingDapp/contract.sol\":2569:2636  require(_videoId <= videoCount && _videoId > 0, \"Invalid video ID\") */\n      tag_50\n      jumpi\n      mload(0x40)\n      0x08c379a000000000000000000000000000000000000000000000000000000000\n      dup2\n      mstore\n      0x04\n      add\n      tag_51\n      swap1\n      tag_52\n      jump\t// in\n    tag_51:\n      mload(0x40)\n      dup1\n      swap2\n      sub\n      swap1\n      revert\n    tag_50:\n        /* \"Documents/GitHub/VideoSharingDapp/contract.sol\":2653:2659  videos */\n      0x00\n        /* \"Documents/GitHub/VideoSharingDapp/contract.sol\":2653:2669  videos[_videoId] */\n      dup1\n        /* \"Documents/GitHub/VideoSharingDapp/contract.sol\":2660:2668  _videoId */\n      dup4\n        /* \"Documents/GitHub/VideoSharingDapp/contract.sol\":2653:2669  videos[_videoId] */\n      dup2\n      mstore\n      0x20\n      add\n      swap1\n      dup2\n      mstore\n      0x20\n      add\n      0x00\n      keccak256\n        /* \"Documents/GitHub/VideoSharingDapp/contract.sol\":2653:2682  videos[_videoId].commentCount */\n      0x06\n      add\n      sload\n        /* \"Documents/GitHub/VideoSharingDapp/contract.sol\":2646:2682  return videos[_videoId].commentCount */\n      swap1\n      pop\n        /* \"Documents/GitHub/VideoSharingDapp/contract.sol\":2486:2689  function getCommentCount(uint256 _videoId) public view returns (uint256) {... */\n      swap2\n      swap1\n      pop\n      jump\t// out\n        /* \"Documents/GitHub/VideoSharingDapp/contract.sol\":1584:1939  function getVideo(uint256 _videoId) public view returns (string memory, string memory, string memory, uint256, uint256) {... */\n    tag_20:\n        /* \"Documents/GitHub/VideoSharingDapp/contract.sol\":1641:1654  string memory */\n      0x60\n        /* \"Documents/GitHub/VideoSharingDapp/contract.sol\":1656:1669  string memory */\n      dup1\n        /* \"Documents/GitHub/VideoSharingDapp/contract.sol\":1671:1684  string memory */\n      0x60\n        /* \"Documents/GitHub/VideoSharingDapp/contract.sol\":1686:1693  uint256 */\n      0x00\n        /* \"Documents/GitHub/VideoSharingDapp/contract.sol\":1695:1702  uint256 */\n      dup1\n        /* \"Documents/GitHub/VideoSharingDapp/contract.sol\":1734:1744  videoCount */\n      sload(0x01)\n        /* \"Documents/GitHub/VideoSharingDapp/contract.sol\":1722:1730  _videoId */\n      dup7\n        /* \"Documents/GitHub/VideoSharingDapp/contract.sol\":1722:1744  _videoId <= videoCount */\n      gt\n      iszero\n        /* \"Documents/GitHub/VideoSharingDapp/contract.sol\":1722:1760  _videoId <= videoCount && _videoId > 0 */\n      dup1\n      iszero\n      tag_54\n      jumpi\n      pop\n        /* \"Documents/GitHub/VideoSharingDapp/contract.sol\":1759:1760  0 */\n      0x00\n        /* \"Documents/GitHub/VideoSharingDapp/contract.sol\":1748:1756  _videoId */\n      dup7\n        /* \"Documents/GitHub/VideoSharingDapp/contract.sol\":1748:1760  _videoId > 0 */\n      gt\n        /* \"Documents/GitHub/VideoSharingDapp/contract.sol\":1722:1760  _videoId <= videoCount && _videoId > 0 */\n    tag_54:\n        /* \"Documents/GitHub/VideoSharingDapp/contract.sol\":1714:1781  require(_videoId <= videoCount && _videoId > 0, \"Invalid video ID\") */\n      tag_55\n      jumpi\n      mload(0x40)\n      0x08c379a000000000000000000000000000000000000000000000000000000000\n      dup2\n      mstore\n      0x04\n      add\n      tag_56\n      swap1\n      tag_52\n      jump\t// in\n    tag_56:\n      mload(0x40)\n      dup1\n      swap2\n      sub\n      swap1\n      revert\n    tag_55:\n        /* \"Documents/GitHub/VideoSharingDapp/contract.sol\":1791:1810  Video storage video */\n      0x00\n        /* \"Documents/GitHub/VideoSharingDapp/contract.sol\":1813:1819  videos */\n      dup1\n        /* \"Documents/GitHub/VideoSharingDapp/contract.sol\":1813:1829  videos[_videoId] */\n      0x00\n        /* \"Documents/GitHub/VideoSharingDapp/contract.sol\":1820:1828  _videoId */\n      dup9\n        /* \"Documents/GitHub/VideoSharingDapp/contract.sol\":1813:1829  videos[_videoId] */\n      dup2\n      mstore\n      0x20\n      add\n      swap1\n      dup2\n      mstore\n      0x20\n      add\n      0x00\n      keccak256\n        /* \"Documents/GitHub/VideoSharingDapp/contract.sol\":1791:1829  Video storage video = videos[_videoId] */\n      swap1\n      pop\n        /* \"Documents/GitHub/VideoSharingDapp/contract.sol\":1847:1852  video */\n      dup1\n        /* \"Documents/GitHub/VideoSharingDapp/contract.sol\":1847:1858  video.title */\n      0x01\n      add\n        /* \"Documents/GitHub/VideoSharingDapp/contract.sol\":1860:1865  video */\n      dup2\n        /* \"Documents/GitHub/VideoSharingDapp/contract.sol\":1860:1877  video.description */\n      0x02\n      add\n        /* \"Documents/GitHub/VideoSharingDapp/contract.sol\":1879:1884  video */\n      dup3\n        /* \"Documents/GitHub/VideoSharingDapp/contract.sol\":1879:1894  video.videoHash */\n      0x03\n      add\n        /* \"Documents/GitHub/VideoSharingDapp/contract.sol\":1896:1901  video */\n      dup4\n        /* \"Documents/GitHub/VideoSharingDapp/contract.sol\":1896:1911  video.timestamp */\n      0x04\n      add\n      sload\n        /* \"Documents/GitHub/VideoSharingDapp/contract.sol\":1913:1918  video */\n      dup5\n        /* \"Documents/GitHub/VideoSharingDapp/contract.sol\":1913:1931  video.commentCount */\n      0x06\n      add\n      sload\n        /* \"Documents/GitHub/VideoSharingDapp/contract.sol\":1839:1932  return (video.title, video.description, video.videoHash, video.timestamp, video.commentCount) */\n      dup5\n      dup1\n      sload\n      tag_57\n      swap1\n      tag_58\n      jump\t// in\n    tag_57:\n      dup1\n      0x1f\n      add\n      0x20\n      dup1\n      swap2\n      div\n      mul\n      0x20\n      add\n      mload(0x40)\n      swap1\n      dup2\n      add\n      0x40\n      mstore\n      dup1\n      swap3\n      swap2\n      swap1\n      dup2\n      dup2\n      mstore\n      0x20\n      add\n      dup3\n      dup1\n      sload\n      tag_59\n      swap1\n      tag_58\n      jump\t// in\n    tag_59:\n      dup1\n      iszero\n      tag_60\n      jumpi\n      dup1\n      0x1f\n      lt\n      tag_61\n      jumpi\n      0x0100\n      dup1\n      dup4\n      sload\n      div\n      mul\n      dup4\n      mstore\n      swap2\n      0x20\n      add\n      swap2\n      jump(tag_60)\n    tag_61:\n      dup3\n      add\n      swap2\n      swap1\n      0x00\n      mstore\n      keccak256(0x00, 0x20)\n      swap1\n    tag_62:\n      dup2\n      sload\n      dup2\n      mstore\n      swap1\n      0x01\n      add\n      swap1\n      0x20\n      add\n      dup1\n      dup4\n      gt\n      tag_62\n      jumpi\n      dup3\n      swap1\n      sub\n      0x1f\n      and\n      dup3\n      add\n      swap2\n    tag_60:\n      pop\n      pop\n      pop\n      pop\n      pop\n      swap5\n      pop\n      dup4\n      dup1\n      sload\n      tag_63\n      swap1\n      tag_58\n      jump\t// in\n    tag_63:\n      dup1\n      0x1f\n      add\n      0x20\n      dup1\n      swap2\n      div\n      mul\n      0x20\n      add\n      mload(0x40)\n      swap1\n      dup2\n      add\n      0x40\n      mstore\n      dup1\n      swap3\n      swap2\n      swap1\n      dup2\n      dup2\n      mstore\n      0x20\n      add\n      dup3\n      dup1\n      sload\n      tag_64\n      swap1\n      tag_58\n      jump\t// in\n    tag_64:\n      dup1\n      iszero\n      tag_65\n      jumpi\n      dup1\n      0x1f\n      lt\n      tag_66\n      jumpi\n      0x0100\n      dup1\n      dup4\n      sload\n      div\n      mul\n      dup4\n      mstore\n      swap2\n      0x20\n      add\n      swap2\n      jump(tag_65)\n    tag_66:\n      dup3\n      add\n      swap2\n      swap1\n      0x00\n      mstore\n      keccak256(0x00, 0x20)\n      swap1\n    tag_67:\n      dup2\n      sload\n      dup2\n      mstore\n      swap1\n      0x01\n      add\n      swap1\n      0x20\n      add\n      dup1\n      dup4\n      gt\n      tag_67\n      jumpi\n      dup3\n      swap1\n      sub\n      0x1f\n      and\n      dup3\n      add\n      swap2\n    tag_65:\n      pop\n      pop\n      pop\n      pop\n      pop\n      swap4\n      pop\n      dup3\n      dup1\n      sload\n      tag_68\n      swap1\n      tag_58\n      jump\t// in\n    tag_68:\n      dup1\n      0x1f\n      add\n      0x20\n      dup1\n      swap2\n      div\n      mul\n      0x20\n      add\n      mload(0x40)\n      swap1\n      dup2\n      add\n      0x40\n      mstore\n      dup1\n      swap3\n      swap2\n      swap1\n      dup2\n      dup2\n      mstore\n      0x20\n      add\n      dup3\n      dup1\n      sload\n      tag_69\n      swap1\n      tag_58\n      jump\t// in\n    tag_69:\n      dup1\n      iszero\n      tag_70\n      jumpi\n      dup1\n      0x1f\n      lt\n      tag_71\n      jumpi\n      0x0100\n      dup1\n      dup4\n      sload\n      div\n      mul\n      dup4\n      mstore\n      swap2\n      0x20\n      add\n      swap2\n      jump(tag_70)\n    tag_71:\n      dup3\n      add\n      swap2\n      swap1\n      0x00\n      mstore\n      keccak256(0x00, 0x20)\n      swap1\n    tag_72:\n      dup2\n      sload\n      dup2\n      mstore\n      swap1\n      0x01\n      add\n      swap1\n      0x20\n      add\n      dup1\n      dup4\n      gt\n      tag_72\n      jumpi\n      dup3\n      swap1\n      sub\n      0x1f\n      and\n      dup3\n      add\n      swap2\n    tag_70:\n      pop\n      pop\n      pop\n      pop\n      pop\n      swap3\n      pop\n      swap6\n      pop\n      swap6\n      pop\n      swap6\n      pop\n      swap6\n      pop\n      swap6\n      pop\n      pop\n        /* \"Documents/GitHub/VideoSharingDapp/contract.sol\":1584:1939  function getVideo(uint256 _videoId) public view returns (string memory, string memory, string memory, uint256, uint256) {... */\n      swap2\n      swap4\n      swap6\n      swap1\n      swap3\n      swap5\n      pop\n      jump\t// out\n        /* \"Documents/GitHub/VideoSharingDapp/contract.sol\":700:1173  function uploadVideo(string memory _title, string memory _description, string memory _videoHash) public {... */\n    tag_26:\n        /* \"Documents/GitHub/VideoSharingDapp/contract.sol\":814:824  videoCount */\n      0x01\n      0x00\n        /* \"Documents/GitHub/VideoSharingDapp/contract.sol\":814:826  videoCount++ */\n      dup2\n      sload\n      dup1\n      swap3\n      swap2\n      swap1\n      tag_74\n      swap1\n      tag_75\n      jump\t// in\n    tag_74:\n      swap2\n      swap1\n      pop\n      sstore\n      pop\n        /* \"Documents/GitHub/VideoSharingDapp/contract.sol\":836:858  Video storage newVideo */\n      0x00\n        /* \"Documents/GitHub/VideoSharingDapp/contract.sol\":861:867  videos */\n      dup1\n        /* \"Documents/GitHub/VideoSharingDapp/contract.sol\":861:879  videos[videoCount] */\n      0x00\n        /* \"Documents/GitHub/VideoSharingDapp/contract.sol\":868:878  videoCount */\n      sload(0x01)\n        /* \"Documents/GitHub/VideoSharingDapp/contract.sol\":861:879  videos[videoCount] */\n      dup2\n      mstore\n      0x20\n      add\n      swap1\n      dup2\n      mstore\n      0x20\n      add\n      0x00\n      keccak256\n        /* \"Documents/GitHub/VideoSharingDapp/contract.sol\":836:879  Video storage newVideo = videos[videoCount] */\n      swap1\n      pop\n        /* \"Documents/GitHub/VideoSharingDapp/contract.sol\":906:916  msg.sender */\n      caller\n        /* \"Documents/GitHub/VideoSharingDapp/contract.sol\":889:897  newVideo */\n      dup2\n        /* \"Documents/GitHub/VideoSharingDapp/contract.sol\":889:903  newVideo.owner */\n      0x00\n      add\n      0x00\n        /* \"Documents/GitHub/VideoSharingDapp/contract.sol\":889:916  newVideo.owner = msg.sender */\n      0x0100\n      exp\n      dup2\n      sload\n      dup2\n      0xffffffffffffffffffffffffffffffffffffffff\n      mul\n      not\n      and\n      swap1\n      dup4\n      0xffffffffffffffffffffffffffffffffffffffff\n      and\n      mul\n      or\n      swap1\n      sstore\n      pop\n        /* \"Documents/GitHub/VideoSharingDapp/contract.sol\":943:949  _title */\n      dup4\n        /* \"Documents/GitHub/VideoSharingDapp/contract.sol\":926:934  newVideo */\n      dup2\n        /* \"Documents/GitHub/VideoSharingDapp/contract.sol\":926:940  newVideo.title */\n      0x01\n      add\n        /* \"Documents/GitHub/VideoSharingDapp/contract.sol\":926:949  newVideo.title = _title */\n      swap1\n      dup2\n      tag_76\n      swap2\n      swap1\n      tag_77\n      jump\t// in\n    tag_76:\n      pop\n        /* \"Documents/GitHub/VideoSharingDapp/contract.sol\":982:994  _description */\n      dup3\n        /* \"Documents/GitHub/VideoSharingDapp/contract.sol\":959:967  newVideo */\n      dup2\n        /* \"Documents/GitHub/VideoSharingDapp/contract.sol\":959:979  newVideo.description */\n      0x02\n      add\n        /* \"Documents/GitHub/VideoSharingDapp/contract.sol\":959:994  newVideo.description = _description */\n      swap1\n      dup2\n      tag_78\n      swap2\n      swap1\n      tag_77\n      jump\t// in\n    tag_78:\n      pop\n        /* \"Documents/GitHub/VideoSharingDapp/contract.sol\":1025:1040  block.timestamp */\n      timestamp\n        /* \"Documents/GitHub/VideoSharingDapp/contract.sol\":1004:1012  newVideo */\n      dup2\n        /* \"Documents/GitHub/VideoSharingDapp/contract.sol\":1004:1022  newVideo.timestamp */\n      0x04\n      add\n        /* \"Documents/GitHub/VideoSharingDapp/contract.sol\":1004:1040  newVideo.timestamp = block.timestamp */\n      dup2\n      swap1\n      sstore\n      pop\n        /* \"Documents/GitHub/VideoSharingDapp/contract.sol\":1074:1075  0 */\n      0x00\n        /* \"Documents/GitHub/VideoSharingDapp/contract.sol\":1050:1058  newVideo */\n      dup2\n        /* \"Documents/GitHub/VideoSharingDapp/contract.sol\":1050:1071  newVideo.commentCount */\n      0x06\n      add\n        /* \"Documents/GitHub/VideoSharingDapp/contract.sol\":1050:1075  newVideo.commentCount = 0 */\n      dup2\n      swap1\n      sstore\n      pop\n        /* \"Documents/GitHub/VideoSharingDapp/contract.sol\":1090:1166  VideoUploaded(videoCount, _title, _description, _videoHash, block.timestamp) */\n      0xef7282af85231ea2e7e518e5ea491608fc6207a3a825e68944d2ca9e7d75aa39\n        /* \"Documents/GitHub/VideoSharingDapp/contract.sol\":1104:1114  videoCount */\n      sload(0x01)\n        /* \"Documents/GitHub/VideoSharingDapp/contract.sol\":1116:1122  _title */\n      dup6\n        /* \"Documents/GitHub/VideoSharingDapp/contract.sol\":1124:1136  _description */\n      dup6\n        /* \"Documents/GitHub/VideoSharingDapp/contract.sol\":1138:1148  _videoHash */\n      dup6\n        /* \"Documents/GitHub/VideoSharingDapp/contract.sol\":1150:1165  block.timestamp */\n      timestamp\n        /* \"Documents/GitHub/VideoSharingDapp/contract.sol\":1090:1166  VideoUploaded(videoCount, _title, _description, _videoHash, block.timestamp) */\n      mload(0x40)\n      tag_79\n      swap6\n      swap5\n      swap4\n      swap3\n      swap2\n      swap1\n      tag_80\n      jump\t// in\n    tag_79:\n      mload(0x40)\n      dup1\n      swap2\n      sub\n      swap1\n      log1\n        /* \"Documents/GitHub/VideoSharingDapp/contract.sol\":804:1173  {... */\n      pop\n        /* \"Documents/GitHub/VideoSharingDapp/contract.sol\":700:1173  function uploadVideo(string memory _title, string memory _description, string memory _videoHash) public {... */\n      pop\n      pop\n      pop\n      jump\t// out\n        /* \"Documents/GitHub/VideoSharingDapp/contract.sol\":1945:2385  function getComment(uint256 _videoId, uint256 _commentId) public view returns (string memory, address, uint256) {... */\n    tag_30:\n        /* \"Documents/GitHub/VideoSharingDapp/contract.sol\":2024:2037  string memory */\n      0x60\n        /* \"Documents/GitHub/VideoSharingDapp/contract.sol\":2039:2046  address */\n      0x00\n        /* \"Documents/GitHub/VideoSharingDapp/contract.sol\":2048:2055  uint256 */\n      dup1\n        /* \"Documents/GitHub/VideoSharingDapp/contract.sol\":2087:2097  videoCount */\n      sload(0x01)\n        /* \"Documents/GitHub/VideoSharingDapp/contract.sol\":2075:2083  _videoId */\n      dup6\n        /* \"Documents/GitHub/VideoSharingDapp/contract.sol\":2075:2097  _videoId <= videoCount */\n      gt\n      iszero\n        /* \"Documents/GitHub/VideoSharingDapp/contract.sol\":2075:2113  _videoId <= videoCount && _videoId > 0 */\n      dup1\n      iszero\n      tag_82\n      jumpi\n      pop\n        /* \"Documents/GitHub/VideoSharingDapp/contract.sol\":2112:2113  0 */\n      0x00\n        /* \"Documents/GitHub/VideoSharingDapp/contract.sol\":2101:2109  _videoId */\n      dup6\n        /* \"Documents/GitHub/VideoSharingDapp/contract.sol\":2101:2113  _videoId > 0 */\n      gt\n        /* \"Documents/GitHub/VideoSharingDapp/contract.sol\":2075:2113  _videoId <= videoCount && _videoId > 0 */\n    tag_82:\n        /* \"Documents/GitHub/VideoSharingDapp/contract.sol\":2067:2134  require(_videoId <= videoCount && _videoId > 0, \"Invalid video ID\") */\n      tag_83\n      jumpi\n      mload(0x40)\n      0x08c379a000000000000000000000000000000000000000000000000000000000\n      dup2\n      mstore\n      0x04\n      add\n      tag_84\n      swap1\n      tag_52\n      jump\t// in\n    tag_84:\n      mload(0x40)\n      dup1\n      swap2\n      sub\n      swap1\n      revert\n    tag_83:\n        /* \"Documents/GitHub/VideoSharingDapp/contract.sol\":2166:2172  videos */\n      0x00\n        /* \"Documents/GitHub/VideoSharingDapp/contract.sol\":2166:2182  videos[_videoId] */\n      dup1\n        /* \"Documents/GitHub/VideoSharingDapp/contract.sol\":2173:2181  _videoId */\n      dup7\n        /* \"Documents/GitHub/VideoSharingDapp/contract.sol\":2166:2182  videos[_videoId] */\n      dup2\n      mstore\n      0x20\n      add\n      swap1\n      dup2\n      mstore\n      0x20\n      add\n      0x00\n      keccak256\n        /* \"Documents/GitHub/VideoSharingDapp/contract.sol\":2166:2195  videos[_videoId].commentCount */\n      0x06\n      add\n      sload\n        /* \"Documents/GitHub/VideoSharingDapp/contract.sol\":2152:2162  _commentId */\n      dup5\n        /* \"Documents/GitHub/VideoSharingDapp/contract.sol\":2152:2195  _commentId <= videos[_videoId].commentCount */\n      gt\n      iszero\n        /* \"Documents/GitHub/VideoSharingDapp/contract.sol\":2152:2213  _commentId <= videos[_videoId].commentCount && _commentId > 0 */\n      dup1\n      iszero\n      tag_85\n      jumpi\n      pop\n        /* \"Documents/GitHub/VideoSharingDapp/contract.sol\":2212:2213  0 */\n      0x00\n        /* \"Documents/GitHub/VideoSharingDapp/contract.sol\":2199:2209  _commentId */\n      dup5\n        /* \"Documents/GitHub/VideoSharingDapp/contract.sol\":2199:2213  _commentId > 0 */\n      gt\n        /* \"Documents/GitHub/VideoSharingDapp/contract.sol\":2152:2213  _commentId <= videos[_videoId].commentCount && _commentId > 0 */\n    tag_85:\n        /* \"Documents/GitHub/VideoSharingDapp/contract.sol\":2144:2236  require(_commentId <= videos[_videoId].commentCount && _commentId > 0, \"Invalid comment ID\") */\n      tag_86\n      jumpi\n      mload(0x40)\n      0x08c379a000000000000000000000000000000000000000000000000000000000\n      dup2\n      mstore\n      0x04\n      add\n      tag_87\n      swap1\n      tag_88\n      jump\t// in\n    tag_87:\n      mload(0x40)\n      dup1\n      swap2\n      sub\n      swap1\n      revert\n    tag_86:\n        /* \"Documents/GitHub/VideoSharingDapp/contract.sol\":2246:2269  Comment storage comment */\n      0x00\n        /* \"Documents/GitHub/VideoSharingDapp/contract.sol\":2272:2278  videos */\n      dup1\n        /* \"Documents/GitHub/VideoSharingDapp/contract.sol\":2272:2288  videos[_videoId] */\n      0x00\n        /* \"Documents/GitHub/VideoSharingDapp/contract.sol\":2279:2287  _videoId */\n      dup8\n        /* \"Documents/GitHub/VideoSharingDapp/contract.sol\":2272:2288  videos[_videoId] */\n      dup2\n      mstore\n      0x20\n      add\n      swap1\n      dup2\n      mstore\n      0x20\n      add\n      0x00\n      keccak256\n        /* \"Documents/GitHub/VideoSharingDapp/contract.sol\":2272:2297  videos[_videoId].comments */\n      0x05\n      add\n        /* \"Documents/GitHub/VideoSharingDapp/contract.sol\":2272:2309  videos[_videoId].comments[_commentId] */\n      0x00\n        /* \"Documents/GitHub/VideoSharingDapp/contract.sol\":2298:2308  _commentId */\n      dup7\n        /* \"Documents/GitHub/VideoSharingDapp/contract.sol\":2272:2309  videos[_videoId].comments[_commentId] */\n      dup2\n      mstore\n      0x20\n      add\n      swap1\n      dup2\n      mstore\n      0x20\n      add\n      0x00\n      keccak256\n        /* \"Documents/GitHub/VideoSharingDapp/contract.sol\":2246:2309  Comment storage comment = videos[_videoId].comments[_commentId] */\n      swap1\n      pop\n        /* \"Documents/GitHub/VideoSharingDapp/contract.sol\":2327:2334  comment */\n      dup1\n        /* \"Documents/GitHub/VideoSharingDapp/contract.sol\":2327:2339  comment.text */\n      0x01\n      add\n        /* \"Documents/GitHub/VideoSharingDapp/contract.sol\":2341:2348  comment */\n      dup2\n        /* \"Documents/GitHub/VideoSharingDapp/contract.sol\":2341:2358  comment.commenter */\n      0x00\n      add\n      0x00\n      swap1\n      sload\n      swap1\n      0x0100\n      exp\n      swap1\n      div\n      0xffffffffffffffffffffffffffffffffffffffff\n      and\n        /* \"Documents/GitHub/VideoSharingDapp/contract.sol\":2360:2367  comment */\n      dup3\n        /* \"Documents/GitHub/VideoSharingDapp/contract.sol\":2360:2377  comment.timestamp */\n      0x02\n      add\n      sload\n        /* \"Documents/GitHub/VideoSharingDapp/contract.sol\":2319:2378  return (comment.text, comment.commenter, comment.timestamp) */\n      dup3\n      dup1\n      sload\n      tag_89\n      swap1\n      tag_58\n      jump\t// in\n    tag_89:\n      dup1\n      0x1f\n      add\n      0x20\n      dup1\n      swap2\n      div\n      mul\n      0x20\n      add\n      mload(0x40)\n      swap1\n      dup2\n      add\n      0x40\n      mstore\n      dup1\n      swap3\n      swap2\n      swap1\n      dup2\n      dup2\n      mstore\n      0x20\n      add\n      dup3\n      dup1\n      sload\n      tag_90\n      swap1\n      tag_58\n      jump\t// in\n    tag_90:\n      dup1\n      iszero\n      tag_91\n      jumpi\n      dup1\n      0x1f\n      lt\n      tag_92\n      jumpi\n      0x0100\n      dup1\n      dup4\n      sload\n      div\n      mul\n      dup4\n      mstore\n      swap2\n      0x20\n      add\n      swap2\n      jump(tag_91)\n    tag_92:\n      dup3\n      add\n      swap2\n      swap1\n      0x00\n      mstore\n      keccak256(0x00, 0x20)\n      swap1\n    tag_93:\n      dup2\n      sload\n      dup2\n      mstore\n      swap1\n      0x01\n      add\n      swap1\n      0x20\n      add\n      dup1\n      dup4\n      gt\n      tag_93\n      jumpi\n      dup3\n      swap1\n      sub\n      0x1f\n      and\n      dup3\n      add\n      swap2\n    tag_91:\n      pop\n      pop\n      pop\n      pop\n      pop\n      swap3\n      pop\n      swap4\n      pop\n      swap4\n      pop\n      swap4\n      pop\n      pop\n        /* \"Documents/GitHub/VideoSharingDapp/contract.sol\":1945:2385  function getComment(uint256 _videoId, uint256 _commentId) public view returns (string memory, address, uint256) {... */\n      swap3\n      pop\n      swap3\n      pop\n      swap3\n      jump\t// out\n        /* \"Documents/GitHub/VideoSharingDapp/contract.sol\":2391:2480  function getVideoCount() public view returns (uint256) {... */\n    tag_34:\n        /* \"Documents/GitHub/VideoSharingDapp/contract.sol\":2437:2444  uint256 */\n      0x00\n        /* \"Documents/GitHub/VideoSharingDapp/contract.sol\":2463:2473  videoCount */\n      sload(0x01)\n        /* \"Documents/GitHub/VideoSharingDapp/contract.sol\":2456:2473  return videoCount */\n      swap1\n      pop\n        /* \"Documents/GitHub/VideoSharingDapp/contract.sol\":2391:2480  function getVideoCount() public view returns (uint256) {... */\n      swap1\n      jump\t// out\n        /* \"Documents/GitHub/VideoSharingDapp/contract.sol\":1179:1578  function addComment(uint256 _videoId, string memory _text) public {... */\n    tag_39:\n        /* \"Documents/GitHub/VideoSharingDapp/contract.sol\":1275:1285  videoCount */\n      sload(0x01)\n        /* \"Documents/GitHub/VideoSharingDapp/contract.sol\":1263:1271  _videoId */\n      dup3\n        /* \"Documents/GitHub/VideoSharingDapp/contract.sol\":1263:1285  _videoId <= videoCount */\n      gt\n      iszero\n        /* \"Documents/GitHub/VideoSharingDapp/contract.sol\":1263:1301  _videoId <= videoCount && _videoId > 0 */\n      dup1\n      iszero\n      tag_96\n      jumpi\n      pop\n        /* \"Documents/GitHub/VideoSharingDapp/contract.sol\":1300:1301  0 */\n      0x00\n        /* \"Documents/GitHub/VideoSharingDapp/contract.sol\":1289:1297  _videoId */\n      dup3\n        /* \"Documents/GitHub/VideoSharingDapp/contract.sol\":1289:1301  _videoId > 0 */\n      gt\n        /* \"Documents/GitHub/VideoSharingDapp/contract.sol\":1263:1301  _videoId <= videoCount && _videoId > 0 */\n    tag_96:\n        /* \"Documents/GitHub/VideoSharingDapp/contract.sol\":1255:1322  require(_videoId <= videoCount && _videoId > 0, \"Invalid video ID\") */\n      tag_97\n      jumpi\n      mload(0x40)\n      0x08c379a000000000000000000000000000000000000000000000000000000000\n      dup2\n      mstore\n      0x04\n      add\n      tag_98\n      swap1\n      tag_52\n      jump\t// in\n    tag_98:\n      mload(0x40)\n      dup1\n      swap2\n      sub\n      swap1\n      revert\n    tag_97:\n        /* \"Documents/GitHub/VideoSharingDapp/contract.sol\":1332:1351  Video storage video */\n      0x00\n        /* \"Documents/GitHub/VideoSharingDapp/contract.sol\":1354:1360  videos */\n      dup1\n        /* \"Documents/GitHub/VideoSharingDapp/contract.sol\":1354:1370  videos[_videoId] */\n      0x00\n        /* \"Documents/GitHub/VideoSharingDapp/contract.sol\":1361:1369  _videoId */\n      dup5\n        /* \"Documents/GitHub/VideoSharingDapp/contract.sol\":1354:1370  videos[_videoId] */\n      dup2\n      mstore\n      0x20\n      add\n      swap1\n      dup2\n      mstore\n      0x20\n      add\n      0x00\n      keccak256\n        /* \"Documents/GitHub/VideoSharingDapp/contract.sol\":1332:1370  Video storage video = videos[_videoId] */\n      swap1\n      pop\n        /* \"Documents/GitHub/VideoSharingDapp/contract.sol\":1380:1385  video */\n      dup1\n        /* \"Documents/GitHub/VideoSharingDapp/contract.sol\":1380:1398  video.commentCount */\n      0x06\n      add\n      0x00\n        /* \"Documents/GitHub/VideoSharingDapp/contract.sol\":1380:1400  video.commentCount++ */\n      dup2\n      sload\n      dup1\n      swap3\n      swap2\n      swap1\n      tag_99\n      swap1\n      tag_75\n      jump\t// in\n    tag_99:\n      swap2\n      swap1\n      pop\n      sstore\n      pop\n        /* \"Documents/GitHub/VideoSharingDapp/contract.sol\":1447:1490  Comment(msg.sender, _text, block.timestamp) */\n      mload(0x40)\n      dup1\n      0x60\n      add\n      0x40\n      mstore\n      dup1\n        /* \"Documents/GitHub/VideoSharingDapp/contract.sol\":1455:1465  msg.sender */\n      caller\n        /* \"Documents/GitHub/VideoSharingDapp/contract.sol\":1447:1490  Comment(msg.sender, _text, block.timestamp) */\n      0xffffffffffffffffffffffffffffffffffffffff\n      and\n      dup2\n      mstore\n      0x20\n      add\n        /* \"Documents/GitHub/VideoSharingDapp/contract.sol\":1467:1472  _text */\n      dup4\n        /* \"Documents/GitHub/VideoSharingDapp/contract.sol\":1447:1490  Comment(msg.sender, _text, block.timestamp) */\n      dup2\n      mstore\n      0x20\n      add\n        /* \"Documents/GitHub/VideoSharingDapp/contract.sol\":1474:1489  block.timestamp */\n      timestamp\n        /* \"Documents/GitHub/VideoSharingDapp/contract.sol\":1447:1490  Comment(msg.sender, _text, block.timestamp) */\n      dup2\n      mstore\n      pop\n        /* \"Documents/GitHub/VideoSharingDapp/contract.sol\":1410:1415  video */\n      dup2\n        /* \"Documents/GitHub/VideoSharingDapp/contract.sol\":1410:1424  video.comments */\n      0x05\n      add\n        /* \"Documents/GitHub/VideoSharingDapp/contract.sol\":1410:1444  video.comments[video.commentCount] */\n      0x00\n        /* \"Documents/GitHub/VideoSharingDapp/contract.sol\":1425:1430  video */\n      dup4\n        /* \"Documents/GitHub/VideoSharingDapp/contract.sol\":1425:1443  video.commentCount */\n      0x06\n      add\n      sload\n        /* \"Documents/GitHub/VideoSharingDapp/contract.sol\":1410:1444  video.comments[video.commentCount] */\n      dup2\n      mstore\n      0x20\n      add\n      swap1\n      dup2\n      mstore\n      0x20\n      add\n      0x00\n      keccak256\n        /* \"Documents/GitHub/VideoSharingDapp/contract.sol\":1410:1490  video.comments[video.commentCount] = Comment(msg.sender, _text, block.timestamp) */\n      0x00\n      dup3\n      add\n      mload\n      dup2\n      0x00\n      add\n      exp(0x0100, 0x00)\n      dup2\n      sload\n      dup2\n      0xffffffffffffffffffffffffffffffffffffffff\n      mul\n      not\n      and\n      swap1\n      dup4\n      0xffffffffffffffffffffffffffffffffffffffff\n      and\n      mul\n      or\n      swap1\n      sstore\n      pop\n      0x20\n      dup3\n      add\n      mload\n      dup2\n      0x01\n      add\n      swap1\n      dup2\n      tag_100\n      swap2\n      swap1\n      tag_77\n      jump\t// in\n    tag_100:\n      pop\n      0x40\n      dup3\n      add\n      mload\n      dup2\n      0x02\n      add\n      sstore\n      swap1\n      pop\n      pop\n        /* \"Documents/GitHub/VideoSharingDapp/contract.sol\":1505:1571  CommentAdded(_videoId, video.commentCount, _text, block.timestamp) */\n      0x900a4c5afdb3f75f909ccf2a10a79d00c549dd9fe6a8ac00660440f5c2eb7da7\n        /* \"Documents/GitHub/VideoSharingDapp/contract.sol\":1518:1526  _videoId */\n      dup4\n        /* \"Documents/GitHub/VideoSharingDapp/contract.sol\":1528:1533  video */\n      dup3\n        /* \"Documents/GitHub/VideoSharingDapp/contract.sol\":1528:1546  video.commentCount */\n      0x06\n      add\n      sload\n        /* \"Documents/GitHub/VideoSharingDapp/contract.sol\":1548:1553  _text */\n      dup5\n        /* \"Documents/GitHub/VideoSharingDapp/contract.sol\":1555:1570  block.timestamp */\n      timestamp\n        /* \"Documents/GitHub/VideoSharingDapp/contract.sol\":1505:1571  CommentAdded(_videoId, video.commentCount, _text, block.timestamp) */\n      mload(0x40)\n      tag_101\n      swap5\n      swap4\n      swap3\n      swap2\n      swap1\n      tag_102\n      jump\t// in\n    tag_101:\n      mload(0x40)\n      dup1\n      swap2\n      sub\n      swap1\n      log1\n        /* \"Documents/GitHub/VideoSharingDapp/contract.sol\":1245:1578  {... */\n      pop\n        /* \"Documents/GitHub/VideoSharingDapp/contract.sol\":1179:1578  function addComment(uint256 _videoId, string memory _text) public {... */\n      pop\n      pop\n      jump\t// out\n        /* \"Documents/GitHub/VideoSharingDapp/contract.sol\":458:487  uint256 public videoCount = 0 */\n    tag_41:\n      sload(0x01)\n      dup2\n      jump\t// out\n        /* \"Documents/GitHub/VideoSharingDapp/contract.sol\":413:452  mapping(uint256 => Video) public videos */\n    tag_45:\n      mstore(0x20, 0x00)\n      dup1\n      0x00\n      mstore\n      keccak256(0x00, 0x40)\n      0x00\n      swap2\n      pop\n      swap1\n      pop\n      dup1\n      0x00\n      add\n      0x00\n      swap1\n      sload\n      swap1\n      0x0100\n      exp\n      swap1\n      div\n      0xffffffffffffffffffffffffffffffffffffffff\n      and\n      swap1\n      dup1\n      0x01\n      add\n      dup1\n      sload\n      tag_103\n      swap1\n      tag_58\n      jump\t// in\n    tag_103:\n      dup1\n      0x1f\n      add\n      0x20\n      dup1\n      swap2\n      div\n      mul\n      0x20\n      add\n      mload(0x40)\n      swap1\n      dup2\n      add\n      0x40\n      mstore\n      dup1\n      swap3\n      swap2\n      swap1\n      dup2\n      dup2\n      mstore\n      0x20\n      add\n      dup3\n      dup1\n      sload\n      tag_104\n      swap1\n      tag_58\n      jump\t// in\n    tag_104:\n      dup1\n      iszero\n      tag_105\n      jumpi\n      dup1\n      0x1f\n      lt\n      tag_106\n      jumpi\n      0x0100\n      dup1\n      dup4\n      sload\n      div\n      mul\n      dup4\n      mstore\n      swap2\n      0x20\n      add\n      swap2\n      jump(tag_105)\n    tag_106:\n      dup3\n      add\n      swap2\n      swap1\n      0x00\n      mstore\n      keccak256(0x00, 0x20)\n      swap1\n    tag_107:\n      dup2\n      sload\n      dup2\n      mstore\n      swap1\n      0x01\n      add\n      swap1\n      0x20\n      add\n      dup1\n      dup4\n      gt\n      tag_107\n      jumpi\n      dup3\n      swap1\n      sub\n      0x1f\n      and\n      dup3\n      add\n      swap2\n    tag_105:\n      pop\n      pop\n      pop\n      pop\n      pop\n      swap1\n      dup1\n      0x02\n      add\n      dup1\n      sload\n      tag_108\n      swap1\n      tag_58\n      jump\t// in\n    tag_108:\n      dup1\n      0x1f\n      add\n      0x20\n      dup1\n      swap2\n      div\n      mul\n      0x20\n      add\n      mload(0x40)\n      swap1\n      dup2\n      add\n      0x40\n      mstore\n      dup1\n      swap3\n      swap2\n      swap1\n      dup2\n      dup2\n      mstore\n      0x20\n      add\n      dup3\n      dup1\n      sload\n      tag_109\n      swap1\n      tag_58\n      jump\t// in\n    tag_109:\n      dup1\n      iszero\n      tag_110\n      jumpi\n      dup1\n      0x1f\n      lt\n      tag_111\n      jumpi\n      0x0100\n      dup1\n      dup4\n      sload\n      div\n      mul\n      dup4\n      mstore\n      swap2\n      0x20\n      add\n      swap2\n      jump(tag_110)\n    tag_111:\n      dup3\n      add\n      swap2\n      swap1\n      0x00\n      mstore\n      keccak256(0x00, 0x20)\n      swap1\n    tag_112:\n      dup2\n      sload\n      dup2\n      mstore\n      swap1\n      0x01\n      add\n      swap1\n      0x20\n      add\n      dup1\n      dup4\n      gt\n      tag_112\n      jumpi\n      dup3\n      swap1\n      sub\n      0x1f\n      and\n      dup3\n      add\n      swap2\n    tag_110:\n      pop\n      pop\n      pop\n      pop\n      pop\n      swap1\n      dup1\n      0x03\n      add\n      dup1\n      sload\n      tag_113\n      swap1\n      tag_58\n      jump\t// in\n    tag_113:\n      dup1\n      0x1f\n      add\n      0x20\n      dup1\n      swap2\n      div\n      mul\n      0x20\n      add\n      mload(0x40)\n      swap1\n      dup2\n      add\n      0x40\n      mstore\n      dup1\n      swap3\n      swap2\n      swap1\n      dup2\n      dup2\n      mstore\n      0x20\n      add\n      dup3\n      dup1\n      sload\n      tag_114\n      swap1\n      tag_58\n      jump\t// in\n    tag_114:\n      dup1\n      iszero\n      tag_115\n      jumpi\n      dup1\n      0x1f\n      lt\n      tag_116\n      jumpi\n      0x0100\n      dup1\n      dup4\n      sload\n      div\n      mul\n      dup4\n      mstore\n      swap2\n      0x20\n      add\n      swap2\n      jump(tag_115)\n    tag_116:\n      dup3\n      add\n      swap2\n      swap1\n      0x00\n      mstore\n      keccak256(0x00, 0x20)\n      swap1\n    tag_117:\n      dup2\n      sload\n      dup2\n      mstore\n      swap1\n      0x01\n      add\n      swap1\n      0x20\n      add\n      dup1\n      dup4\n      gt\n      tag_117\n      jumpi\n      dup3\n      swap1\n      sub\n      0x1f\n      and\n      dup3\n      add\n      swap2\n    tag_115:\n      pop\n      pop\n      pop\n      pop\n      pop\n      swap1\n      dup1\n      0x04\n      add\n      sload\n      swap1\n      dup1\n      0x06\n      add\n      sload\n      swap1\n      pop\n      dup7\n      jump\t// out\n        /* \"#utility.yul\":7:82   */\n    tag_118:\n        /* \"#utility.yul\":40:46   */\n      0x00\n        /* \"#utility.yul\":73:75   */\n      0x40\n        /* \"#utility.yul\":67:76   */\n      mload\n        /* \"#utility.yul\":57:76   */\n      swap1\n      pop\n        /* \"#utility.yul\":7:82   */\n      swap1\n      jump\t// out\n        /* \"#utility.yul\":88:205   */\n    tag_119:\n        /* \"#utility.yul\":197:198   */\n      0x00\n        /* \"#utility.yul\":194:195   */\n      dup1\n        /* \"#utility.yul\":187:199   */\n      revert\n        /* \"#utility.yul\":211:328   */\n    tag_120:\n        /* \"#utility.yul\":320:321   */\n      0x00\n        /* \"#utility.yul\":317:318   */\n      dup1\n        /* \"#utility.yul\":310:322   */\n      revert\n        /* \"#utility.yul\":334:411   */\n    tag_121:\n        /* \"#utility.yul\":371:378   */\n      0x00\n        /* \"#utility.yul\":400:405   */\n      dup2\n        /* \"#utility.yul\":389:405   */\n      swap1\n      pop\n        /* \"#utility.yul\":334:411   */\n      swap2\n      swap1\n      pop\n      jump\t// out\n        /* \"#utility.yul\":417:539   */\n    tag_122:\n        /* \"#utility.yul\":490:514   */\n      tag_169\n        /* \"#utility.yul\":508:513   */\n      dup2\n        /* \"#utility.yul\":490:514   */\n      tag_121\n      jump\t// in\n    tag_169:\n        /* \"#utility.yul\":483:488   */\n      dup2\n        /* \"#utility.yul\":480:515   */\n      eq\n        /* \"#utility.yul\":470:533   */\n      tag_170\n      jumpi\n        /* \"#utility.yul\":529:530   */\n      0x00\n        /* \"#utility.yul\":526:527   */\n      dup1\n        /* \"#utility.yul\":519:531   */\n      revert\n        /* \"#utility.yul\":470:533   */\n    tag_170:\n        /* \"#utility.yul\":417:539   */\n      pop\n      jump\t// out\n        /* \"#utility.yul\":545:684   */\n    tag_123:\n        /* \"#utility.yul\":591:596   */\n      0x00\n        /* \"#utility.yul\":629:635   */\n      dup2\n        /* \"#utility.yul\":616:636   */\n      calldataload\n        /* \"#utility.yul\":607:636   */\n      swap1\n      pop\n        /* \"#utility.yul\":645:678   */\n      tag_172\n        /* \"#utility.yul\":672:677   */\n      dup2\n        /* \"#utility.yul\":645:678   */\n      tag_122\n      jump\t// in\n    tag_172:\n        /* \"#utility.yul\":545:684   */\n      swap3\n      swap2\n      pop\n      pop\n      jump\t// out\n        /* \"#utility.yul\":690:1019   */\n    tag_14:\n        /* \"#utility.yul\":749:755   */\n      0x00\n        /* \"#utility.yul\":798:800   */\n      0x20\n        /* \"#utility.yul\":786:795   */\n      dup3\n        /* \"#utility.yul\":777:784   */\n      dup5\n        /* \"#utility.yul\":773:796   */\n      sub\n        /* \"#utility.yul\":769:801   */\n      slt\n        /* \"#utility.yul\":766:885   */\n      iszero\n      tag_174\n      jumpi\n        /* \"#utility.yul\":804:883   */\n      tag_175\n      tag_119\n      jump\t// in\n    tag_175:\n        /* \"#utility.yul\":766:885   */\n    tag_174:\n        /* \"#utility.yul\":924:925   */\n      0x00\n        /* \"#utility.yul\":949:1002   */\n      tag_176\n        /* \"#utility.yul\":994:1001   */\n      dup5\n        /* \"#utility.yul\":985:991   */\n      dup3\n        /* \"#utility.yul\":974:983   */\n      dup6\n        /* \"#utility.yul\":970:992   */\n      add\n        /* \"#utility.yul\":949:1002   */\n      tag_123\n      jump\t// in\n    tag_176:\n        /* \"#utility.yul\":939:1002   */\n      swap2\n      pop\n        /* \"#utility.yul\":895:1012   */\n      pop\n        /* \"#utility.yul\":690:1019   */\n      swap3\n      swap2\n      pop\n      pop\n      jump\t// out\n        /* \"#utility.yul\":1025:1143   */\n    tag_124:\n        /* \"#utility.yul\":1112:1136   */\n      tag_178\n        /* \"#utility.yul\":1130:1135   */\n      dup2\n        /* \"#utility.yul\":1112:1136   */\n      tag_121\n      jump\t// in\n    tag_178:\n        /* \"#utility.yul\":1107:1110   */\n      dup3\n        /* \"#utility.yul\":1100:1137   */\n      mstore\n        /* \"#utility.yul\":1025:1143   */\n      pop\n      pop\n      jump\t// out\n        /* \"#utility.yul\":1149:1371   */\n    tag_17:\n        /* \"#utility.yul\":1242:1246   */\n      0x00\n        /* \"#utility.yul\":1280:1282   */\n      0x20\n        /* \"#utility.yul\":1269:1278   */\n      dup3\n        /* \"#utility.yul\":1265:1283   */\n      add\n        /* \"#utility.yul\":1257:1283   */\n      swap1\n      pop\n        /* \"#utility.yul\":1293:1364   */\n      tag_180\n        /* \"#utility.yul\":1361:1362   */\n      0x00\n        /* \"#utility.yul\":1350:1359   */\n      dup4\n        /* \"#utility.yul\":1346:1363   */\n      add\n        /* \"#utility.yul\":1337:1343   */\n      dup5\n        /* \"#utility.yul\":1293:1364   */\n      tag_124\n      jump\t// in\n    tag_180:\n        /* \"#utility.yul\":1149:1371   */\n      swap3\n      swap2\n      pop\n      pop\n      jump\t// out\n        /* \"#utility.yul\":1377:1476   */\n    tag_125:\n        /* \"#utility.yul\":1429:1435   */\n      0x00\n        /* \"#utility.yul\":1463:1468   */\n      dup2\n        /* \"#utility.yul\":1457:1469   */\n      mload\n        /* \"#utility.yul\":1447:1469   */\n      swap1\n      pop\n        /* \"#utility.yul\":1377:1476   */\n      swap2\n      swap1\n      pop\n      jump\t// out\n        /* \"#utility.yul\":1482:1651   */\n    tag_126:\n        /* \"#utility.yul\":1566:1577   */\n      0x00\n        /* \"#utility.yul\":1600:1606   */\n      dup3\n        /* \"#utility.yul\":1595:1598   */\n      dup3\n        /* \"#utility.yul\":1588:1607   */\n      mstore\n        /* \"#utility.yul\":1640:1644   */\n      0x20\n        /* \"#utility.yul\":1635:1638   */\n      dup3\n        /* \"#utility.yul\":1631:1645   */\n      add\n        /* \"#utility.yul\":1616:1645   */\n      swap1\n      pop\n        /* \"#utility.yul\":1482:1651   */\n      swap3\n      swap2\n      pop\n      pop\n      jump\t// out\n        /* \"#utility.yul\":1657:1903   */\n    tag_127:\n        /* \"#utility.yul\":1738:1739   */\n      0x00\n        /* \"#utility.yul\":1748:1861   */\n    tag_184:\n        /* \"#utility.yul\":1762:1768   */\n      dup4\n        /* \"#utility.yul\":1759:1760   */\n      dup2\n        /* \"#utility.yul\":1756:1769   */\n      lt\n        /* \"#utility.yul\":1748:1861   */\n      iszero\n      tag_186\n      jumpi\n        /* \"#utility.yul\":1847:1848   */\n      dup1\n        /* \"#utility.yul\":1842:1845   */\n      dup3\n        /* \"#utility.yul\":1838:1849   */\n      add\n        /* \"#utility.yul\":1832:1850   */\n      mload\n        /* \"#utility.yul\":1828:1829   */\n      dup2\n        /* \"#utility.yul\":1823:1826   */\n      dup5\n        /* \"#utility.yul\":1819:1830   */\n      add\n        /* \"#utility.yul\":1812:1851   */\n      mstore\n        /* \"#utility.yul\":1784:1786   */\n      0x20\n        /* \"#utility.yul\":1781:1782   */\n      dup2\n        /* \"#utility.yul\":1777:1787   */\n      add\n        /* \"#utility.yul\":1772:1787   */\n      swap1\n      pop\n        /* \"#utility.yul\":1748:1861   */\n      jump(tag_184)\n    tag_186:\n        /* \"#utility.yul\":1895:1896   */\n      0x00\n        /* \"#utility.yul\":1886:1892   */\n      dup5\n        /* \"#utility.yul\":1881:1884   */\n      dup5\n        /* \"#utility.yul\":1877:1893   */\n      add\n        /* \"#utility.yul\":1870:1897   */\n      mstore\n        /* \"#utility.yul\":1719:1903   */\n      pop\n        /* \"#utility.yul\":1657:1903   */\n      pop\n      pop\n      pop\n      jump\t// out\n        /* \"#utility.yul\":1909:2011   */\n    tag_128:\n        /* \"#utility.yul\":1950:1956   */\n      0x00\n        /* \"#utility.yul\":2001:2003   */\n      0x1f\n        /* \"#utility.yul\":1997:2004   */\n      not\n        /* \"#utility.yul\":1992:1994   */\n      0x1f\n        /* \"#utility.yul\":1985:1990   */\n      dup4\n        /* \"#utility.yul\":1981:1995   */\n      add\n        /* \"#utility.yul\":1977:2005   */\n      and\n        /* \"#utility.yul\":1967:2005   */\n      swap1\n      pop\n        /* \"#utility.yul\":1909:2011   */\n      swap2\n      swap1\n      pop\n      jump\t// out\n        /* \"#utility.yul\":2017:2394   */\n    tag_129:\n        /* \"#utility.yul\":2105:2108   */\n      0x00\n        /* \"#utility.yul\":2133:2172   */\n      tag_189\n        /* \"#utility.yul\":2166:2171   */\n      dup3\n        /* \"#utility.yul\":2133:2172   */\n      tag_125\n      jump\t// in\n    tag_189:\n        /* \"#utility.yul\":2188:2259   */\n      tag_190\n        /* \"#utility.yul\":2252:2258   */\n      dup2\n        /* \"#utility.yul\":2247:2250   */\n      dup6\n        /* \"#utility.yul\":2188:2259   */\n      tag_126\n      jump\t// in\n    tag_190:\n        /* \"#utility.yul\":2181:2259   */\n      swap4\n      pop\n        /* \"#utility.yul\":2268:2333   */\n      tag_191\n        /* \"#utility.yul\":2326:2332   */\n      dup2\n        /* \"#utility.yul\":2321:2324   */\n      dup6\n        /* \"#utility.yul\":2314:2318   */\n      0x20\n        /* \"#utility.yul\":2307:2312   */\n      dup7\n        /* \"#utility.yul\":2303:2319   */\n      add\n        /* \"#utility.yul\":2268:2333   */\n      tag_127\n      jump\t// in\n    tag_191:\n        /* \"#utility.yul\":2358:2387   */\n      tag_192\n        /* \"#utility.yul\":2380:2386   */\n      dup2\n        /* \"#utility.yul\":2358:2387   */\n      tag_128\n      jump\t// in\n    tag_192:\n        /* \"#utility.yul\":2353:2356   */\n      dup5\n        /* \"#utility.yul\":2349:2388   */\n      add\n        /* \"#utility.yul\":2342:2388   */\n      swap2\n      pop\n        /* \"#utility.yul\":2109:2394   */\n      pop\n        /* \"#utility.yul\":2017:2394   */\n      swap3\n      swap2\n      pop\n      pop\n      jump\t// out\n        /* \"#utility.yul\":2400:3337   */\n    tag_22:\n        /* \"#utility.yul\":2665:2669   */\n      0x00\n        /* \"#utility.yul\":2703:2706   */\n      0xa0\n        /* \"#utility.yul\":2692:2701   */\n      dup3\n        /* \"#utility.yul\":2688:2707   */\n      add\n        /* \"#utility.yul\":2680:2707   */\n      swap1\n      pop\n        /* \"#utility.yul\":2753:2762   */\n      dup2\n        /* \"#utility.yul\":2747:2751   */\n      dup2\n        /* \"#utility.yul\":2743:2763   */\n      sub\n        /* \"#utility.yul\":2739:2740   */\n      0x00\n        /* \"#utility.yul\":2728:2737   */\n      dup4\n        /* \"#utility.yul\":2724:2741   */\n      add\n        /* \"#utility.yul\":2717:2764   */\n      mstore\n        /* \"#utility.yul\":2781:2859   */\n      tag_194\n        /* \"#utility.yul\":2854:2858   */\n      dup2\n        /* \"#utility.yul\":2845:2851   */\n      dup9\n        /* \"#utility.yul\":2781:2859   */\n      tag_129\n      jump\t// in\n    tag_194:\n        /* \"#utility.yul\":2773:2859   */\n      swap1\n      pop\n        /* \"#utility.yul\":2906:2915   */\n      dup2\n        /* \"#utility.yul\":2900:2904   */\n      dup2\n        /* \"#utility.yul\":2896:2916   */\n      sub\n        /* \"#utility.yul\":2891:2893   */\n      0x20\n        /* \"#utility.yul\":2880:2889   */\n      dup4\n        /* \"#utility.yul\":2876:2894   */\n      add\n        /* \"#utility.yul\":2869:2917   */\n      mstore\n        /* \"#utility.yul\":2934:3012   */\n      tag_195\n        /* \"#utility.yul\":3007:3011   */\n      dup2\n        /* \"#utility.yul\":2998:3004   */\n      dup8\n        /* \"#utility.yul\":2934:3012   */\n      tag_129\n      jump\t// in\n    tag_195:\n        /* \"#utility.yul\":2926:3012   */\n      swap1\n      pop\n        /* \"#utility.yul\":3059:3068   */\n      dup2\n        /* \"#utility.yul\":3053:3057   */\n      dup2\n        /* \"#utility.yul\":3049:3069   */\n      sub\n        /* \"#utility.yul\":3044:3046   */\n      0x40\n        /* \"#utility.yul\":3033:3042   */\n      dup4\n        /* \"#utility.yul\":3029:3047   */\n      add\n        /* \"#utility.yul\":3022:3070   */\n      mstore\n        /* \"#utility.yul\":3087:3165   */\n      tag_196\n        /* \"#utility.yul\":3160:3164   */\n      dup2\n        /* \"#utility.yul\":3151:3157   */\n      dup7\n        /* \"#utility.yul\":3087:3165   */\n      tag_129\n      jump\t// in\n    tag_196:\n        /* \"#utility.yul\":3079:3165   */\n      swap1\n      pop\n        /* \"#utility.yul\":3175:3247   */\n      tag_197\n        /* \"#utility.yul\":3243:3245   */\n      0x60\n        /* \"#utility.yul\":3232:3241   */\n      dup4\n        /* \"#utility.yul\":3228:3246   */\n      add\n        /* \"#utility.yul\":3219:3225   */\n      dup6\n        /* \"#utility.yul\":3175:3247   */\n      tag_124\n      jump\t// in\n    tag_197:\n        /* \"#utility.yul\":3257:3330   */\n      tag_198\n        /* \"#utility.yul\":3325:3328   */\n      0x80\n        /* \"#utility.yul\":3314:3323   */\n      dup4\n        /* \"#utility.yul\":3310:3329   */\n      add\n        /* \"#utility.yul\":3301:3307   */\n      dup5\n        /* \"#utility.yul\":3257:3330   */\n      tag_124\n      jump\t// in\n    tag_198:\n        /* \"#utility.yul\":2400:3337   */\n      swap7\n      swap6\n      pop\n      pop\n      pop\n      pop\n      pop\n      pop\n      jump\t// out\n        /* \"#utility.yul\":3343:3460   */\n    tag_130:\n        /* \"#utility.yul\":3452:3453   */\n      0x00\n        /* \"#utility.yul\":3449:3450   */\n      dup1\n        /* \"#utility.yul\":3442:3454   */\n      revert\n        /* \"#utility.yul\":3466:3583   */\n    tag_131:\n        /* \"#utility.yul\":3575:3576   */\n      0x00\n        /* \"#utility.yul\":3572:3573   */\n      dup1\n        /* \"#utility.yul\":3565:3577   */\n      revert\n        /* \"#utility.yul\":3589:3769   */\n    tag_132:\n        /* \"#utility.yul\":3637:3714   */\n      0x4e487b7100000000000000000000000000000000000000000000000000000000\n        /* \"#utility.yul\":3634:3635   */\n      0x00\n        /* \"#utility.yul\":3627:3715   */\n      mstore\n        /* \"#utility.yul\":3734:3738   */\n      0x41\n        /* \"#utility.yul\":3731:3732   */\n      0x04\n        /* \"#utility.yul\":3724:3739   */\n      mstore\n        /* \"#utility.yul\":3758:3762   */\n      0x24\n        /* \"#utility.yul\":3755:3756   */\n      0x00\n        /* \"#utility.yul\":3748:3763   */\n      revert\n        /* \"#utility.yul\":3775:4056   */\n    tag_133:\n        /* \"#utility.yul\":3858:3885   */\n      tag_203\n        /* \"#utility.yul\":3880:3884   */\n      dup3\n        /* \"#utility.yul\":3858:3885   */\n      tag_128\n      jump\t// in\n    tag_203:\n        /* \"#utility.yul\":3850:3856   */\n      dup2\n        /* \"#utility.yul\":3846:3886   */\n      add\n        /* \"#utility.yul\":3988:3994   */\n      dup2\n        /* \"#utility.yul\":3976:3986   */\n      dup2\n        /* \"#utility.yul\":3973:3995   */\n      lt\n        /* \"#utility.yul\":3952:3970   */\n      0xffffffffffffffff\n        /* \"#utility.yul\":3940:3950   */\n      dup3\n        /* \"#utility.yul\":3937:3971   */\n      gt\n        /* \"#utility.yul\":3934:3996   */\n      or\n        /* \"#utility.yul\":3931:4019   */\n      iszero\n      tag_204\n      jumpi\n        /* \"#utility.yul\":3999:4017   */\n      tag_205\n      tag_132\n      jump\t// in\n    tag_205:\n        /* \"#utility.yul\":3931:4019   */\n    tag_204:\n        /* \"#utility.yul\":4039:4049   */\n      dup1\n        /* \"#utility.yul\":4035:4037   */\n      0x40\n        /* \"#utility.yul\":4028:4050   */\n      mstore\n        /* \"#utility.yul\":3818:4056   */\n      pop\n        /* \"#utility.yul\":3775:4056   */\n      pop\n      pop\n      jump\t// out\n        /* \"#utility.yul\":4062:4191   */\n    tag_134:\n        /* \"#utility.yul\":4096:4102   */\n      0x00\n        /* \"#utility.yul\":4123:4143   */\n      tag_207\n      tag_118\n      jump\t// in\n    tag_207:\n        /* \"#utility.yul\":4113:4143   */\n      swap1\n      pop\n        /* \"#utility.yul\":4152:4185   */\n      tag_208\n        /* \"#utility.yul\":4180:4184   */\n      dup3\n        /* \"#utility.yul\":4172:4178   */\n      dup3\n        /* \"#utility.yul\":4152:4185   */\n      tag_133\n      jump\t// in\n    tag_208:\n        /* \"#utility.yul\":4062:4191   */\n      swap2\n      swap1\n      pop\n      jump\t// out\n        /* \"#utility.yul\":4197:4505   */\n    tag_135:\n        /* \"#utility.yul\":4259:4263   */\n      0x00\n        /* \"#utility.yul\":4349:4367   */\n      0xffffffffffffffff\n        /* \"#utility.yul\":4341:4347   */\n      dup3\n        /* \"#utility.yul\":4338:4368   */\n      gt\n        /* \"#utility.yul\":4335:4391   */\n      iszero\n      tag_210\n      jumpi\n        /* \"#utility.yul\":4371:4389   */\n      tag_211\n      tag_132\n      jump\t// in\n    tag_211:\n        /* \"#utility.yul\":4335:4391   */\n    tag_210:\n        /* \"#utility.yul\":4409:4438   */\n      tag_212\n        /* \"#utility.yul\":4431:4437   */\n      dup3\n        /* \"#utility.yul\":4409:4438   */\n      tag_128\n      jump\t// in\n    tag_212:\n        /* \"#utility.yul\":4401:4438   */\n      swap1\n      pop\n        /* \"#utility.yul\":4493:4497   */\n      0x20\n        /* \"#utility.yul\":4487:4491   */\n      dup2\n        /* \"#utility.yul\":4483:4498   */\n      add\n        /* \"#utility.yul\":4475:4498   */\n      swap1\n      pop\n        /* \"#utility.yul\":4197:4505   */\n      swap2\n      swap1\n      pop\n      jump\t// out\n        /* \"#utility.yul\":4511:4657   */\n    tag_136:\n        /* \"#utility.yul\":4608:4614   */\n      dup3\n        /* \"#utility.yul\":4603:4606   */\n      dup2\n        /* \"#utility.yul\":4598:4601   */\n      dup4\n        /* \"#utility.yul\":4585:4615   */\n      calldatacopy\n        /* \"#utility.yul\":4649:4650   */\n      0x00\n        /* \"#utility.yul\":4640:4646   */\n      dup4\n        /* \"#utility.yul\":4635:4638   */\n      dup4\n        /* \"#utility.yul\":4631:4647   */\n      add\n        /* \"#utility.yul\":4624:4651   */\n      mstore\n        /* \"#utility.yul\":4511:4657   */\n      pop\n      pop\n      pop\n      jump\t// out\n        /* \"#utility.yul\":4663:5088   */\n    tag_137:\n        /* \"#utility.yul\":4741:4746   */\n      0x00\n        /* \"#utility.yul\":4766:4832   */\n      tag_215\n        /* \"#utility.yul\":4782:4831   */\n      tag_216\n        /* \"#utility.yul\":4824:4830   */\n      dup5\n        /* \"#utility.yul\":4782:4831   */\n      tag_135\n      jump\t// in\n    tag_216:\n        /* \"#utility.yul\":4766:4832   */\n      tag_134\n      jump\t// in\n    tag_215:\n        /* \"#utility.yul\":4757:4832   */\n      swap1\n      pop\n        /* \"#utility.yul\":4855:4861   */\n      dup3\n        /* \"#utility.yul\":4848:4853   */\n      dup2\n        /* \"#utility.yul\":4841:4862   */\n      mstore\n        /* \"#utility.yul\":4893:4897   */\n      0x20\n        /* \"#utility.yul\":4886:4891   */\n      dup2\n        /* \"#utility.yul\":4882:4898   */\n      add\n        /* \"#utility.yul\":4931:4934   */\n      dup5\n        /* \"#utility.yul\":4922:4928   */\n      dup5\n        /* \"#utility.yul\":4917:4920   */\n      dup5\n        /* \"#utility.yul\":4913:4929   */\n      add\n        /* \"#utility.yul\":4910:4935   */\n      gt\n        /* \"#utility.yul\":4907:5019   */\n      iszero\n      tag_217\n      jumpi\n        /* \"#utility.yul\":4938:5017   */\n      tag_218\n      tag_131\n      jump\t// in\n    tag_218:\n        /* \"#utility.yul\":4907:5019   */\n    tag_217:\n        /* \"#utility.yul\":5028:5082   */\n      tag_219\n        /* \"#utility.yul\":5075:5081   */\n      dup5\n        /* \"#utility.yul\":5070:5073   */\n      dup3\n        /* \"#utility.yul\":5065:5068   */\n      dup6\n        /* \"#utility.yul\":5028:5082   */\n      tag_136\n      jump\t// in\n    tag_219:\n        /* \"#utility.yul\":4747:5088   */\n      pop\n        /* \"#utility.yul\":4663:5088   */\n      swap4\n      swap3\n      pop\n      pop\n      pop\n      jump\t// out\n        /* \"#utility.yul\":5108:5448   */\n    tag_138:\n        /* \"#utility.yul\":5164:5169   */\n      0x00\n        /* \"#utility.yul\":5213:5216   */\n      dup3\n        /* \"#utility.yul\":5206:5210   */\n      0x1f\n        /* \"#utility.yul\":5198:5204   */\n      dup4\n        /* \"#utility.yul\":5194:5211   */\n      add\n        /* \"#utility.yul\":5190:5217   */\n      slt\n        /* \"#utility.yul\":5180:5302   */\n      tag_221\n      jumpi\n        /* \"#utility.yul\":5221:5300   */\n      tag_222\n      tag_130\n      jump\t// in\n    tag_222:\n        /* \"#utility.yul\":5180:5302   */\n    tag_221:\n        /* \"#utility.yul\":5338:5344   */\n      dup2\n        /* \"#utility.yul\":5325:5345   */\n      calldataload\n        /* \"#utility.yul\":5363:5442   */\n      tag_223\n        /* \"#utility.yul\":5438:5441   */\n      dup5\n        /* \"#utility.yul\":5430:5436   */\n      dup3\n        /* \"#utility.yul\":5423:5427   */\n      0x20\n        /* \"#utility.yul\":5415:5421   */\n      dup7\n        /* \"#utility.yul\":5411:5428   */\n      add\n        /* \"#utility.yul\":5363:5442   */\n      tag_137\n      jump\t// in\n    tag_223:\n        /* \"#utility.yul\":5354:5442   */\n      swap2\n      pop\n        /* \"#utility.yul\":5170:5448   */\n      pop\n        /* \"#utility.yul\":5108:5448   */\n      swap3\n      swap2\n      pop\n      pop\n      jump\t// out\n        /* \"#utility.yul\":5454:6613   */\n    tag_25:\n        /* \"#utility.yul\":5561:5567   */\n      0x00\n        /* \"#utility.yul\":5569:5575   */\n      dup1\n        /* \"#utility.yul\":5577:5583   */\n      0x00\n        /* \"#utility.yul\":5626:5628   */\n      0x60\n        /* \"#utility.yul\":5614:5623   */\n      dup5\n        /* \"#utility.yul\":5605:5612   */\n      dup7\n        /* \"#utility.yul\":5601:5624   */\n      sub\n        /* \"#utility.yul\":5597:5629   */\n      slt\n        /* \"#utility.yul\":5594:5713   */\n      iszero\n      tag_225\n      jumpi\n        /* \"#utility.yul\":5632:5711   */\n      tag_226\n      tag_119\n      jump\t// in\n    tag_226:\n        /* \"#utility.yul\":5594:5713   */\n    tag_225:\n        /* \"#utility.yul\":5780:5781   */\n      0x00\n        /* \"#utility.yul\":5769:5778   */\n      dup5\n        /* \"#utility.yul\":5765:5782   */\n      add\n        /* \"#utility.yul\":5752:5783   */\n      calldataload\n        /* \"#utility.yul\":5810:5828   */\n      0xffffffffffffffff\n        /* \"#utility.yul\":5802:5808   */\n      dup2\n        /* \"#utility.yul\":5799:5829   */\n      gt\n        /* \"#utility.yul\":5796:5913   */\n      iszero\n      tag_227\n      jumpi\n        /* \"#utility.yul\":5832:5911   */\n      tag_228\n      tag_120\n      jump\t// in\n    tag_228:\n        /* \"#utility.yul\":5796:5913   */\n    tag_227:\n        /* \"#utility.yul\":5937:6000   */\n      tag_229\n        /* \"#utility.yul\":5992:5999   */\n      dup7\n        /* \"#utility.yul\":5983:5989   */\n      dup3\n        /* \"#utility.yul\":5972:5981   */\n      dup8\n        /* \"#utility.yul\":5968:5990   */\n      add\n        /* \"#utility.yul\":5937:6000   */\n      tag_138\n      jump\t// in\n    tag_229:\n        /* \"#utility.yul\":5927:6000   */\n      swap4\n      pop\n        /* \"#utility.yul\":5723:6010   */\n      pop\n        /* \"#utility.yul\":6077:6079   */\n      0x20\n        /* \"#utility.yul\":6066:6075   */\n      dup5\n        /* \"#utility.yul\":6062:6080   */\n      add\n        /* \"#utility.yul\":6049:6081   */\n      calldataload\n        /* \"#utility.yul\":6108:6126   */\n      0xffffffffffffffff\n        /* \"#utility.yul\":6100:6106   */\n      dup2\n        /* \"#utility.yul\":6097:6127   */\n      gt\n        /* \"#utility.yul\":6094:6211   */\n      iszero\n      tag_230\n      jumpi\n        /* \"#utility.yul\":6130:6209   */\n      tag_231\n      tag_120\n      jump\t// in\n    tag_231:\n        /* \"#utility.yul\":6094:6211   */\n    tag_230:\n        /* \"#utility.yul\":6235:6298   */\n      tag_232\n        /* \"#utility.yul\":6290:6297   */\n      dup7\n        /* \"#utility.yul\":6281:6287   */\n      dup3\n        /* \"#utility.yul\":6270:6279   */\n      dup8\n        /* \"#utility.yul\":6266:6288   */\n      add\n        /* \"#utility.yul\":6235:6298   */\n      tag_138\n      jump\t// in\n    tag_232:\n        /* \"#utility.yul\":6225:6298   */\n      swap3\n      pop\n        /* \"#utility.yul\":6020:6308   */\n      pop\n        /* \"#utility.yul\":6375:6377   */\n      0x40\n        /* \"#utility.yul\":6364:6373   */\n      dup5\n        /* \"#utility.yul\":6360:6378   */\n      add\n        /* \"#utility.yul\":6347:6379   */\n      calldataload\n        /* \"#utility.yul\":6406:6424   */\n      0xffffffffffffffff\n        /* \"#utility.yul\":6398:6404   */\n      dup2\n        /* \"#utility.yul\":6395:6425   */\n      gt\n        /* \"#utility.yul\":6392:6509   */\n      iszero\n      tag_233\n      jumpi\n        /* \"#utility.yul\":6428:6507   */\n      tag_234\n      tag_120\n      jump\t// in\n    tag_234:\n        /* \"#utility.yul\":6392:6509   */\n    tag_233:\n        /* \"#utility.yul\":6533:6596   */\n      tag_235\n        /* \"#utility.yul\":6588:6595   */\n      dup7\n        /* \"#utility.yul\":6579:6585   */\n      dup3\n        /* \"#utility.yul\":6568:6577   */\n      dup8\n        /* \"#utility.yul\":6564:6586   */\n      add\n        /* \"#utility.yul\":6533:6596   */\n      tag_138\n      jump\t// in\n    tag_235:\n        /* \"#utility.yul\":6523:6596   */\n      swap2\n      pop\n        /* \"#utility.yul\":6318:6606   */\n      pop\n        /* \"#utility.yul\":5454:6613   */\n      swap3\n      pop\n      swap3\n      pop\n      swap3\n      jump\t// out\n        /* \"#utility.yul\":6619:7093   */\n    tag_29:\n        /* \"#utility.yul\":6687:6693   */\n      0x00\n        /* \"#utility.yul\":6695:6701   */\n      dup1\n        /* \"#utility.yul\":6744:6746   */\n      0x40\n        /* \"#utility.yul\":6732:6741   */\n      dup4\n        /* \"#utility.yul\":6723:6730   */\n      dup6\n        /* \"#utility.yul\":6719:6742   */\n      sub\n        /* \"#utility.yul\":6715:6747   */\n      slt\n        /* \"#utility.yul\":6712:6831   */\n      iszero\n      tag_237\n      jumpi\n        /* \"#utility.yul\":6750:6829   */\n      tag_238\n      tag_119\n      jump\t// in\n    tag_238:\n        /* \"#utility.yul\":6712:6831   */\n    tag_237:\n        /* \"#utility.yul\":6870:6871   */\n      0x00\n        /* \"#utility.yul\":6895:6948   */\n      tag_239\n        /* \"#utility.yul\":6940:6947   */\n      dup6\n        /* \"#utility.yul\":6931:6937   */\n      dup3\n        /* \"#utility.yul\":6920:6929   */\n      dup7\n        /* \"#utility.yul\":6916:6938   */\n      add\n        /* \"#utility.yul\":6895:6948   */\n      tag_123\n      jump\t// in\n    tag_239:\n        /* \"#utility.yul\":6885:6948   */\n      swap3\n      pop\n        /* \"#utility.yul\":6841:6958   */\n      pop\n        /* \"#utility.yul\":6997:6999   */\n      0x20\n        /* \"#utility.yul\":7023:7076   */\n      tag_240\n        /* \"#utility.yul\":7068:7075   */\n      dup6\n        /* \"#utility.yul\":7059:7065   */\n      dup3\n        /* \"#utility.yul\":7048:7057   */\n      dup7\n        /* \"#utility.yul\":7044:7066   */\n      add\n        /* \"#utility.yul\":7023:7076   */\n      tag_123\n      jump\t// in\n    tag_240:\n        /* \"#utility.yul\":7013:7076   */\n      swap2\n      pop\n        /* \"#utility.yul\":6968:7086   */\n      pop\n        /* \"#utility.yul\":6619:7093   */\n      swap3\n      pop\n      swap3\n      swap1\n      pop\n      jump\t// out\n        /* \"#utility.yul\":7099:7225   */\n    tag_139:\n        /* \"#utility.yul\":7136:7143   */\n      0x00\n        /* \"#utility.yul\":7176:7218   */\n      0xffffffffffffffffffffffffffffffffffffffff\n        /* \"#utility.yul\":7169:7174   */\n      dup3\n        /* \"#utility.yul\":7165:7219   */\n      and\n        /* \"#utility.yul\":7154:7219   */\n      swap1\n      pop\n        /* \"#utility.yul\":7099:7225   */\n      swap2\n      swap1\n      pop\n      jump\t// out\n        /* \"#utility.yul\":7231:7327   */\n    tag_140:\n        /* \"#utility.yul\":7268:7275   */\n      0x00\n        /* \"#utility.yul\":7297:7321   */\n      tag_243\n        /* \"#utility.yul\":7315:7320   */\n      dup3\n        /* \"#utility.yul\":7297:7321   */\n      tag_139\n      jump\t// in\n    tag_243:\n        /* \"#utility.yul\":7286:7321   */\n      swap1\n      pop\n        /* \"#utility.yul\":7231:7327   */\n      swap2\n      swap1\n      pop\n      jump\t// out\n        /* \"#utility.yul\":7333:7451   */\n    tag_141:\n        /* \"#utility.yul\":7420:7444   */\n      tag_245\n        /* \"#utility.yul\":7438:7443   */\n      dup2\n        /* \"#utility.yul\":7420:7444   */\n      tag_140\n      jump\t// in\n    tag_245:\n        /* \"#utility.yul\":7415:7418   */\n      dup3\n        /* \"#utility.yul\":7408:7445   */\n      mstore\n        /* \"#utility.yul\":7333:7451   */\n      pop\n      pop\n      jump\t// out\n        /* \"#utility.yul\":7457:7990   */\n    tag_32:\n        /* \"#utility.yul\":7626:7630   */\n      0x00\n        /* \"#utility.yul\":7664:7666   */\n      0x60\n        /* \"#utility.yul\":7653:7662   */\n      dup3\n        /* \"#utility.yul\":7649:7667   */\n      add\n        /* \"#utility.yul\":7641:7667   */\n      swap1\n      pop\n        /* \"#utility.yul\":7713:7722   */\n      dup2\n        /* \"#utility.yul\":7707:7711   */\n      dup2\n        /* \"#utility.yul\":7703:7723   */\n      sub\n        /* \"#utility.yul\":7699:7700   */\n      0x00\n        /* \"#utility.yul\":7688:7697   */\n      dup4\n        /* \"#utility.yul\":7684:7701   */\n      add\n        /* \"#utility.yul\":7677:7724   */\n      mstore\n        /* \"#utility.yul\":7741:7819   */\n      tag_247\n        /* \"#utility.yul\":7814:7818   */\n      dup2\n        /* \"#utility.yul\":7805:7811   */\n      dup7\n        /* \"#utility.yul\":7741:7819   */\n      tag_129\n      jump\t// in\n    tag_247:\n        /* \"#utility.yul\":7733:7819   */\n      swap1\n      pop\n        /* \"#utility.yul\":7829:7901   */\n      tag_248\n        /* \"#utility.yul\":7897:7899   */\n      0x20\n        /* \"#utility.yul\":7886:7895   */\n      dup4\n        /* \"#utility.yul\":7882:7900   */\n      add\n        /* \"#utility.yul\":7873:7879   */\n      dup6\n        /* \"#utility.yul\":7829:7901   */\n      tag_141\n      jump\t// in\n    tag_248:\n        /* \"#utility.yul\":7911:7983   */\n      tag_249\n        /* \"#utility.yul\":7979:7981   */\n      0x40\n        /* \"#utility.yul\":7968:7977   */\n      dup4\n        /* \"#utility.yul\":7964:7982   */\n      add\n        /* \"#utility.yul\":7955:7961   */\n      dup5\n        /* \"#utility.yul\":7911:7983   */\n      tag_124\n      jump\t// in\n    tag_249:\n        /* \"#utility.yul\":7457:7990   */\n      swap5\n      swap4\n      pop\n      pop\n      pop\n      pop\n      jump\t// out\n        /* \"#utility.yul\":7996:8650   */\n    tag_38:\n        /* \"#utility.yul\":8074:8080   */\n      0x00\n        /* \"#utility.yul\":8082:8088   */\n      dup1\n        /* \"#utility.yul\":8131:8133   */\n      0x40\n        /* \"#utility.yul\":8119:8128   */\n      dup4\n        /* \"#utility.yul\":8110:8117   */\n      dup6\n        /* \"#utility.yul\":8106:8129   */\n      sub\n        /* \"#utility.yul\":8102:8134   */\n      slt\n        /* \"#utility.yul\":8099:8218   */\n      iszero\n      tag_251\n      jumpi\n        /* \"#utility.yul\":8137:8216   */\n      tag_252\n      tag_119\n      jump\t// in\n    tag_252:\n        /* \"#utility.yul\":8099:8218   */\n    tag_251:\n        /* \"#utility.yul\":8257:8258   */\n      0x00\n        /* \"#utility.yul\":8282:8335   */\n      tag_253\n        /* \"#utility.yul\":8327:8334   */\n      dup6\n        /* \"#utility.yul\":8318:8324   */\n      dup3\n        /* \"#utility.yul\":8307:8316   */\n      dup7\n        /* \"#utility.yul\":8303:8325   */\n      add\n        /* \"#utility.yul\":8282:8335   */\n      tag_123\n      jump\t// in\n    tag_253:\n        /* \"#utility.yul\":8272:8335   */\n      swap3\n      pop\n        /* \"#utility.yul\":8228:8345   */\n      pop\n        /* \"#utility.yul\":8412:8414   */\n      0x20\n        /* \"#utility.yul\":8401:8410   */\n      dup4\n        /* \"#utility.yul\":8397:8415   */\n      add\n        /* \"#utility.yul\":8384:8416   */\n      calldataload\n        /* \"#utility.yul\":8443:8461   */\n      0xffffffffffffffff\n        /* \"#utility.yul\":8435:8441   */\n      dup2\n        /* \"#utility.yul\":8432:8462   */\n      gt\n        /* \"#utility.yul\":8429:8546   */\n      iszero\n      tag_254\n      jumpi\n        /* \"#utility.yul\":8465:8544   */\n      tag_255\n      tag_120\n      jump\t// in\n    tag_255:\n        /* \"#utility.yul\":8429:8546   */\n    tag_254:\n        /* \"#utility.yul\":8570:8633   */\n      tag_256\n        /* \"#utility.yul\":8625:8632   */\n      dup6\n        /* \"#utility.yul\":8616:8622   */\n      dup3\n        /* \"#utility.yul\":8605:8614   */\n      dup7\n        /* \"#utility.yul\":8601:8623   */\n      add\n        /* \"#utility.yul\":8570:8633   */\n      tag_138\n      jump\t// in\n    tag_256:\n        /* \"#utility.yul\":8560:8633   */\n      swap2\n      pop\n        /* \"#utility.yul\":8355:8643   */\n      pop\n        /* \"#utility.yul\":7996:8650   */\n      swap3\n      pop\n      swap3\n      swap1\n      pop\n      jump\t// out\n        /* \"#utility.yul\":8656:9704   */\n    tag_47:\n        /* \"#utility.yul\":8949:8953   */\n      0x00\n        /* \"#utility.yul\":8987:8990   */\n      0xc0\n        /* \"#utility.yul\":8976:8985   */\n      dup3\n        /* \"#utility.yul\":8972:8991   */\n      add\n        /* \"#utility.yul\":8964:8991   */\n      swap1\n      pop\n        /* \"#utility.yul\":9001:9072   */\n      tag_258\n        /* \"#utility.yul\":9069:9070   */\n      0x00\n        /* \"#utility.yul\":9058:9067   */\n      dup4\n        /* \"#utility.yul\":9054:9071   */\n      add\n        /* \"#utility.yul\":9045:9051   */\n      dup10\n        /* \"#utility.yul\":9001:9072   */\n      tag_141\n      jump\t// in\n    tag_258:\n        /* \"#utility.yul\":9119:9128   */\n      dup2\n        /* \"#utility.yul\":9113:9117   */\n      dup2\n        /* \"#utility.yul\":9109:9129   */\n      sub\n        /* \"#utility.yul\":9104:9106   */\n      0x20\n        /* \"#utility.yul\":9093:9102   */\n      dup4\n        /* \"#utility.yul\":9089:9107   */\n      add\n        /* \"#utility.yul\":9082:9130   */\n      mstore\n        /* \"#utility.yul\":9147:9225   */\n      tag_259\n        /* \"#utility.yul\":9220:9224   */\n      dup2\n        /* \"#utility.yul\":9211:9217   */\n      dup9\n        /* \"#utility.yul\":9147:9225   */\n      tag_129\n      jump\t// in\n    tag_259:\n        /* \"#utility.yul\":9139:9225   */\n      swap1\n      pop\n        /* \"#utility.yul\":9272:9281   */\n      dup2\n        /* \"#utility.yul\":9266:9270   */\n      dup2\n        /* \"#utility.yul\":9262:9282   */\n      sub\n        /* \"#utility.yul\":9257:9259   */\n      0x40\n        /* \"#utility.yul\":9246:9255   */\n      dup4\n        /* \"#utility.yul\":9242:9260   */\n      add\n        /* \"#utility.yul\":9235:9283   */\n      mstore\n        /* \"#utility.yul\":9300:9378   */\n      tag_260\n        /* \"#utility.yul\":9373:9377   */\n      dup2\n        /* \"#utility.yul\":9364:9370   */\n      dup8\n        /* \"#utility.yul\":9300:9378   */\n      tag_129\n      jump\t// in\n    tag_260:\n        /* \"#utility.yul\":9292:9378   */\n      swap1\n      pop\n        /* \"#utility.yul\":9425:9434   */\n      dup2\n        /* \"#utility.yul\":9419:9423   */\n      dup2\n        /* \"#utility.yul\":9415:9435   */\n      sub\n        /* \"#utility.yul\":9410:9412   */\n      0x60\n        /* \"#utility.yul\":9399:9408   */\n      dup4\n        /* \"#utility.yul\":9395:9413   */\n      add\n        /* \"#utility.yul\":9388:9436   */\n      mstore\n        /* \"#utility.yul\":9453:9531   */\n      tag_261\n        /* \"#utility.yul\":9526:9530   */\n      dup2\n        /* \"#utility.yul\":9517:9523   */\n      dup7\n        /* \"#utility.yul\":9453:9531   */\n      tag_129\n      jump\t// in\n    tag_261:\n        /* \"#utility.yul\":9445:9531   */\n      swap1\n      pop\n        /* \"#utility.yul\":9541:9614   */\n      tag_262\n        /* \"#utility.yul\":9609:9612   */\n      0x80\n        /* \"#utility.yul\":9598:9607   */\n      dup4\n        /* \"#utility.yul\":9594:9613   */\n      add\n        /* \"#utility.yul\":9585:9591   */\n      dup6\n        /* \"#utility.yul\":9541:9614   */\n      tag_124\n      jump\t// in\n    tag_262:\n        /* \"#utility.yul\":9624:9697   */\n      tag_263\n        /* \"#utility.yul\":9692:9695   */\n      0xa0\n        /* \"#utility.yul\":9681:9690   */\n      dup4\n        /* \"#utility.yul\":9677:9696   */\n      add\n        /* \"#utility.yul\":9668:9674   */\n      dup5\n        /* \"#utility.yul\":9624:9697   */\n      tag_124\n      jump\t// in\n    tag_263:\n        /* \"#utility.yul\":8656:9704   */\n      swap8\n      swap7\n      pop\n      pop\n      pop\n      pop\n      pop\n      pop\n      pop\n      jump\t// out\n        /* \"#utility.yul\":9710:9876   */\n    tag_142:\n        /* \"#utility.yul\":9850:9868   */\n      0x496e76616c696420766964656f20494400000000000000000000000000000000\n        /* \"#utility.yul\":9846:9847   */\n      0x00\n        /* \"#utility.yul\":9838:9844   */\n      dup3\n        /* \"#utility.yul\":9834:9848   */\n      add\n        /* \"#utility.yul\":9827:9869   */\n      mstore\n        /* \"#utility.yul\":9710:9876   */\n      pop\n      jump\t// out\n        /* \"#utility.yul\":9882:10248   */\n    tag_143:\n        /* \"#utility.yul\":10024:10027   */\n      0x00\n        /* \"#utility.yul\":10045:10112   */\n      tag_266\n        /* \"#utility.yul\":10109:10111   */\n      0x10\n        /* \"#utility.yul\":10104:10107   */\n      dup4\n        /* \"#utility.yul\":10045:10112   */\n      tag_126\n      jump\t// in\n    tag_266:\n        /* \"#utility.yul\":10038:10112   */\n      swap2\n      pop\n        /* \"#utility.yul\":10121:10214   */\n      tag_267\n        /* \"#utility.yul\":10210:10213   */\n      dup3\n        /* \"#utility.yul\":10121:10214   */\n      tag_142\n      jump\t// in\n    tag_267:\n        /* \"#utility.yul\":10239:10241   */\n      0x20\n        /* \"#utility.yul\":10234:10237   */\n      dup3\n        /* \"#utility.yul\":10230:10242   */\n      add\n        /* \"#utility.yul\":10223:10242   */\n      swap1\n      pop\n        /* \"#utility.yul\":9882:10248   */\n      swap2\n      swap1\n      pop\n      jump\t// out\n        /* \"#utility.yul\":10254:10673   */\n    tag_52:\n        /* \"#utility.yul\":10420:10424   */\n      0x00\n        /* \"#utility.yul\":10458:10460   */\n      0x20\n        /* \"#utility.yul\":10447:10456   */\n      dup3\n        /* \"#utility.yul\":10443:10461   */\n      add\n        /* \"#utility.yul\":10435:10461   */\n      swap1\n      pop\n        /* \"#utility.yul\":10507:10516   */\n      dup2\n        /* \"#utility.yul\":10501:10505   */\n      dup2\n        /* \"#utility.yul\":10497:10517   */\n      sub\n        /* \"#utility.yul\":10493:10494   */\n      0x00\n        /* \"#utility.yul\":10482:10491   */\n      dup4\n        /* \"#utility.yul\":10478:10495   */\n      add\n        /* \"#utility.yul\":10471:10518   */\n      mstore\n        /* \"#utility.yul\":10535:10666   */\n      tag_269\n        /* \"#utility.yul\":10661:10665   */\n      dup2\n        /* \"#utility.yul\":10535:10666   */\n      tag_143\n      jump\t// in\n    tag_269:\n        /* \"#utility.yul\":10527:10666   */\n      swap1\n      pop\n        /* \"#utility.yul\":10254:10673   */\n      swap2\n      swap1\n      pop\n      jump\t// out\n        /* \"#utility.yul\":10679:10859   */\n    tag_144:\n        /* \"#utility.yul\":10727:10804   */\n      0x4e487b7100000000000000000000000000000000000000000000000000000000\n        /* \"#utility.yul\":10724:10725   */\n      0x00\n        /* \"#utility.yul\":10717:10805   */\n      mstore\n        /* \"#utility.yul\":10824:10828   */\n      0x22\n        /* \"#utility.yul\":10821:10822   */\n      0x04\n        /* \"#utility.yul\":10814:10829   */\n      mstore\n        /* \"#utility.yul\":10848:10852   */\n      0x24\n        /* \"#utility.yul\":10845:10846   */\n      0x00\n        /* \"#utility.yul\":10838:10853   */\n      revert\n        /* \"#utility.yul\":10865:11185   */\n    tag_58:\n        /* \"#utility.yul\":10909:10915   */\n      0x00\n        /* \"#utility.yul\":10946:10947   */\n      0x02\n        /* \"#utility.yul\":10940:10944   */\n      dup3\n        /* \"#utility.yul\":10936:10948   */\n      div\n        /* \"#utility.yul\":10926:10948   */\n      swap1\n      pop\n        /* \"#utility.yul\":10993:10994   */\n      0x01\n        /* \"#utility.yul\":10987:10991   */\n      dup3\n        /* \"#utility.yul\":10983:10995   */\n      and\n        /* \"#utility.yul\":11014:11032   */\n      dup1\n        /* \"#utility.yul\":11004:11085   */\n      tag_272\n      jumpi\n        /* \"#utility.yul\":11070:11074   */\n      0x7f\n        /* \"#utility.yul\":11062:11068   */\n      dup3\n        /* \"#utility.yul\":11058:11075   */\n      and\n        /* \"#utility.yul\":11048:11075   */\n      swap2\n      pop\n        /* \"#utility.yul\":11004:11085   */\n    tag_272:\n        /* \"#utility.yul\":11132:11134   */\n      0x20\n        /* \"#utility.yul\":11124:11130   */\n      dup3\n        /* \"#utility.yul\":11121:11135   */\n      lt\n        /* \"#utility.yul\":11101:11119   */\n      dup2\n        /* \"#utility.yul\":11098:11136   */\n      sub\n        /* \"#utility.yul\":11095:11179   */\n      tag_273\n      jumpi\n        /* \"#utility.yul\":11151:11169   */\n      tag_274\n      tag_144\n      jump\t// in\n    tag_274:\n        /* \"#utility.yul\":11095:11179   */\n    tag_273:\n        /* \"#utility.yul\":10916:11185   */\n      pop\n        /* \"#utility.yul\":10865:11185   */\n      swap2\n      swap1\n      pop\n      jump\t// out\n        /* \"#utility.yul\":11191:11371   */\n    tag_145:\n        /* \"#utility.yul\":11239:11316   */\n      0x4e487b7100000000000000000000000000000000000000000000000000000000\n        /* \"#utility.yul\":11236:11237   */\n      0x00\n        /* \"#utility.yul\":11229:11317   */\n      mstore\n        /* \"#utility.yul\":11336:11340   */\n      0x11\n        /* \"#utility.yul\":11333:11334   */\n      0x04\n        /* \"#utility.yul\":11326:11341   */\n      mstore\n        /* \"#utility.yul\":11360:11364   */\n      0x24\n        /* \"#utility.yul\":11357:11358   */\n      0x00\n        /* \"#utility.yul\":11350:11365   */\n      revert\n        /* \"#utility.yul\":11377:11610   */\n    tag_75:\n        /* \"#utility.yul\":11416:11419   */\n      0x00\n        /* \"#utility.yul\":11439:11463   */\n      tag_277\n        /* \"#utility.yul\":11457:11462   */\n      dup3\n        /* \"#utility.yul\":11439:11463   */\n      tag_121\n      jump\t// in\n    tag_277:\n        /* \"#utility.yul\":11430:11463   */\n      swap2\n      pop\n        /* \"#utility.yul\":11485:11551   */\n      0xffffffffffffffffffffffffffffffffffffffffffffffffffffffffffffffff\n        /* \"#utility.yul\":11478:11483   */\n      dup3\n        /* \"#utility.yul\":11475:11552   */\n      sub\n        /* \"#utility.yul\":11472:11575   */\n      tag_278\n      jumpi\n        /* \"#utility.yul\":11555:11573   */\n      tag_279\n      tag_145\n      jump\t// in\n    tag_279:\n        /* \"#utility.yul\":11472:11575   */\n    tag_278:\n        /* \"#utility.yul\":11602:11603   */\n      0x01\n        /* \"#utility.yul\":11595:11600   */\n      dup3\n        /* \"#utility.yul\":11591:11604   */\n      add\n        /* \"#utility.yul\":11584:11604   */\n      swap1\n      pop\n        /* \"#utility.yul\":11377:11610   */\n      swap2\n      swap1\n      pop\n      jump\t// out\n        /* \"#utility.yul\":11616:11757   */\n    tag_146:\n        /* \"#utility.yul\":11665:11669   */\n      0x00\n        /* \"#utility.yul\":11688:11691   */\n      dup2\n        /* \"#utility.yul\":11680:11691   */\n      swap1\n      pop\n        /* \"#utility.yul\":11711:11714   */\n      dup2\n        /* \"#utility.yul\":11708:11709   */\n      0x00\n        /* \"#utility.yul\":11701:11715   */\n      mstore\n        /* \"#utility.yul\":11745:11749   */\n      0x20\n        /* \"#utility.yul\":11742:11743   */\n      0x00\n        /* \"#utility.yul\":11732:11750   */\n      keccak256\n        /* \"#utility.yul\":11724:11750   */\n      swap1\n      pop\n        /* \"#utility.yul\":11616:11757   */\n      swap2\n      swap1\n      pop\n      jump\t// out\n        /* \"#utility.yul\":11763:11856   */\n    tag_147:\n        /* \"#utility.yul\":11800:11806   */\n      0x00\n        /* \"#utility.yul\":11847:11849   */\n      0x20\n        /* \"#utility.yul\":11842:11844   */\n      0x1f\n        /* \"#utility.yul\":11835:11840   */\n      dup4\n        /* \"#utility.yul\":11831:11845   */\n      add\n        /* \"#utility.yul\":11827:11850   */\n      div\n        /* \"#utility.yul\":11817:11850   */\n      swap1\n      pop\n        /* \"#utility.yul\":11763:11856   */\n      swap2\n      swap1\n      pop\n      jump\t// out\n        /* \"#utility.yul\":11862:11969   */\n    tag_148:\n        /* \"#utility.yul\":11906:11914   */\n      0x00\n        /* \"#utility.yul\":11956:11961   */\n      dup3\n        /* \"#utility.yul\":11950:11954   */\n      dup3\n        /* \"#utility.yul\":11946:11962   */\n      shl\n        /* \"#utility.yul\":11925:11962   */\n      swap1\n      pop\n        /* \"#utility.yul\":11862:11969   */\n      swap3\n      swap2\n      pop\n      pop\n      jump\t// out\n        /* \"#utility.yul\":11975:12368   */\n    tag_149:\n        /* \"#utility.yul\":12044:12050   */\n      0x00\n        /* \"#utility.yul\":12094:12095   */\n      0x08\n        /* \"#utility.yul\":12082:12092   */\n      dup4\n        /* \"#utility.yul\":12078:12096   */\n      mul\n        /* \"#utility.yul\":12117:12214   */\n      tag_284\n        /* \"#utility.yul\":12147:12213   */\n      0xffffffffffffffffffffffffffffffffffffffffffffffffffffffffffffffff\n        /* \"#utility.yul\":12136:12145   */\n      dup3\n        /* \"#utility.yul\":12117:12214   */\n      tag_148\n      jump\t// in\n    tag_284:\n        /* \"#utility.yul\":12235:12274   */\n      tag_285\n        /* \"#utility.yul\":12265:12273   */\n      dup7\n        /* \"#utility.yul\":12254:12263   */\n      dup4\n        /* \"#utility.yul\":12235:12274   */\n      tag_148\n      jump\t// in\n    tag_285:\n        /* \"#utility.yul\":12223:12274   */\n      swap6\n      pop\n        /* \"#utility.yul\":12307:12311   */\n      dup1\n        /* \"#utility.yul\":12303:12312   */\n      not\n        /* \"#utility.yul\":12296:12301   */\n      dup5\n        /* \"#utility.yul\":12292:12313   */\n      and\n        /* \"#utility.yul\":12283:12313   */\n      swap4\n      pop\n        /* \"#utility.yul\":12356:12360   */\n      dup1\n        /* \"#utility.yul\":12346:12354   */\n      dup7\n        /* \"#utility.yul\":12342:12361   */\n      and\n        /* \"#utility.yul\":12335:12340   */\n      dup5\n        /* \"#utility.yul\":12332:12362   */\n      or\n        /* \"#utility.yul\":12322:12362   */\n      swap3\n      pop\n        /* \"#utility.yul\":12051:12368   */\n      pop\n      pop\n        /* \"#utility.yul\":11975:12368   */\n      swap4\n      swap3\n      pop\n      pop\n      pop\n      jump\t// out\n        /* \"#utility.yul\":12374:12434   */\n    tag_150:\n        /* \"#utility.yul\":12402:12405   */\n      0x00\n        /* \"#utility.yul\":12423:12428   */\n      dup2\n        /* \"#utility.yul\":12416:12428   */\n      swap1\n      pop\n        /* \"#utility.yul\":12374:12434   */\n      swap2\n      swap1\n      pop\n      jump\t// out\n        /* \"#utility.yul\":12440:12582   */\n    tag_151:\n        /* \"#utility.yul\":12490:12499   */\n      0x00\n        /* \"#utility.yul\":12523:12576   */\n      tag_288\n        /* \"#utility.yul\":12541:12575   */\n      tag_289\n        /* \"#utility.yul\":12550:12574   */\n      tag_290\n        /* \"#utility.yul\":12568:12573   */\n      dup5\n        /* \"#utility.yul\":12550:12574   */\n      tag_121\n      jump\t// in\n    tag_290:\n        /* \"#utility.yul\":12541:12575   */\n      tag_150\n      jump\t// in\n    tag_289:\n        /* \"#utility.yul\":12523:12576   */\n      tag_121\n      jump\t// in\n    tag_288:\n        /* \"#utility.yul\":12510:12576   */\n      swap1\n      pop\n        /* \"#utility.yul\":12440:12582   */\n      swap2\n      swap1\n      pop\n      jump\t// out\n        /* \"#utility.yul\":12588:12663   */\n    tag_152:\n        /* \"#utility.yul\":12631:12634   */\n      0x00\n        /* \"#utility.yul\":12652:12657   */\n      dup2\n        /* \"#utility.yul\":12645:12657   */\n      swap1\n      pop\n        /* \"#utility.yul\":12588:12663   */\n      swap2\n      swap1\n      pop\n      jump\t// out\n        /* \"#utility.yul\":12669:12938   */\n    tag_153:\n        /* \"#utility.yul\":12779:12818   */\n      tag_293\n        /* \"#utility.yul\":12810:12817   */\n      dup4\n        /* \"#utility.yul\":12779:12818   */\n      tag_151\n      jump\t// in\n    tag_293:\n        /* \"#utility.yul\":12840:12931   */\n      tag_294\n        /* \"#utility.yul\":12889:12930   */\n      tag_295\n        /* \"#utility.yul\":12913:12929   */\n      dup3\n        /* \"#utility.yul\":12889:12930   */\n      tag_152\n      jump\t// in\n    tag_295:\n        /* \"#utility.yul\":12881:12887   */\n      dup5\n        /* \"#utility.yul\":12874:12878   */\n      dup5\n        /* \"#utility.yul\":12868:12879   */\n      sload\n        /* \"#utility.yul\":12840:12931   */\n      tag_149\n      jump\t// in\n    tag_294:\n        /* \"#utility.yul\":12834:12838   */\n      dup3\n        /* \"#utility.yul\":12827:12932   */\n      sstore\n        /* \"#utility.yul\":12745:12938   */\n      pop\n        /* \"#utility.yul\":12669:12938   */\n      pop\n      pop\n      pop\n      jump\t// out\n        /* \"#utility.yul\":12944:13017   */\n    tag_154:\n        /* \"#utility.yul\":12989:12992   */\n      0x00\n        /* \"#utility.yul\":12944:13017   */\n      swap1\n      jump\t// out\n        /* \"#utility.yul\":13023:13212   */\n    tag_155:\n        /* \"#utility.yul\":13100:13132   */\n      tag_298\n      tag_154\n      jump\t// in\n    tag_298:\n        /* \"#utility.yul\":13141:13206   */\n      tag_299\n        /* \"#utility.yul\":13199:13205   */\n      dup2\n        /* \"#utility.yul\":13191:13197   */\n      dup5\n        /* \"#utility.yul\":13185:13189   */\n      dup5\n        /* \"#utility.yul\":13141:13206   */\n      tag_153\n      jump\t// in\n    tag_299:\n        /* \"#utility.yul\":13076:13212   */\n      pop\n        /* \"#utility.yul\":13023:13212   */\n      pop\n      pop\n      jump\t// out\n        /* \"#utility.yul\":13218:13404   */\n    tag_156:\n        /* \"#utility.yul\":13278:13398   */\n    tag_301:\n        /* \"#utility.yul\":13295:13298   */\n      dup2\n        /* \"#utility.yul\":13288:13293   */\n      dup2\n        /* \"#utility.yul\":13285:13299   */\n      lt\n        /* \"#utility.yul\":13278:13398   */\n      iszero\n      tag_303\n      jumpi\n        /* \"#utility.yul\":13349:13388   */\n      tag_304\n        /* \"#utility.yul\":13386:13387   */\n      0x00\n        /* \"#utility.yul\":13379:13384   */\n      dup3\n        /* \"#utility.yul\":13349:13388   */\n      tag_155\n      jump\t// in\n    tag_304:\n        /* \"#utility.yul\":13322:13323   */\n      0x01\n        /* \"#utility.yul\":13315:13320   */\n      dup2\n        /* \"#utility.yul\":13311:13324   */\n      add\n        /* \"#utility.yul\":13302:13324   */\n      swap1\n      pop\n        /* \"#utility.yul\":13278:13398   */\n      jump(tag_301)\n    tag_303:\n        /* \"#utility.yul\":13218:13404   */\n      pop\n      pop\n      jump\t// out\n        /* \"#utility.yul\":13410:13953   */\n    tag_157:\n        /* \"#utility.yul\":13511:13513   */\n      0x1f\n        /* \"#utility.yul\":13506:13509   */\n      dup3\n        /* \"#utility.yul\":13503:13514   */\n      gt\n        /* \"#utility.yul\":13500:13946   */\n      iszero\n      tag_306\n      jumpi\n        /* \"#utility.yul\":13545:13583   */\n      tag_307\n        /* \"#utility.yul\":13577:13582   */\n      dup2\n        /* \"#utility.yul\":13545:13583   */\n      tag_146\n      jump\t// in\n    tag_307:\n        /* \"#utility.yul\":13629:13658   */\n      tag_308\n        /* \"#utility.yul\":13647:13657   */\n      dup5\n        /* \"#utility.yul\":13629:13658   */\n      tag_147\n      jump\t// in\n    tag_308:\n        /* \"#utility.yul\":13619:13627   */\n      dup2\n        /* \"#utility.yul\":13615:13659   */\n      add\n        /* \"#utility.yul\":13812:13814   */\n      0x20\n        /* \"#utility.yul\":13800:13810   */\n      dup6\n        /* \"#utility.yul\":13797:13815   */\n      lt\n        /* \"#utility.yul\":13794:13843   */\n      iszero\n      tag_309\n      jumpi\n        /* \"#utility.yul\":13833:13841   */\n      dup2\n        /* \"#utility.yul\":13818:13841   */\n      swap1\n      pop\n        /* \"#utility.yul\":13794:13843   */\n    tag_309:\n        /* \"#utility.yul\":13856:13936   */\n      tag_310\n        /* \"#utility.yul\":13912:13934   */\n      tag_311\n        /* \"#utility.yul\":13930:13933   */\n      dup6\n        /* \"#utility.yul\":13912:13934   */\n      tag_147\n      jump\t// in\n    tag_311:\n        /* \"#utility.yul\":13902:13910   */\n      dup4\n        /* \"#utility.yul\":13898:13935   */\n      add\n        /* \"#utility.yul\":13885:13896   */\n      dup3\n        /* \"#utility.yul\":13856:13936   */\n      tag_156\n      jump\t// in\n    tag_310:\n        /* \"#utility.yul\":13515:13946   */\n      pop\n      pop\n        /* \"#utility.yul\":13500:13946   */\n    tag_306:\n        /* \"#utility.yul\":13410:13953   */\n      pop\n      pop\n      pop\n      jump\t// out\n        /* \"#utility.yul\":13959:14076   */\n    tag_158:\n        /* \"#utility.yul\":14013:14021   */\n      0x00\n        /* \"#utility.yul\":14063:14068   */\n      dup3\n        /* \"#utility.yul\":14057:14061   */\n      dup3\n        /* \"#utility.yul\":14053:14069   */\n      shr\n        /* \"#utility.yul\":14032:14069   */\n      swap1\n      pop\n        /* \"#utility.yul\":13959:14076   */\n      swap3\n      swap2\n      pop\n      pop\n      jump\t// out\n        /* \"#utility.yul\":14082:14251   */\n    tag_159:\n        /* \"#utility.yul\":14126:14132   */\n      0x00\n        /* \"#utility.yul\":14159:14210   */\n      tag_314\n        /* \"#utility.yul\":14207:14208   */\n      0x00\n        /* \"#utility.yul\":14203:14209   */\n      not\n        /* \"#utility.yul\":14195:14200   */\n      dup5\n        /* \"#utility.yul\":14192:14193   */\n      0x08\n        /* \"#utility.yul\":14188:14201   */\n      mul\n        /* \"#utility.yul\":14159:14210   */\n      tag_158\n      jump\t// in\n    tag_314:\n        /* \"#utility.yul\":14155:14211   */\n      not\n        /* \"#utility.yul\":14240:14244   */\n      dup1\n        /* \"#utility.yul\":14234:14238   */\n      dup4\n        /* \"#utility.yul\":14230:14245   */\n      and\n        /* \"#utility.yul\":14220:14245   */\n      swap2\n      pop\n        /* \"#utility.yul\":14133:14251   */\n      pop\n        /* \"#utility.yul\":14082:14251   */\n      swap3\n      swap2\n      pop\n      pop\n      jump\t// out\n        /* \"#utility.yul\":14256:14551   */\n    tag_160:\n        /* \"#utility.yul\":14332:14336   */\n      0x00\n        /* \"#utility.yul\":14478:14507   */\n      tag_316\n        /* \"#utility.yul\":14503:14506   */\n      dup4\n        /* \"#utility.yul\":14497:14501   */\n      dup4\n        /* \"#utility.yul\":14478:14507   */\n      tag_159\n      jump\t// in\n    tag_316:\n        /* \"#utility.yul\":14470:14507   */\n      swap2\n      pop\n        /* \"#utility.yul\":14540:14543   */\n      dup3\n        /* \"#utility.yul\":14537:14538   */\n      0x02\n        /* \"#utility.yul\":14533:14544   */\n      mul\n        /* \"#utility.yul\":14527:14531   */\n      dup3\n        /* \"#utility.yul\":14524:14545   */\n      or\n        /* \"#utility.yul\":14516:14545   */\n      swap1\n      pop\n        /* \"#utility.yul\":14256:14551   */\n      swap3\n      swap2\n      pop\n      pop\n      jump\t// out\n        /* \"#utility.yul\":14556:15951   */\n    tag_77:\n        /* \"#utility.yul\":14673:14710   */\n      tag_318\n        /* \"#utility.yul\":14706:14709   */\n      dup3\n        /* \"#utility.yul\":14673:14710   */\n      tag_125\n      jump\t// in\n    tag_318:\n        /* \"#utility.yul\":14775:14793   */\n      0xffffffffffffffff\n        /* \"#utility.yul\":14767:14773   */\n      dup2\n        /* \"#utility.yul\":14764:14794   */\n      gt\n        /* \"#utility.yul\":14761:14817   */\n      iszero\n      tag_319\n      jumpi\n        /* \"#utility.yul\":14797:14815   */\n      tag_320\n      tag_132\n      jump\t// in\n    tag_320:\n        /* \"#utility.yul\":14761:14817   */\n    tag_319:\n        /* \"#utility.yul\":14841:14879   */\n      tag_321\n        /* \"#utility.yul\":14873:14877   */\n      dup3\n        /* \"#utility.yul\":14867:14878   */\n      sload\n        /* \"#utility.yul\":14841:14879   */\n      tag_58\n      jump\t// in\n    tag_321:\n        /* \"#utility.yul\":14926:14993   */\n      tag_322\n        /* \"#utility.yul\":14986:14992   */\n      dup3\n        /* \"#utility.yul\":14978:14984   */\n      dup3\n        /* \"#utility.yul\":14972:14976   */\n      dup6\n        /* \"#utility.yul\":14926:14993   */\n      tag_157\n      jump\t// in\n    tag_322:\n        /* \"#utility.yul\":15020:15021   */\n      0x00\n        /* \"#utility.yul\":15044:15048   */\n      0x20\n        /* \"#utility.yul\":15031:15048   */\n      swap1\n      pop\n        /* \"#utility.yul\":15076:15078   */\n      0x1f\n        /* \"#utility.yul\":15068:15074   */\n      dup4\n        /* \"#utility.yul\":15065:15079   */\n      gt\n        /* \"#utility.yul\":15093:15094   */\n      0x01\n        /* \"#utility.yul\":15088:15706   */\n      dup2\n      eq\n      tag_324\n      jumpi\n        /* \"#utility.yul\":15750:15751   */\n      0x00\n        /* \"#utility.yul\":15767:15773   */\n      dup5\n        /* \"#utility.yul\":15764:15841   */\n      iszero\n      tag_325\n      jumpi\n        /* \"#utility.yul\":15816:15825   */\n      dup3\n        /* \"#utility.yul\":15811:15814   */\n      dup8\n        /* \"#utility.yul\":15807:15826   */\n      add\n        /* \"#utility.yul\":15801:15827   */\n      mload\n        /* \"#utility.yul\":15792:15827   */\n      swap1\n      pop\n        /* \"#utility.yul\":15764:15841   */\n    tag_325:\n        /* \"#utility.yul\":15867:15934   */\n      tag_326\n        /* \"#utility.yul\":15927:15933   */\n      dup6\n        /* \"#utility.yul\":15920:15925   */\n      dup3\n        /* \"#utility.yul\":15867:15934   */\n      tag_160\n      jump\t// in\n    tag_326:\n        /* \"#utility.yul\":15861:15865   */\n      dup7\n        /* \"#utility.yul\":15854:15935   */\n      sstore\n        /* \"#utility.yul\":15723:15945   */\n      pop\n        /* \"#utility.yul\":15058:15945   */\n      jump(tag_323)\n        /* \"#utility.yul\":15088:15706   */\n    tag_324:\n        /* \"#utility.yul\":15140:15144   */\n      0x1f\n        /* \"#utility.yul\":15136:15145   */\n      not\n        /* \"#utility.yul\":15128:15134   */\n      dup5\n        /* \"#utility.yul\":15124:15146   */\n      and\n        /* \"#utility.yul\":15174:15211   */\n      tag_327\n        /* \"#utility.yul\":15206:15210   */\n      dup7\n        /* \"#utility.yul\":15174:15211   */\n      tag_146\n      jump\t// in\n    tag_327:\n        /* \"#utility.yul\":15233:15234   */\n      0x00\n        /* \"#utility.yul\":15247:15455   */\n    tag_328:\n        /* \"#utility.yul\":15261:15268   */\n      dup3\n        /* \"#utility.yul\":15258:15259   */\n      dup2\n        /* \"#utility.yul\":15255:15269   */\n      lt\n        /* \"#utility.yul\":15247:15455   */\n      iszero\n      tag_330\n      jumpi\n        /* \"#utility.yul\":15340:15349   */\n      dup5\n        /* \"#utility.yul\":15335:15338   */\n      dup10\n        /* \"#utility.yul\":15331:15350   */\n      add\n        /* \"#utility.yul\":15325:15351   */\n      mload\n        /* \"#utility.yul\":15317:15323   */\n      dup3\n        /* \"#utility.yul\":15310:15352   */\n      sstore\n        /* \"#utility.yul\":15391:15392   */\n      0x01\n        /* \"#utility.yul\":15383:15389   */\n      dup3\n        /* \"#utility.yul\":15379:15393   */\n      add\n        /* \"#utility.yul\":15369:15393   */\n      swap2\n      pop\n        /* \"#utility.yul\":15438:15440   */\n      0x20\n        /* \"#utility.yul\":15427:15436   */\n      dup6\n        /* \"#utility.yul\":15423:15441   */\n      add\n        /* \"#utility.yul\":15410:15441   */\n      swap5\n      pop\n        /* \"#utility.yul\":15284:15288   */\n      0x20\n        /* \"#utility.yul\":15281:15282   */\n      dup2\n        /* \"#utility.yul\":15277:15289   */\n      add\n        /* \"#utility.yul\":15272:15289   */\n      swap1\n      pop\n        /* \"#utility.yul\":15247:15455   */\n      jump(tag_328)\n    tag_330:\n        /* \"#utility.yul\":15483:15489   */\n      dup7\n        /* \"#utility.yul\":15474:15481   */\n      dup4\n        /* \"#utility.yul\":15471:15490   */\n      lt\n        /* \"#utility.yul\":15468:15647   */\n      iszero\n      tag_331\n      jumpi\n        /* \"#utility.yul\":15541:15550   */\n      dup5\n        /* \"#utility.yul\":15536:15539   */\n      dup10\n        /* \"#utility.yul\":15532:15551   */\n      add\n        /* \"#utility.yul\":15526:15552   */\n      mload\n        /* \"#utility.yul\":15584:15632   */\n      tag_332\n        /* \"#utility.yul\":15626:15630   */\n      0x1f\n        /* \"#utility.yul\":15618:15624   */\n      dup10\n        /* \"#utility.yul\":15614:15631   */\n      and\n        /* \"#utility.yul\":15603:15612   */\n      dup3\n        /* \"#utility.yul\":15584:15632   */\n      tag_159\n      jump\t// in\n    tag_332:\n        /* \"#utility.yul\":15576:15582   */\n      dup4\n        /* \"#utility.yul\":15569:15633   */\n      sstore\n        /* \"#utility.yul\":15491:15647   */\n      pop\n        /* \"#utility.yul\":15468:15647   */\n    tag_331:\n        /* \"#utility.yul\":15693:15694   */\n      0x01\n        /* \"#utility.yul\":15689:15690   */\n      0x02\n        /* \"#utility.yul\":15681:15687   */\n      dup9\n        /* \"#utility.yul\":15677:15691   */\n      mul\n        /* \"#utility.yul\":15673:15695   */\n      add\n        /* \"#utility.yul\":15667:15671   */\n      dup9\n        /* \"#utility.yul\":15660:15696   */\n      sstore\n        /* \"#utility.yul\":15095:15706   */\n      pop\n      pop\n      pop\n        /* \"#utility.yul\":15058:15945   */\n    tag_323:\n      pop\n        /* \"#utility.yul\":14648:15951   */\n      pop\n      pop\n      pop\n        /* \"#utility.yul\":14556:15951   */\n      pop\n      pop\n      jump\t// out\n        /* \"#utility.yul\":15957:16894   */\n    tag_80:\n        /* \"#utility.yul\":16222:16226   */\n      0x00\n        /* \"#utility.yul\":16260:16263   */\n      0xa0\n        /* \"#utility.yul\":16249:16258   */\n      dup3\n        /* \"#utility.yul\":16245:16264   */\n      add\n        /* \"#utility.yul\":16237:16264   */\n      swap1\n      pop\n        /* \"#utility.yul\":16274:16345   */\n      tag_334\n        /* \"#utility.yul\":16342:16343   */\n      0x00\n        /* \"#utility.yul\":16331:16340   */\n      dup4\n        /* \"#utility.yul\":16327:16344   */\n      add\n        /* \"#utility.yul\":16318:16324   */\n      dup9\n        /* \"#utility.yul\":16274:16345   */\n      tag_124\n      jump\t// in\n    tag_334:\n        /* \"#utility.yul\":16392:16401   */\n      dup2\n        /* \"#utility.yul\":16386:16390   */\n      dup2\n        /* \"#utility.yul\":16382:16402   */\n      sub\n        /* \"#utility.yul\":16377:16379   */\n      0x20\n        /* \"#utility.yul\":16366:16375   */\n      dup4\n        /* \"#utility.yul\":16362:16380   */\n      add\n        /* \"#utility.yul\":16355:16403   */\n      mstore\n        /* \"#utility.yul\":16420:16498   */\n      tag_335\n        /* \"#utility.yul\":16493:16497   */\n      dup2\n        /* \"#utility.yul\":16484:16490   */\n      dup8\n        /* \"#utility.yul\":16420:16498   */\n      tag_129\n      jump\t// in\n    tag_335:\n        /* \"#utility.yul\":16412:16498   */\n      swap1\n      pop\n        /* \"#utility.yul\":16545:16554   */\n      dup2\n        /* \"#utility.yul\":16539:16543   */\n      dup2\n        /* \"#utility.yul\":16535:16555   */\n      sub\n        /* \"#utility.yul\":16530:16532   */\n      0x40\n        /* \"#utility.yul\":16519:16528   */\n      dup4\n        /* \"#utility.yul\":16515:16533   */\n      add\n        /* \"#utility.yul\":16508:16556   */\n      mstore\n        /* \"#utility.yul\":16573:16651   */\n      tag_336\n        /* \"#utility.yul\":16646:16650   */\n      dup2\n        /* \"#utility.yul\":16637:16643   */\n      dup7\n        /* \"#utility.yul\":16573:16651   */\n      tag_129\n      jump\t// in\n    tag_336:\n        /* \"#utility.yul\":16565:16651   */\n      swap1\n      pop\n        /* \"#utility.yul\":16698:16707   */\n      dup2\n        /* \"#utility.yul\":16692:16696   */\n      dup2\n        /* \"#utility.yul\":16688:16708   */\n      sub\n        /* \"#utility.yul\":16683:16685   */\n      0x60\n        /* \"#utility.yul\":16672:16681   */\n      dup4\n        /* \"#utility.yul\":16668:16686   */\n      add\n        /* \"#utility.yul\":16661:16709   */\n      mstore\n        /* \"#utility.yul\":16726:16804   */\n      tag_337\n        /* \"#utility.yul\":16799:16803   */\n      dup2\n        /* \"#utility.yul\":16790:16796   */\n      dup6\n        /* \"#utility.yul\":16726:16804   */\n      tag_129\n      jump\t// in\n    tag_337:\n        /* \"#utility.yul\":16718:16804   */\n      swap1\n      pop\n        /* \"#utility.yul\":16814:16887   */\n      tag_338\n        /* \"#utility.yul\":16882:16885   */\n      0x80\n        /* \"#utility.yul\":16871:16880   */\n      dup4\n        /* \"#utility.yul\":16867:16886   */\n      add\n        /* \"#utility.yul\":16858:16864   */\n      dup5\n        /* \"#utility.yul\":16814:16887   */\n      tag_124\n      jump\t// in\n    tag_338:\n        /* \"#utility.yul\":15957:16894   */\n      swap7\n      swap6\n      pop\n      pop\n      pop\n      pop\n      pop\n      pop\n      jump\t// out\n        /* \"#utility.yul\":16900:17068   */\n    tag_161:\n        /* \"#utility.yul\":17040:17060   */\n      0x496e76616c696420636f6d6d656e742049440000000000000000000000000000\n        /* \"#utility.yul\":17036:17037   */\n      0x00\n        /* \"#utility.yul\":17028:17034   */\n      dup3\n        /* \"#utility.yul\":17024:17038   */\n      add\n        /* \"#utility.yul\":17017:17061   */\n      mstore\n        /* \"#utility.yul\":16900:17068   */\n      pop\n      jump\t// out\n        /* \"#utility.yul\":17074:17440   */\n    tag_162:\n        /* \"#utility.yul\":17216:17219   */\n      0x00\n        /* \"#utility.yul\":17237:17304   */\n      tag_341\n        /* \"#utility.yul\":17301:17303   */\n      0x12\n        /* \"#utility.yul\":17296:17299   */\n      dup4\n        /* \"#utility.yul\":17237:17304   */\n      tag_126\n      jump\t// in\n    tag_341:\n        /* \"#utility.yul\":17230:17304   */\n      swap2\n      pop\n        /* \"#utility.yul\":17313:17406   */\n      tag_342\n        /* \"#utility.yul\":17402:17405   */\n      dup3\n        /* \"#utility.yul\":17313:17406   */\n      tag_161\n      jump\t// in\n    tag_342:\n        /* \"#utility.yul\":17431:17433   */\n      0x20\n        /* \"#utility.yul\":17426:17429   */\n      dup3\n        /* \"#utility.yul\":17422:17434   */\n      add\n        /* \"#utility.yul\":17415:17434   */\n      swap1\n      pop\n        /* \"#utility.yul\":17074:17440   */\n      swap2\n      swap1\n      pop\n      jump\t// out\n        /* \"#utility.yul\":17446:17865   */\n    tag_88:\n        /* \"#utility.yul\":17612:17616   */\n      0x00\n        /* \"#utility.yul\":17650:17652   */\n      0x20\n        /* \"#utility.yul\":17639:17648   */\n      dup3\n        /* \"#utility.yul\":17635:17653   */\n      add\n        /* \"#utility.yul\":17627:17653   */\n      swap1\n      pop\n        /* \"#utility.yul\":17699:17708   */\n      dup2\n        /* \"#utility.yul\":17693:17697   */\n      dup2\n        /* \"#utility.yul\":17689:17709   */\n      sub\n        /* \"#utility.yul\":17685:17686   */\n      0x00\n        /* \"#utility.yul\":17674:17683   */\n      dup4\n        /* \"#utility.yul\":17670:17687   */\n      add\n        /* \"#utility.yul\":17663:17710   */\n      mstore\n        /* \"#utility.yul\":17727:17858   */\n      tag_344\n        /* \"#utility.yul\":17853:17857   */\n      dup2\n        /* \"#utility.yul\":17727:17858   */\n      tag_162\n      jump\t// in\n    tag_344:\n        /* \"#utility.yul\":17719:17858   */\n      swap1\n      pop\n        /* \"#utility.yul\":17446:17865   */\n      swap2\n      swap1\n      pop\n      jump\t// out\n        /* \"#utility.yul\":17871:18515   */\n    tag_102:\n        /* \"#utility.yul\":18068:18072   */\n      0x00\n        /* \"#utility.yul\":18106:18109   */\n      0x80\n        /* \"#utility.yul\":18095:18104   */\n      dup3\n        /* \"#utility.yul\":18091:18110   */\n      add\n        /* \"#utility.yul\":18083:18110   */\n      swap1\n      pop\n        /* \"#utility.yul\":18120:18191   */\n      tag_346\n        /* \"#utility.yul\":18188:18189   */\n      0x00\n        /* \"#utility.yul\":18177:18186   */\n      dup4\n        /* \"#utility.yul\":18173:18190   */\n      add\n        /* \"#utility.yul\":18164:18170   */\n      dup8\n        /* \"#utility.yul\":18120:18191   */\n      tag_124\n      jump\t// in\n    tag_346:\n        /* \"#utility.yul\":18201:18273   */\n      tag_347\n        /* \"#utility.yul\":18269:18271   */\n      0x20\n        /* \"#utility.yul\":18258:18267   */\n      dup4\n        /* \"#utility.yul\":18254:18272   */\n      add\n        /* \"#utility.yul\":18245:18251   */\n      dup7\n        /* \"#utility.yul\":18201:18273   */\n      tag_124\n      jump\t// in\n    tag_347:\n        /* \"#utility.yul\":18320:18329   */\n      dup2\n        /* \"#utility.yul\":18314:18318   */\n      dup2\n        /* \"#utility.yul\":18310:18330   */\n      sub\n        /* \"#utility.yul\":18305:18307   */\n      0x40\n        /* \"#utility.yul\":18294:18303   */\n      dup4\n        /* \"#utility.yul\":18290:18308   */\n      add\n        /* \"#utility.yul\":18283:18331   */\n      mstore\n        /* \"#utility.yul\":18348:18426   */\n      tag_348\n        /* \"#utility.yul\":18421:18425   */\n      dup2\n        /* \"#utility.yul\":18412:18418   */\n      dup6\n        /* \"#utility.yul\":18348:18426   */\n      tag_129\n      jump\t// in\n    tag_348:\n        /* \"#utility.yul\":18340:18426   */\n      swap1\n      pop\n        /* \"#utility.yul\":18436:18508   */\n      tag_349\n        /* \"#utility.yul\":18504:18506   */\n      0x60\n        /* \"#utility.yul\":18493:18502   */\n      dup4\n        /* \"#utility.yul\":18489:18507   */\n      add\n        /* \"#utility.yul\":18480:18486   */\n      dup5\n        /* \"#utility.yul\":18436:18508   */\n      tag_124\n      jump\t// in\n    tag_349:\n        /* \"#utility.yul\":17871:18515   */\n      swap6\n      swap5\n      pop\n      pop\n      pop\n      pop\n      pop\n      jump\t// out\n\n    auxdata: 0xa264697066735822122073fdd737b2cc3b6fcd537560aa7f90e188b512bda03b2025914614cb86f01c6864736f6c63430008120033\n}\n",
				"bytecode": {
					"linkReferences": {},
					"object": "6080604052600060015534801561001557600080fd5b506114b2806100256000396000f3fe608060405234801561001057600080fd5b50600436106100885760003560e01c8063a286c0b91161005b578063a286c0b91461013f578063aa7e56831461015d578063c61b5f4c14610179578063e6821bf51461019757610088565b80630d4bfb4f1461008d5780632893eca2146100bd5780634875e9fd146100f1578063488927531461010d575b600080fd5b6100a760048036038101906100a29190610adf565b6101cc565b6040516100b49190610b1b565b60405180910390f35b6100d760048036038101906100d29190610adf565b61023c565b6040516100e8959493929190610bc6565b60405180910390f35b61010b60048036038101906101069190610d63565b610479565b005b61012760048036038101906101229190610e0a565b61056a565b60405161013693929190610e8b565b60405180910390f35b610147610716565b6040516101549190610b1b565b60405180910390f35b61017760048036038101906101729190610ec9565b610720565b005b61018161089b565b60405161018e9190610b1b565b60405180910390f35b6101b160048036038101906101ac9190610adf565b6108a1565b6040516101c396959493929190610f25565b60405180910390f35b600060015482111580156101e05750600082115b61021f576040517f08c379a000000000000000000000000000000000000000000000000000000000815260040161021690610fe7565b60405180910390fd5b600080838152602001908152602001600020600601549050919050565b606080606060008060015486111580156102565750600086115b610295576040517f08c379a000000000000000000000000000000000000000000000000000000000815260040161028c90610fe7565b60405180910390fd5b60008060008881526020019081526020016000209050806001018160020182600301836004015484600601548480546102cd90611036565b80601f01602080910402602001604051908101604052809291908181526020018280546102f990611036565b80156103465780601f1061031b57610100808354040283529160200191610346565b820191906000526020600020905b81548152906001019060200180831161032957829003601f168201915b5050505050945083805461035990611036565b80601f016020809104026020016040519081016040528092919081815260200182805461038590611036565b80156103d25780601f106103a7576101008083540402835291602001916103d2565b820191906000526020600020905b8154815290600101906020018083116103b557829003601f168201915b505050505093508280546103e590611036565b80601f016020809104026020016040519081016040528092919081815260200182805461041190611036565b801561045e5780601f106104335761010080835404028352916020019161045e565b820191906000526020600020905b81548152906001019060200180831161044157829003601f168201915b50505050509250955095509550955095505091939590929450565b6001600081548092919061048c90611096565b9190505550600080600060015481526020019081526020016000209050338160000160006101000a81548173ffffffffffffffffffffffffffffffffffffffff021916908373ffffffffffffffffffffffffffffffffffffffff160217905550838160010190816104fd919061128a565b508281600201908161050f919061128a565b50428160040181905550600081600601819055507fef7282af85231ea2e7e518e5ea491608fc6207a3a825e68944d2ca9e7d75aa396001548585854260405161055c95949392919061135c565b60405180910390a150505050565b606060008060015485111580156105815750600085115b6105c0576040517f08c379a00000000000000000000000000000000000000000000000000000000081526004016105b790610fe7565b60405180910390fd5b6000808681526020019081526020016000206006015484111580156105e55750600084115b610624576040517f08c379a000000000000000000000000000000000000000000000000000000000815260040161061b90611410565b60405180910390fd5b600080600087815260200190815260200160002060050160008681526020019081526020016000209050806001018160000160009054906101000a900473ffffffffffffffffffffffffffffffffffffffff16826002015482805461068890611036565b80601f01602080910402602001604051908101604052809291908181526020018280546106b490611036565b80156107015780601f106106d657610100808354040283529160200191610701565b820191906000526020600020905b8154815290600101906020018083116106e457829003601f168201915b50505050509250935093509350509250925092565b6000600154905090565b60015482111580156107325750600082115b610771576040517f08c379a000000000000000000000000000000000000000000000000000000000815260040161076890610fe7565b60405180910390fd5b6000806000848152602001908152602001600020905080600601600081548092919061079c90611096565b919050555060405180606001604052803373ffffffffffffffffffffffffffffffffffffffff168152602001838152602001428152508160050160008360060154815260200190815260200160002060008201518160000160006101000a81548173ffffffffffffffffffffffffffffffffffffffff021916908373ffffffffffffffffffffffffffffffffffffffff1602179055506020820151816001019081610847919061128a565b50604082015181600201559050507f900a4c5afdb3f75f909ccf2a10a79d00c549dd9fe6a8ac00660440f5c2eb7da7838260060154844260405161088e9493929190611430565b60405180910390a1505050565b60015481565b60006020528060005260406000206000915090508060000160009054906101000a900473ffffffffffffffffffffffffffffffffffffffff16908060010180546108ea90611036565b80601f016020809104026020016040519081016040528092919081815260200182805461091690611036565b80156109635780601f1061093857610100808354040283529160200191610963565b820191906000526020600020905b81548152906001019060200180831161094657829003601f168201915b50505050509080600201805461097890611036565b80601f01602080910402602001604051908101604052809291908181526020018280546109a490611036565b80156109f15780601f106109c6576101008083540402835291602001916109f1565b820191906000526020600020905b8154815290600101906020018083116109d457829003601f168201915b505050505090806003018054610a0690611036565b80601f0160208091040260200160405190810160405280929190818152602001828054610a3290611036565b8015610a7f5780601f10610a5457610100808354040283529160200191610a7f565b820191906000526020600020905b815481529060010190602001808311610a6257829003601f168201915b5050505050908060040154908060060154905086565b6000604051905090565b600080fd5b600080fd5b6000819050919050565b610abc81610aa9565b8114610ac757600080fd5b50565b600081359050610ad981610ab3565b92915050565b600060208284031215610af557610af4610a9f565b5b6000610b0384828501610aca565b91505092915050565b610b1581610aa9565b82525050565b6000602082019050610b306000830184610b0c565b92915050565b600081519050919050565b600082825260208201905092915050565b60005b83811015610b70578082015181840152602081019050610b55565b60008484015250505050565b6000601f19601f8301169050919050565b6000610b9882610b36565b610ba28185610b41565b9350610bb2818560208601610b52565b610bbb81610b7c565b840191505092915050565b600060a0820190508181036000830152610be08188610b8d565b90508181036020830152610bf48187610b8d565b90508181036040830152610c088186610b8d565b9050610c176060830185610b0c565b610c246080830184610b0c565b9695505050505050565b600080fd5b600080fd5b7f4e487b7100000000000000000000000000000000000000000000000000000000600052604160045260246000fd5b610c7082610b7c565b810181811067ffffffffffffffff82111715610c8f57610c8e610c38565b5b80604052505050565b6000610ca2610a95565b9050610cae8282610c67565b919050565b600067ffffffffffffffff821115610cce57610ccd610c38565b5b610cd782610b7c565b9050602081019050919050565b82818337600083830152505050565b6000610d06610d0184610cb3565b610c98565b905082815260208101848484011115610d2257610d21610c33565b5b610d2d848285610ce4565b509392505050565b600082601f830112610d4a57610d49610c2e565b5b8135610d5a848260208601610cf3565b91505092915050565b600080600060608486031215610d7c57610d7b610a9f565b5b600084013567ffffffffffffffff811115610d9a57610d99610aa4565b5b610da686828701610d35565b935050602084013567ffffffffffffffff811115610dc757610dc6610aa4565b5b610dd386828701610d35565b925050604084013567ffffffffffffffff811115610df457610df3610aa4565b5b610e0086828701610d35565b9150509250925092565b60008060408385031215610e2157610e20610a9f565b5b6000610e2f85828601610aca565b9250506020610e4085828601610aca565b9150509250929050565b600073ffffffffffffffffffffffffffffffffffffffff82169050919050565b6000610e7582610e4a565b9050919050565b610e8581610e6a565b82525050565b60006060820190508181036000830152610ea58186610b8d565b9050610eb46020830185610e7c565b610ec16040830184610b0c565b949350505050565b60008060408385031215610ee057610edf610a9f565b5b6000610eee85828601610aca565b925050602083013567ffffffffffffffff811115610f0f57610f0e610aa4565b5b610f1b85828601610d35565b9150509250929050565b600060c082019050610f3a6000830189610e7c565b8181036020830152610f4c8188610b8d565b90508181036040830152610f608187610b8d565b90508181036060830152610f748186610b8d565b9050610f836080830185610b0c565b610f9060a0830184610b0c565b979650505050505050565b7f496e76616c696420766964656f20494400000000000000000000000000000000600082015250565b6000610fd1601083610b41565b9150610fdc82610f9b565b602082019050919050565b6000602082019050818103600083015261100081610fc4565b9050919050565b7f4e487b7100000000000000000000000000000000000000000000000000000000600052602260045260246000fd5b6000600282049050600182168061104e57607f821691505b60208210810361106157611060611007565b5b50919050565b7f4e487b7100000000000000000000000000000000000000000000000000000000600052601160045260246000fd5b60006110a182610aa9565b91507fffffffffffffffffffffffffffffffffffffffffffffffffffffffffffffffff82036110d3576110d2611067565b5b600182019050919050565b60008190508160005260206000209050919050565b60006020601f8301049050919050565b600082821b905092915050565b6000600883026111407fffffffffffffffffffffffffffffffffffffffffffffffffffffffffffffffff82611103565b61114a8683611103565b95508019841693508086168417925050509392505050565b6000819050919050565b600061118761118261117d84610aa9565b611162565b610aa9565b9050919050565b6000819050919050565b6111a18361116c565b6111b56111ad8261118e565b848454611110565b825550505050565b600090565b6111ca6111bd565b6111d5818484611198565b505050565b5b818110156111f9576111ee6000826111c2565b6001810190506111db565b5050565b601f82111561123e5761120f816110de565b611218846110f3565b81016020851015611227578190505b61123b611233856110f3565b8301826111da565b50505b505050565b600082821c905092915050565b600061126160001984600802611243565b1980831691505092915050565b600061127a8383611250565b9150826002028217905092915050565b61129382610b36565b67ffffffffffffffff8111156112ac576112ab610c38565b5b6112b68254611036565b6112c18282856111fd565b600060209050601f8311600181146112f457600084156112e2578287015190505b6112ec858261126e565b865550611354565b601f198416611302866110de565b60005b8281101561132a57848901518255600182019150602085019450602081019050611305565b868310156113475784890151611343601f891682611250565b8355505b6001600288020188555050505b505050505050565b600060a0820190506113716000830188610b0c565b81810360208301526113838187610b8d565b905081810360408301526113978186610b8d565b905081810360608301526113ab8185610b8d565b90506113ba6080830184610b0c565b9695505050505050565b7f496e76616c696420636f6d6d656e742049440000000000000000000000000000600082015250565b60006113fa601283610b41565b9150611405826113c4565b602082019050919050565b60006020820190508181036000830152611429816113ed565b9050919050565b60006080820190506114456000830187610b0c565b6114526020830186610b0c565b81810360408301526114648185610b8d565b90506114736060830184610b0c565b9594505050505056fea264697066735822122073fdd737b2cc3b6fcd537560aa7f90e188b512bda03b2025914614cb86f01c6864736f6c63430008120033",
					"opcodes": "PUSH1 0x80 PUSH1 0x40 MSTORE PUSH1 0x0 PUSH1 0x1 SSTORE CALLVALUE DUP1 ISZERO PUSH2 0x15 JUMPI PUSH1 0x0 DUP1 REVERT JUMPDEST POP PUSH2 0x14B2 DUP1 PUSH2 0x25 PUSH1 0x0 CODECOPY PUSH1 0x0 RETURN INVALID PUSH1 0x80 PUSH1 0x40 MSTORE CALLVALUE DUP1 ISZERO PUSH2 0x10 JUMPI PUSH1 0x0 DUP1 REVERT JUMPDEST POP PUSH1 0x4 CALLDATASIZE LT PUSH2 0x88 JUMPI PUSH1 0x0 CALLDATALOAD PUSH1 0xE0 SHR DUP1 PUSH4 0xA286C0B9 GT PUSH2 0x5B JUMPI DUP1 PUSH4 0xA286C0B9 EQ PUSH2 0x13F JUMPI DUP1 PUSH4 0xAA7E5683 EQ PUSH2 0x15D JUMPI DUP1 PUSH4 0xC61B5F4C EQ PUSH2 0x179 JUMPI DUP1 PUSH4 0xE6821BF5 EQ PUSH2 0x197 JUMPI PUSH2 0x88 JUMP JUMPDEST DUP1 PUSH4 0xD4BFB4F EQ PUSH2 0x8D JUMPI DUP1 PUSH4 0x2893ECA2 EQ PUSH2 0xBD JUMPI DUP1 PUSH4 0x4875E9FD EQ PUSH2 0xF1 JUMPI DUP1 PUSH4 0x48892753 EQ PUSH2 0x10D JUMPI JUMPDEST PUSH1 0x0 DUP1 REVERT JUMPDEST PUSH2 0xA7 PUSH1 0x4 DUP1 CALLDATASIZE SUB DUP2 ADD SWAP1 PUSH2 0xA2 SWAP2 SWAP1 PUSH2 0xADF JUMP JUMPDEST PUSH2 0x1CC JUMP JUMPDEST PUSH1 0x40 MLOAD PUSH2 0xB4 SWAP2 SWAP1 PUSH2 0xB1B JUMP JUMPDEST PUSH1 0x40 MLOAD DUP1 SWAP2 SUB SWAP1 RETURN JUMPDEST PUSH2 0xD7 PUSH1 0x4 DUP1 CALLDATASIZE SUB DUP2 ADD SWAP1 PUSH2 0xD2 SWAP2 SWAP1 PUSH2 0xADF JUMP JUMPDEST PUSH2 0x23C JUMP JUMPDEST PUSH1 0x40 MLOAD PUSH2 0xE8 SWAP6 SWAP5 SWAP4 SWAP3 SWAP2 SWAP1 PUSH2 0xBC6 JUMP JUMPDEST PUSH1 0x40 MLOAD DUP1 SWAP2 SUB SWAP1 RETURN JUMPDEST PUSH2 0x10B PUSH1 0x4 DUP1 CALLDATASIZE SUB DUP2 ADD SWAP1 PUSH2 0x106 SWAP2 SWAP1 PUSH2 0xD63 JUMP JUMPDEST PUSH2 0x479 JUMP JUMPDEST STOP JUMPDEST PUSH2 0x127 PUSH1 0x4 DUP1 CALLDATASIZE SUB DUP2 ADD SWAP1 PUSH2 0x122 SWAP2 SWAP1 PUSH2 0xE0A JUMP JUMPDEST PUSH2 0x56A JUMP JUMPDEST PUSH1 0x40 MLOAD PUSH2 0x136 SWAP4 SWAP3 SWAP2 SWAP1 PUSH2 0xE8B JUMP JUMPDEST PUSH1 0x40 MLOAD DUP1 SWAP2 SUB SWAP1 RETURN JUMPDEST PUSH2 0x147 PUSH2 0x716 JUMP JUMPDEST PUSH1 0x40 MLOAD PUSH2 0x154 SWAP2 SWAP1 PUSH2 0xB1B JUMP JUMPDEST PUSH1 0x40 MLOAD DUP1 SWAP2 SUB SWAP1 RETURN JUMPDEST PUSH2 0x177 PUSH1 0x4 DUP1 CALLDATASIZE SUB DUP2 ADD SWAP1 PUSH2 0x172 SWAP2 SWAP1 PUSH2 0xEC9 JUMP JUMPDEST PUSH2 0x720 JUMP JUMPDEST STOP JUMPDEST PUSH2 0x181 PUSH2 0x89B JUMP JUMPDEST PUSH1 0x40 MLOAD PUSH2 0x18E SWAP2 SWAP1 PUSH2 0xB1B JUMP JUMPDEST PUSH1 0x40 MLOAD DUP1 SWAP2 SUB SWAP1 RETURN JUMPDEST PUSH2 0x1B1 PUSH1 0x4 DUP1 CALLDATASIZE SUB DUP2 ADD SWAP1 PUSH2 0x1AC SWAP2 SWAP1 PUSH2 0xADF JUMP JUMPDEST PUSH2 0x8A1 JUMP JUMPDEST PUSH1 0x40 MLOAD PUSH2 0x1C3 SWAP7 SWAP6 SWAP5 SWAP4 SWAP3 SWAP2 SWAP1 PUSH2 0xF25 JUMP JUMPDEST PUSH1 0x40 MLOAD DUP1 SWAP2 SUB SWAP1 RETURN JUMPDEST PUSH1 0x0 PUSH1 0x1 SLOAD DUP3 GT ISZERO DUP1 ISZERO PUSH2 0x1E0 JUMPI POP PUSH1 0x0 DUP3 GT JUMPDEST PUSH2 0x21F JUMPI PUSH1 0x40 MLOAD PUSH32 0x8C379A000000000000000000000000000000000000000000000000000000000 DUP2 MSTORE PUSH1 0x4 ADD PUSH2 0x216 SWAP1 PUSH2 0xFE7 JUMP JUMPDEST PUSH1 0x40 MLOAD DUP1 SWAP2 SUB SWAP1 REVERT JUMPDEST PUSH1 0x0 DUP1 DUP4 DUP2 MSTORE PUSH1 0x20 ADD SWAP1 DUP2 MSTORE PUSH1 0x20 ADD PUSH1 0x0 KECCAK256 PUSH1 0x6 ADD SLOAD SWAP1 POP SWAP2 SWAP1 POP JUMP JUMPDEST PUSH1 0x60 DUP1 PUSH1 0x60 PUSH1 0x0 DUP1 PUSH1 0x1 SLOAD DUP7 GT ISZERO DUP1 ISZERO PUSH2 0x256 JUMPI POP PUSH1 0x0 DUP7 GT JUMPDEST PUSH2 0x295 JUMPI PUSH1 0x40 MLOAD PUSH32 0x8C379A000000000000000000000000000000000000000000000000000000000 DUP2 MSTORE PUSH1 0x4 ADD PUSH2 0x28C SWAP1 PUSH2 0xFE7 JUMP JUMPDEST PUSH1 0x40 MLOAD DUP1 SWAP2 SUB SWAP1 REVERT JUMPDEST PUSH1 0x0 DUP1 PUSH1 0x0 DUP9 DUP2 MSTORE PUSH1 0x20 ADD SWAP1 DUP2 MSTORE PUSH1 0x20 ADD PUSH1 0x0 KECCAK256 SWAP1 POP DUP1 PUSH1 0x1 ADD DUP2 PUSH1 0x2 ADD DUP3 PUSH1 0x3 ADD DUP4 PUSH1 0x4 ADD SLOAD DUP5 PUSH1 0x6 ADD SLOAD DUP5 DUP1 SLOAD PUSH2 0x2CD SWAP1 PUSH2 0x1036 JUMP JUMPDEST DUP1 PUSH1 0x1F ADD PUSH1 0x20 DUP1 SWAP2 DIV MUL PUSH1 0x20 ADD PUSH1 0x40 MLOAD SWAP1 DUP2 ADD PUSH1 0x40 MSTORE DUP1 SWAP3 SWAP2 SWAP1 DUP2 DUP2 MSTORE PUSH1 0x20 ADD DUP3 DUP1 SLOAD PUSH2 0x2F9 SWAP1 PUSH2 0x1036 JUMP JUMPDEST DUP1 ISZERO PUSH2 0x346 JUMPI DUP1 PUSH1 0x1F LT PUSH2 0x31B JUMPI PUSH2 0x100 DUP1 DUP4 SLOAD DIV MUL DUP4 MSTORE SWAP2 PUSH1 0x20 ADD SWAP2 PUSH2 0x346 JUMP JUMPDEST DUP3 ADD SWAP2 SWAP1 PUSH1 0x0 MSTORE PUSH1 0x20 PUSH1 0x0 KECCAK256 SWAP1 JUMPDEST DUP2 SLOAD DUP2 MSTORE SWAP1 PUSH1 0x1 ADD SWAP1 PUSH1 0x20 ADD DUP1 DUP4 GT PUSH2 0x329 JUMPI DUP3 SWAP1 SUB PUSH1 0x1F AND DUP3 ADD SWAP2 JUMPDEST POP POP POP POP POP SWAP5 POP DUP4 DUP1 SLOAD PUSH2 0x359 SWAP1 PUSH2 0x1036 JUMP JUMPDEST DUP1 PUSH1 0x1F ADD PUSH1 0x20 DUP1 SWAP2 DIV MUL PUSH1 0x20 ADD PUSH1 0x40 MLOAD SWAP1 DUP2 ADD PUSH1 0x40 MSTORE DUP1 SWAP3 SWAP2 SWAP1 DUP2 DUP2 MSTORE PUSH1 0x20 ADD DUP3 DUP1 SLOAD PUSH2 0x385 SWAP1 PUSH2 0x1036 JUMP JUMPDEST DUP1 ISZERO PUSH2 0x3D2 JUMPI DUP1 PUSH1 0x1F LT PUSH2 0x3A7 JUMPI PUSH2 0x100 DUP1 DUP4 SLOAD DIV MUL DUP4 MSTORE SWAP2 PUSH1 0x20 ADD SWAP2 PUSH2 0x3D2 JUMP JUMPDEST DUP3 ADD SWAP2 SWAP1 PUSH1 0x0 MSTORE PUSH1 0x20 PUSH1 0x0 KECCAK256 SWAP1 JUMPDEST DUP2 SLOAD DUP2 MSTORE SWAP1 PUSH1 0x1 ADD SWAP1 PUSH1 0x20 ADD DUP1 DUP4 GT PUSH2 0x3B5 JUMPI DUP3 SWAP1 SUB PUSH1 0x1F AND DUP3 ADD SWAP2 JUMPDEST POP POP POP POP POP SWAP4 POP DUP3 DUP1 SLOAD PUSH2 0x3E5 SWAP1 PUSH2 0x1036 JUMP JUMPDEST DUP1 PUSH1 0x1F ADD PUSH1 0x20 DUP1 SWAP2 DIV MUL PUSH1 0x20 ADD PUSH1 0x40 MLOAD SWAP1 DUP2 ADD PUSH1 0x40 MSTORE DUP1 SWAP3 SWAP2 SWAP1 DUP2 DUP2 MSTORE PUSH1 0x20 ADD DUP3 DUP1 SLOAD PUSH2 0x411 SWAP1 PUSH2 0x1036 JUMP JUMPDEST DUP1 ISZERO PUSH2 0x45E JUMPI DUP1 PUSH1 0x1F LT PUSH2 0x433 JUMPI PUSH2 0x100 DUP1 DUP4 SLOAD DIV MUL DUP4 MSTORE SWAP2 PUSH1 0x20 ADD SWAP2 PUSH2 0x45E JUMP JUMPDEST DUP3 ADD SWAP2 SWAP1 PUSH1 0x0 MSTORE PUSH1 0x20 PUSH1 0x0 KECCAK256 SWAP1 JUMPDEST DUP2 SLOAD DUP2 MSTORE SWAP1 PUSH1 0x1 ADD SWAP1 PUSH1 0x20 ADD DUP1 DUP4 GT PUSH2 0x441 JUMPI DUP3 SWAP1 SUB PUSH1 0x1F AND DUP3 ADD SWAP2 JUMPDEST POP POP POP POP POP SWAP3 POP SWAP6 POP SWAP6 POP SWAP6 POP SWAP6 POP SWAP6 POP POP SWAP2 SWAP4 SWAP6 SWAP1 SWAP3 SWAP5 POP JUMP JUMPDEST PUSH1 0x1 PUSH1 0x0 DUP2 SLOAD DUP1 SWAP3 SWAP2 SWAP1 PUSH2 0x48C SWAP1 PUSH2 0x1096 JUMP JUMPDEST SWAP2 SWAP1 POP SSTORE POP PUSH1 0x0 DUP1 PUSH1 0x0 PUSH1 0x1 SLOAD DUP2 MSTORE PUSH1 0x20 ADD SWAP1 DUP2 MSTORE PUSH1 0x20 ADD PUSH1 0x0 KECCAK256 SWAP1 POP CALLER DUP2 PUSH1 0x0 ADD PUSH1 0x0 PUSH2 0x100 EXP DUP2 SLOAD DUP2 PUSH20 0xFFFFFFFFFFFFFFFFFFFFFFFFFFFFFFFFFFFFFFFF MUL NOT AND SWAP1 DUP4 PUSH20 0xFFFFFFFFFFFFFFFFFFFFFFFFFFFFFFFFFFFFFFFF AND MUL OR SWAP1 SSTORE POP DUP4 DUP2 PUSH1 0x1 ADD SWAP1 DUP2 PUSH2 0x4FD SWAP2 SWAP1 PUSH2 0x128A JUMP JUMPDEST POP DUP3 DUP2 PUSH1 0x2 ADD SWAP1 DUP2 PUSH2 0x50F SWAP2 SWAP1 PUSH2 0x128A JUMP JUMPDEST POP TIMESTAMP DUP2 PUSH1 0x4 ADD DUP2 SWAP1 SSTORE POP PUSH1 0x0 DUP2 PUSH1 0x6 ADD DUP2 SWAP1 SSTORE POP PUSH32 0xEF7282AF85231EA2E7E518E5EA491608FC6207A3A825E68944D2CA9E7D75AA39 PUSH1 0x1 SLOAD DUP6 DUP6 DUP6 TIMESTAMP PUSH1 0x40 MLOAD PUSH2 0x55C SWAP6 SWAP5 SWAP4 SWAP3 SWAP2 SWAP1 PUSH2 0x135C JUMP JUMPDEST PUSH1 0x40 MLOAD DUP1 SWAP2 SUB SWAP1 LOG1 POP POP POP POP JUMP JUMPDEST PUSH1 0x60 PUSH1 0x0 DUP1 PUSH1 0x1 SLOAD DUP6 GT ISZERO DUP1 ISZERO PUSH2 0x581 JUMPI POP PUSH1 0x0 DUP6 GT JUMPDEST PUSH2 0x5C0 JUMPI PUSH1 0x40 MLOAD PUSH32 0x8C379A000000000000000000000000000000000000000000000000000000000 DUP2 MSTORE PUSH1 0x4 ADD PUSH2 0x5B7 SWAP1 PUSH2 0xFE7 JUMP JUMPDEST PUSH1 0x40 MLOAD DUP1 SWAP2 SUB SWAP1 REVERT JUMPDEST PUSH1 0x0 DUP1 DUP7 DUP2 MSTORE PUSH1 0x20 ADD SWAP1 DUP2 MSTORE PUSH1 0x20 ADD PUSH1 0x0 KECCAK256 PUSH1 0x6 ADD SLOAD DUP5 GT ISZERO DUP1 ISZERO PUSH2 0x5E5 JUMPI POP PUSH1 0x0 DUP5 GT JUMPDEST PUSH2 0x624 JUMPI PUSH1 0x40 MLOAD PUSH32 0x8C379A000000000000000000000000000000000000000000000000000000000 DUP2 MSTORE PUSH1 0x4 ADD PUSH2 0x61B SWAP1 PUSH2 0x1410 JUMP JUMPDEST PUSH1 0x40 MLOAD DUP1 SWAP2 SUB SWAP1 REVERT JUMPDEST PUSH1 0x0 DUP1 PUSH1 0x0 DUP8 DUP2 MSTORE PUSH1 0x20 ADD SWAP1 DUP2 MSTORE PUSH1 0x20 ADD PUSH1 0x0 KECCAK256 PUSH1 0x5 ADD PUSH1 0x0 DUP7 DUP2 MSTORE PUSH1 0x20 ADD SWAP1 DUP2 MSTORE PUSH1 0x20 ADD PUSH1 0x0 KECCAK256 SWAP1 POP DUP1 PUSH1 0x1 ADD DUP2 PUSH1 0x0 ADD PUSH1 0x0 SWAP1 SLOAD SWAP1 PUSH2 0x100 EXP SWAP1 DIV PUSH20 0xFFFFFFFFFFFFFFFFFFFFFFFFFFFFFFFFFFFFFFFF AND DUP3 PUSH1 0x2 ADD SLOAD DUP3 DUP1 SLOAD PUSH2 0x688 SWAP1 PUSH2 0x1036 JUMP JUMPDEST DUP1 PUSH1 0x1F ADD PUSH1 0x20 DUP1 SWAP2 DIV MUL PUSH1 0x20 ADD PUSH1 0x40 MLOAD SWAP1 DUP2 ADD PUSH1 0x40 MSTORE DUP1 SWAP3 SWAP2 SWAP1 DUP2 DUP2 MSTORE PUSH1 0x20 ADD DUP3 DUP1 SLOAD PUSH2 0x6B4 SWAP1 PUSH2 0x1036 JUMP JUMPDEST DUP1 ISZERO PUSH2 0x701 JUMPI DUP1 PUSH1 0x1F LT PUSH2 0x6D6 JUMPI PUSH2 0x100 DUP1 DUP4 SLOAD DIV MUL DUP4 MSTORE SWAP2 PUSH1 0x20 ADD SWAP2 PUSH2 0x701 JUMP JUMPDEST DUP3 ADD SWAP2 SWAP1 PUSH1 0x0 MSTORE PUSH1 0x20 PUSH1 0x0 KECCAK256 SWAP1 JUMPDEST DUP2 SLOAD DUP2 MSTORE SWAP1 PUSH1 0x1 ADD SWAP1 PUSH1 0x20 ADD DUP1 DUP4 GT PUSH2 0x6E4 JUMPI DUP3 SWAP1 SUB PUSH1 0x1F AND DUP3 ADD SWAP2 JUMPDEST POP POP POP POP POP SWAP3 POP SWAP4 POP SWAP4 POP SWAP4 POP POP SWAP3 POP SWAP3 POP SWAP3 JUMP JUMPDEST PUSH1 0x0 PUSH1 0x1 SLOAD SWAP1 POP SWAP1 JUMP JUMPDEST PUSH1 0x1 SLOAD DUP3 GT ISZERO DUP1 ISZERO PUSH2 0x732 JUMPI POP PUSH1 0x0 DUP3 GT JUMPDEST PUSH2 0x771 JUMPI PUSH1 0x40 MLOAD PUSH32 0x8C379A000000000000000000000000000000000000000000000000000000000 DUP2 MSTORE PUSH1 0x4 ADD PUSH2 0x768 SWAP1 PUSH2 0xFE7 JUMP JUMPDEST PUSH1 0x40 MLOAD DUP1 SWAP2 SUB SWAP1 REVERT JUMPDEST PUSH1 0x0 DUP1 PUSH1 0x0 DUP5 DUP2 MSTORE PUSH1 0x20 ADD SWAP1 DUP2 MSTORE PUSH1 0x20 ADD PUSH1 0x0 KECCAK256 SWAP1 POP DUP1 PUSH1 0x6 ADD PUSH1 0x0 DUP2 SLOAD DUP1 SWAP3 SWAP2 SWAP1 PUSH2 0x79C SWAP1 PUSH2 0x1096 JUMP JUMPDEST SWAP2 SWAP1 POP SSTORE POP PUSH1 0x40 MLOAD DUP1 PUSH1 0x60 ADD PUSH1 0x40 MSTORE DUP1 CALLER PUSH20 0xFFFFFFFFFFFFFFFFFFFFFFFFFFFFFFFFFFFFFFFF AND DUP2 MSTORE PUSH1 0x20 ADD DUP4 DUP2 MSTORE PUSH1 0x20 ADD TIMESTAMP DUP2 MSTORE POP DUP2 PUSH1 0x5 ADD PUSH1 0x0 DUP4 PUSH1 0x6 ADD SLOAD DUP2 MSTORE PUSH1 0x20 ADD SWAP1 DUP2 MSTORE PUSH1 0x20 ADD PUSH1 0x0 KECCAK256 PUSH1 0x0 DUP3 ADD MLOAD DUP2 PUSH1 0x0 ADD PUSH1 0x0 PUSH2 0x100 EXP DUP2 SLOAD DUP2 PUSH20 0xFFFFFFFFFFFFFFFFFFFFFFFFFFFFFFFFFFFFFFFF MUL NOT AND SWAP1 DUP4 PUSH20 0xFFFFFFFFFFFFFFFFFFFFFFFFFFFFFFFFFFFFFFFF AND MUL OR SWAP1 SSTORE POP PUSH1 0x20 DUP3 ADD MLOAD DUP2 PUSH1 0x1 ADD SWAP1 DUP2 PUSH2 0x847 SWAP2 SWAP1 PUSH2 0x128A JUMP JUMPDEST POP PUSH1 0x40 DUP3 ADD MLOAD DUP2 PUSH1 0x2 ADD SSTORE SWAP1 POP POP PUSH32 0x900A4C5AFDB3F75F909CCF2A10A79D00C549DD9FE6A8AC00660440F5C2EB7DA7 DUP4 DUP3 PUSH1 0x6 ADD SLOAD DUP5 TIMESTAMP PUSH1 0x40 MLOAD PUSH2 0x88E SWAP5 SWAP4 SWAP3 SWAP2 SWAP1 PUSH2 0x1430 JUMP JUMPDEST PUSH1 0x40 MLOAD DUP1 SWAP2 SUB SWAP1 LOG1 POP POP POP JUMP JUMPDEST PUSH1 0x1 SLOAD DUP2 JUMP JUMPDEST PUSH1 0x0 PUSH1 0x20 MSTORE DUP1 PUSH1 0x0 MSTORE PUSH1 0x40 PUSH1 0x0 KECCAK256 PUSH1 0x0 SWAP2 POP SWAP1 POP DUP1 PUSH1 0x0 ADD PUSH1 0x0 SWAP1 SLOAD SWAP1 PUSH2 0x100 EXP SWAP1 DIV PUSH20 0xFFFFFFFFFFFFFFFFFFFFFFFFFFFFFFFFFFFFFFFF AND SWAP1 DUP1 PUSH1 0x1 ADD DUP1 SLOAD PUSH2 0x8EA SWAP1 PUSH2 0x1036 JUMP JUMPDEST DUP1 PUSH1 0x1F ADD PUSH1 0x20 DUP1 SWAP2 DIV MUL PUSH1 0x20 ADD PUSH1 0x40 MLOAD SWAP1 DUP2 ADD PUSH1 0x40 MSTORE DUP1 SWAP3 SWAP2 SWAP1 DUP2 DUP2 MSTORE PUSH1 0x20 ADD DUP3 DUP1 SLOAD PUSH2 0x916 SWAP1 PUSH2 0x1036 JUMP JUMPDEST DUP1 ISZERO PUSH2 0x963 JUMPI DUP1 PUSH1 0x1F LT PUSH2 0x938 JUMPI PUSH2 0x100 DUP1 DUP4 SLOAD DIV MUL DUP4 MSTORE SWAP2 PUSH1 0x20 ADD SWAP2 PUSH2 0x963 JUMP JUMPDEST DUP3 ADD SWAP2 SWAP1 PUSH1 0x0 MSTORE PUSH1 0x20 PUSH1 0x0 KECCAK256 SWAP1 JUMPDEST DUP2 SLOAD DUP2 MSTORE SWAP1 PUSH1 0x1 ADD SWAP1 PUSH1 0x20 ADD DUP1 DUP4 GT PUSH2 0x946 JUMPI DUP3 SWAP1 SUB PUSH1 0x1F AND DUP3 ADD SWAP2 JUMPDEST POP POP POP POP POP SWAP1 DUP1 PUSH1 0x2 ADD DUP1 SLOAD PUSH2 0x978 SWAP1 PUSH2 0x1036 JUMP JUMPDEST DUP1 PUSH1 0x1F ADD PUSH1 0x20 DUP1 SWAP2 DIV MUL PUSH1 0x20 ADD PUSH1 0x40 MLOAD SWAP1 DUP2 ADD PUSH1 0x40 MSTORE DUP1 SWAP3 SWAP2 SWAP1 DUP2 DUP2 MSTORE PUSH1 0x20 ADD DUP3 DUP1 SLOAD PUSH2 0x9A4 SWAP1 PUSH2 0x1036 JUMP JUMPDEST DUP1 ISZERO PUSH2 0x9F1 JUMPI DUP1 PUSH1 0x1F LT PUSH2 0x9C6 JUMPI PUSH2 0x100 DUP1 DUP4 SLOAD DIV MUL DUP4 MSTORE SWAP2 PUSH1 0x20 ADD SWAP2 PUSH2 0x9F1 JUMP JUMPDEST DUP3 ADD SWAP2 SWAP1 PUSH1 0x0 MSTORE PUSH1 0x20 PUSH1 0x0 KECCAK256 SWAP1 JUMPDEST DUP2 SLOAD DUP2 MSTORE SWAP1 PUSH1 0x1 ADD SWAP1 PUSH1 0x20 ADD DUP1 DUP4 GT PUSH2 0x9D4 JUMPI DUP3 SWAP1 SUB PUSH1 0x1F AND DUP3 ADD SWAP2 JUMPDEST POP POP POP POP POP SWAP1 DUP1 PUSH1 0x3 ADD DUP1 SLOAD PUSH2 0xA06 SWAP1 PUSH2 0x1036 JUMP JUMPDEST DUP1 PUSH1 0x1F ADD PUSH1 0x20 DUP1 SWAP2 DIV MUL PUSH1 0x20 ADD PUSH1 0x40 MLOAD SWAP1 DUP2 ADD PUSH1 0x40 MSTORE DUP1 SWAP3 SWAP2 SWAP1 DUP2 DUP2 MSTORE PUSH1 0x20 ADD DUP3 DUP1 SLOAD PUSH2 0xA32 SWAP1 PUSH2 0x1036 JUMP JUMPDEST DUP1 ISZERO PUSH2 0xA7F JUMPI DUP1 PUSH1 0x1F LT PUSH2 0xA54 JUMPI PUSH2 0x100 DUP1 DUP4 SLOAD DIV MUL DUP4 MSTORE SWAP2 PUSH1 0x20 ADD SWAP2 PUSH2 0xA7F JUMP JUMPDEST DUP3 ADD SWAP2 SWAP1 PUSH1 0x0 MSTORE PUSH1 0x20 PUSH1 0x0 KECCAK256 SWAP1 JUMPDEST DUP2 SLOAD DUP2 MSTORE SWAP1 PUSH1 0x1 ADD SWAP1 PUSH1 0x20 ADD DUP1 DUP4 GT PUSH2 0xA62 JUMPI DUP3 SWAP1 SUB PUSH1 0x1F AND DUP3 ADD SWAP2 JUMPDEST POP POP POP POP POP SWAP1 DUP1 PUSH1 0x4 ADD SLOAD SWAP1 DUP1 PUSH1 0x6 ADD SLOAD SWAP1 POP DUP7 JUMP JUMPDEST PUSH1 0x0 PUSH1 0x40 MLOAD SWAP1 POP SWAP1 JUMP JUMPDEST PUSH1 0x0 DUP1 REVERT JUMPDEST PUSH1 0x0 DUP1 REVERT JUMPDEST PUSH1 0x0 DUP2 SWAP1 POP SWAP2 SWAP1 POP JUMP JUMPDEST PUSH2 0xABC DUP2 PUSH2 0xAA9 JUMP JUMPDEST DUP2 EQ PUSH2 0xAC7 JUMPI PUSH1 0x0 DUP1 REVERT JUMPDEST POP JUMP JUMPDEST PUSH1 0x0 DUP2 CALLDATALOAD SWAP1 POP PUSH2 0xAD9 DUP2 PUSH2 0xAB3 JUMP JUMPDEST SWAP3 SWAP2 POP POP JUMP JUMPDEST PUSH1 0x0 PUSH1 0x20 DUP3 DUP5 SUB SLT ISZERO PUSH2 0xAF5 JUMPI PUSH2 0xAF4 PUSH2 0xA9F JUMP JUMPDEST JUMPDEST PUSH1 0x0 PUSH2 0xB03 DUP5 DUP3 DUP6 ADD PUSH2 0xACA JUMP JUMPDEST SWAP2 POP POP SWAP3 SWAP2 POP POP JUMP JUMPDEST PUSH2 0xB15 DUP2 PUSH2 0xAA9 JUMP JUMPDEST DUP3 MSTORE POP POP JUMP JUMPDEST PUSH1 0x0 PUSH1 0x20 DUP3 ADD SWAP1 POP PUSH2 0xB30 PUSH1 0x0 DUP4 ADD DUP5 PUSH2 0xB0C JUMP JUMPDEST SWAP3 SWAP2 POP POP JUMP JUMPDEST PUSH1 0x0 DUP2 MLOAD SWAP1 POP SWAP2 SWAP1 POP JUMP JUMPDEST PUSH1 0x0 DUP3 DUP3 MSTORE PUSH1 0x20 DUP3 ADD SWAP1 POP SWAP3 SWAP2 POP POP JUMP JUMPDEST PUSH1 0x0 JUMPDEST DUP4 DUP2 LT ISZERO PUSH2 0xB70 JUMPI DUP1 DUP3 ADD MLOAD DUP2 DUP5 ADD MSTORE PUSH1 0x20 DUP2 ADD SWAP1 POP PUSH2 0xB55 JUMP JUMPDEST PUSH1 0x0 DUP5 DUP5 ADD MSTORE POP POP POP POP JUMP JUMPDEST PUSH1 0x0 PUSH1 0x1F NOT PUSH1 0x1F DUP4 ADD AND SWAP1 POP SWAP2 SWAP1 POP JUMP JUMPDEST PUSH1 0x0 PUSH2 0xB98 DUP3 PUSH2 0xB36 JUMP JUMPDEST PUSH2 0xBA2 DUP2 DUP6 PUSH2 0xB41 JUMP JUMPDEST SWAP4 POP PUSH2 0xBB2 DUP2 DUP6 PUSH1 0x20 DUP7 ADD PUSH2 0xB52 JUMP JUMPDEST PUSH2 0xBBB DUP2 PUSH2 0xB7C JUMP JUMPDEST DUP5 ADD SWAP2 POP POP SWAP3 SWAP2 POP POP JUMP JUMPDEST PUSH1 0x0 PUSH1 0xA0 DUP3 ADD SWAP1 POP DUP2 DUP2 SUB PUSH1 0x0 DUP4 ADD MSTORE PUSH2 0xBE0 DUP2 DUP9 PUSH2 0xB8D JUMP JUMPDEST SWAP1 POP DUP2 DUP2 SUB PUSH1 0x20 DUP4 ADD MSTORE PUSH2 0xBF4 DUP2 DUP8 PUSH2 0xB8D JUMP JUMPDEST SWAP1 POP DUP2 DUP2 SUB PUSH1 0x40 DUP4 ADD MSTORE PUSH2 0xC08 DUP2 DUP7 PUSH2 0xB8D JUMP JUMPDEST SWAP1 POP PUSH2 0xC17 PUSH1 0x60 DUP4 ADD DUP6 PUSH2 0xB0C JUMP JUMPDEST PUSH2 0xC24 PUSH1 0x80 DUP4 ADD DUP5 PUSH2 0xB0C JUMP JUMPDEST SWAP7 SWAP6 POP POP POP POP POP POP JUMP JUMPDEST PUSH1 0x0 DUP1 REVERT JUMPDEST PUSH1 0x0 DUP1 REVERT JUMPDEST PUSH32 0x4E487B7100000000000000000000000000000000000000000000000000000000 PUSH1 0x0 MSTORE PUSH1 0x41 PUSH1 0x4 MSTORE PUSH1 0x24 PUSH1 0x0 REVERT JUMPDEST PUSH2 0xC70 DUP3 PUSH2 0xB7C JUMP JUMPDEST DUP2 ADD DUP2 DUP2 LT PUSH8 0xFFFFFFFFFFFFFFFF DUP3 GT OR ISZERO PUSH2 0xC8F JUMPI PUSH2 0xC8E PUSH2 0xC38 JUMP JUMPDEST JUMPDEST DUP1 PUSH1 0x40 MSTORE POP POP POP JUMP JUMPDEST PUSH1 0x0 PUSH2 0xCA2 PUSH2 0xA95 JUMP JUMPDEST SWAP1 POP PUSH2 0xCAE DUP3 DUP3 PUSH2 0xC67 JUMP JUMPDEST SWAP2 SWAP1 POP JUMP JUMPDEST PUSH1 0x0 PUSH8 0xFFFFFFFFFFFFFFFF DUP3 GT ISZERO PUSH2 0xCCE JUMPI PUSH2 0xCCD PUSH2 0xC38 JUMP JUMPDEST JUMPDEST PUSH2 0xCD7 DUP3 PUSH2 0xB7C JUMP JUMPDEST SWAP1 POP PUSH1 0x20 DUP2 ADD SWAP1 POP SWAP2 SWAP1 POP JUMP JUMPDEST DUP3 DUP2 DUP4 CALLDATACOPY PUSH1 0x0 DUP4 DUP4 ADD MSTORE POP POP POP JUMP JUMPDEST PUSH1 0x0 PUSH2 0xD06 PUSH2 0xD01 DUP5 PUSH2 0xCB3 JUMP JUMPDEST PUSH2 0xC98 JUMP JUMPDEST SWAP1 POP DUP3 DUP2 MSTORE PUSH1 0x20 DUP2 ADD DUP5 DUP5 DUP5 ADD GT ISZERO PUSH2 0xD22 JUMPI PUSH2 0xD21 PUSH2 0xC33 JUMP JUMPDEST JUMPDEST PUSH2 0xD2D DUP5 DUP3 DUP6 PUSH2 0xCE4 JUMP JUMPDEST POP SWAP4 SWAP3 POP POP POP JUMP JUMPDEST PUSH1 0x0 DUP3 PUSH1 0x1F DUP4 ADD SLT PUSH2 0xD4A JUMPI PUSH2 0xD49 PUSH2 0xC2E JUMP JUMPDEST JUMPDEST DUP2 CALLDATALOAD PUSH2 0xD5A DUP5 DUP3 PUSH1 0x20 DUP7 ADD PUSH2 0xCF3 JUMP JUMPDEST SWAP2 POP POP SWAP3 SWAP2 POP POP JUMP JUMPDEST PUSH1 0x0 DUP1 PUSH1 0x0 PUSH1 0x60 DUP5 DUP7 SUB SLT ISZERO PUSH2 0xD7C JUMPI PUSH2 0xD7B PUSH2 0xA9F JUMP JUMPDEST JUMPDEST PUSH1 0x0 DUP5 ADD CALLDATALOAD PUSH8 0xFFFFFFFFFFFFFFFF DUP2 GT ISZERO PUSH2 0xD9A JUMPI PUSH2 0xD99 PUSH2 0xAA4 JUMP JUMPDEST JUMPDEST PUSH2 0xDA6 DUP7 DUP3 DUP8 ADD PUSH2 0xD35 JUMP JUMPDEST SWAP4 POP POP PUSH1 0x20 DUP5 ADD CALLDATALOAD PUSH8 0xFFFFFFFFFFFFFFFF DUP2 GT ISZERO PUSH2 0xDC7 JUMPI PUSH2 0xDC6 PUSH2 0xAA4 JUMP JUMPDEST JUMPDEST PUSH2 0xDD3 DUP7 DUP3 DUP8 ADD PUSH2 0xD35 JUMP JUMPDEST SWAP3 POP POP PUSH1 0x40 DUP5 ADD CALLDATALOAD PUSH8 0xFFFFFFFFFFFFFFFF DUP2 GT ISZERO PUSH2 0xDF4 JUMPI PUSH2 0xDF3 PUSH2 0xAA4 JUMP JUMPDEST JUMPDEST PUSH2 0xE00 DUP7 DUP3 DUP8 ADD PUSH2 0xD35 JUMP JUMPDEST SWAP2 POP POP SWAP3 POP SWAP3 POP SWAP3 JUMP JUMPDEST PUSH1 0x0 DUP1 PUSH1 0x40 DUP4 DUP6 SUB SLT ISZERO PUSH2 0xE21 JUMPI PUSH2 0xE20 PUSH2 0xA9F JUMP JUMPDEST JUMPDEST PUSH1 0x0 PUSH2 0xE2F DUP6 DUP3 DUP7 ADD PUSH2 0xACA JUMP JUMPDEST SWAP3 POP POP PUSH1 0x20 PUSH2 0xE40 DUP6 DUP3 DUP7 ADD PUSH2 0xACA JUMP JUMPDEST SWAP2 POP POP SWAP3 POP SWAP3 SWAP1 POP JUMP JUMPDEST PUSH1 0x0 PUSH20 0xFFFFFFFFFFFFFFFFFFFFFFFFFFFFFFFFFFFFFFFF DUP3 AND SWAP1 POP SWAP2 SWAP1 POP JUMP JUMPDEST PUSH1 0x0 PUSH2 0xE75 DUP3 PUSH2 0xE4A JUMP JUMPDEST SWAP1 POP SWAP2 SWAP1 POP JUMP JUMPDEST PUSH2 0xE85 DUP2 PUSH2 0xE6A JUMP JUMPDEST DUP3 MSTORE POP POP JUMP JUMPDEST PUSH1 0x0 PUSH1 0x60 DUP3 ADD SWAP1 POP DUP2 DUP2 SUB PUSH1 0x0 DUP4 ADD MSTORE PUSH2 0xEA5 DUP2 DUP7 PUSH2 0xB8D JUMP JUMPDEST SWAP1 POP PUSH2 0xEB4 PUSH1 0x20 DUP4 ADD DUP6 PUSH2 0xE7C JUMP JUMPDEST PUSH2 0xEC1 PUSH1 0x40 DUP4 ADD DUP5 PUSH2 0xB0C JUMP JUMPDEST SWAP5 SWAP4 POP POP POP POP JUMP JUMPDEST PUSH1 0x0 DUP1 PUSH1 0x40 DUP4 DUP6 SUB SLT ISZERO PUSH2 0xEE0 JUMPI PUSH2 0xEDF PUSH2 0xA9F JUMP JUMPDEST JUMPDEST PUSH1 0x0 PUSH2 0xEEE DUP6 DUP3 DUP7 ADD PUSH2 0xACA JUMP JUMPDEST SWAP3 POP POP PUSH1 0x20 DUP4 ADD CALLDATALOAD PUSH8 0xFFFFFFFFFFFFFFFF DUP2 GT ISZERO PUSH2 0xF0F JUMPI PUSH2 0xF0E PUSH2 0xAA4 JUMP JUMPDEST JUMPDEST PUSH2 0xF1B DUP6 DUP3 DUP7 ADD PUSH2 0xD35 JUMP JUMPDEST SWAP2 POP POP SWAP3 POP SWAP3 SWAP1 POP JUMP JUMPDEST PUSH1 0x0 PUSH1 0xC0 DUP3 ADD SWAP1 POP PUSH2 0xF3A PUSH1 0x0 DUP4 ADD DUP10 PUSH2 0xE7C JUMP JUMPDEST DUP2 DUP2 SUB PUSH1 0x20 DUP4 ADD MSTORE PUSH2 0xF4C DUP2 DUP9 PUSH2 0xB8D JUMP JUMPDEST SWAP1 POP DUP2 DUP2 SUB PUSH1 0x40 DUP4 ADD MSTORE PUSH2 0xF60 DUP2 DUP8 PUSH2 0xB8D JUMP JUMPDEST SWAP1 POP DUP2 DUP2 SUB PUSH1 0x60 DUP4 ADD MSTORE PUSH2 0xF74 DUP2 DUP7 PUSH2 0xB8D JUMP JUMPDEST SWAP1 POP PUSH2 0xF83 PUSH1 0x80 DUP4 ADD DUP6 PUSH2 0xB0C JUMP JUMPDEST PUSH2 0xF90 PUSH1 0xA0 DUP4 ADD DUP5 PUSH2 0xB0C JUMP JUMPDEST SWAP8 SWAP7 POP POP POP POP POP POP POP JUMP JUMPDEST PUSH32 0x496E76616C696420766964656F20494400000000000000000000000000000000 PUSH1 0x0 DUP3 ADD MSTORE POP JUMP JUMPDEST PUSH1 0x0 PUSH2 0xFD1 PUSH1 0x10 DUP4 PUSH2 0xB41 JUMP JUMPDEST SWAP2 POP PUSH2 0xFDC DUP3 PUSH2 0xF9B JUMP JUMPDEST PUSH1 0x20 DUP3 ADD SWAP1 POP SWAP2 SWAP1 POP JUMP JUMPDEST PUSH1 0x0 PUSH1 0x20 DUP3 ADD SWAP1 POP DUP2 DUP2 SUB PUSH1 0x0 DUP4 ADD MSTORE PUSH2 0x1000 DUP2 PUSH2 0xFC4 JUMP JUMPDEST SWAP1 POP SWAP2 SWAP1 POP JUMP JUMPDEST PUSH32 0x4E487B7100000000000000000000000000000000000000000000000000000000 PUSH1 0x0 MSTORE PUSH1 0x22 PUSH1 0x4 MSTORE PUSH1 0x24 PUSH1 0x0 REVERT JUMPDEST PUSH1 0x0 PUSH1 0x2 DUP3 DIV SWAP1 POP PUSH1 0x1 DUP3 AND DUP1 PUSH2 0x104E JUMPI PUSH1 0x7F DUP3 AND SWAP2 POP JUMPDEST PUSH1 0x20 DUP3 LT DUP2 SUB PUSH2 0x1061 JUMPI PUSH2 0x1060 PUSH2 0x1007 JUMP JUMPDEST JUMPDEST POP SWAP2 SWAP1 POP JUMP JUMPDEST PUSH32 0x4E487B7100000000000000000000000000000000000000000000000000000000 PUSH1 0x0 MSTORE PUSH1 0x11 PUSH1 0x4 MSTORE PUSH1 0x24 PUSH1 0x0 REVERT JUMPDEST PUSH1 0x0 PUSH2 0x10A1 DUP3 PUSH2 0xAA9 JUMP JUMPDEST SWAP2 POP PUSH32 0xFFFFFFFFFFFFFFFFFFFFFFFFFFFFFFFFFFFFFFFFFFFFFFFFFFFFFFFFFFFFFFFF DUP3 SUB PUSH2 0x10D3 JUMPI PUSH2 0x10D2 PUSH2 0x1067 JUMP JUMPDEST JUMPDEST PUSH1 0x1 DUP3 ADD SWAP1 POP SWAP2 SWAP1 POP JUMP JUMPDEST PUSH1 0x0 DUP2 SWAP1 POP DUP2 PUSH1 0x0 MSTORE PUSH1 0x20 PUSH1 0x0 KECCAK256 SWAP1 POP SWAP2 SWAP1 POP JUMP JUMPDEST PUSH1 0x0 PUSH1 0x20 PUSH1 0x1F DUP4 ADD DIV SWAP1 POP SWAP2 SWAP1 POP JUMP JUMPDEST PUSH1 0x0 DUP3 DUP3 SHL SWAP1 POP SWAP3 SWAP2 POP POP JUMP JUMPDEST PUSH1 0x0 PUSH1 0x8 DUP4 MUL PUSH2 0x1140 PUSH32 0xFFFFFFFFFFFFFFFFFFFFFFFFFFFFFFFFFFFFFFFFFFFFFFFFFFFFFFFFFFFFFFFF DUP3 PUSH2 0x1103 JUMP JUMPDEST PUSH2 0x114A DUP7 DUP4 PUSH2 0x1103 JUMP JUMPDEST SWAP6 POP DUP1 NOT DUP5 AND SWAP4 POP DUP1 DUP7 AND DUP5 OR SWAP3 POP POP POP SWAP4 SWAP3 POP POP POP JUMP JUMPDEST PUSH1 0x0 DUP2 SWAP1 POP SWAP2 SWAP1 POP JUMP JUMPDEST PUSH1 0x0 PUSH2 0x1187 PUSH2 0x1182 PUSH2 0x117D DUP5 PUSH2 0xAA9 JUMP JUMPDEST PUSH2 0x1162 JUMP JUMPDEST PUSH2 0xAA9 JUMP JUMPDEST SWAP1 POP SWAP2 SWAP1 POP JUMP JUMPDEST PUSH1 0x0 DUP2 SWAP1 POP SWAP2 SWAP1 POP JUMP JUMPDEST PUSH2 0x11A1 DUP4 PUSH2 0x116C JUMP JUMPDEST PUSH2 0x11B5 PUSH2 0x11AD DUP3 PUSH2 0x118E JUMP JUMPDEST DUP5 DUP5 SLOAD PUSH2 0x1110 JUMP JUMPDEST DUP3 SSTORE POP POP POP POP JUMP JUMPDEST PUSH1 0x0 SWAP1 JUMP JUMPDEST PUSH2 0x11CA PUSH2 0x11BD JUMP JUMPDEST PUSH2 0x11D5 DUP2 DUP5 DUP5 PUSH2 0x1198 JUMP JUMPDEST POP POP POP JUMP JUMPDEST JUMPDEST DUP2 DUP2 LT ISZERO PUSH2 0x11F9 JUMPI PUSH2 0x11EE PUSH1 0x0 DUP3 PUSH2 0x11C2 JUMP JUMPDEST PUSH1 0x1 DUP2 ADD SWAP1 POP PUSH2 0x11DB JUMP JUMPDEST POP POP JUMP JUMPDEST PUSH1 0x1F DUP3 GT ISZERO PUSH2 0x123E JUMPI PUSH2 0x120F DUP2 PUSH2 0x10DE JUMP JUMPDEST PUSH2 0x1218 DUP5 PUSH2 0x10F3 JUMP JUMPDEST DUP2 ADD PUSH1 0x20 DUP6 LT ISZERO PUSH2 0x1227 JUMPI DUP2 SWAP1 POP JUMPDEST PUSH2 0x123B PUSH2 0x1233 DUP6 PUSH2 0x10F3 JUMP JUMPDEST DUP4 ADD DUP3 PUSH2 0x11DA JUMP JUMPDEST POP POP JUMPDEST POP POP POP JUMP JUMPDEST PUSH1 0x0 DUP3 DUP3 SHR SWAP1 POP SWAP3 SWAP2 POP POP JUMP JUMPDEST PUSH1 0x0 PUSH2 0x1261 PUSH1 0x0 NOT DUP5 PUSH1 0x8 MUL PUSH2 0x1243 JUMP JUMPDEST NOT DUP1 DUP4 AND SWAP2 POP POP SWAP3 SWAP2 POP POP JUMP JUMPDEST PUSH1 0x0 PUSH2 0x127A DUP4 DUP4 PUSH2 0x1250 JUMP JUMPDEST SWAP2 POP DUP3 PUSH1 0x2 MUL DUP3 OR SWAP1 POP SWAP3 SWAP2 POP POP JUMP JUMPDEST PUSH2 0x1293 DUP3 PUSH2 0xB36 JUMP JUMPDEST PUSH8 0xFFFFFFFFFFFFFFFF DUP2 GT ISZERO PUSH2 0x12AC JUMPI PUSH2 0x12AB PUSH2 0xC38 JUMP JUMPDEST JUMPDEST PUSH2 0x12B6 DUP3 SLOAD PUSH2 0x1036 JUMP JUMPDEST PUSH2 0x12C1 DUP3 DUP3 DUP6 PUSH2 0x11FD JUMP JUMPDEST PUSH1 0x0 PUSH1 0x20 SWAP1 POP PUSH1 0x1F DUP4 GT PUSH1 0x1 DUP2 EQ PUSH2 0x12F4 JUMPI PUSH1 0x0 DUP5 ISZERO PUSH2 0x12E2 JUMPI DUP3 DUP8 ADD MLOAD SWAP1 POP JUMPDEST PUSH2 0x12EC DUP6 DUP3 PUSH2 0x126E JUMP JUMPDEST DUP7 SSTORE POP PUSH2 0x1354 JUMP JUMPDEST PUSH1 0x1F NOT DUP5 AND PUSH2 0x1302 DUP7 PUSH2 0x10DE JUMP JUMPDEST PUSH1 0x0 JUMPDEST DUP3 DUP2 LT ISZERO PUSH2 0x132A JUMPI DUP5 DUP10 ADD MLOAD DUP3 SSTORE PUSH1 0x1 DUP3 ADD SWAP2 POP PUSH1 0x20 DUP6 ADD SWAP5 POP PUSH1 0x20 DUP2 ADD SWAP1 POP PUSH2 0x1305 JUMP JUMPDEST DUP7 DUP4 LT ISZERO PUSH2 0x1347 JUMPI DUP5 DUP10 ADD MLOAD PUSH2 0x1343 PUSH1 0x1F DUP10 AND DUP3 PUSH2 0x1250 JUMP JUMPDEST DUP4 SSTORE POP JUMPDEST PUSH1 0x1 PUSH1 0x2 DUP9 MUL ADD DUP9 SSTORE POP POP POP JUMPDEST POP POP POP POP POP POP JUMP JUMPDEST PUSH1 0x0 PUSH1 0xA0 DUP3 ADD SWAP1 POP PUSH2 0x1371 PUSH1 0x0 DUP4 ADD DUP9 PUSH2 0xB0C JUMP JUMPDEST DUP2 DUP2 SUB PUSH1 0x20 DUP4 ADD MSTORE PUSH2 0x1383 DUP2 DUP8 PUSH2 0xB8D JUMP JUMPDEST SWAP1 POP DUP2 DUP2 SUB PUSH1 0x40 DUP4 ADD MSTORE PUSH2 0x1397 DUP2 DUP7 PUSH2 0xB8D JUMP JUMPDEST SWAP1 POP DUP2 DUP2 SUB PUSH1 0x60 DUP4 ADD MSTORE PUSH2 0x13AB DUP2 DUP6 PUSH2 0xB8D JUMP JUMPDEST SWAP1 POP PUSH2 0x13BA PUSH1 0x80 DUP4 ADD DUP5 PUSH2 0xB0C JUMP JUMPDEST SWAP7 SWAP6 POP POP POP POP POP POP JUMP JUMPDEST PUSH32 0x496E76616C696420636F6D6D656E742049440000000000000000000000000000 PUSH1 0x0 DUP3 ADD MSTORE POP JUMP JUMPDEST PUSH1 0x0 PUSH2 0x13FA PUSH1 0x12 DUP4 PUSH2 0xB41 JUMP JUMPDEST SWAP2 POP PUSH2 0x1405 DUP3 PUSH2 0x13C4 JUMP JUMPDEST PUSH1 0x20 DUP3 ADD SWAP1 POP SWAP2 SWAP1 POP JUMP JUMPDEST PUSH1 0x0 PUSH1 0x20 DUP3 ADD SWAP1 POP DUP2 DUP2 SUB PUSH1 0x0 DUP4 ADD MSTORE PUSH2 0x1429 DUP2 PUSH2 0x13ED JUMP JUMPDEST SWAP1 POP SWAP2 SWAP1 POP JUMP JUMPDEST PUSH1 0x0 PUSH1 0x80 DUP3 ADD SWAP1 POP PUSH2 0x1445 PUSH1 0x0 DUP4 ADD DUP8 PUSH2 0xB0C JUMP JUMPDEST PUSH2 0x1452 PUSH1 0x20 DUP4 ADD DUP7 PUSH2 0xB0C JUMP JUMPDEST DUP2 DUP2 SUB PUSH1 0x40 DUP4 ADD MSTORE PUSH2 0x1464 DUP2 DUP6 PUSH2 0xB8D JUMP JUMPDEST SWAP1 POP PUSH2 0x1473 PUSH1 0x60 DUP4 ADD DUP5 PUSH2 0xB0C JUMP JUMPDEST SWAP6 SWAP5 POP POP POP POP POP JUMP INVALID LOG2 PUSH5 0x6970667358 0x22 SLT KECCAK256 PUSH20 0xFDD737B2CC3B6FCD537560AA7F90E188B512BDA0 EXTCODESIZE KECCAK256 0x25 SWAP2 CHAINID EQ 0xCB DUP7 CREATE SHR PUSH9 0x64736F6C6343000812 STOP CALLER "
				},
				"gasEstimates": {
					"creation": {
						"codeDepositCost": "1059600",
						"executionCost": "6106",
						"totalCost": "1065706"
					},
					"external": {
						"addComment(uint256,string)": "infinite",
						"getComment(uint256,uint256)": "infinite",
						"getCommentCount(uint256)": "infinite",
						"getVideo(uint256)": "infinite",
						"getVideoCount()": "2437",
						"uploadVideo(string,string,string)": "infinite",
						"videoCount()": "2473",
						"videos(uint256)": "infinite"
					}
				},
				"methodIdentifiers": {
					"addComment(uint256,string)": "aa7e5683",
					"getComment(uint256,uint256)": "48892753",
					"getCommentCount(uint256)": "0d4bfb4f",
					"getVideo(uint256)": "2893eca2",
					"getVideoCount()": "a286c0b9",
					"uploadVideo(string,string,string)": "4875e9fd",
					"videoCount()": "c61b5f4c",
					"videos(uint256)": "e6821bf5"
				}
			},
			"storageLayout": {
				"storage": [
					{
						"astId": 31,
						"contract": "Documents/GitHub/VideoSharingDapp/contract.sol:VideoShare",
						"label": "videos",
						"offset": 0,
						"slot": "0",
						"type": "t_mapping(t_uint256,t_struct(Video)19_storage)"
					},
					{
						"astId": 34,
						"contract": "Documents/GitHub/VideoSharingDapp/contract.sol:VideoShare",
						"label": "videoCount",
						"offset": 0,
						"slot": "1",
						"type": "t_uint256"
					}
				],
				"types": {
					"t_address": {
						"encoding": "inplace",
						"label": "address",
						"numberOfBytes": "20"
					},
					"t_mapping(t_uint256,t_struct(Comment)26_storage)": {
						"encoding": "mapping",
						"key": "t_uint256",
						"label": "mapping(uint256 => struct VideoShare.Comment)",
						"numberOfBytes": "32",
						"value": "t_struct(Comment)26_storage"
					},
					"t_mapping(t_uint256,t_struct(Video)19_storage)": {
						"encoding": "mapping",
						"key": "t_uint256",
						"label": "mapping(uint256 => struct VideoShare.Video)",
						"numberOfBytes": "32",
						"value": "t_struct(Video)19_storage"
					},
					"t_string_storage": {
						"encoding": "bytes",
						"label": "string",
						"numberOfBytes": "32"
					},
					"t_struct(Comment)26_storage": {
						"encoding": "inplace",
						"label": "struct VideoShare.Comment",
						"members": [
							{
								"astId": 21,
								"contract": "Documents/GitHub/VideoSharingDapp/contract.sol:VideoShare",
								"label": "commenter",
								"offset": 0,
								"slot": "0",
								"type": "t_address"
							},
							{
								"astId": 23,
								"contract": "Documents/GitHub/VideoSharingDapp/contract.sol:VideoShare",
								"label": "text",
								"offset": 0,
								"slot": "1",
								"type": "t_string_storage"
							},
							{
								"astId": 25,
								"contract": "Documents/GitHub/VideoSharingDapp/contract.sol:VideoShare",
								"label": "timestamp",
								"offset": 0,
								"slot": "2",
								"type": "t_uint256"
							}
						],
						"numberOfBytes": "96"
					},
					"t_struct(Video)19_storage": {
						"encoding": "inplace",
						"label": "struct VideoShare.Video",
						"members": [
							{
								"astId": 3,
								"contract": "Documents/GitHub/VideoSharingDapp/contract.sol:VideoShare",
								"label": "owner",
								"offset": 0,
								"slot": "0",
								"type": "t_address"
							},
							{
								"astId": 5,
								"contract": "Documents/GitHub/VideoSharingDapp/contract.sol:VideoShare",
								"label": "title",
								"offset": 0,
								"slot": "1",
								"type": "t_string_storage"
							},
							{
								"astId": 7,
								"contract": "Documents/GitHub/VideoSharingDapp/contract.sol:VideoShare",
								"label": "description",
								"offset": 0,
								"slot": "2",
								"type": "t_string_storage"
							},
							{
								"astId": 9,
								"contract": "Documents/GitHub/VideoSharingDapp/contract.sol:VideoShare",
								"label": "videoHash",
								"offset": 0,
								"slot": "3",
								"type": "t_string_storage"
							},
							{
								"astId": 11,
								"contract": "Documents/GitHub/VideoSharingDapp/contract.sol:VideoShare",
								"label": "timestamp",
								"offset": 0,
								"slot": "4",
								"type": "t_uint256"
							},
							{
								"astId": 16,
								"contract": "Documents/GitHub/VideoSharingDapp/contract.sol:VideoShare",
								"label": "comments",
								"offset": 0,
								"slot": "5",
								"type": "t_mapping(t_uint256,t_struct(Comment)26_storage)"
							},
							{
								"astId": 18,
								"contract": "Documents/GitHub/VideoSharingDapp/contract.sol:VideoShare",
								"label": "commentCount",
								"offset": 0,
								"slot": "6",
								"type": "t_uint256"
							}
						],
						"numberOfBytes": "224"
					},
					"t_uint256": {
						"encoding": "inplace",
						"label": "uint256",
						"numberOfBytes": "32"
					}
				}
			},
			"userdoc": {
				"kind": "user",
				"methods": {},
				"version": 1
			}
		}
	}
}