{
	"contract.sol": {
		"VideoShare": {
			"abi": [
				{
					"anonymous": false,
					"inputs": [
						{
							"indexed": false,
							"internalType": "uint256",
							"name": "videoId",
							"type": "uint256"
						},
						{
							"indexed": false,
							"internalType": "uint256",
							"name": "commentId",
							"type": "uint256"
						},
						{
							"indexed": false,
							"internalType": "string",
							"name": "text",
							"type": "string"
						},
						{
							"indexed": false,
							"internalType": "uint256",
							"name": "timestamp",
							"type": "uint256"
						}
					],
					"name": "CommentAdded",
					"type": "event"
				},
				{
					"anonymous": false,
					"inputs": [
						{
							"indexed": false,
							"internalType": "uint256",
							"name": "videoId",
							"type": "uint256"
						},
						{
							"indexed": false,
							"internalType": "string",
							"name": "title",
							"type": "string"
						},
						{
							"indexed": false,
							"internalType": "string",
							"name": "description",
							"type": "string"
						},
						{
							"indexed": false,
							"internalType": "string",
							"name": "videoHash",
							"type": "string"
						},
						{
							"indexed": false,
							"internalType": "uint256",
							"name": "timestamp",
							"type": "uint256"
						}
					],
					"name": "VideoUploaded",
					"type": "event"
				},
				{
					"inputs": [
						{
							"internalType": "uint256",
							"name": "_videoId",
							"type": "uint256"
						},
						{
							"internalType": "string",
							"name": "_text",
							"type": "string"
						}
					],
					"name": "addComment",
					"outputs": [],
					"stateMutability": "nonpayable",
					"type": "function"
				},
				{
					"inputs": [
						{
							"internalType": "uint256",
							"name": "_videoId",
							"type": "uint256"
						},
						{
							"internalType": "uint256",
							"name": "_commentId",
							"type": "uint256"
						}
					],
					"name": "getComment",
					"outputs": [
						{
							"internalType": "string",
							"name": "",
							"type": "string"
						},
						{
							"internalType": "address",
							"name": "",
							"type": "address"
						},
						{
							"internalType": "uint256",
							"name": "",
							"type": "uint256"
						}
					],
					"stateMutability": "view",
					"type": "function"
				},
				{
					"inputs": [
						{
							"internalType": "uint256",
							"name": "_videoId",
							"type": "uint256"
						}
					],
					"name": "getCommentCount",
					"outputs": [
						{
							"internalType": "uint256",
							"name": "",
							"type": "uint256"
						}
					],
					"stateMutability": "view",
					"type": "function"
				},
				{
					"inputs": [
						{
							"internalType": "uint256",
							"name": "_videoId",
							"type": "uint256"
						}
					],
					"name": "getVideo",
					"outputs": [
						{
							"internalType": "string",
							"name": "",
							"type": "string"
						},
						{
							"internalType": "string",
							"name": "",
							"type": "string"
						},
						{
							"internalType": "string",
							"name": "",
							"type": "string"
						},
						{
							"internalType": "string",
							"name": "",
							"type": "string"
						},
						{
							"internalType": "uint256",
							"name": "",
							"type": "uint256"
						},
						{
							"internalType": "uint256",
							"name": "",
							"type": "uint256"
						}
					],
					"stateMutability": "view",
					"type": "function"
				},
				{
					"inputs": [],
					"name": "getVideoCount",
					"outputs": [
						{
							"internalType": "uint256",
							"name": "",
							"type": "uint256"
						}
					],
					"stateMutability": "view",
					"type": "function"
				},
				{
					"inputs": [
						{
							"internalType": "string",
							"name": "_title",
							"type": "string"
						},
						{
							"internalType": "string",
							"name": "_description",
							"type": "string"
						},
						{
							"internalType": "string",
							"name": "_url",
							"type": "string"
						},
						{
							"internalType": "string",
							"name": "_videoHash",
							"type": "string"
						}
					],
					"name": "uploadVideo",
					"outputs": [],
					"stateMutability": "nonpayable",
					"type": "function"
				},
				{
					"inputs": [],
					"name": "videoCount",
					"outputs": [
						{
							"internalType": "uint256",
							"name": "",
							"type": "uint256"
						}
					],
					"stateMutability": "view",
					"type": "function"
				},
				{
					"inputs": [
						{
							"internalType": "uint256",
							"name": "",
							"type": "uint256"
						}
					],
					"name": "videos",
					"outputs": [
						{
							"internalType": "address",
							"name": "owner",
							"type": "address"
						},
						{
							"internalType": "string",
							"name": "title",
							"type": "string"
						},
						{
							"internalType": "string",
							"name": "description",
							"type": "string"
						},
						{
							"internalType": "string",
							"name": "videoHash",
							"type": "string"
						},
						{
							"internalType": "string",
							"name": "url",
							"type": "string"
						},
						{
							"internalType": "uint256",
							"name": "timestamp",
							"type": "uint256"
						},
						{
							"internalType": "uint256",
							"name": "commentCount",
							"type": "uint256"
						}
					],
					"stateMutability": "view",
					"type": "function"
				}
			],
			"devdoc": {
				"kind": "dev",
				"methods": {},
				"version": 1
			},
			"evm": {
				"assembly": "    /* \"contract.sol\":56:2788  contract VideoShare {... */\n  mstore(0x40, 0x80)\n    /* \"contract.sol\":506:507  0 */\n  0x00\n    /* \"contract.sol\":478:507  uint256 public videoCount = 0 */\n  0x01\n  sstore\n    /* \"contract.sol\":56:2788  contract VideoShare {... */\n  callvalue\n  dup1\n  iszero\n  tag_1\n  jumpi\n  0x00\n  dup1\n  revert\ntag_1:\n  pop\n  dataSize(sub_0)\n  dup1\n  dataOffset(sub_0)\n  0x00\n  codecopy\n  0x00\n  return\nstop\n\nsub_0: assembly {\n        /* \"contract.sol\":56:2788  contract VideoShare {... */\n      mstore(0x40, 0x80)\n      callvalue\n      dup1\n      iszero\n      tag_1\n      jumpi\n      0x00\n      dup1\n      revert\n    tag_1:\n      pop\n      jumpi(tag_2, lt(calldatasize, 0x04))\n      shr(0xe0, calldataload(0x00))\n      dup1\n      0xaa7e5683\n      gt\n      tag_11\n      jumpi\n      dup1\n      0xaa7e5683\n      eq\n      tag_7\n      jumpi\n      dup1\n      0xc61b5f4c\n      eq\n      tag_8\n      jumpi\n      dup1\n      0xdb83644b\n      eq\n      tag_9\n      jumpi\n      dup1\n      0xe6821bf5\n      eq\n      tag_10\n      jumpi\n      jump(tag_2)\n    tag_11:\n      dup1\n      0x0d4bfb4f\n      eq\n      tag_3\n      jumpi\n      dup1\n      0x2893eca2\n      eq\n      tag_4\n      jumpi\n      dup1\n      0x48892753\n      eq\n      tag_5\n      jumpi\n      dup1\n      0xa286c0b9\n      eq\n      tag_6\n      jumpi\n    tag_2:\n      0x00\n      dup1\n      revert\n        /* \"contract.sol\":2583:2786  function getCommentCount(uint256 _videoId) public view returns (uint256) {... */\n    tag_3:\n      tag_12\n      0x04\n      dup1\n      calldatasize\n      sub\n      dup2\n      add\n      swap1\n      tag_13\n      swap2\n      swap1\n      tag_14\n      jump\t// in\n    tag_13:\n      tag_15\n      jump\t// in\n    tag_12:\n      mload(0x40)\n      tag_16\n      swap2\n      swap1\n      tag_17\n      jump\t// in\n    tag_16:\n      mload(0x40)\n      dup1\n      swap2\n      sub\n      swap1\n      return\n        /* \"contract.sol\":1653:2032  function getVideo(uint256 _videoId) public view returns (string memory, string memory, string memory,string memory, uint256, uint256) {... */\n    tag_4:\n      tag_18\n      0x04\n      dup1\n      calldatasize\n      sub\n      dup2\n      add\n      swap1\n      tag_19\n      swap2\n      swap1\n      tag_14\n      jump\t// in\n    tag_19:\n      tag_20\n      jump\t// in\n    tag_18:\n      mload(0x40)\n      tag_21\n      swap7\n      swap6\n      swap5\n      swap4\n      swap3\n      swap2\n      swap1\n      tag_22\n      jump\t// in\n    tag_21:\n      mload(0x40)\n      dup1\n      swap2\n      sub\n      swap1\n      return\n        /* \"contract.sol\":2042:2482  function getComment(uint256 _videoId, uint256 _commentId) public view returns (string memory, address, uint256) {... */\n    tag_5:\n      tag_23\n      0x04\n      dup1\n      calldatasize\n      sub\n      dup2\n      add\n      swap1\n      tag_24\n      swap2\n      swap1\n      tag_25\n      jump\t// in\n    tag_24:\n      tag_26\n      jump\t// in\n    tag_23:\n      mload(0x40)\n      tag_27\n      swap4\n      swap3\n      swap2\n      swap1\n      tag_28\n      jump\t// in\n    tag_27:\n      mload(0x40)\n      dup1\n      swap2\n      sub\n      swap1\n      return\n        /* \"contract.sol\":2488:2577  function getVideoCount() public view returns (uint256) {... */\n    tag_6:\n      tag_29\n      tag_30\n      jump\t// in\n    tag_29:\n      mload(0x40)\n      tag_31\n      swap2\n      swap1\n      tag_17\n      jump\t// in\n    tag_31:\n      mload(0x40)\n      dup1\n      swap2\n      sub\n      swap1\n      return\n        /* \"contract.sol\":1248:1647  function addComment(uint256 _videoId, string memory _text) public {... */\n    tag_7:\n      tag_32\n      0x04\n      dup1\n      calldatasize\n      sub\n      dup2\n      add\n      swap1\n      tag_33\n      swap2\n      swap1\n      tag_34\n      jump\t// in\n    tag_33:\n      tag_35\n      jump\t// in\n    tag_32:\n      stop\n        /* \"contract.sol\":478:507  uint256 public videoCount = 0 */\n    tag_8:\n      tag_36\n      tag_37\n      jump\t// in\n    tag_36:\n      mload(0x40)\n      tag_38\n      swap2\n      swap1\n      tag_17\n      jump\t// in\n    tag_38:\n      mload(0x40)\n      dup1\n      swap2\n      sub\n      swap1\n      return\n        /* \"contract.sol\":720:1242  function uploadVideo(string memory _title, string memory _description ,string memory _url ,string memory _videoHash) public {... */\n    tag_9:\n      tag_39\n      0x04\n      dup1\n      calldatasize\n      sub\n      dup2\n      add\n      swap1\n      tag_40\n      swap2\n      swap1\n      tag_41\n      jump\t// in\n    tag_40:\n      tag_42\n      jump\t// in\n    tag_39:\n      stop\n        /* \"contract.sol\":433:472  mapping(uint256 => Video) public videos */\n    tag_10:\n      tag_43\n      0x04\n      dup1\n      calldatasize\n      sub\n      dup2\n      add\n      swap1\n      tag_44\n      swap2\n      swap1\n      tag_14\n      jump\t// in\n    tag_44:\n      tag_45\n      jump\t// in\n    tag_43:\n      mload(0x40)\n      tag_46\n      swap8\n      swap7\n      swap6\n      swap5\n      swap4\n      swap3\n      swap2\n      swap1\n      tag_47\n      jump\t// in\n    tag_46:\n      mload(0x40)\n      dup1\n      swap2\n      sub\n      swap1\n      return\n        /* \"contract.sol\":2583:2786  function getCommentCount(uint256 _videoId) public view returns (uint256) {... */\n    tag_15:\n        /* \"contract.sol\":2647:2654  uint256 */\n      0x00\n        /* \"contract.sol\":2686:2696  videoCount */\n      sload(0x01)\n        /* \"contract.sol\":2674:2682  _videoId */\n      dup3\n        /* \"contract.sol\":2674:2696  _videoId <= videoCount */\n      gt\n      iszero\n        /* \"contract.sol\":2674:2712  _videoId <= videoCount && _videoId > 0 */\n      dup1\n      iszero\n      tag_49\n      jumpi\n      pop\n        /* \"contract.sol\":2711:2712  0 */\n      0x00\n        /* \"contract.sol\":2700:2708  _videoId */\n      dup3\n        /* \"contract.sol\":2700:2712  _videoId > 0 */\n      gt\n        /* \"contract.sol\":2674:2712  _videoId <= videoCount && _videoId > 0 */\n    tag_49:\n        /* \"contract.sol\":2666:2733  require(_videoId <= videoCount && _videoId > 0, \"Invalid video ID\") */\n      tag_50\n      jumpi\n      mload(0x40)\n      0x08c379a000000000000000000000000000000000000000000000000000000000\n      dup2\n      mstore\n      0x04\n      add\n      tag_51\n      swap1\n      tag_52\n      jump\t// in\n    tag_51:\n      mload(0x40)\n      dup1\n      swap2\n      sub\n      swap1\n      revert\n    tag_50:\n        /* \"contract.sol\":2750:2756  videos */\n      0x00\n        /* \"contract.sol\":2750:2766  videos[_videoId] */\n      dup1\n        /* \"contract.sol\":2757:2765  _videoId */\n      dup4\n        /* \"contract.sol\":2750:2766  videos[_videoId] */\n      dup2\n      mstore\n      0x20\n      add\n      swap1\n      dup2\n      mstore\n      0x20\n      add\n      0x00\n      keccak256\n        /* \"contract.sol\":2750:2779  videos[_videoId].commentCount */\n      0x07\n      add\n      sload\n        /* \"contract.sol\":2743:2779  return videos[_videoId].commentCount */\n      swap1\n      pop\n        /* \"contract.sol\":2583:2786  function getCommentCount(uint256 _videoId) public view returns (uint256) {... */\n      swap2\n      swap1\n      pop\n      jump\t// out\n        /* \"contract.sol\":1653:2032  function getVideo(uint256 _videoId) public view returns (string memory, string memory, string memory,string memory, uint256, uint256) {... */\n    tag_20:\n        /* \"contract.sol\":1710:1723  string memory */\n      0x60\n        /* \"contract.sol\":1725:1738  string memory */\n      dup1\n        /* \"contract.sol\":1740:1753  string memory */\n      0x60\n        /* \"contract.sol\":1754:1767  string memory */\n      dup1\n        /* \"contract.sol\":1769:1776  uint256 */\n      0x00\n        /* \"contract.sol\":1778:1785  uint256 */\n      dup1\n        /* \"contract.sol\":1817:1827  videoCount */\n      sload(0x01)\n        /* \"contract.sol\":1805:1813  _videoId */\n      dup8\n        /* \"contract.sol\":1805:1827  _videoId <= videoCount */\n      gt\n      iszero\n        /* \"contract.sol\":1805:1843  _videoId <= videoCount && _videoId > 0 */\n      dup1\n      iszero\n      tag_54\n      jumpi\n      pop\n        /* \"contract.sol\":1842:1843  0 */\n      0x00\n        /* \"contract.sol\":1831:1839  _videoId */\n      dup8\n        /* \"contract.sol\":1831:1843  _videoId > 0 */\n      gt\n        /* \"contract.sol\":1805:1843  _videoId <= videoCount && _videoId > 0 */\n    tag_54:\n        /* \"contract.sol\":1797:1864  require(_videoId <= videoCount && _videoId > 0, \"Invalid video ID\") */\n      tag_55\n      jumpi\n      mload(0x40)\n      0x08c379a000000000000000000000000000000000000000000000000000000000\n      dup2\n      mstore\n      0x04\n      add\n      tag_56\n      swap1\n      tag_52\n      jump\t// in\n    tag_56:\n      mload(0x40)\n      dup1\n      swap2\n      sub\n      swap1\n      revert\n    tag_55:\n        /* \"contract.sol\":1874:1893  Video storage video */\n      0x00\n        /* \"contract.sol\":1896:1902  videos */\n      dup1\n        /* \"contract.sol\":1896:1912  videos[_videoId] */\n      0x00\n        /* \"contract.sol\":1903:1911  _videoId */\n      dup10\n        /* \"contract.sol\":1896:1912  videos[_videoId] */\n      dup2\n      mstore\n      0x20\n      add\n      swap1\n      dup2\n      mstore\n      0x20\n      add\n      0x00\n      keccak256\n        /* \"contract.sol\":1874:1912  Video storage video = videos[_videoId] */\n      swap1\n      pop\n        /* \"contract.sol\":1930:1935  video */\n      dup1\n        /* \"contract.sol\":1930:1941  video.title */\n      0x01\n      add\n        /* \"contract.sol\":1943:1948  video */\n      dup2\n        /* \"contract.sol\":1943:1960  video.description */\n      0x02\n      add\n        /* \"contract.sol\":1962:1967  video */\n      dup3\n        /* \"contract.sol\":1962:1977  video.videoHash */\n      0x03\n      add\n        /* \"contract.sol\":1978:1983  video */\n      dup4\n        /* \"contract.sol\":1978:1987  video.url */\n      0x04\n      add\n        /* \"contract.sol\":1989:1994  video */\n      dup5\n        /* \"contract.sol\":1989:2004  video.timestamp */\n      0x05\n      add\n      sload\n        /* \"contract.sol\":2006:2011  video */\n      dup6\n        /* \"contract.sol\":2006:2024  video.commentCount */\n      0x07\n      add\n      sload\n        /* \"contract.sol\":1922:2025  return (video.title, video.description, video.videoHash,video.url, video.timestamp, video.commentCount) */\n      dup6\n      dup1\n      sload\n      tag_57\n      swap1\n      tag_58\n      jump\t// in\n    tag_57:\n      dup1\n      0x1f\n      add\n      0x20\n      dup1\n      swap2\n      div\n      mul\n      0x20\n      add\n      mload(0x40)\n      swap1\n      dup2\n      add\n      0x40\n      mstore\n      dup1\n      swap3\n      swap2\n      swap1\n      dup2\n      dup2\n      mstore\n      0x20\n      add\n      dup3\n      dup1\n      sload\n      tag_59\n      swap1\n      tag_58\n      jump\t// in\n    tag_59:\n      dup1\n      iszero\n      tag_60\n      jumpi\n      dup1\n      0x1f\n      lt\n      tag_61\n      jumpi\n      0x0100\n      dup1\n      dup4\n      sload\n      div\n      mul\n      dup4\n      mstore\n      swap2\n      0x20\n      add\n      swap2\n      jump(tag_60)\n    tag_61:\n      dup3\n      add\n      swap2\n      swap1\n      0x00\n      mstore\n      keccak256(0x00, 0x20)\n      swap1\n    tag_62:\n      dup2\n      sload\n      dup2\n      mstore\n      swap1\n      0x01\n      add\n      swap1\n      0x20\n      add\n      dup1\n      dup4\n      gt\n      tag_62\n      jumpi\n      dup3\n      swap1\n      sub\n      0x1f\n      and\n      dup3\n      add\n      swap2\n    tag_60:\n      pop\n      pop\n      pop\n      pop\n      pop\n      swap6\n      pop\n      dup5\n      dup1\n      sload\n      tag_63\n      swap1\n      tag_58\n      jump\t// in\n    tag_63:\n      dup1\n      0x1f\n      add\n      0x20\n      dup1\n      swap2\n      div\n      mul\n      0x20\n      add\n      mload(0x40)\n      swap1\n      dup2\n      add\n      0x40\n      mstore\n      dup1\n      swap3\n      swap2\n      swap1\n      dup2\n      dup2\n      mstore\n      0x20\n      add\n      dup3\n      dup1\n      sload\n      tag_64\n      swap1\n      tag_58\n      jump\t// in\n    tag_64:\n      dup1\n      iszero\n      tag_65\n      jumpi\n      dup1\n      0x1f\n      lt\n      tag_66\n      jumpi\n      0x0100\n      dup1\n      dup4\n      sload\n      div\n      mul\n      dup4\n      mstore\n      swap2\n      0x20\n      add\n      swap2\n      jump(tag_65)\n    tag_66:\n      dup3\n      add\n      swap2\n      swap1\n      0x00\n      mstore\n      keccak256(0x00, 0x20)\n      swap1\n    tag_67:\n      dup2\n      sload\n      dup2\n      mstore\n      swap1\n      0x01\n      add\n      swap1\n      0x20\n      add\n      dup1\n      dup4\n      gt\n      tag_67\n      jumpi\n      dup3\n      swap1\n      sub\n      0x1f\n      and\n      dup3\n      add\n      swap2\n    tag_65:\n      pop\n      pop\n      pop\n      pop\n      pop\n      swap5\n      pop\n      dup4\n      dup1\n      sload\n      tag_68\n      swap1\n      tag_58\n      jump\t// in\n    tag_68:\n      dup1\n      0x1f\n      add\n      0x20\n      dup1\n      swap2\n      div\n      mul\n      0x20\n      add\n      mload(0x40)\n      swap1\n      dup2\n      add\n      0x40\n      mstore\n      dup1\n      swap3\n      swap2\n      swap1\n      dup2\n      dup2\n      mstore\n      0x20\n      add\n      dup3\n      dup1\n      sload\n      tag_69\n      swap1\n      tag_58\n      jump\t// in\n    tag_69:\n      dup1\n      iszero\n      tag_70\n      jumpi\n      dup1\n      0x1f\n      lt\n      tag_71\n      jumpi\n      0x0100\n      dup1\n      dup4\n      sload\n      div\n      mul\n      dup4\n      mstore\n      swap2\n      0x20\n      add\n      swap2\n      jump(tag_70)\n    tag_71:\n      dup3\n      add\n      swap2\n      swap1\n      0x00\n      mstore\n      keccak256(0x00, 0x20)\n      swap1\n    tag_72:\n      dup2\n      sload\n      dup2\n      mstore\n      swap1\n      0x01\n      add\n      swap1\n      0x20\n      add\n      dup1\n      dup4\n      gt\n      tag_72\n      jumpi\n      dup3\n      swap1\n      sub\n      0x1f\n      and\n      dup3\n      add\n      swap2\n    tag_70:\n      pop\n      pop\n      pop\n      pop\n      pop\n      swap4\n      pop\n      dup3\n      dup1\n      sload\n      tag_73\n      swap1\n      tag_58\n      jump\t// in\n    tag_73:\n      dup1\n      0x1f\n      add\n      0x20\n      dup1\n      swap2\n      div\n      mul\n      0x20\n      add\n      mload(0x40)\n      swap1\n      dup2\n      add\n      0x40\n      mstore\n      dup1\n      swap3\n      swap2\n      swap1\n      dup2\n      dup2\n      mstore\n      0x20\n      add\n      dup3\n      dup1\n      sload\n      tag_74\n      swap1\n      tag_58\n      jump\t// in\n    tag_74:\n      dup1\n      iszero\n      tag_75\n      jumpi\n      dup1\n      0x1f\n      lt\n      tag_76\n      jumpi\n      0x0100\n      dup1\n      dup4\n      sload\n      div\n      mul\n      dup4\n      mstore\n      swap2\n      0x20\n      add\n      swap2\n      jump(tag_75)\n    tag_76:\n      dup3\n      add\n      swap2\n      swap1\n      0x00\n      mstore\n      keccak256(0x00, 0x20)\n      swap1\n    tag_77:\n      dup2\n      sload\n      dup2\n      mstore\n      swap1\n      0x01\n      add\n      swap1\n      0x20\n      add\n      dup1\n      dup4\n      gt\n      tag_77\n      jumpi\n      dup3\n      swap1\n      sub\n      0x1f\n      and\n      dup3\n      add\n      swap2\n    tag_75:\n      pop\n      pop\n      pop\n      pop\n      pop\n      swap3\n      pop\n      swap7\n      pop\n      swap7\n      pop\n      swap7\n      pop\n      swap7\n      pop\n      swap7\n      pop\n      swap7\n      pop\n      pop\n        /* \"contract.sol\":1653:2032  function getVideo(uint256 _videoId) public view returns (string memory, string memory, string memory,string memory, uint256, uint256) {... */\n      swap2\n      swap4\n      swap6\n      pop\n      swap2\n      swap4\n      swap6\n      jump\t// out\n        /* \"contract.sol\":2042:2482  function getComment(uint256 _videoId, uint256 _commentId) public view returns (string memory, address, uint256) {... */\n    tag_26:\n        /* \"contract.sol\":2121:2134  string memory */\n      0x60\n        /* \"contract.sol\":2136:2143  address */\n      0x00\n        /* \"contract.sol\":2145:2152  uint256 */\n      dup1\n        /* \"contract.sol\":2184:2194  videoCount */\n      sload(0x01)\n        /* \"contract.sol\":2172:2180  _videoId */\n      dup6\n        /* \"contract.sol\":2172:2194  _videoId <= videoCount */\n      gt\n      iszero\n        /* \"contract.sol\":2172:2210  _videoId <= videoCount && _videoId > 0 */\n      dup1\n      iszero\n      tag_79\n      jumpi\n      pop\n        /* \"contract.sol\":2209:2210  0 */\n      0x00\n        /* \"contract.sol\":2198:2206  _videoId */\n      dup6\n        /* \"contract.sol\":2198:2210  _videoId > 0 */\n      gt\n        /* \"contract.sol\":2172:2210  _videoId <= videoCount && _videoId > 0 */\n    tag_79:\n        /* \"contract.sol\":2164:2231  require(_videoId <= videoCount && _videoId > 0, \"Invalid video ID\") */\n      tag_80\n      jumpi\n      mload(0x40)\n      0x08c379a000000000000000000000000000000000000000000000000000000000\n      dup2\n      mstore\n      0x04\n      add\n      tag_81\n      swap1\n      tag_52\n      jump\t// in\n    tag_81:\n      mload(0x40)\n      dup1\n      swap2\n      sub\n      swap1\n      revert\n    tag_80:\n        /* \"contract.sol\":2263:2269  videos */\n      0x00\n        /* \"contract.sol\":2263:2279  videos[_videoId] */\n      dup1\n        /* \"contract.sol\":2270:2278  _videoId */\n      dup7\n        /* \"contract.sol\":2263:2279  videos[_videoId] */\n      dup2\n      mstore\n      0x20\n      add\n      swap1\n      dup2\n      mstore\n      0x20\n      add\n      0x00\n      keccak256\n        /* \"contract.sol\":2263:2292  videos[_videoId].commentCount */\n      0x07\n      add\n      sload\n        /* \"contract.sol\":2249:2259  _commentId */\n      dup5\n        /* \"contract.sol\":2249:2292  _commentId <= videos[_videoId].commentCount */\n      gt\n      iszero\n        /* \"contract.sol\":2249:2310  _commentId <= videos[_videoId].commentCount && _commentId > 0 */\n      dup1\n      iszero\n      tag_82\n      jumpi\n      pop\n        /* \"contract.sol\":2309:2310  0 */\n      0x00\n        /* \"contract.sol\":2296:2306  _commentId */\n      dup5\n        /* \"contract.sol\":2296:2310  _commentId > 0 */\n      gt\n        /* \"contract.sol\":2249:2310  _commentId <= videos[_videoId].commentCount && _commentId > 0 */\n    tag_82:\n        /* \"contract.sol\":2241:2333  require(_commentId <= videos[_videoId].commentCount && _commentId > 0, \"Invalid comment ID\") */\n      tag_83\n      jumpi\n      mload(0x40)\n      0x08c379a000000000000000000000000000000000000000000000000000000000\n      dup2\n      mstore\n      0x04\n      add\n      tag_84\n      swap1\n      tag_85\n      jump\t// in\n    tag_84:\n      mload(0x40)\n      dup1\n      swap2\n      sub\n      swap1\n      revert\n    tag_83:\n        /* \"contract.sol\":2343:2366  Comment storage comment */\n      0x00\n        /* \"contract.sol\":2369:2375  videos */\n      dup1\n        /* \"contract.sol\":2369:2385  videos[_videoId] */\n      0x00\n        /* \"contract.sol\":2376:2384  _videoId */\n      dup8\n        /* \"contract.sol\":2369:2385  videos[_videoId] */\n      dup2\n      mstore\n      0x20\n      add\n      swap1\n      dup2\n      mstore\n      0x20\n      add\n      0x00\n      keccak256\n        /* \"contract.sol\":2369:2394  videos[_videoId].comments */\n      0x06\n      add\n        /* \"contract.sol\":2369:2406  videos[_videoId].comments[_commentId] */\n      0x00\n        /* \"contract.sol\":2395:2405  _commentId */\n      dup7\n        /* \"contract.sol\":2369:2406  videos[_videoId].comments[_commentId] */\n      dup2\n      mstore\n      0x20\n      add\n      swap1\n      dup2\n      mstore\n      0x20\n      add\n      0x00\n      keccak256\n        /* \"contract.sol\":2343:2406  Comment storage comment = videos[_videoId].comments[_commentId] */\n      swap1\n      pop\n        /* \"contract.sol\":2424:2431  comment */\n      dup1\n        /* \"contract.sol\":2424:2436  comment.text */\n      0x01\n      add\n        /* \"contract.sol\":2438:2445  comment */\n      dup2\n        /* \"contract.sol\":2438:2455  comment.commenter */\n      0x00\n      add\n      0x00\n      swap1\n      sload\n      swap1\n      0x0100\n      exp\n      swap1\n      div\n      0xffffffffffffffffffffffffffffffffffffffff\n      and\n        /* \"contract.sol\":2457:2464  comment */\n      dup3\n        /* \"contract.sol\":2457:2474  comment.timestamp */\n      0x02\n      add\n      sload\n        /* \"contract.sol\":2416:2475  return (comment.text, comment.commenter, comment.timestamp) */\n      dup3\n      dup1\n      sload\n      tag_86\n      swap1\n      tag_58\n      jump\t// in\n    tag_86:\n      dup1\n      0x1f\n      add\n      0x20\n      dup1\n      swap2\n      div\n      mul\n      0x20\n      add\n      mload(0x40)\n      swap1\n      dup2\n      add\n      0x40\n      mstore\n      dup1\n      swap3\n      swap2\n      swap1\n      dup2\n      dup2\n      mstore\n      0x20\n      add\n      dup3\n      dup1\n      sload\n      tag_87\n      swap1\n      tag_58\n      jump\t// in\n    tag_87:\n      dup1\n      iszero\n      tag_88\n      jumpi\n      dup1\n      0x1f\n      lt\n      tag_89\n      jumpi\n      0x0100\n      dup1\n      dup4\n      sload\n      div\n      mul\n      dup4\n      mstore\n      swap2\n      0x20\n      add\n      swap2\n      jump(tag_88)\n    tag_89:\n      dup3\n      add\n      swap2\n      swap1\n      0x00\n      mstore\n      keccak256(0x00, 0x20)\n      swap1\n    tag_90:\n      dup2\n      sload\n      dup2\n      mstore\n      swap1\n      0x01\n      add\n      swap1\n      0x20\n      add\n      dup1\n      dup4\n      gt\n      tag_90\n      jumpi\n      dup3\n      swap1\n      sub\n      0x1f\n      and\n      dup3\n      add\n      swap2\n    tag_88:\n      pop\n      pop\n      pop\n      pop\n      pop\n      swap3\n      pop\n      swap4\n      pop\n      swap4\n      pop\n      swap4\n      pop\n      pop\n        /* \"contract.sol\":2042:2482  function getComment(uint256 _videoId, uint256 _commentId) public view returns (string memory, address, uint256) {... */\n      swap3\n      pop\n      swap3\n      pop\n      swap3\n      jump\t// out\n        /* \"contract.sol\":2488:2577  function getVideoCount() public view returns (uint256) {... */\n    tag_30:\n        /* \"contract.sol\":2534:2541  uint256 */\n      0x00\n        /* \"contract.sol\":2560:2570  videoCount */\n      sload(0x01)\n        /* \"contract.sol\":2553:2570  return videoCount */\n      swap1\n      pop\n        /* \"contract.sol\":2488:2577  function getVideoCount() public view returns (uint256) {... */\n      swap1\n      jump\t// out\n        /* \"contract.sol\":1248:1647  function addComment(uint256 _videoId, string memory _text) public {... */\n    tag_35:\n        /* \"contract.sol\":1344:1354  videoCount */\n      sload(0x01)\n        /* \"contract.sol\":1332:1340  _videoId */\n      dup3\n        /* \"contract.sol\":1332:1354  _videoId <= videoCount */\n      gt\n      iszero\n        /* \"contract.sol\":1332:1370  _videoId <= videoCount && _videoId > 0 */\n      dup1\n      iszero\n      tag_93\n      jumpi\n      pop\n        /* \"contract.sol\":1369:1370  0 */\n      0x00\n        /* \"contract.sol\":1358:1366  _videoId */\n      dup3\n        /* \"contract.sol\":1358:1370  _videoId > 0 */\n      gt\n        /* \"contract.sol\":1332:1370  _videoId <= videoCount && _videoId > 0 */\n    tag_93:\n        /* \"contract.sol\":1324:1391  require(_videoId <= videoCount && _videoId > 0, \"Invalid video ID\") */\n      tag_94\n      jumpi\n      mload(0x40)\n      0x08c379a000000000000000000000000000000000000000000000000000000000\n      dup2\n      mstore\n      0x04\n      add\n      tag_95\n      swap1\n      tag_52\n      jump\t// in\n    tag_95:\n      mload(0x40)\n      dup1\n      swap2\n      sub\n      swap1\n      revert\n    tag_94:\n        /* \"contract.sol\":1401:1420  Video storage video */\n      0x00\n        /* \"contract.sol\":1423:1429  videos */\n      dup1\n        /* \"contract.sol\":1423:1439  videos[_videoId] */\n      0x00\n        /* \"contract.sol\":1430:1438  _videoId */\n      dup5\n        /* \"contract.sol\":1423:1439  videos[_videoId] */\n      dup2\n      mstore\n      0x20\n      add\n      swap1\n      dup2\n      mstore\n      0x20\n      add\n      0x00\n      keccak256\n        /* \"contract.sol\":1401:1439  Video storage video = videos[_videoId] */\n      swap1\n      pop\n        /* \"contract.sol\":1449:1454  video */\n      dup1\n        /* \"contract.sol\":1449:1467  video.commentCount */\n      0x07\n      add\n      0x00\n        /* \"contract.sol\":1449:1469  video.commentCount++ */\n      dup2\n      sload\n      dup1\n      swap3\n      swap2\n      swap1\n      tag_96\n      swap1\n      tag_97\n      jump\t// in\n    tag_96:\n      swap2\n      swap1\n      pop\n      sstore\n      pop\n        /* \"contract.sol\":1516:1559  Comment(msg.sender, _text, block.timestamp) */\n      mload(0x40)\n      dup1\n      0x60\n      add\n      0x40\n      mstore\n      dup1\n        /* \"contract.sol\":1524:1534  msg.sender */\n      caller\n        /* \"contract.sol\":1516:1559  Comment(msg.sender, _text, block.timestamp) */\n      0xffffffffffffffffffffffffffffffffffffffff\n      and\n      dup2\n      mstore\n      0x20\n      add\n        /* \"contract.sol\":1536:1541  _text */\n      dup4\n        /* \"contract.sol\":1516:1559  Comment(msg.sender, _text, block.timestamp) */\n      dup2\n      mstore\n      0x20\n      add\n        /* \"contract.sol\":1543:1558  block.timestamp */\n      timestamp\n        /* \"contract.sol\":1516:1559  Comment(msg.sender, _text, block.timestamp) */\n      dup2\n      mstore\n      pop\n        /* \"contract.sol\":1479:1484  video */\n      dup2\n        /* \"contract.sol\":1479:1493  video.comments */\n      0x06\n      add\n        /* \"contract.sol\":1479:1513  video.comments[video.commentCount] */\n      0x00\n        /* \"contract.sol\":1494:1499  video */\n      dup4\n        /* \"contract.sol\":1494:1512  video.commentCount */\n      0x07\n      add\n      sload\n        /* \"contract.sol\":1479:1513  video.comments[video.commentCount] */\n      dup2\n      mstore\n      0x20\n      add\n      swap1\n      dup2\n      mstore\n      0x20\n      add\n      0x00\n      keccak256\n        /* \"contract.sol\":1479:1559  video.comments[video.commentCount] = Comment(msg.sender, _text, block.timestamp) */\n      0x00\n      dup3\n      add\n      mload\n      dup2\n      0x00\n      add\n      exp(0x0100, 0x00)\n      dup2\n      sload\n      dup2\n      0xffffffffffffffffffffffffffffffffffffffff\n      mul\n      not\n      and\n      swap1\n      dup4\n      0xffffffffffffffffffffffffffffffffffffffff\n      and\n      mul\n      or\n      swap1\n      sstore\n      pop\n      0x20\n      dup3\n      add\n      mload\n      dup2\n      0x01\n      add\n      swap1\n      dup2\n      tag_98\n      swap2\n      swap1\n      tag_99\n      jump\t// in\n    tag_98:\n      pop\n      0x40\n      dup3\n      add\n      mload\n      dup2\n      0x02\n      add\n      sstore\n      swap1\n      pop\n      pop\n        /* \"contract.sol\":1574:1640  CommentAdded(_videoId, video.commentCount, _text, block.timestamp) */\n      0x900a4c5afdb3f75f909ccf2a10a79d00c549dd9fe6a8ac00660440f5c2eb7da7\n        /* \"contract.sol\":1587:1595  _videoId */\n      dup4\n        /* \"contract.sol\":1597:1602  video */\n      dup3\n        /* \"contract.sol\":1597:1615  video.commentCount */\n      0x07\n      add\n      sload\n        /* \"contract.sol\":1617:1622  _text */\n      dup5\n        /* \"contract.sol\":1624:1639  block.timestamp */\n      timestamp\n        /* \"contract.sol\":1574:1640  CommentAdded(_videoId, video.commentCount, _text, block.timestamp) */\n      mload(0x40)\n      tag_100\n      swap5\n      swap4\n      swap3\n      swap2\n      swap1\n      tag_101\n      jump\t// in\n    tag_100:\n      mload(0x40)\n      dup1\n      swap2\n      sub\n      swap1\n      log1\n        /* \"contract.sol\":1314:1647  {... */\n      pop\n        /* \"contract.sol\":1248:1647  function addComment(uint256 _videoId, string memory _text) public {... */\n      pop\n      pop\n      jump\t// out\n        /* \"contract.sol\":478:507  uint256 public videoCount = 0 */\n    tag_37:\n      sload(0x01)\n      dup2\n      jump\t// out\n        /* \"contract.sol\":720:1242  function uploadVideo(string memory _title, string memory _description ,string memory _url ,string memory _videoHash) public {... */\n    tag_42:\n        /* \"contract.sol\":854:864  videoCount */\n      0x01\n      0x00\n        /* \"contract.sol\":854:866  videoCount++ */\n      dup2\n      sload\n      dup1\n      swap3\n      swap2\n      swap1\n      tag_103\n      swap1\n      tag_97\n      jump\t// in\n    tag_103:\n      swap2\n      swap1\n      pop\n      sstore\n      pop\n        /* \"contract.sol\":876:898  Video storage newVideo */\n      0x00\n        /* \"contract.sol\":901:907  videos */\n      dup1\n        /* \"contract.sol\":901:919  videos[videoCount] */\n      0x00\n        /* \"contract.sol\":908:918  videoCount */\n      sload(0x01)\n        /* \"contract.sol\":901:919  videos[videoCount] */\n      dup2\n      mstore\n      0x20\n      add\n      swap1\n      dup2\n      mstore\n      0x20\n      add\n      0x00\n      keccak256\n        /* \"contract.sol\":876:919  Video storage newVideo = videos[videoCount] */\n      swap1\n      pop\n        /* \"contract.sol\":946:956  msg.sender */\n      caller\n        /* \"contract.sol\":929:937  newVideo */\n      dup2\n        /* \"contract.sol\":929:943  newVideo.owner */\n      0x00\n      add\n      0x00\n        /* \"contract.sol\":929:956  newVideo.owner = msg.sender */\n      0x0100\n      exp\n      dup2\n      sload\n      dup2\n      0xffffffffffffffffffffffffffffffffffffffff\n      mul\n      not\n      and\n      swap1\n      dup4\n      0xffffffffffffffffffffffffffffffffffffffff\n      and\n      mul\n      or\n      swap1\n      sstore\n      pop\n        /* \"contract.sol\":983:989  _title */\n      dup5\n        /* \"contract.sol\":966:974  newVideo */\n      dup2\n        /* \"contract.sol\":966:980  newVideo.title */\n      0x01\n      add\n        /* \"contract.sol\":966:989  newVideo.title = _title */\n      swap1\n      dup2\n      tag_104\n      swap2\n      swap1\n      tag_99\n      jump\t// in\n    tag_104:\n      pop\n        /* \"contract.sol\":1022:1034  _description */\n      dup4\n        /* \"contract.sol\":999:1007  newVideo */\n      dup2\n        /* \"contract.sol\":999:1019  newVideo.description */\n      0x02\n      add\n        /* \"contract.sol\":999:1034  newVideo.description = _description */\n      swap1\n      dup2\n      tag_105\n      swap2\n      swap1\n      tag_99\n      jump\t// in\n    tag_105:\n      pop\n        /* \"contract.sol\":1065:1080  block.timestamp */\n      timestamp\n        /* \"contract.sol\":1044:1052  newVideo */\n      dup2\n        /* \"contract.sol\":1044:1062  newVideo.timestamp */\n      0x05\n      add\n        /* \"contract.sol\":1044:1080  newVideo.timestamp = block.timestamp */\n      dup2\n      swap1\n      sstore\n      pop\n        /* \"contract.sol\":1105:1109  _url */\n      dup3\n        /* \"contract.sol\":1090:1098  newVideo */\n      dup2\n        /* \"contract.sol\":1090:1102  newVideo.url */\n      0x04\n      add\n        /* \"contract.sol\":1090:1109  newVideo.url = _url */\n      swap1\n      dup2\n      tag_106\n      swap2\n      swap1\n      tag_99\n      jump\t// in\n    tag_106:\n      pop\n        /* \"contract.sol\":1143:1144  0 */\n      0x00\n        /* \"contract.sol\":1119:1127  newVideo */\n      dup2\n        /* \"contract.sol\":1119:1140  newVideo.commentCount */\n      0x07\n      add\n        /* \"contract.sol\":1119:1144  newVideo.commentCount = 0 */\n      dup2\n      swap1\n      sstore\n      pop\n        /* \"contract.sol\":1159:1235  VideoUploaded(videoCount, _title, _description, _videoHash, block.timestamp) */\n      0xef7282af85231ea2e7e518e5ea491608fc6207a3a825e68944d2ca9e7d75aa39\n        /* \"contract.sol\":1173:1183  videoCount */\n      sload(0x01)\n        /* \"contract.sol\":1185:1191  _title */\n      dup7\n        /* \"contract.sol\":1193:1205  _description */\n      dup7\n        /* \"contract.sol\":1207:1217  _videoHash */\n      dup6\n        /* \"contract.sol\":1219:1234  block.timestamp */\n      timestamp\n        /* \"contract.sol\":1159:1235  VideoUploaded(videoCount, _title, _description, _videoHash, block.timestamp) */\n      mload(0x40)\n      tag_107\n      swap6\n      swap5\n      swap4\n      swap3\n      swap2\n      swap1\n      tag_108\n      jump\t// in\n    tag_107:\n      mload(0x40)\n      dup1\n      swap2\n      sub\n      swap1\n      log1\n        /* \"contract.sol\":844:1242  {... */\n      pop\n        /* \"contract.sol\":720:1242  function uploadVideo(string memory _title, string memory _description ,string memory _url ,string memory _videoHash) public {... */\n      pop\n      pop\n      pop\n      pop\n      jump\t// out\n        /* \"contract.sol\":433:472  mapping(uint256 => Video) public videos */\n    tag_45:\n      mstore(0x20, 0x00)\n      dup1\n      0x00\n      mstore\n      keccak256(0x00, 0x40)\n      0x00\n      swap2\n      pop\n      swap1\n      pop\n      dup1\n      0x00\n      add\n      0x00\n      swap1\n      sload\n      swap1\n      0x0100\n      exp\n      swap1\n      div\n      0xffffffffffffffffffffffffffffffffffffffff\n      and\n      swap1\n      dup1\n      0x01\n      add\n      dup1\n      sload\n      tag_109\n      swap1\n      tag_58\n      jump\t// in\n    tag_109:\n      dup1\n      0x1f\n      add\n      0x20\n      dup1\n      swap2\n      div\n      mul\n      0x20\n      add\n      mload(0x40)\n      swap1\n      dup2\n      add\n      0x40\n      mstore\n      dup1\n      swap3\n      swap2\n      swap1\n      dup2\n      dup2\n      mstore\n      0x20\n      add\n      dup3\n      dup1\n      sload\n      tag_110\n      swap1\n      tag_58\n      jump\t// in\n    tag_110:\n      dup1\n      iszero\n      tag_111\n      jumpi\n      dup1\n      0x1f\n      lt\n      tag_112\n      jumpi\n      0x0100\n      dup1\n      dup4\n      sload\n      div\n      mul\n      dup4\n      mstore\n      swap2\n      0x20\n      add\n      swap2\n      jump(tag_111)\n    tag_112:\n      dup3\n      add\n      swap2\n      swap1\n      0x00\n      mstore\n      keccak256(0x00, 0x20)\n      swap1\n    tag_113:\n      dup2\n      sload\n      dup2\n      mstore\n      swap1\n      0x01\n      add\n      swap1\n      0x20\n      add\n      dup1\n      dup4\n      gt\n      tag_113\n      jumpi\n      dup3\n      swap1\n      sub\n      0x1f\n      and\n      dup3\n      add\n      swap2\n    tag_111:\n      pop\n      pop\n      pop\n      pop\n      pop\n      swap1\n      dup1\n      0x02\n      add\n      dup1\n      sload\n      tag_114\n      swap1\n      tag_58\n      jump\t// in\n    tag_114:\n      dup1\n      0x1f\n      add\n      0x20\n      dup1\n      swap2\n      div\n      mul\n      0x20\n      add\n      mload(0x40)\n      swap1\n      dup2\n      add\n      0x40\n      mstore\n      dup1\n      swap3\n      swap2\n      swap1\n      dup2\n      dup2\n      mstore\n      0x20\n      add\n      dup3\n      dup1\n      sload\n      tag_115\n      swap1\n      tag_58\n      jump\t// in\n    tag_115:\n      dup1\n      iszero\n      tag_116\n      jumpi\n      dup1\n      0x1f\n      lt\n      tag_117\n      jumpi\n      0x0100\n      dup1\n      dup4\n      sload\n      div\n      mul\n      dup4\n      mstore\n      swap2\n      0x20\n      add\n      swap2\n      jump(tag_116)\n    tag_117:\n      dup3\n      add\n      swap2\n      swap1\n      0x00\n      mstore\n      keccak256(0x00, 0x20)\n      swap1\n    tag_118:\n      dup2\n      sload\n      dup2\n      mstore\n      swap1\n      0x01\n      add\n      swap1\n      0x20\n      add\n      dup1\n      dup4\n      gt\n      tag_118\n      jumpi\n      dup3\n      swap1\n      sub\n      0x1f\n      and\n      dup3\n      add\n      swap2\n    tag_116:\n      pop\n      pop\n      pop\n      pop\n      pop\n      swap1\n      dup1\n      0x03\n      add\n      dup1\n      sload\n      tag_119\n      swap1\n      tag_58\n      jump\t// in\n    tag_119:\n      dup1\n      0x1f\n      add\n      0x20\n      dup1\n      swap2\n      div\n      mul\n      0x20\n      add\n      mload(0x40)\n      swap1\n      dup2\n      add\n      0x40\n      mstore\n      dup1\n      swap3\n      swap2\n      swap1\n      dup2\n      dup2\n      mstore\n      0x20\n      add\n      dup3\n      dup1\n      sload\n      tag_120\n      swap1\n      tag_58\n      jump\t// in\n    tag_120:\n      dup1\n      iszero\n      tag_121\n      jumpi\n      dup1\n      0x1f\n      lt\n      tag_122\n      jumpi\n      0x0100\n      dup1\n      dup4\n      sload\n      div\n      mul\n      dup4\n      mstore\n      swap2\n      0x20\n      add\n      swap2\n      jump(tag_121)\n    tag_122:\n      dup3\n      add\n      swap2\n      swap1\n      0x00\n      mstore\n      keccak256(0x00, 0x20)\n      swap1\n    tag_123:\n      dup2\n      sload\n      dup2\n      mstore\n      swap1\n      0x01\n      add\n      swap1\n      0x20\n      add\n      dup1\n      dup4\n      gt\n      tag_123\n      jumpi\n      dup3\n      swap1\n      sub\n      0x1f\n      and\n      dup3\n      add\n      swap2\n    tag_121:\n      pop\n      pop\n      pop\n      pop\n      pop\n      swap1\n      dup1\n      0x04\n      add\n      dup1\n      sload\n      tag_124\n      swap1\n      tag_58\n      jump\t// in\n    tag_124:\n      dup1\n      0x1f\n      add\n      0x20\n      dup1\n      swap2\n      div\n      mul\n      0x20\n      add\n      mload(0x40)\n      swap1\n      dup2\n      add\n      0x40\n      mstore\n      dup1\n      swap3\n      swap2\n      swap1\n      dup2\n      dup2\n      mstore\n      0x20\n      add\n      dup3\n      dup1\n      sload\n      tag_125\n      swap1\n      tag_58\n      jump\t// in\n    tag_125:\n      dup1\n      iszero\n      tag_126\n      jumpi\n      dup1\n      0x1f\n      lt\n      tag_127\n      jumpi\n      0x0100\n      dup1\n      dup4\n      sload\n      div\n      mul\n      dup4\n      mstore\n      swap2\n      0x20\n      add\n      swap2\n      jump(tag_126)\n    tag_127:\n      dup3\n      add\n      swap2\n      swap1\n      0x00\n      mstore\n      keccak256(0x00, 0x20)\n      swap1\n    tag_128:\n      dup2\n      sload\n      dup2\n      mstore\n      swap1\n      0x01\n      add\n      swap1\n      0x20\n      add\n      dup1\n      dup4\n      gt\n      tag_128\n      jumpi\n      dup3\n      swap1\n      sub\n      0x1f\n      and\n      dup3\n      add\n      swap2\n    tag_126:\n      pop\n      pop\n      pop\n      pop\n      pop\n      swap1\n      dup1\n      0x05\n      add\n      sload\n      swap1\n      dup1\n      0x07\n      add\n      sload\n      swap1\n      pop\n      dup8\n      jump\t// out\n        /* \"#utility.yul\":7:82   */\n    tag_129:\n        /* \"#utility.yul\":40:46   */\n      0x00\n        /* \"#utility.yul\":73:75   */\n      0x40\n        /* \"#utility.yul\":67:76   */\n      mload\n        /* \"#utility.yul\":57:76   */\n      swap1\n      pop\n        /* \"#utility.yul\":7:82   */\n      swap1\n      jump\t// out\n        /* \"#utility.yul\":88:205   */\n    tag_130:\n        /* \"#utility.yul\":197:198   */\n      0x00\n        /* \"#utility.yul\":194:195   */\n      dup1\n        /* \"#utility.yul\":187:199   */\n      revert\n        /* \"#utility.yul\":211:328   */\n    tag_131:\n        /* \"#utility.yul\":320:321   */\n      0x00\n        /* \"#utility.yul\":317:318   */\n      dup1\n        /* \"#utility.yul\":310:322   */\n      revert\n        /* \"#utility.yul\":334:411   */\n    tag_132:\n        /* \"#utility.yul\":371:378   */\n      0x00\n        /* \"#utility.yul\":400:405   */\n      dup2\n        /* \"#utility.yul\":389:405   */\n      swap1\n      pop\n        /* \"#utility.yul\":334:411   */\n      swap2\n      swap1\n      pop\n      jump\t// out\n        /* \"#utility.yul\":417:539   */\n    tag_133:\n        /* \"#utility.yul\":490:514   */\n      tag_180\n        /* \"#utility.yul\":508:513   */\n      dup2\n        /* \"#utility.yul\":490:514   */\n      tag_132\n      jump\t// in\n    tag_180:\n        /* \"#utility.yul\":483:488   */\n      dup2\n        /* \"#utility.yul\":480:515   */\n      eq\n        /* \"#utility.yul\":470:533   */\n      tag_181\n      jumpi\n        /* \"#utility.yul\":529:530   */\n      0x00\n        /* \"#utility.yul\":526:527   */\n      dup1\n        /* \"#utility.yul\":519:531   */\n      revert\n        /* \"#utility.yul\":470:533   */\n    tag_181:\n        /* \"#utility.yul\":417:539   */\n      pop\n      jump\t// out\n        /* \"#utility.yul\":545:684   */\n    tag_134:\n        /* \"#utility.yul\":591:596   */\n      0x00\n        /* \"#utility.yul\":629:635   */\n      dup2\n        /* \"#utility.yul\":616:636   */\n      calldataload\n        /* \"#utility.yul\":607:636   */\n      swap1\n      pop\n        /* \"#utility.yul\":645:678   */\n      tag_183\n        /* \"#utility.yul\":672:677   */\n      dup2\n        /* \"#utility.yul\":645:678   */\n      tag_133\n      jump\t// in\n    tag_183:\n        /* \"#utility.yul\":545:684   */\n      swap3\n      swap2\n      pop\n      pop\n      jump\t// out\n        /* \"#utility.yul\":690:1019   */\n    tag_14:\n        /* \"#utility.yul\":749:755   */\n      0x00\n        /* \"#utility.yul\":798:800   */\n      0x20\n        /* \"#utility.yul\":786:795   */\n      dup3\n        /* \"#utility.yul\":777:784   */\n      dup5\n        /* \"#utility.yul\":773:796   */\n      sub\n        /* \"#utility.yul\":769:801   */\n      slt\n        /* \"#utility.yul\":766:885   */\n      iszero\n      tag_185\n      jumpi\n        /* \"#utility.yul\":804:883   */\n      tag_186\n      tag_130\n      jump\t// in\n    tag_186:\n        /* \"#utility.yul\":766:885   */\n    tag_185:\n        /* \"#utility.yul\":924:925   */\n      0x00\n        /* \"#utility.yul\":949:1002   */\n      tag_187\n        /* \"#utility.yul\":994:1001   */\n      dup5\n        /* \"#utility.yul\":985:991   */\n      dup3\n        /* \"#utility.yul\":974:983   */\n      dup6\n        /* \"#utility.yul\":970:992   */\n      add\n        /* \"#utility.yul\":949:1002   */\n      tag_134\n      jump\t// in\n    tag_187:\n        /* \"#utility.yul\":939:1002   */\n      swap2\n      pop\n        /* \"#utility.yul\":895:1012   */\n      pop\n        /* \"#utility.yul\":690:1019   */\n      swap3\n      swap2\n      pop\n      pop\n      jump\t// out\n        /* \"#utility.yul\":1025:1143   */\n    tag_135:\n        /* \"#utility.yul\":1112:1136   */\n      tag_189\n        /* \"#utility.yul\":1130:1135   */\n      dup2\n        /* \"#utility.yul\":1112:1136   */\n      tag_132\n      jump\t// in\n    tag_189:\n        /* \"#utility.yul\":1107:1110   */\n      dup3\n        /* \"#utility.yul\":1100:1137   */\n      mstore\n        /* \"#utility.yul\":1025:1143   */\n      pop\n      pop\n      jump\t// out\n        /* \"#utility.yul\":1149:1371   */\n    tag_17:\n        /* \"#utility.yul\":1242:1246   */\n      0x00\n        /* \"#utility.yul\":1280:1282   */\n      0x20\n        /* \"#utility.yul\":1269:1278   */\n      dup3\n        /* \"#utility.yul\":1265:1283   */\n      add\n        /* \"#utility.yul\":1257:1283   */\n      swap1\n      pop\n        /* \"#utility.yul\":1293:1364   */\n      tag_191\n        /* \"#utility.yul\":1361:1362   */\n      0x00\n        /* \"#utility.yul\":1350:1359   */\n      dup4\n        /* \"#utility.yul\":1346:1363   */\n      add\n        /* \"#utility.yul\":1337:1343   */\n      dup5\n        /* \"#utility.yul\":1293:1364   */\n      tag_135\n      jump\t// in\n    tag_191:\n        /* \"#utility.yul\":1149:1371   */\n      swap3\n      swap2\n      pop\n      pop\n      jump\t// out\n        /* \"#utility.yul\":1377:1476   */\n    tag_136:\n        /* \"#utility.yul\":1429:1435   */\n      0x00\n        /* \"#utility.yul\":1463:1468   */\n      dup2\n        /* \"#utility.yul\":1457:1469   */\n      mload\n        /* \"#utility.yul\":1447:1469   */\n      swap1\n      pop\n        /* \"#utility.yul\":1377:1476   */\n      swap2\n      swap1\n      pop\n      jump\t// out\n        /* \"#utility.yul\":1482:1651   */\n    tag_137:\n        /* \"#utility.yul\":1566:1577   */\n      0x00\n        /* \"#utility.yul\":1600:1606   */\n      dup3\n        /* \"#utility.yul\":1595:1598   */\n      dup3\n        /* \"#utility.yul\":1588:1607   */\n      mstore\n        /* \"#utility.yul\":1640:1644   */\n      0x20\n        /* \"#utility.yul\":1635:1638   */\n      dup3\n        /* \"#utility.yul\":1631:1645   */\n      add\n        /* \"#utility.yul\":1616:1645   */\n      swap1\n      pop\n        /* \"#utility.yul\":1482:1651   */\n      swap3\n      swap2\n      pop\n      pop\n      jump\t// out\n        /* \"#utility.yul\":1657:1903   */\n    tag_138:\n        /* \"#utility.yul\":1738:1739   */\n      0x00\n        /* \"#utility.yul\":1748:1861   */\n    tag_195:\n        /* \"#utility.yul\":1762:1768   */\n      dup4\n        /* \"#utility.yul\":1759:1760   */\n      dup2\n        /* \"#utility.yul\":1756:1769   */\n      lt\n        /* \"#utility.yul\":1748:1861   */\n      iszero\n      tag_197\n      jumpi\n        /* \"#utility.yul\":1847:1848   */\n      dup1\n        /* \"#utility.yul\":1842:1845   */\n      dup3\n        /* \"#utility.yul\":1838:1849   */\n      add\n        /* \"#utility.yul\":1832:1850   */\n      mload\n        /* \"#utility.yul\":1828:1829   */\n      dup2\n        /* \"#utility.yul\":1823:1826   */\n      dup5\n        /* \"#utility.yul\":1819:1830   */\n      add\n        /* \"#utility.yul\":1812:1851   */\n      mstore\n        /* \"#utility.yul\":1784:1786   */\n      0x20\n        /* \"#utility.yul\":1781:1782   */\n      dup2\n        /* \"#utility.yul\":1777:1787   */\n      add\n        /* \"#utility.yul\":1772:1787   */\n      swap1\n      pop\n        /* \"#utility.yul\":1748:1861   */\n      jump(tag_195)\n    tag_197:\n        /* \"#utility.yul\":1895:1896   */\n      0x00\n        /* \"#utility.yul\":1886:1892   */\n      dup5\n        /* \"#utility.yul\":1881:1884   */\n      dup5\n        /* \"#utility.yul\":1877:1893   */\n      add\n        /* \"#utility.yul\":1870:1897   */\n      mstore\n        /* \"#utility.yul\":1719:1903   */\n      pop\n        /* \"#utility.yul\":1657:1903   */\n      pop\n      pop\n      pop\n      jump\t// out\n        /* \"#utility.yul\":1909:2011   */\n    tag_139:\n        /* \"#utility.yul\":1950:1956   */\n      0x00\n        /* \"#utility.yul\":2001:2003   */\n      0x1f\n        /* \"#utility.yul\":1997:2004   */\n      not\n        /* \"#utility.yul\":1992:1994   */\n      0x1f\n        /* \"#utility.yul\":1985:1990   */\n      dup4\n        /* \"#utility.yul\":1981:1995   */\n      add\n        /* \"#utility.yul\":1977:2005   */\n      and\n        /* \"#utility.yul\":1967:2005   */\n      swap1\n      pop\n        /* \"#utility.yul\":1909:2011   */\n      swap2\n      swap1\n      pop\n      jump\t// out\n        /* \"#utility.yul\":2017:2394   */\n    tag_140:\n        /* \"#utility.yul\":2105:2108   */\n      0x00\n        /* \"#utility.yul\":2133:2172   */\n      tag_200\n        /* \"#utility.yul\":2166:2171   */\n      dup3\n        /* \"#utility.yul\":2133:2172   */\n      tag_136\n      jump\t// in\n    tag_200:\n        /* \"#utility.yul\":2188:2259   */\n      tag_201\n        /* \"#utility.yul\":2252:2258   */\n      dup2\n        /* \"#utility.yul\":2247:2250   */\n      dup6\n        /* \"#utility.yul\":2188:2259   */\n      tag_137\n      jump\t// in\n    tag_201:\n        /* \"#utility.yul\":2181:2259   */\n      swap4\n      pop\n        /* \"#utility.yul\":2268:2333   */\n      tag_202\n        /* \"#utility.yul\":2326:2332   */\n      dup2\n        /* \"#utility.yul\":2321:2324   */\n      dup6\n        /* \"#utility.yul\":2314:2318   */\n      0x20\n        /* \"#utility.yul\":2307:2312   */\n      dup7\n        /* \"#utility.yul\":2303:2319   */\n      add\n        /* \"#utility.yul\":2268:2333   */\n      tag_138\n      jump\t// in\n    tag_202:\n        /* \"#utility.yul\":2358:2387   */\n      tag_203\n        /* \"#utility.yul\":2380:2386   */\n      dup2\n        /* \"#utility.yul\":2358:2387   */\n      tag_139\n      jump\t// in\n    tag_203:\n        /* \"#utility.yul\":2353:2356   */\n      dup5\n        /* \"#utility.yul\":2349:2388   */\n      add\n        /* \"#utility.yul\":2342:2388   */\n      swap2\n      pop\n        /* \"#utility.yul\":2109:2394   */\n      pop\n        /* \"#utility.yul\":2017:2394   */\n      swap3\n      swap2\n      pop\n      pop\n      jump\t// out\n        /* \"#utility.yul\":2400:3539   */\n    tag_22:\n        /* \"#utility.yul\":2713:2717   */\n      0x00\n        /* \"#utility.yul\":2751:2754   */\n      0xc0\n        /* \"#utility.yul\":2740:2749   */\n      dup3\n        /* \"#utility.yul\":2736:2755   */\n      add\n        /* \"#utility.yul\":2728:2755   */\n      swap1\n      pop\n        /* \"#utility.yul\":2801:2810   */\n      dup2\n        /* \"#utility.yul\":2795:2799   */\n      dup2\n        /* \"#utility.yul\":2791:2811   */\n      sub\n        /* \"#utility.yul\":2787:2788   */\n      0x00\n        /* \"#utility.yul\":2776:2785   */\n      dup4\n        /* \"#utility.yul\":2772:2789   */\n      add\n        /* \"#utility.yul\":2765:2812   */\n      mstore\n        /* \"#utility.yul\":2829:2907   */\n      tag_205\n        /* \"#utility.yul\":2902:2906   */\n      dup2\n        /* \"#utility.yul\":2893:2899   */\n      dup10\n        /* \"#utility.yul\":2829:2907   */\n      tag_140\n      jump\t// in\n    tag_205:\n        /* \"#utility.yul\":2821:2907   */\n      swap1\n      pop\n        /* \"#utility.yul\":2954:2963   */\n      dup2\n        /* \"#utility.yul\":2948:2952   */\n      dup2\n        /* \"#utility.yul\":2944:2964   */\n      sub\n        /* \"#utility.yul\":2939:2941   */\n      0x20\n        /* \"#utility.yul\":2928:2937   */\n      dup4\n        /* \"#utility.yul\":2924:2942   */\n      add\n        /* \"#utility.yul\":2917:2965   */\n      mstore\n        /* \"#utility.yul\":2982:3060   */\n      tag_206\n        /* \"#utility.yul\":3055:3059   */\n      dup2\n        /* \"#utility.yul\":3046:3052   */\n      dup9\n        /* \"#utility.yul\":2982:3060   */\n      tag_140\n      jump\t// in\n    tag_206:\n        /* \"#utility.yul\":2974:3060   */\n      swap1\n      pop\n        /* \"#utility.yul\":3107:3116   */\n      dup2\n        /* \"#utility.yul\":3101:3105   */\n      dup2\n        /* \"#utility.yul\":3097:3117   */\n      sub\n        /* \"#utility.yul\":3092:3094   */\n      0x40\n        /* \"#utility.yul\":3081:3090   */\n      dup4\n        /* \"#utility.yul\":3077:3095   */\n      add\n        /* \"#utility.yul\":3070:3118   */\n      mstore\n        /* \"#utility.yul\":3135:3213   */\n      tag_207\n        /* \"#utility.yul\":3208:3212   */\n      dup2\n        /* \"#utility.yul\":3199:3205   */\n      dup8\n        /* \"#utility.yul\":3135:3213   */\n      tag_140\n      jump\t// in\n    tag_207:\n        /* \"#utility.yul\":3127:3213   */\n      swap1\n      pop\n        /* \"#utility.yul\":3260:3269   */\n      dup2\n        /* \"#utility.yul\":3254:3258   */\n      dup2\n        /* \"#utility.yul\":3250:3270   */\n      sub\n        /* \"#utility.yul\":3245:3247   */\n      0x60\n        /* \"#utility.yul\":3234:3243   */\n      dup4\n        /* \"#utility.yul\":3230:3248   */\n      add\n        /* \"#utility.yul\":3223:3271   */\n      mstore\n        /* \"#utility.yul\":3288:3366   */\n      tag_208\n        /* \"#utility.yul\":3361:3365   */\n      dup2\n        /* \"#utility.yul\":3352:3358   */\n      dup7\n        /* \"#utility.yul\":3288:3366   */\n      tag_140\n      jump\t// in\n    tag_208:\n        /* \"#utility.yul\":3280:3366   */\n      swap1\n      pop\n        /* \"#utility.yul\":3376:3449   */\n      tag_209\n        /* \"#utility.yul\":3444:3447   */\n      0x80\n        /* \"#utility.yul\":3433:3442   */\n      dup4\n        /* \"#utility.yul\":3429:3448   */\n      add\n        /* \"#utility.yul\":3420:3426   */\n      dup6\n        /* \"#utility.yul\":3376:3449   */\n      tag_135\n      jump\t// in\n    tag_209:\n        /* \"#utility.yul\":3459:3532   */\n      tag_210\n        /* \"#utility.yul\":3527:3530   */\n      0xa0\n        /* \"#utility.yul\":3516:3525   */\n      dup4\n        /* \"#utility.yul\":3512:3531   */\n      add\n        /* \"#utility.yul\":3503:3509   */\n      dup5\n        /* \"#utility.yul\":3459:3532   */\n      tag_135\n      jump\t// in\n    tag_210:\n        /* \"#utility.yul\":2400:3539   */\n      swap8\n      swap7\n      pop\n      pop\n      pop\n      pop\n      pop\n      pop\n      pop\n      jump\t// out\n        /* \"#utility.yul\":3545:4019   */\n    tag_25:\n        /* \"#utility.yul\":3613:3619   */\n      0x00\n        /* \"#utility.yul\":3621:3627   */\n      dup1\n        /* \"#utility.yul\":3670:3672   */\n      0x40\n        /* \"#utility.yul\":3658:3667   */\n      dup4\n        /* \"#utility.yul\":3649:3656   */\n      dup6\n        /* \"#utility.yul\":3645:3668   */\n      sub\n        /* \"#utility.yul\":3641:3673   */\n      slt\n        /* \"#utility.yul\":3638:3757   */\n      iszero\n      tag_212\n      jumpi\n        /* \"#utility.yul\":3676:3755   */\n      tag_213\n      tag_130\n      jump\t// in\n    tag_213:\n        /* \"#utility.yul\":3638:3757   */\n    tag_212:\n        /* \"#utility.yul\":3796:3797   */\n      0x00\n        /* \"#utility.yul\":3821:3874   */\n      tag_214\n        /* \"#utility.yul\":3866:3873   */\n      dup6\n        /* \"#utility.yul\":3857:3863   */\n      dup3\n        /* \"#utility.yul\":3846:3855   */\n      dup7\n        /* \"#utility.yul\":3842:3864   */\n      add\n        /* \"#utility.yul\":3821:3874   */\n      tag_134\n      jump\t// in\n    tag_214:\n        /* \"#utility.yul\":3811:3874   */\n      swap3\n      pop\n        /* \"#utility.yul\":3767:3884   */\n      pop\n        /* \"#utility.yul\":3923:3925   */\n      0x20\n        /* \"#utility.yul\":3949:4002   */\n      tag_215\n        /* \"#utility.yul\":3994:4001   */\n      dup6\n        /* \"#utility.yul\":3985:3991   */\n      dup3\n        /* \"#utility.yul\":3974:3983   */\n      dup7\n        /* \"#utility.yul\":3970:3992   */\n      add\n        /* \"#utility.yul\":3949:4002   */\n      tag_134\n      jump\t// in\n    tag_215:\n        /* \"#utility.yul\":3939:4002   */\n      swap2\n      pop\n        /* \"#utility.yul\":3894:4012   */\n      pop\n        /* \"#utility.yul\":3545:4019   */\n      swap3\n      pop\n      swap3\n      swap1\n      pop\n      jump\t// out\n        /* \"#utility.yul\":4025:4151   */\n    tag_141:\n        /* \"#utility.yul\":4062:4069   */\n      0x00\n        /* \"#utility.yul\":4102:4144   */\n      0xffffffffffffffffffffffffffffffffffffffff\n        /* \"#utility.yul\":4095:4100   */\n      dup3\n        /* \"#utility.yul\":4091:4145   */\n      and\n        /* \"#utility.yul\":4080:4145   */\n      swap1\n      pop\n        /* \"#utility.yul\":4025:4151   */\n      swap2\n      swap1\n      pop\n      jump\t// out\n        /* \"#utility.yul\":4157:4253   */\n    tag_142:\n        /* \"#utility.yul\":4194:4201   */\n      0x00\n        /* \"#utility.yul\":4223:4247   */\n      tag_218\n        /* \"#utility.yul\":4241:4246   */\n      dup3\n        /* \"#utility.yul\":4223:4247   */\n      tag_141\n      jump\t// in\n    tag_218:\n        /* \"#utility.yul\":4212:4247   */\n      swap1\n      pop\n        /* \"#utility.yul\":4157:4253   */\n      swap2\n      swap1\n      pop\n      jump\t// out\n        /* \"#utility.yul\":4259:4377   */\n    tag_143:\n        /* \"#utility.yul\":4346:4370   */\n      tag_220\n        /* \"#utility.yul\":4364:4369   */\n      dup2\n        /* \"#utility.yul\":4346:4370   */\n      tag_142\n      jump\t// in\n    tag_220:\n        /* \"#utility.yul\":4341:4344   */\n      dup3\n        /* \"#utility.yul\":4334:4371   */\n      mstore\n        /* \"#utility.yul\":4259:4377   */\n      pop\n      pop\n      jump\t// out\n        /* \"#utility.yul\":4383:4916   */\n    tag_28:\n        /* \"#utility.yul\":4552:4556   */\n      0x00\n        /* \"#utility.yul\":4590:4592   */\n      0x60\n        /* \"#utility.yul\":4579:4588   */\n      dup3\n        /* \"#utility.yul\":4575:4593   */\n      add\n        /* \"#utility.yul\":4567:4593   */\n      swap1\n      pop\n        /* \"#utility.yul\":4639:4648   */\n      dup2\n        /* \"#utility.yul\":4633:4637   */\n      dup2\n        /* \"#utility.yul\":4629:4649   */\n      sub\n        /* \"#utility.yul\":4625:4626   */\n      0x00\n        /* \"#utility.yul\":4614:4623   */\n      dup4\n        /* \"#utility.yul\":4610:4627   */\n      add\n        /* \"#utility.yul\":4603:4650   */\n      mstore\n        /* \"#utility.yul\":4667:4745   */\n      tag_222\n        /* \"#utility.yul\":4740:4744   */\n      dup2\n        /* \"#utility.yul\":4731:4737   */\n      dup7\n        /* \"#utility.yul\":4667:4745   */\n      tag_140\n      jump\t// in\n    tag_222:\n        /* \"#utility.yul\":4659:4745   */\n      swap1\n      pop\n        /* \"#utility.yul\":4755:4827   */\n      tag_223\n        /* \"#utility.yul\":4823:4825   */\n      0x20\n        /* \"#utility.yul\":4812:4821   */\n      dup4\n        /* \"#utility.yul\":4808:4826   */\n      add\n        /* \"#utility.yul\":4799:4805   */\n      dup6\n        /* \"#utility.yul\":4755:4827   */\n      tag_143\n      jump\t// in\n    tag_223:\n        /* \"#utility.yul\":4837:4909   */\n      tag_224\n        /* \"#utility.yul\":4905:4907   */\n      0x40\n        /* \"#utility.yul\":4894:4903   */\n      dup4\n        /* \"#utility.yul\":4890:4908   */\n      add\n        /* \"#utility.yul\":4881:4887   */\n      dup5\n        /* \"#utility.yul\":4837:4909   */\n      tag_135\n      jump\t// in\n    tag_224:\n        /* \"#utility.yul\":4383:4916   */\n      swap5\n      swap4\n      pop\n      pop\n      pop\n      pop\n      jump\t// out\n        /* \"#utility.yul\":4922:5039   */\n    tag_144:\n        /* \"#utility.yul\":5031:5032   */\n      0x00\n        /* \"#utility.yul\":5028:5029   */\n      dup1\n        /* \"#utility.yul\":5021:5033   */\n      revert\n        /* \"#utility.yul\":5045:5162   */\n    tag_145:\n        /* \"#utility.yul\":5154:5155   */\n      0x00\n        /* \"#utility.yul\":5151:5152   */\n      dup1\n        /* \"#utility.yul\":5144:5156   */\n      revert\n        /* \"#utility.yul\":5168:5348   */\n    tag_146:\n        /* \"#utility.yul\":5216:5293   */\n      0x4e487b7100000000000000000000000000000000000000000000000000000000\n        /* \"#utility.yul\":5213:5214   */\n      0x00\n        /* \"#utility.yul\":5206:5294   */\n      mstore\n        /* \"#utility.yul\":5313:5317   */\n      0x41\n        /* \"#utility.yul\":5310:5311   */\n      0x04\n        /* \"#utility.yul\":5303:5318   */\n      mstore\n        /* \"#utility.yul\":5337:5341   */\n      0x24\n        /* \"#utility.yul\":5334:5335   */\n      0x00\n        /* \"#utility.yul\":5327:5342   */\n      revert\n        /* \"#utility.yul\":5354:5635   */\n    tag_147:\n        /* \"#utility.yul\":5437:5464   */\n      tag_229\n        /* \"#utility.yul\":5459:5463   */\n      dup3\n        /* \"#utility.yul\":5437:5464   */\n      tag_139\n      jump\t// in\n    tag_229:\n        /* \"#utility.yul\":5429:5435   */\n      dup2\n        /* \"#utility.yul\":5425:5465   */\n      add\n        /* \"#utility.yul\":5567:5573   */\n      dup2\n        /* \"#utility.yul\":5555:5565   */\n      dup2\n        /* \"#utility.yul\":5552:5574   */\n      lt\n        /* \"#utility.yul\":5531:5549   */\n      0xffffffffffffffff\n        /* \"#utility.yul\":5519:5529   */\n      dup3\n        /* \"#utility.yul\":5516:5550   */\n      gt\n        /* \"#utility.yul\":5513:5575   */\n      or\n        /* \"#utility.yul\":5510:5598   */\n      iszero\n      tag_230\n      jumpi\n        /* \"#utility.yul\":5578:5596   */\n      tag_231\n      tag_146\n      jump\t// in\n    tag_231:\n        /* \"#utility.yul\":5510:5598   */\n    tag_230:\n        /* \"#utility.yul\":5618:5628   */\n      dup1\n        /* \"#utility.yul\":5614:5616   */\n      0x40\n        /* \"#utility.yul\":5607:5629   */\n      mstore\n        /* \"#utility.yul\":5397:5635   */\n      pop\n        /* \"#utility.yul\":5354:5635   */\n      pop\n      pop\n      jump\t// out\n        /* \"#utility.yul\":5641:5770   */\n    tag_148:\n        /* \"#utility.yul\":5675:5681   */\n      0x00\n        /* \"#utility.yul\":5702:5722   */\n      tag_233\n      tag_129\n      jump\t// in\n    tag_233:\n        /* \"#utility.yul\":5692:5722   */\n      swap1\n      pop\n        /* \"#utility.yul\":5731:5764   */\n      tag_234\n        /* \"#utility.yul\":5759:5763   */\n      dup3\n        /* \"#utility.yul\":5751:5757   */\n      dup3\n        /* \"#utility.yul\":5731:5764   */\n      tag_147\n      jump\t// in\n    tag_234:\n        /* \"#utility.yul\":5641:5770   */\n      swap2\n      swap1\n      pop\n      jump\t// out\n        /* \"#utility.yul\":5776:6084   */\n    tag_149:\n        /* \"#utility.yul\":5838:5842   */\n      0x00\n        /* \"#utility.yul\":5928:5946   */\n      0xffffffffffffffff\n        /* \"#utility.yul\":5920:5926   */\n      dup3\n        /* \"#utility.yul\":5917:5947   */\n      gt\n        /* \"#utility.yul\":5914:5970   */\n      iszero\n      tag_236\n      jumpi\n        /* \"#utility.yul\":5950:5968   */\n      tag_237\n      tag_146\n      jump\t// in\n    tag_237:\n        /* \"#utility.yul\":5914:5970   */\n    tag_236:\n        /* \"#utility.yul\":5988:6017   */\n      tag_238\n        /* \"#utility.yul\":6010:6016   */\n      dup3\n        /* \"#utility.yul\":5988:6017   */\n      tag_139\n      jump\t// in\n    tag_238:\n        /* \"#utility.yul\":5980:6017   */\n      swap1\n      pop\n        /* \"#utility.yul\":6072:6076   */\n      0x20\n        /* \"#utility.yul\":6066:6070   */\n      dup2\n        /* \"#utility.yul\":6062:6077   */\n      add\n        /* \"#utility.yul\":6054:6077   */\n      swap1\n      pop\n        /* \"#utility.yul\":5776:6084   */\n      swap2\n      swap1\n      pop\n      jump\t// out\n        /* \"#utility.yul\":6090:6236   */\n    tag_150:\n        /* \"#utility.yul\":6187:6193   */\n      dup3\n        /* \"#utility.yul\":6182:6185   */\n      dup2\n        /* \"#utility.yul\":6177:6180   */\n      dup4\n        /* \"#utility.yul\":6164:6194   */\n      calldatacopy\n        /* \"#utility.yul\":6228:6229   */\n      0x00\n        /* \"#utility.yul\":6219:6225   */\n      dup4\n        /* \"#utility.yul\":6214:6217   */\n      dup4\n        /* \"#utility.yul\":6210:6226   */\n      add\n        /* \"#utility.yul\":6203:6230   */\n      mstore\n        /* \"#utility.yul\":6090:6236   */\n      pop\n      pop\n      pop\n      jump\t// out\n        /* \"#utility.yul\":6242:6667   */\n    tag_151:\n        /* \"#utility.yul\":6320:6325   */\n      0x00\n        /* \"#utility.yul\":6345:6411   */\n      tag_241\n        /* \"#utility.yul\":6361:6410   */\n      tag_242\n        /* \"#utility.yul\":6403:6409   */\n      dup5\n        /* \"#utility.yul\":6361:6410   */\n      tag_149\n      jump\t// in\n    tag_242:\n        /* \"#utility.yul\":6345:6411   */\n      tag_148\n      jump\t// in\n    tag_241:\n        /* \"#utility.yul\":6336:6411   */\n      swap1\n      pop\n        /* \"#utility.yul\":6434:6440   */\n      dup3\n        /* \"#utility.yul\":6427:6432   */\n      dup2\n        /* \"#utility.yul\":6420:6441   */\n      mstore\n        /* \"#utility.yul\":6472:6476   */\n      0x20\n        /* \"#utility.yul\":6465:6470   */\n      dup2\n        /* \"#utility.yul\":6461:6477   */\n      add\n        /* \"#utility.yul\":6510:6513   */\n      dup5\n        /* \"#utility.yul\":6501:6507   */\n      dup5\n        /* \"#utility.yul\":6496:6499   */\n      dup5\n        /* \"#utility.yul\":6492:6508   */\n      add\n        /* \"#utility.yul\":6489:6514   */\n      gt\n        /* \"#utility.yul\":6486:6598   */\n      iszero\n      tag_243\n      jumpi\n        /* \"#utility.yul\":6517:6596   */\n      tag_244\n      tag_145\n      jump\t// in\n    tag_244:\n        /* \"#utility.yul\":6486:6598   */\n    tag_243:\n        /* \"#utility.yul\":6607:6661   */\n      tag_245\n        /* \"#utility.yul\":6654:6660   */\n      dup5\n        /* \"#utility.yul\":6649:6652   */\n      dup3\n        /* \"#utility.yul\":6644:6647   */\n      dup6\n        /* \"#utility.yul\":6607:6661   */\n      tag_150\n      jump\t// in\n    tag_245:\n        /* \"#utility.yul\":6326:6667   */\n      pop\n        /* \"#utility.yul\":6242:6667   */\n      swap4\n      swap3\n      pop\n      pop\n      pop\n      jump\t// out\n        /* \"#utility.yul\":6687:7027   */\n    tag_152:\n        /* \"#utility.yul\":6743:6748   */\n      0x00\n        /* \"#utility.yul\":6792:6795   */\n      dup3\n        /* \"#utility.yul\":6785:6789   */\n      0x1f\n        /* \"#utility.yul\":6777:6783   */\n      dup4\n        /* \"#utility.yul\":6773:6790   */\n      add\n        /* \"#utility.yul\":6769:6796   */\n      slt\n        /* \"#utility.yul\":6759:6881   */\n      tag_247\n      jumpi\n        /* \"#utility.yul\":6800:6879   */\n      tag_248\n      tag_144\n      jump\t// in\n    tag_248:\n        /* \"#utility.yul\":6759:6881   */\n    tag_247:\n        /* \"#utility.yul\":6917:6923   */\n      dup2\n        /* \"#utility.yul\":6904:6924   */\n      calldataload\n        /* \"#utility.yul\":6942:7021   */\n      tag_249\n        /* \"#utility.yul\":7017:7020   */\n      dup5\n        /* \"#utility.yul\":7009:7015   */\n      dup3\n        /* \"#utility.yul\":7002:7006   */\n      0x20\n        /* \"#utility.yul\":6994:7000   */\n      dup7\n        /* \"#utility.yul\":6990:7007   */\n      add\n        /* \"#utility.yul\":6942:7021   */\n      tag_151\n      jump\t// in\n    tag_249:\n        /* \"#utility.yul\":6933:7021   */\n      swap2\n      pop\n        /* \"#utility.yul\":6749:7027   */\n      pop\n        /* \"#utility.yul\":6687:7027   */\n      swap3\n      swap2\n      pop\n      pop\n      jump\t// out\n        /* \"#utility.yul\":7033:7687   */\n    tag_34:\n        /* \"#utility.yul\":7111:7117   */\n      0x00\n        /* \"#utility.yul\":7119:7125   */\n      dup1\n        /* \"#utility.yul\":7168:7170   */\n      0x40\n        /* \"#utility.yul\":7156:7165   */\n      dup4\n        /* \"#utility.yul\":7147:7154   */\n      dup6\n        /* \"#utility.yul\":7143:7166   */\n      sub\n        /* \"#utility.yul\":7139:7171   */\n      slt\n        /* \"#utility.yul\":7136:7255   */\n      iszero\n      tag_251\n      jumpi\n        /* \"#utility.yul\":7174:7253   */\n      tag_252\n      tag_130\n      jump\t// in\n    tag_252:\n        /* \"#utility.yul\":7136:7255   */\n    tag_251:\n        /* \"#utility.yul\":7294:7295   */\n      0x00\n        /* \"#utility.yul\":7319:7372   */\n      tag_253\n        /* \"#utility.yul\":7364:7371   */\n      dup6\n        /* \"#utility.yul\":7355:7361   */\n      dup3\n        /* \"#utility.yul\":7344:7353   */\n      dup7\n        /* \"#utility.yul\":7340:7362   */\n      add\n        /* \"#utility.yul\":7319:7372   */\n      tag_134\n      jump\t// in\n    tag_253:\n        /* \"#utility.yul\":7309:7372   */\n      swap3\n      pop\n        /* \"#utility.yul\":7265:7382   */\n      pop\n        /* \"#utility.yul\":7449:7451   */\n      0x20\n        /* \"#utility.yul\":7438:7447   */\n      dup4\n        /* \"#utility.yul\":7434:7452   */\n      add\n        /* \"#utility.yul\":7421:7453   */\n      calldataload\n        /* \"#utility.yul\":7480:7498   */\n      0xffffffffffffffff\n        /* \"#utility.yul\":7472:7478   */\n      dup2\n        /* \"#utility.yul\":7469:7499   */\n      gt\n        /* \"#utility.yul\":7466:7583   */\n      iszero\n      tag_254\n      jumpi\n        /* \"#utility.yul\":7502:7581   */\n      tag_255\n      tag_131\n      jump\t// in\n    tag_255:\n        /* \"#utility.yul\":7466:7583   */\n    tag_254:\n        /* \"#utility.yul\":7607:7670   */\n      tag_256\n        /* \"#utility.yul\":7662:7669   */\n      dup6\n        /* \"#utility.yul\":7653:7659   */\n      dup3\n        /* \"#utility.yul\":7642:7651   */\n      dup7\n        /* \"#utility.yul\":7638:7660   */\n      add\n        /* \"#utility.yul\":7607:7670   */\n      tag_152\n      jump\t// in\n    tag_256:\n        /* \"#utility.yul\":7597:7670   */\n      swap2\n      pop\n        /* \"#utility.yul\":7392:7680   */\n      pop\n        /* \"#utility.yul\":7033:7687   */\n      swap3\n      pop\n      swap3\n      swap1\n      pop\n      jump\t// out\n        /* \"#utility.yul\":7693:9178   */\n    tag_41:\n        /* \"#utility.yul\":7819:7825   */\n      0x00\n        /* \"#utility.yul\":7827:7833   */\n      dup1\n        /* \"#utility.yul\":7835:7841   */\n      0x00\n        /* \"#utility.yul\":7843:7849   */\n      dup1\n        /* \"#utility.yul\":7892:7895   */\n      0x80\n        /* \"#utility.yul\":7880:7889   */\n      dup6\n        /* \"#utility.yul\":7871:7878   */\n      dup8\n        /* \"#utility.yul\":7867:7890   */\n      sub\n        /* \"#utility.yul\":7863:7896   */\n      slt\n        /* \"#utility.yul\":7860:7980   */\n      iszero\n      tag_258\n      jumpi\n        /* \"#utility.yul\":7899:7978   */\n      tag_259\n      tag_130\n      jump\t// in\n    tag_259:\n        /* \"#utility.yul\":7860:7980   */\n    tag_258:\n        /* \"#utility.yul\":8047:8048   */\n      0x00\n        /* \"#utility.yul\":8036:8045   */\n      dup6\n        /* \"#utility.yul\":8032:8049   */\n      add\n        /* \"#utility.yul\":8019:8050   */\n      calldataload\n        /* \"#utility.yul\":8077:8095   */\n      0xffffffffffffffff\n        /* \"#utility.yul\":8069:8075   */\n      dup2\n        /* \"#utility.yul\":8066:8096   */\n      gt\n        /* \"#utility.yul\":8063:8180   */\n      iszero\n      tag_260\n      jumpi\n        /* \"#utility.yul\":8099:8178   */\n      tag_261\n      tag_131\n      jump\t// in\n    tag_261:\n        /* \"#utility.yul\":8063:8180   */\n    tag_260:\n        /* \"#utility.yul\":8204:8267   */\n      tag_262\n        /* \"#utility.yul\":8259:8266   */\n      dup8\n        /* \"#utility.yul\":8250:8256   */\n      dup3\n        /* \"#utility.yul\":8239:8248   */\n      dup9\n        /* \"#utility.yul\":8235:8257   */\n      add\n        /* \"#utility.yul\":8204:8267   */\n      tag_152\n      jump\t// in\n    tag_262:\n        /* \"#utility.yul\":8194:8267   */\n      swap5\n      pop\n        /* \"#utility.yul\":7990:8277   */\n      pop\n        /* \"#utility.yul\":8344:8346   */\n      0x20\n        /* \"#utility.yul\":8333:8342   */\n      dup6\n        /* \"#utility.yul\":8329:8347   */\n      add\n        /* \"#utility.yul\":8316:8348   */\n      calldataload\n        /* \"#utility.yul\":8375:8393   */\n      0xffffffffffffffff\n        /* \"#utility.yul\":8367:8373   */\n      dup2\n        /* \"#utility.yul\":8364:8394   */\n      gt\n        /* \"#utility.yul\":8361:8478   */\n      iszero\n      tag_263\n      jumpi\n        /* \"#utility.yul\":8397:8476   */\n      tag_264\n      tag_131\n      jump\t// in\n    tag_264:\n        /* \"#utility.yul\":8361:8478   */\n    tag_263:\n        /* \"#utility.yul\":8502:8565   */\n      tag_265\n        /* \"#utility.yul\":8557:8564   */\n      dup8\n        /* \"#utility.yul\":8548:8554   */\n      dup3\n        /* \"#utility.yul\":8537:8546   */\n      dup9\n        /* \"#utility.yul\":8533:8555   */\n      add\n        /* \"#utility.yul\":8502:8565   */\n      tag_152\n      jump\t// in\n    tag_265:\n        /* \"#utility.yul\":8492:8565   */\n      swap4\n      pop\n        /* \"#utility.yul\":8287:8575   */\n      pop\n        /* \"#utility.yul\":8642:8644   */\n      0x40\n        /* \"#utility.yul\":8631:8640   */\n      dup6\n        /* \"#utility.yul\":8627:8645   */\n      add\n        /* \"#utility.yul\":8614:8646   */\n      calldataload\n        /* \"#utility.yul\":8673:8691   */\n      0xffffffffffffffff\n        /* \"#utility.yul\":8665:8671   */\n      dup2\n        /* \"#utility.yul\":8662:8692   */\n      gt\n        /* \"#utility.yul\":8659:8776   */\n      iszero\n      tag_266\n      jumpi\n        /* \"#utility.yul\":8695:8774   */\n      tag_267\n      tag_131\n      jump\t// in\n    tag_267:\n        /* \"#utility.yul\":8659:8776   */\n    tag_266:\n        /* \"#utility.yul\":8800:8863   */\n      tag_268\n        /* \"#utility.yul\":8855:8862   */\n      dup8\n        /* \"#utility.yul\":8846:8852   */\n      dup3\n        /* \"#utility.yul\":8835:8844   */\n      dup9\n        /* \"#utility.yul\":8831:8853   */\n      add\n        /* \"#utility.yul\":8800:8863   */\n      tag_152\n      jump\t// in\n    tag_268:\n        /* \"#utility.yul\":8790:8863   */\n      swap3\n      pop\n        /* \"#utility.yul\":8585:8873   */\n      pop\n        /* \"#utility.yul\":8940:8942   */\n      0x60\n        /* \"#utility.yul\":8929:8938   */\n      dup6\n        /* \"#utility.yul\":8925:8943   */\n      add\n        /* \"#utility.yul\":8912:8944   */\n      calldataload\n        /* \"#utility.yul\":8971:8989   */\n      0xffffffffffffffff\n        /* \"#utility.yul\":8963:8969   */\n      dup2\n        /* \"#utility.yul\":8960:8990   */\n      gt\n        /* \"#utility.yul\":8957:9074   */\n      iszero\n      tag_269\n      jumpi\n        /* \"#utility.yul\":8993:9072   */\n      tag_270\n      tag_131\n      jump\t// in\n    tag_270:\n        /* \"#utility.yul\":8957:9074   */\n    tag_269:\n        /* \"#utility.yul\":9098:9161   */\n      tag_271\n        /* \"#utility.yul\":9153:9160   */\n      dup8\n        /* \"#utility.yul\":9144:9150   */\n      dup3\n        /* \"#utility.yul\":9133:9142   */\n      dup9\n        /* \"#utility.yul\":9129:9151   */\n      add\n        /* \"#utility.yul\":9098:9161   */\n      tag_152\n      jump\t// in\n    tag_271:\n        /* \"#utility.yul\":9088:9161   */\n      swap2\n      pop\n        /* \"#utility.yul\":8883:9171   */\n      pop\n        /* \"#utility.yul\":7693:9178   */\n      swap3\n      swap6\n      swap2\n      swap5\n      pop\n      swap3\n      pop\n      jump\t// out\n        /* \"#utility.yul\":9184:10434   */\n    tag_47:\n        /* \"#utility.yul\":9525:9529   */\n      0x00\n        /* \"#utility.yul\":9563:9566   */\n      0xe0\n        /* \"#utility.yul\":9552:9561   */\n      dup3\n        /* \"#utility.yul\":9548:9567   */\n      add\n        /* \"#utility.yul\":9540:9567   */\n      swap1\n      pop\n        /* \"#utility.yul\":9577:9648   */\n      tag_273\n        /* \"#utility.yul\":9645:9646   */\n      0x00\n        /* \"#utility.yul\":9634:9643   */\n      dup4\n        /* \"#utility.yul\":9630:9647   */\n      add\n        /* \"#utility.yul\":9621:9627   */\n      dup11\n        /* \"#utility.yul\":9577:9648   */\n      tag_143\n      jump\t// in\n    tag_273:\n        /* \"#utility.yul\":9695:9704   */\n      dup2\n        /* \"#utility.yul\":9689:9693   */\n      dup2\n        /* \"#utility.yul\":9685:9705   */\n      sub\n        /* \"#utility.yul\":9680:9682   */\n      0x20\n        /* \"#utility.yul\":9669:9678   */\n      dup4\n        /* \"#utility.yul\":9665:9683   */\n      add\n        /* \"#utility.yul\":9658:9706   */\n      mstore\n        /* \"#utility.yul\":9723:9801   */\n      tag_274\n        /* \"#utility.yul\":9796:9800   */\n      dup2\n        /* \"#utility.yul\":9787:9793   */\n      dup10\n        /* \"#utility.yul\":9723:9801   */\n      tag_140\n      jump\t// in\n    tag_274:\n        /* \"#utility.yul\":9715:9801   */\n      swap1\n      pop\n        /* \"#utility.yul\":9848:9857   */\n      dup2\n        /* \"#utility.yul\":9842:9846   */\n      dup2\n        /* \"#utility.yul\":9838:9858   */\n      sub\n        /* \"#utility.yul\":9833:9835   */\n      0x40\n        /* \"#utility.yul\":9822:9831   */\n      dup4\n        /* \"#utility.yul\":9818:9836   */\n      add\n        /* \"#utility.yul\":9811:9859   */\n      mstore\n        /* \"#utility.yul\":9876:9954   */\n      tag_275\n        /* \"#utility.yul\":9949:9953   */\n      dup2\n        /* \"#utility.yul\":9940:9946   */\n      dup9\n        /* \"#utility.yul\":9876:9954   */\n      tag_140\n      jump\t// in\n    tag_275:\n        /* \"#utility.yul\":9868:9954   */\n      swap1\n      pop\n        /* \"#utility.yul\":10001:10010   */\n      dup2\n        /* \"#utility.yul\":9995:9999   */\n      dup2\n        /* \"#utility.yul\":9991:10011   */\n      sub\n        /* \"#utility.yul\":9986:9988   */\n      0x60\n        /* \"#utility.yul\":9975:9984   */\n      dup4\n        /* \"#utility.yul\":9971:9989   */\n      add\n        /* \"#utility.yul\":9964:10012   */\n      mstore\n        /* \"#utility.yul\":10029:10107   */\n      tag_276\n        /* \"#utility.yul\":10102:10106   */\n      dup2\n        /* \"#utility.yul\":10093:10099   */\n      dup8\n        /* \"#utility.yul\":10029:10107   */\n      tag_140\n      jump\t// in\n    tag_276:\n        /* \"#utility.yul\":10021:10107   */\n      swap1\n      pop\n        /* \"#utility.yul\":10155:10164   */\n      dup2\n        /* \"#utility.yul\":10149:10153   */\n      dup2\n        /* \"#utility.yul\":10145:10165   */\n      sub\n        /* \"#utility.yul\":10139:10142   */\n      0x80\n        /* \"#utility.yul\":10128:10137   */\n      dup4\n        /* \"#utility.yul\":10124:10143   */\n      add\n        /* \"#utility.yul\":10117:10166   */\n      mstore\n        /* \"#utility.yul\":10183:10261   */\n      tag_277\n        /* \"#utility.yul\":10256:10260   */\n      dup2\n        /* \"#utility.yul\":10247:10253   */\n      dup7\n        /* \"#utility.yul\":10183:10261   */\n      tag_140\n      jump\t// in\n    tag_277:\n        /* \"#utility.yul\":10175:10261   */\n      swap1\n      pop\n        /* \"#utility.yul\":10271:10344   */\n      tag_278\n        /* \"#utility.yul\":10339:10342   */\n      0xa0\n        /* \"#utility.yul\":10328:10337   */\n      dup4\n        /* \"#utility.yul\":10324:10343   */\n      add\n        /* \"#utility.yul\":10315:10321   */\n      dup6\n        /* \"#utility.yul\":10271:10344   */\n      tag_135\n      jump\t// in\n    tag_278:\n        /* \"#utility.yul\":10354:10427   */\n      tag_279\n        /* \"#utility.yul\":10422:10425   */\n      0xc0\n        /* \"#utility.yul\":10411:10420   */\n      dup4\n        /* \"#utility.yul\":10407:10426   */\n      add\n        /* \"#utility.yul\":10398:10404   */\n      dup5\n        /* \"#utility.yul\":10354:10427   */\n      tag_135\n      jump\t// in\n    tag_279:\n        /* \"#utility.yul\":9184:10434   */\n      swap9\n      swap8\n      pop\n      pop\n      pop\n      pop\n      pop\n      pop\n      pop\n      pop\n      jump\t// out\n        /* \"#utility.yul\":10440:10606   */\n    tag_153:\n        /* \"#utility.yul\":10580:10598   */\n      0x496e76616c696420766964656f20494400000000000000000000000000000000\n        /* \"#utility.yul\":10576:10577   */\n      0x00\n        /* \"#utility.yul\":10568:10574   */\n      dup3\n        /* \"#utility.yul\":10564:10578   */\n      add\n        /* \"#utility.yul\":10557:10599   */\n      mstore\n        /* \"#utility.yul\":10440:10606   */\n      pop\n      jump\t// out\n        /* \"#utility.yul\":10612:10978   */\n    tag_154:\n        /* \"#utility.yul\":10754:10757   */\n      0x00\n        /* \"#utility.yul\":10775:10842   */\n      tag_282\n        /* \"#utility.yul\":10839:10841   */\n      0x10\n        /* \"#utility.yul\":10834:10837   */\n      dup4\n        /* \"#utility.yul\":10775:10842   */\n      tag_137\n      jump\t// in\n    tag_282:\n        /* \"#utility.yul\":10768:10842   */\n      swap2\n      pop\n        /* \"#utility.yul\":10851:10944   */\n      tag_283\n        /* \"#utility.yul\":10940:10943   */\n      dup3\n        /* \"#utility.yul\":10851:10944   */\n      tag_153\n      jump\t// in\n    tag_283:\n        /* \"#utility.yul\":10969:10971   */\n      0x20\n        /* \"#utility.yul\":10964:10967   */\n      dup3\n        /* \"#utility.yul\":10960:10972   */\n      add\n        /* \"#utility.yul\":10953:10972   */\n      swap1\n      pop\n        /* \"#utility.yul\":10612:10978   */\n      swap2\n      swap1\n      pop\n      jump\t// out\n        /* \"#utility.yul\":10984:11403   */\n    tag_52:\n        /* \"#utility.yul\":11150:11154   */\n      0x00\n        /* \"#utility.yul\":11188:11190   */\n      0x20\n        /* \"#utility.yul\":11177:11186   */\n      dup3\n        /* \"#utility.yul\":11173:11191   */\n      add\n        /* \"#utility.yul\":11165:11191   */\n      swap1\n      pop\n        /* \"#utility.yul\":11237:11246   */\n      dup2\n        /* \"#utility.yul\":11231:11235   */\n      dup2\n        /* \"#utility.yul\":11227:11247   */\n      sub\n        /* \"#utility.yul\":11223:11224   */\n      0x00\n        /* \"#utility.yul\":11212:11221   */\n      dup4\n        /* \"#utility.yul\":11208:11225   */\n      add\n        /* \"#utility.yul\":11201:11248   */\n      mstore\n        /* \"#utility.yul\":11265:11396   */\n      tag_285\n        /* \"#utility.yul\":11391:11395   */\n      dup2\n        /* \"#utility.yul\":11265:11396   */\n      tag_154\n      jump\t// in\n    tag_285:\n        /* \"#utility.yul\":11257:11396   */\n      swap1\n      pop\n        /* \"#utility.yul\":10984:11403   */\n      swap2\n      swap1\n      pop\n      jump\t// out\n        /* \"#utility.yul\":11409:11589   */\n    tag_155:\n        /* \"#utility.yul\":11457:11534   */\n      0x4e487b7100000000000000000000000000000000000000000000000000000000\n        /* \"#utility.yul\":11454:11455   */\n      0x00\n        /* \"#utility.yul\":11447:11535   */\n      mstore\n        /* \"#utility.yul\":11554:11558   */\n      0x22\n        /* \"#utility.yul\":11551:11552   */\n      0x04\n        /* \"#utility.yul\":11544:11559   */\n      mstore\n        /* \"#utility.yul\":11578:11582   */\n      0x24\n        /* \"#utility.yul\":11575:11576   */\n      0x00\n        /* \"#utility.yul\":11568:11583   */\n      revert\n        /* \"#utility.yul\":11595:11915   */\n    tag_58:\n        /* \"#utility.yul\":11639:11645   */\n      0x00\n        /* \"#utility.yul\":11676:11677   */\n      0x02\n        /* \"#utility.yul\":11670:11674   */\n      dup3\n        /* \"#utility.yul\":11666:11678   */\n      div\n        /* \"#utility.yul\":11656:11678   */\n      swap1\n      pop\n        /* \"#utility.yul\":11723:11724   */\n      0x01\n        /* \"#utility.yul\":11717:11721   */\n      dup3\n        /* \"#utility.yul\":11713:11725   */\n      and\n        /* \"#utility.yul\":11744:11762   */\n      dup1\n        /* \"#utility.yul\":11734:11815   */\n      tag_288\n      jumpi\n        /* \"#utility.yul\":11800:11804   */\n      0x7f\n        /* \"#utility.yul\":11792:11798   */\n      dup3\n        /* \"#utility.yul\":11788:11805   */\n      and\n        /* \"#utility.yul\":11778:11805   */\n      swap2\n      pop\n        /* \"#utility.yul\":11734:11815   */\n    tag_288:\n        /* \"#utility.yul\":11862:11864   */\n      0x20\n        /* \"#utility.yul\":11854:11860   */\n      dup3\n        /* \"#utility.yul\":11851:11865   */\n      lt\n        /* \"#utility.yul\":11831:11849   */\n      dup2\n        /* \"#utility.yul\":11828:11866   */\n      sub\n        /* \"#utility.yul\":11825:11909   */\n      tag_289\n      jumpi\n        /* \"#utility.yul\":11881:11899   */\n      tag_290\n      tag_155\n      jump\t// in\n    tag_290:\n        /* \"#utility.yul\":11825:11909   */\n    tag_289:\n        /* \"#utility.yul\":11646:11915   */\n      pop\n        /* \"#utility.yul\":11595:11915   */\n      swap2\n      swap1\n      pop\n      jump\t// out\n        /* \"#utility.yul\":11921:12089   */\n    tag_156:\n        /* \"#utility.yul\":12061:12081   */\n      0x496e76616c696420636f6d6d656e742049440000000000000000000000000000\n        /* \"#utility.yul\":12057:12058   */\n      0x00\n        /* \"#utility.yul\":12049:12055   */\n      dup3\n        /* \"#utility.yul\":12045:12059   */\n      add\n        /* \"#utility.yul\":12038:12082   */\n      mstore\n        /* \"#utility.yul\":11921:12089   */\n      pop\n      jump\t// out\n        /* \"#utility.yul\":12095:12461   */\n    tag_157:\n        /* \"#utility.yul\":12237:12240   */\n      0x00\n        /* \"#utility.yul\":12258:12325   */\n      tag_293\n        /* \"#utility.yul\":12322:12324   */\n      0x12\n        /* \"#utility.yul\":12317:12320   */\n      dup4\n        /* \"#utility.yul\":12258:12325   */\n      tag_137\n      jump\t// in\n    tag_293:\n        /* \"#utility.yul\":12251:12325   */\n      swap2\n      pop\n        /* \"#utility.yul\":12334:12427   */\n      tag_294\n        /* \"#utility.yul\":12423:12426   */\n      dup3\n        /* \"#utility.yul\":12334:12427   */\n      tag_156\n      jump\t// in\n    tag_294:\n        /* \"#utility.yul\":12452:12454   */\n      0x20\n        /* \"#utility.yul\":12447:12450   */\n      dup3\n        /* \"#utility.yul\":12443:12455   */\n      add\n        /* \"#utility.yul\":12436:12455   */\n      swap1\n      pop\n        /* \"#utility.yul\":12095:12461   */\n      swap2\n      swap1\n      pop\n      jump\t// out\n        /* \"#utility.yul\":12467:12886   */\n    tag_85:\n        /* \"#utility.yul\":12633:12637   */\n      0x00\n        /* \"#utility.yul\":12671:12673   */\n      0x20\n        /* \"#utility.yul\":12660:12669   */\n      dup3\n        /* \"#utility.yul\":12656:12674   */\n      add\n        /* \"#utility.yul\":12648:12674   */\n      swap1\n      pop\n        /* \"#utility.yul\":12720:12729   */\n      dup2\n        /* \"#utility.yul\":12714:12718   */\n      dup2\n        /* \"#utility.yul\":12710:12730   */\n      sub\n        /* \"#utility.yul\":12706:12707   */\n      0x00\n        /* \"#utility.yul\":12695:12704   */\n      dup4\n        /* \"#utility.yul\":12691:12708   */\n      add\n        /* \"#utility.yul\":12684:12731   */\n      mstore\n        /* \"#utility.yul\":12748:12879   */\n      tag_296\n        /* \"#utility.yul\":12874:12878   */\n      dup2\n        /* \"#utility.yul\":12748:12879   */\n      tag_157\n      jump\t// in\n    tag_296:\n        /* \"#utility.yul\":12740:12879   */\n      swap1\n      pop\n        /* \"#utility.yul\":12467:12886   */\n      swap2\n      swap1\n      pop\n      jump\t// out\n        /* \"#utility.yul\":12892:13072   */\n    tag_158:\n        /* \"#utility.yul\":12940:13017   */\n      0x4e487b7100000000000000000000000000000000000000000000000000000000\n        /* \"#utility.yul\":12937:12938   */\n      0x00\n        /* \"#utility.yul\":12930:13018   */\n      mstore\n        /* \"#utility.yul\":13037:13041   */\n      0x11\n        /* \"#utility.yul\":13034:13035   */\n      0x04\n        /* \"#utility.yul\":13027:13042   */\n      mstore\n        /* \"#utility.yul\":13061:13065   */\n      0x24\n        /* \"#utility.yul\":13058:13059   */\n      0x00\n        /* \"#utility.yul\":13051:13066   */\n      revert\n        /* \"#utility.yul\":13078:13311   */\n    tag_97:\n        /* \"#utility.yul\":13117:13120   */\n      0x00\n        /* \"#utility.yul\":13140:13164   */\n      tag_299\n        /* \"#utility.yul\":13158:13163   */\n      dup3\n        /* \"#utility.yul\":13140:13164   */\n      tag_132\n      jump\t// in\n    tag_299:\n        /* \"#utility.yul\":13131:13164   */\n      swap2\n      pop\n        /* \"#utility.yul\":13186:13252   */\n      0xffffffffffffffffffffffffffffffffffffffffffffffffffffffffffffffff\n        /* \"#utility.yul\":13179:13184   */\n      dup3\n        /* \"#utility.yul\":13176:13253   */\n      sub\n        /* \"#utility.yul\":13173:13276   */\n      tag_300\n      jumpi\n        /* \"#utility.yul\":13256:13274   */\n      tag_301\n      tag_158\n      jump\t// in\n    tag_301:\n        /* \"#utility.yul\":13173:13276   */\n    tag_300:\n        /* \"#utility.yul\":13303:13304   */\n      0x01\n        /* \"#utility.yul\":13296:13301   */\n      dup3\n        /* \"#utility.yul\":13292:13305   */\n      add\n        /* \"#utility.yul\":13285:13305   */\n      swap1\n      pop\n        /* \"#utility.yul\":13078:13311   */\n      swap2\n      swap1\n      pop\n      jump\t// out\n        /* \"#utility.yul\":13317:13458   */\n    tag_159:\n        /* \"#utility.yul\":13366:13370   */\n      0x00\n        /* \"#utility.yul\":13389:13392   */\n      dup2\n        /* \"#utility.yul\":13381:13392   */\n      swap1\n      pop\n        /* \"#utility.yul\":13412:13415   */\n      dup2\n        /* \"#utility.yul\":13409:13410   */\n      0x00\n        /* \"#utility.yul\":13402:13416   */\n      mstore\n        /* \"#utility.yul\":13446:13450   */\n      0x20\n        /* \"#utility.yul\":13443:13444   */\n      0x00\n        /* \"#utility.yul\":13433:13451   */\n      keccak256\n        /* \"#utility.yul\":13425:13451   */\n      swap1\n      pop\n        /* \"#utility.yul\":13317:13458   */\n      swap2\n      swap1\n      pop\n      jump\t// out\n        /* \"#utility.yul\":13464:13557   */\n    tag_160:\n        /* \"#utility.yul\":13501:13507   */\n      0x00\n        /* \"#utility.yul\":13548:13550   */\n      0x20\n        /* \"#utility.yul\":13543:13545   */\n      0x1f\n        /* \"#utility.yul\":13536:13541   */\n      dup4\n        /* \"#utility.yul\":13532:13546   */\n      add\n        /* \"#utility.yul\":13528:13551   */\n      div\n        /* \"#utility.yul\":13518:13551   */\n      swap1\n      pop\n        /* \"#utility.yul\":13464:13557   */\n      swap2\n      swap1\n      pop\n      jump\t// out\n        /* \"#utility.yul\":13563:13670   */\n    tag_161:\n        /* \"#utility.yul\":13607:13615   */\n      0x00\n        /* \"#utility.yul\":13657:13662   */\n      dup3\n        /* \"#utility.yul\":13651:13655   */\n      dup3\n        /* \"#utility.yul\":13647:13663   */\n      shl\n        /* \"#utility.yul\":13626:13663   */\n      swap1\n      pop\n        /* \"#utility.yul\":13563:13670   */\n      swap3\n      swap2\n      pop\n      pop\n      jump\t// out\n        /* \"#utility.yul\":13676:14069   */\n    tag_162:\n        /* \"#utility.yul\":13745:13751   */\n      0x00\n        /* \"#utility.yul\":13795:13796   */\n      0x08\n        /* \"#utility.yul\":13783:13793   */\n      dup4\n        /* \"#utility.yul\":13779:13797   */\n      mul\n        /* \"#utility.yul\":13818:13915   */\n      tag_306\n        /* \"#utility.yul\":13848:13914   */\n      0xffffffffffffffffffffffffffffffffffffffffffffffffffffffffffffffff\n        /* \"#utility.yul\":13837:13846   */\n      dup3\n        /* \"#utility.yul\":13818:13915   */\n      tag_161\n      jump\t// in\n    tag_306:\n        /* \"#utility.yul\":13936:13975   */\n      tag_307\n        /* \"#utility.yul\":13966:13974   */\n      dup7\n        /* \"#utility.yul\":13955:13964   */\n      dup4\n        /* \"#utility.yul\":13936:13975   */\n      tag_161\n      jump\t// in\n    tag_307:\n        /* \"#utility.yul\":13924:13975   */\n      swap6\n      pop\n        /* \"#utility.yul\":14008:14012   */\n      dup1\n        /* \"#utility.yul\":14004:14013   */\n      not\n        /* \"#utility.yul\":13997:14002   */\n      dup5\n        /* \"#utility.yul\":13993:14014   */\n      and\n        /* \"#utility.yul\":13984:14014   */\n      swap4\n      pop\n        /* \"#utility.yul\":14057:14061   */\n      dup1\n        /* \"#utility.yul\":14047:14055   */\n      dup7\n        /* \"#utility.yul\":14043:14062   */\n      and\n        /* \"#utility.yul\":14036:14041   */\n      dup5\n        /* \"#utility.yul\":14033:14063   */\n      or\n        /* \"#utility.yul\":14023:14063   */\n      swap3\n      pop\n        /* \"#utility.yul\":13752:14069   */\n      pop\n      pop\n        /* \"#utility.yul\":13676:14069   */\n      swap4\n      swap3\n      pop\n      pop\n      pop\n      jump\t// out\n        /* \"#utility.yul\":14075:14135   */\n    tag_163:\n        /* \"#utility.yul\":14103:14106   */\n      0x00\n        /* \"#utility.yul\":14124:14129   */\n      dup2\n        /* \"#utility.yul\":14117:14129   */\n      swap1\n      pop\n        /* \"#utility.yul\":14075:14135   */\n      swap2\n      swap1\n      pop\n      jump\t// out\n        /* \"#utility.yul\":14141:14283   */\n    tag_164:\n        /* \"#utility.yul\":14191:14200   */\n      0x00\n        /* \"#utility.yul\":14224:14277   */\n      tag_310\n        /* \"#utility.yul\":14242:14276   */\n      tag_311\n        /* \"#utility.yul\":14251:14275   */\n      tag_312\n        /* \"#utility.yul\":14269:14274   */\n      dup5\n        /* \"#utility.yul\":14251:14275   */\n      tag_132\n      jump\t// in\n    tag_312:\n        /* \"#utility.yul\":14242:14276   */\n      tag_163\n      jump\t// in\n    tag_311:\n        /* \"#utility.yul\":14224:14277   */\n      tag_132\n      jump\t// in\n    tag_310:\n        /* \"#utility.yul\":14211:14277   */\n      swap1\n      pop\n        /* \"#utility.yul\":14141:14283   */\n      swap2\n      swap1\n      pop\n      jump\t// out\n        /* \"#utility.yul\":14289:14364   */\n    tag_165:\n        /* \"#utility.yul\":14332:14335   */\n      0x00\n        /* \"#utility.yul\":14353:14358   */\n      dup2\n        /* \"#utility.yul\":14346:14358   */\n      swap1\n      pop\n        /* \"#utility.yul\":14289:14364   */\n      swap2\n      swap1\n      pop\n      jump\t// out\n        /* \"#utility.yul\":14370:14639   */\n    tag_166:\n        /* \"#utility.yul\":14480:14519   */\n      tag_315\n        /* \"#utility.yul\":14511:14518   */\n      dup4\n        /* \"#utility.yul\":14480:14519   */\n      tag_164\n      jump\t// in\n    tag_315:\n        /* \"#utility.yul\":14541:14632   */\n      tag_316\n        /* \"#utility.yul\":14590:14631   */\n      tag_317\n        /* \"#utility.yul\":14614:14630   */\n      dup3\n        /* \"#utility.yul\":14590:14631   */\n      tag_165\n      jump\t// in\n    tag_317:\n        /* \"#utility.yul\":14582:14588   */\n      dup5\n        /* \"#utility.yul\":14575:14579   */\n      dup5\n        /* \"#utility.yul\":14569:14580   */\n      sload\n        /* \"#utility.yul\":14541:14632   */\n      tag_162\n      jump\t// in\n    tag_316:\n        /* \"#utility.yul\":14535:14539   */\n      dup3\n        /* \"#utility.yul\":14528:14633   */\n      sstore\n        /* \"#utility.yul\":14446:14639   */\n      pop\n        /* \"#utility.yul\":14370:14639   */\n      pop\n      pop\n      pop\n      jump\t// out\n        /* \"#utility.yul\":14645:14718   */\n    tag_167:\n        /* \"#utility.yul\":14690:14693   */\n      0x00\n        /* \"#utility.yul\":14645:14718   */\n      swap1\n      jump\t// out\n        /* \"#utility.yul\":14724:14913   */\n    tag_168:\n        /* \"#utility.yul\":14801:14833   */\n      tag_320\n      tag_167\n      jump\t// in\n    tag_320:\n        /* \"#utility.yul\":14842:14907   */\n      tag_321\n        /* \"#utility.yul\":14900:14906   */\n      dup2\n        /* \"#utility.yul\":14892:14898   */\n      dup5\n        /* \"#utility.yul\":14886:14890   */\n      dup5\n        /* \"#utility.yul\":14842:14907   */\n      tag_166\n      jump\t// in\n    tag_321:\n        /* \"#utility.yul\":14777:14913   */\n      pop\n        /* \"#utility.yul\":14724:14913   */\n      pop\n      pop\n      jump\t// out\n        /* \"#utility.yul\":14919:15105   */\n    tag_169:\n        /* \"#utility.yul\":14979:15099   */\n    tag_323:\n        /* \"#utility.yul\":14996:14999   */\n      dup2\n        /* \"#utility.yul\":14989:14994   */\n      dup2\n        /* \"#utility.yul\":14986:15000   */\n      lt\n        /* \"#utility.yul\":14979:15099   */\n      iszero\n      tag_325\n      jumpi\n        /* \"#utility.yul\":15050:15089   */\n      tag_326\n        /* \"#utility.yul\":15087:15088   */\n      0x00\n        /* \"#utility.yul\":15080:15085   */\n      dup3\n        /* \"#utility.yul\":15050:15089   */\n      tag_168\n      jump\t// in\n    tag_326:\n        /* \"#utility.yul\":15023:15024   */\n      0x01\n        /* \"#utility.yul\":15016:15021   */\n      dup2\n        /* \"#utility.yul\":15012:15025   */\n      add\n        /* \"#utility.yul\":15003:15025   */\n      swap1\n      pop\n        /* \"#utility.yul\":14979:15099   */\n      jump(tag_323)\n    tag_325:\n        /* \"#utility.yul\":14919:15105   */\n      pop\n      pop\n      jump\t// out\n        /* \"#utility.yul\":15111:15654   */\n    tag_170:\n        /* \"#utility.yul\":15212:15214   */\n      0x1f\n        /* \"#utility.yul\":15207:15210   */\n      dup3\n        /* \"#utility.yul\":15204:15215   */\n      gt\n        /* \"#utility.yul\":15201:15647   */\n      iszero\n      tag_328\n      jumpi\n        /* \"#utility.yul\":15246:15284   */\n      tag_329\n        /* \"#utility.yul\":15278:15283   */\n      dup2\n        /* \"#utility.yul\":15246:15284   */\n      tag_159\n      jump\t// in\n    tag_329:\n        /* \"#utility.yul\":15330:15359   */\n      tag_330\n        /* \"#utility.yul\":15348:15358   */\n      dup5\n        /* \"#utility.yul\":15330:15359   */\n      tag_160\n      jump\t// in\n    tag_330:\n        /* \"#utility.yul\":15320:15328   */\n      dup2\n        /* \"#utility.yul\":15316:15360   */\n      add\n        /* \"#utility.yul\":15513:15515   */\n      0x20\n        /* \"#utility.yul\":15501:15511   */\n      dup6\n        /* \"#utility.yul\":15498:15516   */\n      lt\n        /* \"#utility.yul\":15495:15544   */\n      iszero\n      tag_331\n      jumpi\n        /* \"#utility.yul\":15534:15542   */\n      dup2\n        /* \"#utility.yul\":15519:15542   */\n      swap1\n      pop\n        /* \"#utility.yul\":15495:15544   */\n    tag_331:\n        /* \"#utility.yul\":15557:15637   */\n      tag_332\n        /* \"#utility.yul\":15613:15635   */\n      tag_333\n        /* \"#utility.yul\":15631:15634   */\n      dup6\n        /* \"#utility.yul\":15613:15635   */\n      tag_160\n      jump\t// in\n    tag_333:\n        /* \"#utility.yul\":15603:15611   */\n      dup4\n        /* \"#utility.yul\":15599:15636   */\n      add\n        /* \"#utility.yul\":15586:15597   */\n      dup3\n        /* \"#utility.yul\":15557:15637   */\n      tag_169\n      jump\t// in\n    tag_332:\n        /* \"#utility.yul\":15216:15647   */\n      pop\n      pop\n        /* \"#utility.yul\":15201:15647   */\n    tag_328:\n        /* \"#utility.yul\":15111:15654   */\n      pop\n      pop\n      pop\n      jump\t// out\n        /* \"#utility.yul\":15660:15777   */\n    tag_171:\n        /* \"#utility.yul\":15714:15722   */\n      0x00\n        /* \"#utility.yul\":15764:15769   */\n      dup3\n        /* \"#utility.yul\":15758:15762   */\n      dup3\n        /* \"#utility.yul\":15754:15770   */\n      shr\n        /* \"#utility.yul\":15733:15770   */\n      swap1\n      pop\n        /* \"#utility.yul\":15660:15777   */\n      swap3\n      swap2\n      pop\n      pop\n      jump\t// out\n        /* \"#utility.yul\":15783:15952   */\n    tag_172:\n        /* \"#utility.yul\":15827:15833   */\n      0x00\n        /* \"#utility.yul\":15860:15911   */\n      tag_336\n        /* \"#utility.yul\":15908:15909   */\n      0x00\n        /* \"#utility.yul\":15904:15910   */\n      not\n        /* \"#utility.yul\":15896:15901   */\n      dup5\n        /* \"#utility.yul\":15893:15894   */\n      0x08\n        /* \"#utility.yul\":15889:15902   */\n      mul\n        /* \"#utility.yul\":15860:15911   */\n      tag_171\n      jump\t// in\n    tag_336:\n        /* \"#utility.yul\":15856:15912   */\n      not\n        /* \"#utility.yul\":15941:15945   */\n      dup1\n        /* \"#utility.yul\":15935:15939   */\n      dup4\n        /* \"#utility.yul\":15931:15946   */\n      and\n        /* \"#utility.yul\":15921:15946   */\n      swap2\n      pop\n        /* \"#utility.yul\":15834:15952   */\n      pop\n        /* \"#utility.yul\":15783:15952   */\n      swap3\n      swap2\n      pop\n      pop\n      jump\t// out\n        /* \"#utility.yul\":15957:16252   */\n    tag_173:\n        /* \"#utility.yul\":16033:16037   */\n      0x00\n        /* \"#utility.yul\":16179:16208   */\n      tag_338\n        /* \"#utility.yul\":16204:16207   */\n      dup4\n        /* \"#utility.yul\":16198:16202   */\n      dup4\n        /* \"#utility.yul\":16179:16208   */\n      tag_172\n      jump\t// in\n    tag_338:\n        /* \"#utility.yul\":16171:16208   */\n      swap2\n      pop\n        /* \"#utility.yul\":16241:16244   */\n      dup3\n        /* \"#utility.yul\":16238:16239   */\n      0x02\n        /* \"#utility.yul\":16234:16245   */\n      mul\n        /* \"#utility.yul\":16228:16232   */\n      dup3\n        /* \"#utility.yul\":16225:16246   */\n      or\n        /* \"#utility.yul\":16217:16246   */\n      swap1\n      pop\n        /* \"#utility.yul\":15957:16252   */\n      swap3\n      swap2\n      pop\n      pop\n      jump\t// out\n        /* \"#utility.yul\":16257:17652   */\n    tag_99:\n        /* \"#utility.yul\":16374:16411   */\n      tag_340\n        /* \"#utility.yul\":16407:16410   */\n      dup3\n        /* \"#utility.yul\":16374:16411   */\n      tag_136\n      jump\t// in\n    tag_340:\n        /* \"#utility.yul\":16476:16494   */\n      0xffffffffffffffff\n        /* \"#utility.yul\":16468:16474   */\n      dup2\n        /* \"#utility.yul\":16465:16495   */\n      gt\n        /* \"#utility.yul\":16462:16518   */\n      iszero\n      tag_341\n      jumpi\n        /* \"#utility.yul\":16498:16516   */\n      tag_342\n      tag_146\n      jump\t// in\n    tag_342:\n        /* \"#utility.yul\":16462:16518   */\n    tag_341:\n        /* \"#utility.yul\":16542:16580   */\n      tag_343\n        /* \"#utility.yul\":16574:16578   */\n      dup3\n        /* \"#utility.yul\":16568:16579   */\n      sload\n        /* \"#utility.yul\":16542:16580   */\n      tag_58\n      jump\t// in\n    tag_343:\n        /* \"#utility.yul\":16627:16694   */\n      tag_344\n        /* \"#utility.yul\":16687:16693   */\n      dup3\n        /* \"#utility.yul\":16679:16685   */\n      dup3\n        /* \"#utility.yul\":16673:16677   */\n      dup6\n        /* \"#utility.yul\":16627:16694   */\n      tag_170\n      jump\t// in\n    tag_344:\n        /* \"#utility.yul\":16721:16722   */\n      0x00\n        /* \"#utility.yul\":16745:16749   */\n      0x20\n        /* \"#utility.yul\":16732:16749   */\n      swap1\n      pop\n        /* \"#utility.yul\":16777:16779   */\n      0x1f\n        /* \"#utility.yul\":16769:16775   */\n      dup4\n        /* \"#utility.yul\":16766:16780   */\n      gt\n        /* \"#utility.yul\":16794:16795   */\n      0x01\n        /* \"#utility.yul\":16789:17407   */\n      dup2\n      eq\n      tag_346\n      jumpi\n        /* \"#utility.yul\":17451:17452   */\n      0x00\n        /* \"#utility.yul\":17468:17474   */\n      dup5\n        /* \"#utility.yul\":17465:17542   */\n      iszero\n      tag_347\n      jumpi\n        /* \"#utility.yul\":17517:17526   */\n      dup3\n        /* \"#utility.yul\":17512:17515   */\n      dup8\n        /* \"#utility.yul\":17508:17527   */\n      add\n        /* \"#utility.yul\":17502:17528   */\n      mload\n        /* \"#utility.yul\":17493:17528   */\n      swap1\n      pop\n        /* \"#utility.yul\":17465:17542   */\n    tag_347:\n        /* \"#utility.yul\":17568:17635   */\n      tag_348\n        /* \"#utility.yul\":17628:17634   */\n      dup6\n        /* \"#utility.yul\":17621:17626   */\n      dup3\n        /* \"#utility.yul\":17568:17635   */\n      tag_173\n      jump\t// in\n    tag_348:\n        /* \"#utility.yul\":17562:17566   */\n      dup7\n        /* \"#utility.yul\":17555:17636   */\n      sstore\n        /* \"#utility.yul\":17424:17646   */\n      pop\n        /* \"#utility.yul\":16759:17646   */\n      jump(tag_345)\n        /* \"#utility.yul\":16789:17407   */\n    tag_346:\n        /* \"#utility.yul\":16841:16845   */\n      0x1f\n        /* \"#utility.yul\":16837:16846   */\n      not\n        /* \"#utility.yul\":16829:16835   */\n      dup5\n        /* \"#utility.yul\":16825:16847   */\n      and\n        /* \"#utility.yul\":16875:16912   */\n      tag_349\n        /* \"#utility.yul\":16907:16911   */\n      dup7\n        /* \"#utility.yul\":16875:16912   */\n      tag_159\n      jump\t// in\n    tag_349:\n        /* \"#utility.yul\":16934:16935   */\n      0x00\n        /* \"#utility.yul\":16948:17156   */\n    tag_350:\n        /* \"#utility.yul\":16962:16969   */\n      dup3\n        /* \"#utility.yul\":16959:16960   */\n      dup2\n        /* \"#utility.yul\":16956:16970   */\n      lt\n        /* \"#utility.yul\":16948:17156   */\n      iszero\n      tag_352\n      jumpi\n        /* \"#utility.yul\":17041:17050   */\n      dup5\n        /* \"#utility.yul\":17036:17039   */\n      dup10\n        /* \"#utility.yul\":17032:17051   */\n      add\n        /* \"#utility.yul\":17026:17052   */\n      mload\n        /* \"#utility.yul\":17018:17024   */\n      dup3\n        /* \"#utility.yul\":17011:17053   */\n      sstore\n        /* \"#utility.yul\":17092:17093   */\n      0x01\n        /* \"#utility.yul\":17084:17090   */\n      dup3\n        /* \"#utility.yul\":17080:17094   */\n      add\n        /* \"#utility.yul\":17070:17094   */\n      swap2\n      pop\n        /* \"#utility.yul\":17139:17141   */\n      0x20\n        /* \"#utility.yul\":17128:17137   */\n      dup6\n        /* \"#utility.yul\":17124:17142   */\n      add\n        /* \"#utility.yul\":17111:17142   */\n      swap5\n      pop\n        /* \"#utility.yul\":16985:16989   */\n      0x20\n        /* \"#utility.yul\":16982:16983   */\n      dup2\n        /* \"#utility.yul\":16978:16990   */\n      add\n        /* \"#utility.yul\":16973:16990   */\n      swap1\n      pop\n        /* \"#utility.yul\":16948:17156   */\n      jump(tag_350)\n    tag_352:\n        /* \"#utility.yul\":17184:17190   */\n      dup7\n        /* \"#utility.yul\":17175:17182   */\n      dup4\n        /* \"#utility.yul\":17172:17191   */\n      lt\n        /* \"#utility.yul\":17169:17348   */\n      iszero\n      tag_353\n      jumpi\n        /* \"#utility.yul\":17242:17251   */\n      dup5\n        /* \"#utility.yul\":17237:17240   */\n      dup10\n        /* \"#utility.yul\":17233:17252   */\n      add\n        /* \"#utility.yul\":17227:17253   */\n      mload\n        /* \"#utility.yul\":17285:17333   */\n      tag_354\n        /* \"#utility.yul\":17327:17331   */\n      0x1f\n        /* \"#utility.yul\":17319:17325   */\n      dup10\n        /* \"#utility.yul\":17315:17332   */\n      and\n        /* \"#utility.yul\":17304:17313   */\n      dup3\n        /* \"#utility.yul\":17285:17333   */\n      tag_172\n      jump\t// in\n    tag_354:\n        /* \"#utility.yul\":17277:17283   */\n      dup4\n        /* \"#utility.yul\":17270:17334   */\n      sstore\n        /* \"#utility.yul\":17192:17348   */\n      pop\n        /* \"#utility.yul\":17169:17348   */\n    tag_353:\n        /* \"#utility.yul\":17394:17395   */\n      0x01\n        /* \"#utility.yul\":17390:17391   */\n      0x02\n        /* \"#utility.yul\":17382:17388   */\n      dup9\n        /* \"#utility.yul\":17378:17392   */\n      mul\n        /* \"#utility.yul\":17374:17396   */\n      add\n        /* \"#utility.yul\":17368:17372   */\n      dup9\n        /* \"#utility.yul\":17361:17397   */\n      sstore\n        /* \"#utility.yul\":16796:17407   */\n      pop\n      pop\n      pop\n        /* \"#utility.yul\":16759:17646   */\n    tag_345:\n      pop\n        /* \"#utility.yul\":16349:17652   */\n      pop\n      pop\n      pop\n        /* \"#utility.yul\":16257:17652   */\n      pop\n      pop\n      jump\t// out\n        /* \"#utility.yul\":17658:18302   */\n    tag_101:\n        /* \"#utility.yul\":17855:17859   */\n      0x00\n        /* \"#utility.yul\":17893:17896   */\n      0x80\n        /* \"#utility.yul\":17882:17891   */\n      dup3\n        /* \"#utility.yul\":17878:17897   */\n      add\n        /* \"#utility.yul\":17870:17897   */\n      swap1\n      pop\n        /* \"#utility.yul\":17907:17978   */\n      tag_356\n        /* \"#utility.yul\":17975:17976   */\n      0x00\n        /* \"#utility.yul\":17964:17973   */\n      dup4\n        /* \"#utility.yul\":17960:17977   */\n      add\n        /* \"#utility.yul\":17951:17957   */\n      dup8\n        /* \"#utility.yul\":17907:17978   */\n      tag_135\n      jump\t// in\n    tag_356:\n        /* \"#utility.yul\":17988:18060   */\n      tag_357\n        /* \"#utility.yul\":18056:18058   */\n      0x20\n        /* \"#utility.yul\":18045:18054   */\n      dup4\n        /* \"#utility.yul\":18041:18059   */\n      add\n        /* \"#utility.yul\":18032:18038   */\n      dup7\n        /* \"#utility.yul\":17988:18060   */\n      tag_135\n      jump\t// in\n    tag_357:\n        /* \"#utility.yul\":18107:18116   */\n      dup2\n        /* \"#utility.yul\":18101:18105   */\n      dup2\n        /* \"#utility.yul\":18097:18117   */\n      sub\n        /* \"#utility.yul\":18092:18094   */\n      0x40\n        /* \"#utility.yul\":18081:18090   */\n      dup4\n        /* \"#utility.yul\":18077:18095   */\n      add\n        /* \"#utility.yul\":18070:18118   */\n      mstore\n        /* \"#utility.yul\":18135:18213   */\n      tag_358\n        /* \"#utility.yul\":18208:18212   */\n      dup2\n        /* \"#utility.yul\":18199:18205   */\n      dup6\n        /* \"#utility.yul\":18135:18213   */\n      tag_140\n      jump\t// in\n    tag_358:\n        /* \"#utility.yul\":18127:18213   */\n      swap1\n      pop\n        /* \"#utility.yul\":18223:18295   */\n      tag_359\n        /* \"#utility.yul\":18291:18293   */\n      0x60\n        /* \"#utility.yul\":18280:18289   */\n      dup4\n        /* \"#utility.yul\":18276:18294   */\n      add\n        /* \"#utility.yul\":18267:18273   */\n      dup5\n        /* \"#utility.yul\":18223:18295   */\n      tag_135\n      jump\t// in\n    tag_359:\n        /* \"#utility.yul\":17658:18302   */\n      swap6\n      swap5\n      pop\n      pop\n      pop\n      pop\n      pop\n      jump\t// out\n        /* \"#utility.yul\":18308:19245   */\n    tag_108:\n        /* \"#utility.yul\":18573:18577   */\n      0x00\n        /* \"#utility.yul\":18611:18614   */\n      0xa0\n        /* \"#utility.yul\":18600:18609   */\n      dup3\n        /* \"#utility.yul\":18596:18615   */\n      add\n        /* \"#utility.yul\":18588:18615   */\n      swap1\n      pop\n        /* \"#utility.yul\":18625:18696   */\n      tag_361\n        /* \"#utility.yul\":18693:18694   */\n      0x00\n        /* \"#utility.yul\":18682:18691   */\n      dup4\n        /* \"#utility.yul\":18678:18695   */\n      add\n        /* \"#utility.yul\":18669:18675   */\n      dup9\n        /* \"#utility.yul\":18625:18696   */\n      tag_135\n      jump\t// in\n    tag_361:\n        /* \"#utility.yul\":18743:18752   */\n      dup2\n        /* \"#utility.yul\":18737:18741   */\n      dup2\n        /* \"#utility.yul\":18733:18753   */\n      sub\n        /* \"#utility.yul\":18728:18730   */\n      0x20\n        /* \"#utility.yul\":18717:18726   */\n      dup4\n        /* \"#utility.yul\":18713:18731   */\n      add\n        /* \"#utility.yul\":18706:18754   */\n      mstore\n        /* \"#utility.yul\":18771:18849   */\n      tag_362\n        /* \"#utility.yul\":18844:18848   */\n      dup2\n        /* \"#utility.yul\":18835:18841   */\n      dup8\n        /* \"#utility.yul\":18771:18849   */\n      tag_140\n      jump\t// in\n    tag_362:\n        /* \"#utility.yul\":18763:18849   */\n      swap1\n      pop\n        /* \"#utility.yul\":18896:18905   */\n      dup2\n        /* \"#utility.yul\":18890:18894   */\n      dup2\n        /* \"#utility.yul\":18886:18906   */\n      sub\n        /* \"#utility.yul\":18881:18883   */\n      0x40\n        /* \"#utility.yul\":18870:18879   */\n      dup4\n        /* \"#utility.yul\":18866:18884   */\n      add\n        /* \"#utility.yul\":18859:18907   */\n      mstore\n        /* \"#utility.yul\":18924:19002   */\n      tag_363\n        /* \"#utility.yul\":18997:19001   */\n      dup2\n        /* \"#utility.yul\":18988:18994   */\n      dup7\n        /* \"#utility.yul\":18924:19002   */\n      tag_140\n      jump\t// in\n    tag_363:\n        /* \"#utility.yul\":18916:19002   */\n      swap1\n      pop\n        /* \"#utility.yul\":19049:19058   */\n      dup2\n        /* \"#utility.yul\":19043:19047   */\n      dup2\n        /* \"#utility.yul\":19039:19059   */\n      sub\n        /* \"#utility.yul\":19034:19036   */\n      0x60\n        /* \"#utility.yul\":19023:19032   */\n      dup4\n        /* \"#utility.yul\":19019:19037   */\n      add\n        /* \"#utility.yul\":19012:19060   */\n      mstore\n        /* \"#utility.yul\":19077:19155   */\n      tag_364\n        /* \"#utility.yul\":19150:19154   */\n      dup2\n        /* \"#utility.yul\":19141:19147   */\n      dup6\n        /* \"#utility.yul\":19077:19155   */\n      tag_140\n      jump\t// in\n    tag_364:\n        /* \"#utility.yul\":19069:19155   */\n      swap1\n      pop\n        /* \"#utility.yul\":19165:19238   */\n      tag_365\n        /* \"#utility.yul\":19233:19236   */\n      0x80\n        /* \"#utility.yul\":19222:19231   */\n      dup4\n        /* \"#utility.yul\":19218:19237   */\n      add\n        /* \"#utility.yul\":19209:19215   */\n      dup5\n        /* \"#utility.yul\":19165:19238   */\n      tag_135\n      jump\t// in\n    tag_365:\n        /* \"#utility.yul\":18308:19245   */\n      swap7\n      swap6\n      pop\n      pop\n      pop\n      pop\n      pop\n      pop\n      jump\t// out\n\n    auxdata: 0xa2646970667358221220f54a7fd808d9712857b6556f0700e22d75296e62d35b54e14177f2f6d11bc51364736f6c63430008120033\n}\n",
				"bytecode": {
					"linkReferences": {},
					"object": "6080604052600060015534801561001557600080fd5b50611642806100256000396000f3fe608060405234801561001057600080fd5b50600436106100885760003560e01c8063aa7e56831161005b578063aa7e568314610142578063c61b5f4c1461015e578063db83644b1461017c578063e6821bf51461019857610088565b80630d4bfb4f1461008d5780632893eca2146100bd57806348892753146100f2578063a286c0b914610124575b600080fd5b6100a760048036038101906100a29190610c15565b6101ce565b6040516100b49190610c51565b60405180910390f35b6100d760048036038101906100d29190610c15565b61023e565b6040516100e996959493929190610cfc565b60405180910390f35b61010c60048036038101906101079190610d79565b61050e565b60405161011b93929190610dfa565b60405180910390f35b61012c6106ba565b6040516101399190610c51565b60405180910390f35b61015c60048036038101906101579190610f6d565b6106c4565b005b61016661083f565b6040516101739190610c51565b60405180910390f35b61019660048036038101906101919190610fc9565b610845565b005b6101b260048036038101906101ad9190610c15565b610949565b6040516101c597969594939291906110a0565b60405180910390f35b600060015482111580156101e25750600082115b610221576040517f08c379a000000000000000000000000000000000000000000000000000000000815260040161021890611177565b60405180910390fd5b600080838152602001908152602001600020600701549050919050565b60608060608060008060015487111580156102595750600087115b610298576040517f08c379a000000000000000000000000000000000000000000000000000000000815260040161028f90611177565b60405180910390fd5b6000806000898152602001908152602001600020905080600101816002018260030183600401846005015485600701548580546102d4906111c6565b80601f0160208091040260200160405190810160405280929190818152602001828054610300906111c6565b801561034d5780601f106103225761010080835404028352916020019161034d565b820191906000526020600020905b81548152906001019060200180831161033057829003601f168201915b50505050509550848054610360906111c6565b80601f016020809104026020016040519081016040528092919081815260200182805461038c906111c6565b80156103d95780601f106103ae576101008083540402835291602001916103d9565b820191906000526020600020905b8154815290600101906020018083116103bc57829003601f168201915b505050505094508380546103ec906111c6565b80601f0160208091040260200160405190810160405280929190818152602001828054610418906111c6565b80156104655780601f1061043a57610100808354040283529160200191610465565b820191906000526020600020905b81548152906001019060200180831161044857829003601f168201915b50505050509350828054610478906111c6565b80601f01602080910402602001604051908101604052809291908181526020018280546104a4906111c6565b80156104f15780601f106104c6576101008083540402835291602001916104f1565b820191906000526020600020905b8154815290600101906020018083116104d457829003601f168201915b505050505092509650965096509650965096505091939550919395565b606060008060015485111580156105255750600085115b610564576040517f08c379a000000000000000000000000000000000000000000000000000000000815260040161055b90611177565b60405180910390fd5b6000808681526020019081526020016000206007015484111580156105895750600084115b6105c8576040517f08c379a00000000000000000000000000000000000000000000000000000000081526004016105bf90611243565b60405180910390fd5b600080600087815260200190815260200160002060060160008681526020019081526020016000209050806001018160000160009054906101000a900473ffffffffffffffffffffffffffffffffffffffff16826002015482805461062c906111c6565b80601f0160208091040260200160405190810160405280929190818152602001828054610658906111c6565b80156106a55780601f1061067a576101008083540402835291602001916106a5565b820191906000526020600020905b81548152906001019060200180831161068857829003601f168201915b50505050509250935093509350509250925092565b6000600154905090565b60015482111580156106d65750600082115b610715576040517f08c379a000000000000000000000000000000000000000000000000000000000815260040161070c90611177565b60405180910390fd5b6000806000848152602001908152602001600020905080600701600081548092919061074090611292565b919050555060405180606001604052803373ffffffffffffffffffffffffffffffffffffffff168152602001838152602001428152508160060160008360070154815260200190815260200160002060008201518160000160006101000a81548173ffffffffffffffffffffffffffffffffffffffff021916908373ffffffffffffffffffffffffffffffffffffffff16021790555060208201518160010190816107eb9190611486565b50604082015181600201559050507f900a4c5afdb3f75f909ccf2a10a79d00c549dd9fe6a8ac00660440f5c2eb7da783826007015484426040516108329493929190611558565b60405180910390a1505050565b60015481565b6001600081548092919061085890611292565b9190505550600080600060015481526020019081526020016000209050338160000160006101000a81548173ffffffffffffffffffffffffffffffffffffffff021916908373ffffffffffffffffffffffffffffffffffffffff160217905550848160010190816108c99190611486565b50838160020190816108db9190611486565b50428160050181905550828160040190816108f69190611486565b50600081600701819055507fef7282af85231ea2e7e518e5ea491608fc6207a3a825e68944d2ca9e7d75aa396001548686854260405161093a9594939291906115a4565b60405180910390a15050505050565b60006020528060005260406000206000915090508060000160009054906101000a900473ffffffffffffffffffffffffffffffffffffffff1690806001018054610992906111c6565b80601f01602080910402602001604051908101604052809291908181526020018280546109be906111c6565b8015610a0b5780601f106109e057610100808354040283529160200191610a0b565b820191906000526020600020905b8154815290600101906020018083116109ee57829003601f168201915b505050505090806002018054610a20906111c6565b80601f0160208091040260200160405190810160405280929190818152602001828054610a4c906111c6565b8015610a995780601f10610a6e57610100808354040283529160200191610a99565b820191906000526020600020905b815481529060010190602001808311610a7c57829003601f168201915b505050505090806003018054610aae906111c6565b80601f0160208091040260200160405190810160405280929190818152602001828054610ada906111c6565b8015610b275780601f10610afc57610100808354040283529160200191610b27565b820191906000526020600020905b815481529060010190602001808311610b0a57829003601f168201915b505050505090806004018054610b3c906111c6565b80601f0160208091040260200160405190810160405280929190818152602001828054610b68906111c6565b8015610bb55780601f10610b8a57610100808354040283529160200191610bb5565b820191906000526020600020905b815481529060010190602001808311610b9857829003601f168201915b5050505050908060050154908060070154905087565b6000604051905090565b600080fd5b600080fd5b6000819050919050565b610bf281610bdf565b8114610bfd57600080fd5b50565b600081359050610c0f81610be9565b92915050565b600060208284031215610c2b57610c2a610bd5565b5b6000610c3984828501610c00565b91505092915050565b610c4b81610bdf565b82525050565b6000602082019050610c666000830184610c42565b92915050565b600081519050919050565b600082825260208201905092915050565b60005b83811015610ca6578082015181840152602081019050610c8b565b60008484015250505050565b6000601f19601f8301169050919050565b6000610cce82610c6c565b610cd88185610c77565b9350610ce8818560208601610c88565b610cf181610cb2565b840191505092915050565b600060c0820190508181036000830152610d168189610cc3565b90508181036020830152610d2a8188610cc3565b90508181036040830152610d3e8187610cc3565b90508181036060830152610d528186610cc3565b9050610d616080830185610c42565b610d6e60a0830184610c42565b979650505050505050565b60008060408385031215610d9057610d8f610bd5565b5b6000610d9e85828601610c00565b9250506020610daf85828601610c00565b9150509250929050565b600073ffffffffffffffffffffffffffffffffffffffff82169050919050565b6000610de482610db9565b9050919050565b610df481610dd9565b82525050565b60006060820190508181036000830152610e148186610cc3565b9050610e236020830185610deb565b610e306040830184610c42565b949350505050565b600080fd5b600080fd5b7f4e487b7100000000000000000000000000000000000000000000000000000000600052604160045260246000fd5b610e7a82610cb2565b810181811067ffffffffffffffff82111715610e9957610e98610e42565b5b80604052505050565b6000610eac610bcb565b9050610eb88282610e71565b919050565b600067ffffffffffffffff821115610ed857610ed7610e42565b5b610ee182610cb2565b9050602081019050919050565b82818337600083830152505050565b6000610f10610f0b84610ebd565b610ea2565b905082815260208101848484011115610f2c57610f2b610e3d565b5b610f37848285610eee565b509392505050565b600082601f830112610f5457610f53610e38565b5b8135610f64848260208601610efd565b91505092915050565b60008060408385031215610f8457610f83610bd5565b5b6000610f9285828601610c00565b925050602083013567ffffffffffffffff811115610fb357610fb2610bda565b5b610fbf85828601610f3f565b9150509250929050565b60008060008060808587031215610fe357610fe2610bd5565b5b600085013567ffffffffffffffff81111561100157611000610bda565b5b61100d87828801610f3f565b945050602085013567ffffffffffffffff81111561102e5761102d610bda565b5b61103a87828801610f3f565b935050604085013567ffffffffffffffff81111561105b5761105a610bda565b5b61106787828801610f3f565b925050606085013567ffffffffffffffff81111561108857611087610bda565b5b61109487828801610f3f565b91505092959194509250565b600060e0820190506110b5600083018a610deb565b81810360208301526110c78189610cc3565b905081810360408301526110db8188610cc3565b905081810360608301526110ef8187610cc3565b905081810360808301526111038186610cc3565b905061111260a0830185610c42565b61111f60c0830184610c42565b98975050505050505050565b7f496e76616c696420766964656f20494400000000000000000000000000000000600082015250565b6000611161601083610c77565b915061116c8261112b565b602082019050919050565b6000602082019050818103600083015261119081611154565b9050919050565b7f4e487b7100000000000000000000000000000000000000000000000000000000600052602260045260246000fd5b600060028204905060018216806111de57607f821691505b6020821081036111f1576111f0611197565b5b50919050565b7f496e76616c696420636f6d6d656e742049440000000000000000000000000000600082015250565b600061122d601283610c77565b9150611238826111f7565b602082019050919050565b6000602082019050818103600083015261125c81611220565b9050919050565b7f4e487b7100000000000000000000000000000000000000000000000000000000600052601160045260246000fd5b600061129d82610bdf565b91507fffffffffffffffffffffffffffffffffffffffffffffffffffffffffffffffff82036112cf576112ce611263565b5b600182019050919050565b60008190508160005260206000209050919050565b60006020601f8301049050919050565b600082821b905092915050565b60006008830261133c7fffffffffffffffffffffffffffffffffffffffffffffffffffffffffffffffff826112ff565b61134686836112ff565b95508019841693508086168417925050509392505050565b6000819050919050565b600061138361137e61137984610bdf565b61135e565b610bdf565b9050919050565b6000819050919050565b61139d83611368565b6113b16113a98261138a565b84845461130c565b825550505050565b600090565b6113c66113b9565b6113d1818484611394565b505050565b5b818110156113f5576113ea6000826113be565b6001810190506113d7565b5050565b601f82111561143a5761140b816112da565b611414846112ef565b81016020851015611423578190505b61143761142f856112ef565b8301826113d6565b50505b505050565b600082821c905092915050565b600061145d6000198460080261143f565b1980831691505092915050565b6000611476838361144c565b9150826002028217905092915050565b61148f82610c6c565b67ffffffffffffffff8111156114a8576114a7610e42565b5b6114b282546111c6565b6114bd8282856113f9565b600060209050601f8311600181146114f057600084156114de578287015190505b6114e8858261146a565b865550611550565b601f1984166114fe866112da565b60005b8281101561152657848901518255600182019150602085019450602081019050611501565b86831015611543578489015161153f601f89168261144c565b8355505b6001600288020188555050505b505050505050565b600060808201905061156d6000830187610c42565b61157a6020830186610c42565b818103604083015261158c8185610cc3565b905061159b6060830184610c42565b95945050505050565b600060a0820190506115b96000830188610c42565b81810360208301526115cb8187610cc3565b905081810360408301526115df8186610cc3565b905081810360608301526115f38185610cc3565b90506116026080830184610c42565b969550505050505056fea2646970667358221220f54a7fd808d9712857b6556f0700e22d75296e62d35b54e14177f2f6d11bc51364736f6c63430008120033",
					"opcodes": "PUSH1 0x80 PUSH1 0x40 MSTORE PUSH1 0x0 PUSH1 0x1 SSTORE CALLVALUE DUP1 ISZERO PUSH2 0x15 JUMPI PUSH1 0x0 DUP1 REVERT JUMPDEST POP PUSH2 0x1642 DUP1 PUSH2 0x25 PUSH1 0x0 CODECOPY PUSH1 0x0 RETURN INVALID PUSH1 0x80 PUSH1 0x40 MSTORE CALLVALUE DUP1 ISZERO PUSH2 0x10 JUMPI PUSH1 0x0 DUP1 REVERT JUMPDEST POP PUSH1 0x4 CALLDATASIZE LT PUSH2 0x88 JUMPI PUSH1 0x0 CALLDATALOAD PUSH1 0xE0 SHR DUP1 PUSH4 0xAA7E5683 GT PUSH2 0x5B JUMPI DUP1 PUSH4 0xAA7E5683 EQ PUSH2 0x142 JUMPI DUP1 PUSH4 0xC61B5F4C EQ PUSH2 0x15E JUMPI DUP1 PUSH4 0xDB83644B EQ PUSH2 0x17C JUMPI DUP1 PUSH4 0xE6821BF5 EQ PUSH2 0x198 JUMPI PUSH2 0x88 JUMP JUMPDEST DUP1 PUSH4 0xD4BFB4F EQ PUSH2 0x8D JUMPI DUP1 PUSH4 0x2893ECA2 EQ PUSH2 0xBD JUMPI DUP1 PUSH4 0x48892753 EQ PUSH2 0xF2 JUMPI DUP1 PUSH4 0xA286C0B9 EQ PUSH2 0x124 JUMPI JUMPDEST PUSH1 0x0 DUP1 REVERT JUMPDEST PUSH2 0xA7 PUSH1 0x4 DUP1 CALLDATASIZE SUB DUP2 ADD SWAP1 PUSH2 0xA2 SWAP2 SWAP1 PUSH2 0xC15 JUMP JUMPDEST PUSH2 0x1CE JUMP JUMPDEST PUSH1 0x40 MLOAD PUSH2 0xB4 SWAP2 SWAP1 PUSH2 0xC51 JUMP JUMPDEST PUSH1 0x40 MLOAD DUP1 SWAP2 SUB SWAP1 RETURN JUMPDEST PUSH2 0xD7 PUSH1 0x4 DUP1 CALLDATASIZE SUB DUP2 ADD SWAP1 PUSH2 0xD2 SWAP2 SWAP1 PUSH2 0xC15 JUMP JUMPDEST PUSH2 0x23E JUMP JUMPDEST PUSH1 0x40 MLOAD PUSH2 0xE9 SWAP7 SWAP6 SWAP5 SWAP4 SWAP3 SWAP2 SWAP1 PUSH2 0xCFC JUMP JUMPDEST PUSH1 0x40 MLOAD DUP1 SWAP2 SUB SWAP1 RETURN JUMPDEST PUSH2 0x10C PUSH1 0x4 DUP1 CALLDATASIZE SUB DUP2 ADD SWAP1 PUSH2 0x107 SWAP2 SWAP1 PUSH2 0xD79 JUMP JUMPDEST PUSH2 0x50E JUMP JUMPDEST PUSH1 0x40 MLOAD PUSH2 0x11B SWAP4 SWAP3 SWAP2 SWAP1 PUSH2 0xDFA JUMP JUMPDEST PUSH1 0x40 MLOAD DUP1 SWAP2 SUB SWAP1 RETURN JUMPDEST PUSH2 0x12C PUSH2 0x6BA JUMP JUMPDEST PUSH1 0x40 MLOAD PUSH2 0x139 SWAP2 SWAP1 PUSH2 0xC51 JUMP JUMPDEST PUSH1 0x40 MLOAD DUP1 SWAP2 SUB SWAP1 RETURN JUMPDEST PUSH2 0x15C PUSH1 0x4 DUP1 CALLDATASIZE SUB DUP2 ADD SWAP1 PUSH2 0x157 SWAP2 SWAP1 PUSH2 0xF6D JUMP JUMPDEST PUSH2 0x6C4 JUMP JUMPDEST STOP JUMPDEST PUSH2 0x166 PUSH2 0x83F JUMP JUMPDEST PUSH1 0x40 MLOAD PUSH2 0x173 SWAP2 SWAP1 PUSH2 0xC51 JUMP JUMPDEST PUSH1 0x40 MLOAD DUP1 SWAP2 SUB SWAP1 RETURN JUMPDEST PUSH2 0x196 PUSH1 0x4 DUP1 CALLDATASIZE SUB DUP2 ADD SWAP1 PUSH2 0x191 SWAP2 SWAP1 PUSH2 0xFC9 JUMP JUMPDEST PUSH2 0x845 JUMP JUMPDEST STOP JUMPDEST PUSH2 0x1B2 PUSH1 0x4 DUP1 CALLDATASIZE SUB DUP2 ADD SWAP1 PUSH2 0x1AD SWAP2 SWAP1 PUSH2 0xC15 JUMP JUMPDEST PUSH2 0x949 JUMP JUMPDEST PUSH1 0x40 MLOAD PUSH2 0x1C5 SWAP8 SWAP7 SWAP6 SWAP5 SWAP4 SWAP3 SWAP2 SWAP1 PUSH2 0x10A0 JUMP JUMPDEST PUSH1 0x40 MLOAD DUP1 SWAP2 SUB SWAP1 RETURN JUMPDEST PUSH1 0x0 PUSH1 0x1 SLOAD DUP3 GT ISZERO DUP1 ISZERO PUSH2 0x1E2 JUMPI POP PUSH1 0x0 DUP3 GT JUMPDEST PUSH2 0x221 JUMPI PUSH1 0x40 MLOAD PUSH32 0x8C379A000000000000000000000000000000000000000000000000000000000 DUP2 MSTORE PUSH1 0x4 ADD PUSH2 0x218 SWAP1 PUSH2 0x1177 JUMP JUMPDEST PUSH1 0x40 MLOAD DUP1 SWAP2 SUB SWAP1 REVERT JUMPDEST PUSH1 0x0 DUP1 DUP4 DUP2 MSTORE PUSH1 0x20 ADD SWAP1 DUP2 MSTORE PUSH1 0x20 ADD PUSH1 0x0 KECCAK256 PUSH1 0x7 ADD SLOAD SWAP1 POP SWAP2 SWAP1 POP JUMP JUMPDEST PUSH1 0x60 DUP1 PUSH1 0x60 DUP1 PUSH1 0x0 DUP1 PUSH1 0x1 SLOAD DUP8 GT ISZERO DUP1 ISZERO PUSH2 0x259 JUMPI POP PUSH1 0x0 DUP8 GT JUMPDEST PUSH2 0x298 JUMPI PUSH1 0x40 MLOAD PUSH32 0x8C379A000000000000000000000000000000000000000000000000000000000 DUP2 MSTORE PUSH1 0x4 ADD PUSH2 0x28F SWAP1 PUSH2 0x1177 JUMP JUMPDEST PUSH1 0x40 MLOAD DUP1 SWAP2 SUB SWAP1 REVERT JUMPDEST PUSH1 0x0 DUP1 PUSH1 0x0 DUP10 DUP2 MSTORE PUSH1 0x20 ADD SWAP1 DUP2 MSTORE PUSH1 0x20 ADD PUSH1 0x0 KECCAK256 SWAP1 POP DUP1 PUSH1 0x1 ADD DUP2 PUSH1 0x2 ADD DUP3 PUSH1 0x3 ADD DUP4 PUSH1 0x4 ADD DUP5 PUSH1 0x5 ADD SLOAD DUP6 PUSH1 0x7 ADD SLOAD DUP6 DUP1 SLOAD PUSH2 0x2D4 SWAP1 PUSH2 0x11C6 JUMP JUMPDEST DUP1 PUSH1 0x1F ADD PUSH1 0x20 DUP1 SWAP2 DIV MUL PUSH1 0x20 ADD PUSH1 0x40 MLOAD SWAP1 DUP2 ADD PUSH1 0x40 MSTORE DUP1 SWAP3 SWAP2 SWAP1 DUP2 DUP2 MSTORE PUSH1 0x20 ADD DUP3 DUP1 SLOAD PUSH2 0x300 SWAP1 PUSH2 0x11C6 JUMP JUMPDEST DUP1 ISZERO PUSH2 0x34D JUMPI DUP1 PUSH1 0x1F LT PUSH2 0x322 JUMPI PUSH2 0x100 DUP1 DUP4 SLOAD DIV MUL DUP4 MSTORE SWAP2 PUSH1 0x20 ADD SWAP2 PUSH2 0x34D JUMP JUMPDEST DUP3 ADD SWAP2 SWAP1 PUSH1 0x0 MSTORE PUSH1 0x20 PUSH1 0x0 KECCAK256 SWAP1 JUMPDEST DUP2 SLOAD DUP2 MSTORE SWAP1 PUSH1 0x1 ADD SWAP1 PUSH1 0x20 ADD DUP1 DUP4 GT PUSH2 0x330 JUMPI DUP3 SWAP1 SUB PUSH1 0x1F AND DUP3 ADD SWAP2 JUMPDEST POP POP POP POP POP SWAP6 POP DUP5 DUP1 SLOAD PUSH2 0x360 SWAP1 PUSH2 0x11C6 JUMP JUMPDEST DUP1 PUSH1 0x1F ADD PUSH1 0x20 DUP1 SWAP2 DIV MUL PUSH1 0x20 ADD PUSH1 0x40 MLOAD SWAP1 DUP2 ADD PUSH1 0x40 MSTORE DUP1 SWAP3 SWAP2 SWAP1 DUP2 DUP2 MSTORE PUSH1 0x20 ADD DUP3 DUP1 SLOAD PUSH2 0x38C SWAP1 PUSH2 0x11C6 JUMP JUMPDEST DUP1 ISZERO PUSH2 0x3D9 JUMPI DUP1 PUSH1 0x1F LT PUSH2 0x3AE JUMPI PUSH2 0x100 DUP1 DUP4 SLOAD DIV MUL DUP4 MSTORE SWAP2 PUSH1 0x20 ADD SWAP2 PUSH2 0x3D9 JUMP JUMPDEST DUP3 ADD SWAP2 SWAP1 PUSH1 0x0 MSTORE PUSH1 0x20 PUSH1 0x0 KECCAK256 SWAP1 JUMPDEST DUP2 SLOAD DUP2 MSTORE SWAP1 PUSH1 0x1 ADD SWAP1 PUSH1 0x20 ADD DUP1 DUP4 GT PUSH2 0x3BC JUMPI DUP3 SWAP1 SUB PUSH1 0x1F AND DUP3 ADD SWAP2 JUMPDEST POP POP POP POP POP SWAP5 POP DUP4 DUP1 SLOAD PUSH2 0x3EC SWAP1 PUSH2 0x11C6 JUMP JUMPDEST DUP1 PUSH1 0x1F ADD PUSH1 0x20 DUP1 SWAP2 DIV MUL PUSH1 0x20 ADD PUSH1 0x40 MLOAD SWAP1 DUP2 ADD PUSH1 0x40 MSTORE DUP1 SWAP3 SWAP2 SWAP1 DUP2 DUP2 MSTORE PUSH1 0x20 ADD DUP3 DUP1 SLOAD PUSH2 0x418 SWAP1 PUSH2 0x11C6 JUMP JUMPDEST DUP1 ISZERO PUSH2 0x465 JUMPI DUP1 PUSH1 0x1F LT PUSH2 0x43A JUMPI PUSH2 0x100 DUP1 DUP4 SLOAD DIV MUL DUP4 MSTORE SWAP2 PUSH1 0x20 ADD SWAP2 PUSH2 0x465 JUMP JUMPDEST DUP3 ADD SWAP2 SWAP1 PUSH1 0x0 MSTORE PUSH1 0x20 PUSH1 0x0 KECCAK256 SWAP1 JUMPDEST DUP2 SLOAD DUP2 MSTORE SWAP1 PUSH1 0x1 ADD SWAP1 PUSH1 0x20 ADD DUP1 DUP4 GT PUSH2 0x448 JUMPI DUP3 SWAP1 SUB PUSH1 0x1F AND DUP3 ADD SWAP2 JUMPDEST POP POP POP POP POP SWAP4 POP DUP3 DUP1 SLOAD PUSH2 0x478 SWAP1 PUSH2 0x11C6 JUMP JUMPDEST DUP1 PUSH1 0x1F ADD PUSH1 0x20 DUP1 SWAP2 DIV MUL PUSH1 0x20 ADD PUSH1 0x40 MLOAD SWAP1 DUP2 ADD PUSH1 0x40 MSTORE DUP1 SWAP3 SWAP2 SWAP1 DUP2 DUP2 MSTORE PUSH1 0x20 ADD DUP3 DUP1 SLOAD PUSH2 0x4A4 SWAP1 PUSH2 0x11C6 JUMP JUMPDEST DUP1 ISZERO PUSH2 0x4F1 JUMPI DUP1 PUSH1 0x1F LT PUSH2 0x4C6 JUMPI PUSH2 0x100 DUP1 DUP4 SLOAD DIV MUL DUP4 MSTORE SWAP2 PUSH1 0x20 ADD SWAP2 PUSH2 0x4F1 JUMP JUMPDEST DUP3 ADD SWAP2 SWAP1 PUSH1 0x0 MSTORE PUSH1 0x20 PUSH1 0x0 KECCAK256 SWAP1 JUMPDEST DUP2 SLOAD DUP2 MSTORE SWAP1 PUSH1 0x1 ADD SWAP1 PUSH1 0x20 ADD DUP1 DUP4 GT PUSH2 0x4D4 JUMPI DUP3 SWAP1 SUB PUSH1 0x1F AND DUP3 ADD SWAP2 JUMPDEST POP POP POP POP POP SWAP3 POP SWAP7 POP SWAP7 POP SWAP7 POP SWAP7 POP SWAP7 POP SWAP7 POP POP SWAP2 SWAP4 SWAP6 POP SWAP2 SWAP4 SWAP6 JUMP JUMPDEST PUSH1 0x60 PUSH1 0x0 DUP1 PUSH1 0x1 SLOAD DUP6 GT ISZERO DUP1 ISZERO PUSH2 0x525 JUMPI POP PUSH1 0x0 DUP6 GT JUMPDEST PUSH2 0x564 JUMPI PUSH1 0x40 MLOAD PUSH32 0x8C379A000000000000000000000000000000000000000000000000000000000 DUP2 MSTORE PUSH1 0x4 ADD PUSH2 0x55B SWAP1 PUSH2 0x1177 JUMP JUMPDEST PUSH1 0x40 MLOAD DUP1 SWAP2 SUB SWAP1 REVERT JUMPDEST PUSH1 0x0 DUP1 DUP7 DUP2 MSTORE PUSH1 0x20 ADD SWAP1 DUP2 MSTORE PUSH1 0x20 ADD PUSH1 0x0 KECCAK256 PUSH1 0x7 ADD SLOAD DUP5 GT ISZERO DUP1 ISZERO PUSH2 0x589 JUMPI POP PUSH1 0x0 DUP5 GT JUMPDEST PUSH2 0x5C8 JUMPI PUSH1 0x40 MLOAD PUSH32 0x8C379A000000000000000000000000000000000000000000000000000000000 DUP2 MSTORE PUSH1 0x4 ADD PUSH2 0x5BF SWAP1 PUSH2 0x1243 JUMP JUMPDEST PUSH1 0x40 MLOAD DUP1 SWAP2 SUB SWAP1 REVERT JUMPDEST PUSH1 0x0 DUP1 PUSH1 0x0 DUP8 DUP2 MSTORE PUSH1 0x20 ADD SWAP1 DUP2 MSTORE PUSH1 0x20 ADD PUSH1 0x0 KECCAK256 PUSH1 0x6 ADD PUSH1 0x0 DUP7 DUP2 MSTORE PUSH1 0x20 ADD SWAP1 DUP2 MSTORE PUSH1 0x20 ADD PUSH1 0x0 KECCAK256 SWAP1 POP DUP1 PUSH1 0x1 ADD DUP2 PUSH1 0x0 ADD PUSH1 0x0 SWAP1 SLOAD SWAP1 PUSH2 0x100 EXP SWAP1 DIV PUSH20 0xFFFFFFFFFFFFFFFFFFFFFFFFFFFFFFFFFFFFFFFF AND DUP3 PUSH1 0x2 ADD SLOAD DUP3 DUP1 SLOAD PUSH2 0x62C SWAP1 PUSH2 0x11C6 JUMP JUMPDEST DUP1 PUSH1 0x1F ADD PUSH1 0x20 DUP1 SWAP2 DIV MUL PUSH1 0x20 ADD PUSH1 0x40 MLOAD SWAP1 DUP2 ADD PUSH1 0x40 MSTORE DUP1 SWAP3 SWAP2 SWAP1 DUP2 DUP2 MSTORE PUSH1 0x20 ADD DUP3 DUP1 SLOAD PUSH2 0x658 SWAP1 PUSH2 0x11C6 JUMP JUMPDEST DUP1 ISZERO PUSH2 0x6A5 JUMPI DUP1 PUSH1 0x1F LT PUSH2 0x67A JUMPI PUSH2 0x100 DUP1 DUP4 SLOAD DIV MUL DUP4 MSTORE SWAP2 PUSH1 0x20 ADD SWAP2 PUSH2 0x6A5 JUMP JUMPDEST DUP3 ADD SWAP2 SWAP1 PUSH1 0x0 MSTORE PUSH1 0x20 PUSH1 0x0 KECCAK256 SWAP1 JUMPDEST DUP2 SLOAD DUP2 MSTORE SWAP1 PUSH1 0x1 ADD SWAP1 PUSH1 0x20 ADD DUP1 DUP4 GT PUSH2 0x688 JUMPI DUP3 SWAP1 SUB PUSH1 0x1F AND DUP3 ADD SWAP2 JUMPDEST POP POP POP POP POP SWAP3 POP SWAP4 POP SWAP4 POP SWAP4 POP POP SWAP3 POP SWAP3 POP SWAP3 JUMP JUMPDEST PUSH1 0x0 PUSH1 0x1 SLOAD SWAP1 POP SWAP1 JUMP JUMPDEST PUSH1 0x1 SLOAD DUP3 GT ISZERO DUP1 ISZERO PUSH2 0x6D6 JUMPI POP PUSH1 0x0 DUP3 GT JUMPDEST PUSH2 0x715 JUMPI PUSH1 0x40 MLOAD PUSH32 0x8C379A000000000000000000000000000000000000000000000000000000000 DUP2 MSTORE PUSH1 0x4 ADD PUSH2 0x70C SWAP1 PUSH2 0x1177 JUMP JUMPDEST PUSH1 0x40 MLOAD DUP1 SWAP2 SUB SWAP1 REVERT JUMPDEST PUSH1 0x0 DUP1 PUSH1 0x0 DUP5 DUP2 MSTORE PUSH1 0x20 ADD SWAP1 DUP2 MSTORE PUSH1 0x20 ADD PUSH1 0x0 KECCAK256 SWAP1 POP DUP1 PUSH1 0x7 ADD PUSH1 0x0 DUP2 SLOAD DUP1 SWAP3 SWAP2 SWAP1 PUSH2 0x740 SWAP1 PUSH2 0x1292 JUMP JUMPDEST SWAP2 SWAP1 POP SSTORE POP PUSH1 0x40 MLOAD DUP1 PUSH1 0x60 ADD PUSH1 0x40 MSTORE DUP1 CALLER PUSH20 0xFFFFFFFFFFFFFFFFFFFFFFFFFFFFFFFFFFFFFFFF AND DUP2 MSTORE PUSH1 0x20 ADD DUP4 DUP2 MSTORE PUSH1 0x20 ADD TIMESTAMP DUP2 MSTORE POP DUP2 PUSH1 0x6 ADD PUSH1 0x0 DUP4 PUSH1 0x7 ADD SLOAD DUP2 MSTORE PUSH1 0x20 ADD SWAP1 DUP2 MSTORE PUSH1 0x20 ADD PUSH1 0x0 KECCAK256 PUSH1 0x0 DUP3 ADD MLOAD DUP2 PUSH1 0x0 ADD PUSH1 0x0 PUSH2 0x100 EXP DUP2 SLOAD DUP2 PUSH20 0xFFFFFFFFFFFFFFFFFFFFFFFFFFFFFFFFFFFFFFFF MUL NOT AND SWAP1 DUP4 PUSH20 0xFFFFFFFFFFFFFFFFFFFFFFFFFFFFFFFFFFFFFFFF AND MUL OR SWAP1 SSTORE POP PUSH1 0x20 DUP3 ADD MLOAD DUP2 PUSH1 0x1 ADD SWAP1 DUP2 PUSH2 0x7EB SWAP2 SWAP1 PUSH2 0x1486 JUMP JUMPDEST POP PUSH1 0x40 DUP3 ADD MLOAD DUP2 PUSH1 0x2 ADD SSTORE SWAP1 POP POP PUSH32 0x900A4C5AFDB3F75F909CCF2A10A79D00C549DD9FE6A8AC00660440F5C2EB7DA7 DUP4 DUP3 PUSH1 0x7 ADD SLOAD DUP5 TIMESTAMP PUSH1 0x40 MLOAD PUSH2 0x832 SWAP5 SWAP4 SWAP3 SWAP2 SWAP1 PUSH2 0x1558 JUMP JUMPDEST PUSH1 0x40 MLOAD DUP1 SWAP2 SUB SWAP1 LOG1 POP POP POP JUMP JUMPDEST PUSH1 0x1 SLOAD DUP2 JUMP JUMPDEST PUSH1 0x1 PUSH1 0x0 DUP2 SLOAD DUP1 SWAP3 SWAP2 SWAP1 PUSH2 0x858 SWAP1 PUSH2 0x1292 JUMP JUMPDEST SWAP2 SWAP1 POP SSTORE POP PUSH1 0x0 DUP1 PUSH1 0x0 PUSH1 0x1 SLOAD DUP2 MSTORE PUSH1 0x20 ADD SWAP1 DUP2 MSTORE PUSH1 0x20 ADD PUSH1 0x0 KECCAK256 SWAP1 POP CALLER DUP2 PUSH1 0x0 ADD PUSH1 0x0 PUSH2 0x100 EXP DUP2 SLOAD DUP2 PUSH20 0xFFFFFFFFFFFFFFFFFFFFFFFFFFFFFFFFFFFFFFFF MUL NOT AND SWAP1 DUP4 PUSH20 0xFFFFFFFFFFFFFFFFFFFFFFFFFFFFFFFFFFFFFFFF AND MUL OR SWAP1 SSTORE POP DUP5 DUP2 PUSH1 0x1 ADD SWAP1 DUP2 PUSH2 0x8C9 SWAP2 SWAP1 PUSH2 0x1486 JUMP JUMPDEST POP DUP4 DUP2 PUSH1 0x2 ADD SWAP1 DUP2 PUSH2 0x8DB SWAP2 SWAP1 PUSH2 0x1486 JUMP JUMPDEST POP TIMESTAMP DUP2 PUSH1 0x5 ADD DUP2 SWAP1 SSTORE POP DUP3 DUP2 PUSH1 0x4 ADD SWAP1 DUP2 PUSH2 0x8F6 SWAP2 SWAP1 PUSH2 0x1486 JUMP JUMPDEST POP PUSH1 0x0 DUP2 PUSH1 0x7 ADD DUP2 SWAP1 SSTORE POP PUSH32 0xEF7282AF85231EA2E7E518E5EA491608FC6207A3A825E68944D2CA9E7D75AA39 PUSH1 0x1 SLOAD DUP7 DUP7 DUP6 TIMESTAMP PUSH1 0x40 MLOAD PUSH2 0x93A SWAP6 SWAP5 SWAP4 SWAP3 SWAP2 SWAP1 PUSH2 0x15A4 JUMP JUMPDEST PUSH1 0x40 MLOAD DUP1 SWAP2 SUB SWAP1 LOG1 POP POP POP POP POP JUMP JUMPDEST PUSH1 0x0 PUSH1 0x20 MSTORE DUP1 PUSH1 0x0 MSTORE PUSH1 0x40 PUSH1 0x0 KECCAK256 PUSH1 0x0 SWAP2 POP SWAP1 POP DUP1 PUSH1 0x0 ADD PUSH1 0x0 SWAP1 SLOAD SWAP1 PUSH2 0x100 EXP SWAP1 DIV PUSH20 0xFFFFFFFFFFFFFFFFFFFFFFFFFFFFFFFFFFFFFFFF AND SWAP1 DUP1 PUSH1 0x1 ADD DUP1 SLOAD PUSH2 0x992 SWAP1 PUSH2 0x11C6 JUMP JUMPDEST DUP1 PUSH1 0x1F ADD PUSH1 0x20 DUP1 SWAP2 DIV MUL PUSH1 0x20 ADD PUSH1 0x40 MLOAD SWAP1 DUP2 ADD PUSH1 0x40 MSTORE DUP1 SWAP3 SWAP2 SWAP1 DUP2 DUP2 MSTORE PUSH1 0x20 ADD DUP3 DUP1 SLOAD PUSH2 0x9BE SWAP1 PUSH2 0x11C6 JUMP JUMPDEST DUP1 ISZERO PUSH2 0xA0B JUMPI DUP1 PUSH1 0x1F LT PUSH2 0x9E0 JUMPI PUSH2 0x100 DUP1 DUP4 SLOAD DIV MUL DUP4 MSTORE SWAP2 PUSH1 0x20 ADD SWAP2 PUSH2 0xA0B JUMP JUMPDEST DUP3 ADD SWAP2 SWAP1 PUSH1 0x0 MSTORE PUSH1 0x20 PUSH1 0x0 KECCAK256 SWAP1 JUMPDEST DUP2 SLOAD DUP2 MSTORE SWAP1 PUSH1 0x1 ADD SWAP1 PUSH1 0x20 ADD DUP1 DUP4 GT PUSH2 0x9EE JUMPI DUP3 SWAP1 SUB PUSH1 0x1F AND DUP3 ADD SWAP2 JUMPDEST POP POP POP POP POP SWAP1 DUP1 PUSH1 0x2 ADD DUP1 SLOAD PUSH2 0xA20 SWAP1 PUSH2 0x11C6 JUMP JUMPDEST DUP1 PUSH1 0x1F ADD PUSH1 0x20 DUP1 SWAP2 DIV MUL PUSH1 0x20 ADD PUSH1 0x40 MLOAD SWAP1 DUP2 ADD PUSH1 0x40 MSTORE DUP1 SWAP3 SWAP2 SWAP1 DUP2 DUP2 MSTORE PUSH1 0x20 ADD DUP3 DUP1 SLOAD PUSH2 0xA4C SWAP1 PUSH2 0x11C6 JUMP JUMPDEST DUP1 ISZERO PUSH2 0xA99 JUMPI DUP1 PUSH1 0x1F LT PUSH2 0xA6E JUMPI PUSH2 0x100 DUP1 DUP4 SLOAD DIV MUL DUP4 MSTORE SWAP2 PUSH1 0x20 ADD SWAP2 PUSH2 0xA99 JUMP JUMPDEST DUP3 ADD SWAP2 SWAP1 PUSH1 0x0 MSTORE PUSH1 0x20 PUSH1 0x0 KECCAK256 SWAP1 JUMPDEST DUP2 SLOAD DUP2 MSTORE SWAP1 PUSH1 0x1 ADD SWAP1 PUSH1 0x20 ADD DUP1 DUP4 GT PUSH2 0xA7C JUMPI DUP3 SWAP1 SUB PUSH1 0x1F AND DUP3 ADD SWAP2 JUMPDEST POP POP POP POP POP SWAP1 DUP1 PUSH1 0x3 ADD DUP1 SLOAD PUSH2 0xAAE SWAP1 PUSH2 0x11C6 JUMP JUMPDEST DUP1 PUSH1 0x1F ADD PUSH1 0x20 DUP1 SWAP2 DIV MUL PUSH1 0x20 ADD PUSH1 0x40 MLOAD SWAP1 DUP2 ADD PUSH1 0x40 MSTORE DUP1 SWAP3 SWAP2 SWAP1 DUP2 DUP2 MSTORE PUSH1 0x20 ADD DUP3 DUP1 SLOAD PUSH2 0xADA SWAP1 PUSH2 0x11C6 JUMP JUMPDEST DUP1 ISZERO PUSH2 0xB27 JUMPI DUP1 PUSH1 0x1F LT PUSH2 0xAFC JUMPI PUSH2 0x100 DUP1 DUP4 SLOAD DIV MUL DUP4 MSTORE SWAP2 PUSH1 0x20 ADD SWAP2 PUSH2 0xB27 JUMP JUMPDEST DUP3 ADD SWAP2 SWAP1 PUSH1 0x0 MSTORE PUSH1 0x20 PUSH1 0x0 KECCAK256 SWAP1 JUMPDEST DUP2 SLOAD DUP2 MSTORE SWAP1 PUSH1 0x1 ADD SWAP1 PUSH1 0x20 ADD DUP1 DUP4 GT PUSH2 0xB0A JUMPI DUP3 SWAP1 SUB PUSH1 0x1F AND DUP3 ADD SWAP2 JUMPDEST POP POP POP POP POP SWAP1 DUP1 PUSH1 0x4 ADD DUP1 SLOAD PUSH2 0xB3C SWAP1 PUSH2 0x11C6 JUMP JUMPDEST DUP1 PUSH1 0x1F ADD PUSH1 0x20 DUP1 SWAP2 DIV MUL PUSH1 0x20 ADD PUSH1 0x40 MLOAD SWAP1 DUP2 ADD PUSH1 0x40 MSTORE DUP1 SWAP3 SWAP2 SWAP1 DUP2 DUP2 MSTORE PUSH1 0x20 ADD DUP3 DUP1 SLOAD PUSH2 0xB68 SWAP1 PUSH2 0x11C6 JUMP JUMPDEST DUP1 ISZERO PUSH2 0xBB5 JUMPI DUP1 PUSH1 0x1F LT PUSH2 0xB8A JUMPI PUSH2 0x100 DUP1 DUP4 SLOAD DIV MUL DUP4 MSTORE SWAP2 PUSH1 0x20 ADD SWAP2 PUSH2 0xBB5 JUMP JUMPDEST DUP3 ADD SWAP2 SWAP1 PUSH1 0x0 MSTORE PUSH1 0x20 PUSH1 0x0 KECCAK256 SWAP1 JUMPDEST DUP2 SLOAD DUP2 MSTORE SWAP1 PUSH1 0x1 ADD SWAP1 PUSH1 0x20 ADD DUP1 DUP4 GT PUSH2 0xB98 JUMPI DUP3 SWAP1 SUB PUSH1 0x1F AND DUP3 ADD SWAP2 JUMPDEST POP POP POP POP POP SWAP1 DUP1 PUSH1 0x5 ADD SLOAD SWAP1 DUP1 PUSH1 0x7 ADD SLOAD SWAP1 POP DUP8 JUMP JUMPDEST PUSH1 0x0 PUSH1 0x40 MLOAD SWAP1 POP SWAP1 JUMP JUMPDEST PUSH1 0x0 DUP1 REVERT JUMPDEST PUSH1 0x0 DUP1 REVERT JUMPDEST PUSH1 0x0 DUP2 SWAP1 POP SWAP2 SWAP1 POP JUMP JUMPDEST PUSH2 0xBF2 DUP2 PUSH2 0xBDF JUMP JUMPDEST DUP2 EQ PUSH2 0xBFD JUMPI PUSH1 0x0 DUP1 REVERT JUMPDEST POP JUMP JUMPDEST PUSH1 0x0 DUP2 CALLDATALOAD SWAP1 POP PUSH2 0xC0F DUP2 PUSH2 0xBE9 JUMP JUMPDEST SWAP3 SWAP2 POP POP JUMP JUMPDEST PUSH1 0x0 PUSH1 0x20 DUP3 DUP5 SUB SLT ISZERO PUSH2 0xC2B JUMPI PUSH2 0xC2A PUSH2 0xBD5 JUMP JUMPDEST JUMPDEST PUSH1 0x0 PUSH2 0xC39 DUP5 DUP3 DUP6 ADD PUSH2 0xC00 JUMP JUMPDEST SWAP2 POP POP SWAP3 SWAP2 POP POP JUMP JUMPDEST PUSH2 0xC4B DUP2 PUSH2 0xBDF JUMP JUMPDEST DUP3 MSTORE POP POP JUMP JUMPDEST PUSH1 0x0 PUSH1 0x20 DUP3 ADD SWAP1 POP PUSH2 0xC66 PUSH1 0x0 DUP4 ADD DUP5 PUSH2 0xC42 JUMP JUMPDEST SWAP3 SWAP2 POP POP JUMP JUMPDEST PUSH1 0x0 DUP2 MLOAD SWAP1 POP SWAP2 SWAP1 POP JUMP JUMPDEST PUSH1 0x0 DUP3 DUP3 MSTORE PUSH1 0x20 DUP3 ADD SWAP1 POP SWAP3 SWAP2 POP POP JUMP JUMPDEST PUSH1 0x0 JUMPDEST DUP4 DUP2 LT ISZERO PUSH2 0xCA6 JUMPI DUP1 DUP3 ADD MLOAD DUP2 DUP5 ADD MSTORE PUSH1 0x20 DUP2 ADD SWAP1 POP PUSH2 0xC8B JUMP JUMPDEST PUSH1 0x0 DUP5 DUP5 ADD MSTORE POP POP POP POP JUMP JUMPDEST PUSH1 0x0 PUSH1 0x1F NOT PUSH1 0x1F DUP4 ADD AND SWAP1 POP SWAP2 SWAP1 POP JUMP JUMPDEST PUSH1 0x0 PUSH2 0xCCE DUP3 PUSH2 0xC6C JUMP JUMPDEST PUSH2 0xCD8 DUP2 DUP6 PUSH2 0xC77 JUMP JUMPDEST SWAP4 POP PUSH2 0xCE8 DUP2 DUP6 PUSH1 0x20 DUP7 ADD PUSH2 0xC88 JUMP JUMPDEST PUSH2 0xCF1 DUP2 PUSH2 0xCB2 JUMP JUMPDEST DUP5 ADD SWAP2 POP POP SWAP3 SWAP2 POP POP JUMP JUMPDEST PUSH1 0x0 PUSH1 0xC0 DUP3 ADD SWAP1 POP DUP2 DUP2 SUB PUSH1 0x0 DUP4 ADD MSTORE PUSH2 0xD16 DUP2 DUP10 PUSH2 0xCC3 JUMP JUMPDEST SWAP1 POP DUP2 DUP2 SUB PUSH1 0x20 DUP4 ADD MSTORE PUSH2 0xD2A DUP2 DUP9 PUSH2 0xCC3 JUMP JUMPDEST SWAP1 POP DUP2 DUP2 SUB PUSH1 0x40 DUP4 ADD MSTORE PUSH2 0xD3E DUP2 DUP8 PUSH2 0xCC3 JUMP JUMPDEST SWAP1 POP DUP2 DUP2 SUB PUSH1 0x60 DUP4 ADD MSTORE PUSH2 0xD52 DUP2 DUP7 PUSH2 0xCC3 JUMP JUMPDEST SWAP1 POP PUSH2 0xD61 PUSH1 0x80 DUP4 ADD DUP6 PUSH2 0xC42 JUMP JUMPDEST PUSH2 0xD6E PUSH1 0xA0 DUP4 ADD DUP5 PUSH2 0xC42 JUMP JUMPDEST SWAP8 SWAP7 POP POP POP POP POP POP POP JUMP JUMPDEST PUSH1 0x0 DUP1 PUSH1 0x40 DUP4 DUP6 SUB SLT ISZERO PUSH2 0xD90 JUMPI PUSH2 0xD8F PUSH2 0xBD5 JUMP JUMPDEST JUMPDEST PUSH1 0x0 PUSH2 0xD9E DUP6 DUP3 DUP7 ADD PUSH2 0xC00 JUMP JUMPDEST SWAP3 POP POP PUSH1 0x20 PUSH2 0xDAF DUP6 DUP3 DUP7 ADD PUSH2 0xC00 JUMP JUMPDEST SWAP2 POP POP SWAP3 POP SWAP3 SWAP1 POP JUMP JUMPDEST PUSH1 0x0 PUSH20 0xFFFFFFFFFFFFFFFFFFFFFFFFFFFFFFFFFFFFFFFF DUP3 AND SWAP1 POP SWAP2 SWAP1 POP JUMP JUMPDEST PUSH1 0x0 PUSH2 0xDE4 DUP3 PUSH2 0xDB9 JUMP JUMPDEST SWAP1 POP SWAP2 SWAP1 POP JUMP JUMPDEST PUSH2 0xDF4 DUP2 PUSH2 0xDD9 JUMP JUMPDEST DUP3 MSTORE POP POP JUMP JUMPDEST PUSH1 0x0 PUSH1 0x60 DUP3 ADD SWAP1 POP DUP2 DUP2 SUB PUSH1 0x0 DUP4 ADD MSTORE PUSH2 0xE14 DUP2 DUP7 PUSH2 0xCC3 JUMP JUMPDEST SWAP1 POP PUSH2 0xE23 PUSH1 0x20 DUP4 ADD DUP6 PUSH2 0xDEB JUMP JUMPDEST PUSH2 0xE30 PUSH1 0x40 DUP4 ADD DUP5 PUSH2 0xC42 JUMP JUMPDEST SWAP5 SWAP4 POP POP POP POP JUMP JUMPDEST PUSH1 0x0 DUP1 REVERT JUMPDEST PUSH1 0x0 DUP1 REVERT JUMPDEST PUSH32 0x4E487B7100000000000000000000000000000000000000000000000000000000 PUSH1 0x0 MSTORE PUSH1 0x41 PUSH1 0x4 MSTORE PUSH1 0x24 PUSH1 0x0 REVERT JUMPDEST PUSH2 0xE7A DUP3 PUSH2 0xCB2 JUMP JUMPDEST DUP2 ADD DUP2 DUP2 LT PUSH8 0xFFFFFFFFFFFFFFFF DUP3 GT OR ISZERO PUSH2 0xE99 JUMPI PUSH2 0xE98 PUSH2 0xE42 JUMP JUMPDEST JUMPDEST DUP1 PUSH1 0x40 MSTORE POP POP POP JUMP JUMPDEST PUSH1 0x0 PUSH2 0xEAC PUSH2 0xBCB JUMP JUMPDEST SWAP1 POP PUSH2 0xEB8 DUP3 DUP3 PUSH2 0xE71 JUMP JUMPDEST SWAP2 SWAP1 POP JUMP JUMPDEST PUSH1 0x0 PUSH8 0xFFFFFFFFFFFFFFFF DUP3 GT ISZERO PUSH2 0xED8 JUMPI PUSH2 0xED7 PUSH2 0xE42 JUMP JUMPDEST JUMPDEST PUSH2 0xEE1 DUP3 PUSH2 0xCB2 JUMP JUMPDEST SWAP1 POP PUSH1 0x20 DUP2 ADD SWAP1 POP SWAP2 SWAP1 POP JUMP JUMPDEST DUP3 DUP2 DUP4 CALLDATACOPY PUSH1 0x0 DUP4 DUP4 ADD MSTORE POP POP POP JUMP JUMPDEST PUSH1 0x0 PUSH2 0xF10 PUSH2 0xF0B DUP5 PUSH2 0xEBD JUMP JUMPDEST PUSH2 0xEA2 JUMP JUMPDEST SWAP1 POP DUP3 DUP2 MSTORE PUSH1 0x20 DUP2 ADD DUP5 DUP5 DUP5 ADD GT ISZERO PUSH2 0xF2C JUMPI PUSH2 0xF2B PUSH2 0xE3D JUMP JUMPDEST JUMPDEST PUSH2 0xF37 DUP5 DUP3 DUP6 PUSH2 0xEEE JUMP JUMPDEST POP SWAP4 SWAP3 POP POP POP JUMP JUMPDEST PUSH1 0x0 DUP3 PUSH1 0x1F DUP4 ADD SLT PUSH2 0xF54 JUMPI PUSH2 0xF53 PUSH2 0xE38 JUMP JUMPDEST JUMPDEST DUP2 CALLDATALOAD PUSH2 0xF64 DUP5 DUP3 PUSH1 0x20 DUP7 ADD PUSH2 0xEFD JUMP JUMPDEST SWAP2 POP POP SWAP3 SWAP2 POP POP JUMP JUMPDEST PUSH1 0x0 DUP1 PUSH1 0x40 DUP4 DUP6 SUB SLT ISZERO PUSH2 0xF84 JUMPI PUSH2 0xF83 PUSH2 0xBD5 JUMP JUMPDEST JUMPDEST PUSH1 0x0 PUSH2 0xF92 DUP6 DUP3 DUP7 ADD PUSH2 0xC00 JUMP JUMPDEST SWAP3 POP POP PUSH1 0x20 DUP4 ADD CALLDATALOAD PUSH8 0xFFFFFFFFFFFFFFFF DUP2 GT ISZERO PUSH2 0xFB3 JUMPI PUSH2 0xFB2 PUSH2 0xBDA JUMP JUMPDEST JUMPDEST PUSH2 0xFBF DUP6 DUP3 DUP7 ADD PUSH2 0xF3F JUMP JUMPDEST SWAP2 POP POP SWAP3 POP SWAP3 SWAP1 POP JUMP JUMPDEST PUSH1 0x0 DUP1 PUSH1 0x0 DUP1 PUSH1 0x80 DUP6 DUP8 SUB SLT ISZERO PUSH2 0xFE3 JUMPI PUSH2 0xFE2 PUSH2 0xBD5 JUMP JUMPDEST JUMPDEST PUSH1 0x0 DUP6 ADD CALLDATALOAD PUSH8 0xFFFFFFFFFFFFFFFF DUP2 GT ISZERO PUSH2 0x1001 JUMPI PUSH2 0x1000 PUSH2 0xBDA JUMP JUMPDEST JUMPDEST PUSH2 0x100D DUP8 DUP3 DUP9 ADD PUSH2 0xF3F JUMP JUMPDEST SWAP5 POP POP PUSH1 0x20 DUP6 ADD CALLDATALOAD PUSH8 0xFFFFFFFFFFFFFFFF DUP2 GT ISZERO PUSH2 0x102E JUMPI PUSH2 0x102D PUSH2 0xBDA JUMP JUMPDEST JUMPDEST PUSH2 0x103A DUP8 DUP3 DUP9 ADD PUSH2 0xF3F JUMP JUMPDEST SWAP4 POP POP PUSH1 0x40 DUP6 ADD CALLDATALOAD PUSH8 0xFFFFFFFFFFFFFFFF DUP2 GT ISZERO PUSH2 0x105B JUMPI PUSH2 0x105A PUSH2 0xBDA JUMP JUMPDEST JUMPDEST PUSH2 0x1067 DUP8 DUP3 DUP9 ADD PUSH2 0xF3F JUMP JUMPDEST SWAP3 POP POP PUSH1 0x60 DUP6 ADD CALLDATALOAD PUSH8 0xFFFFFFFFFFFFFFFF DUP2 GT ISZERO PUSH2 0x1088 JUMPI PUSH2 0x1087 PUSH2 0xBDA JUMP JUMPDEST JUMPDEST PUSH2 0x1094 DUP8 DUP3 DUP9 ADD PUSH2 0xF3F JUMP JUMPDEST SWAP2 POP POP SWAP3 SWAP6 SWAP2 SWAP5 POP SWAP3 POP JUMP JUMPDEST PUSH1 0x0 PUSH1 0xE0 DUP3 ADD SWAP1 POP PUSH2 0x10B5 PUSH1 0x0 DUP4 ADD DUP11 PUSH2 0xDEB JUMP JUMPDEST DUP2 DUP2 SUB PUSH1 0x20 DUP4 ADD MSTORE PUSH2 0x10C7 DUP2 DUP10 PUSH2 0xCC3 JUMP JUMPDEST SWAP1 POP DUP2 DUP2 SUB PUSH1 0x40 DUP4 ADD MSTORE PUSH2 0x10DB DUP2 DUP9 PUSH2 0xCC3 JUMP JUMPDEST SWAP1 POP DUP2 DUP2 SUB PUSH1 0x60 DUP4 ADD MSTORE PUSH2 0x10EF DUP2 DUP8 PUSH2 0xCC3 JUMP JUMPDEST SWAP1 POP DUP2 DUP2 SUB PUSH1 0x80 DUP4 ADD MSTORE PUSH2 0x1103 DUP2 DUP7 PUSH2 0xCC3 JUMP JUMPDEST SWAP1 POP PUSH2 0x1112 PUSH1 0xA0 DUP4 ADD DUP6 PUSH2 0xC42 JUMP JUMPDEST PUSH2 0x111F PUSH1 0xC0 DUP4 ADD DUP5 PUSH2 0xC42 JUMP JUMPDEST SWAP9 SWAP8 POP POP POP POP POP POP POP POP JUMP JUMPDEST PUSH32 0x496E76616C696420766964656F20494400000000000000000000000000000000 PUSH1 0x0 DUP3 ADD MSTORE POP JUMP JUMPDEST PUSH1 0x0 PUSH2 0x1161 PUSH1 0x10 DUP4 PUSH2 0xC77 JUMP JUMPDEST SWAP2 POP PUSH2 0x116C DUP3 PUSH2 0x112B JUMP JUMPDEST PUSH1 0x20 DUP3 ADD SWAP1 POP SWAP2 SWAP1 POP JUMP JUMPDEST PUSH1 0x0 PUSH1 0x20 DUP3 ADD SWAP1 POP DUP2 DUP2 SUB PUSH1 0x0 DUP4 ADD MSTORE PUSH2 0x1190 DUP2 PUSH2 0x1154 JUMP JUMPDEST SWAP1 POP SWAP2 SWAP1 POP JUMP JUMPDEST PUSH32 0x4E487B7100000000000000000000000000000000000000000000000000000000 PUSH1 0x0 MSTORE PUSH1 0x22 PUSH1 0x4 MSTORE PUSH1 0x24 PUSH1 0x0 REVERT JUMPDEST PUSH1 0x0 PUSH1 0x2 DUP3 DIV SWAP1 POP PUSH1 0x1 DUP3 AND DUP1 PUSH2 0x11DE JUMPI PUSH1 0x7F DUP3 AND SWAP2 POP JUMPDEST PUSH1 0x20 DUP3 LT DUP2 SUB PUSH2 0x11F1 JUMPI PUSH2 0x11F0 PUSH2 0x1197 JUMP JUMPDEST JUMPDEST POP SWAP2 SWAP1 POP JUMP JUMPDEST PUSH32 0x496E76616C696420636F6D6D656E742049440000000000000000000000000000 PUSH1 0x0 DUP3 ADD MSTORE POP JUMP JUMPDEST PUSH1 0x0 PUSH2 0x122D PUSH1 0x12 DUP4 PUSH2 0xC77 JUMP JUMPDEST SWAP2 POP PUSH2 0x1238 DUP3 PUSH2 0x11F7 JUMP JUMPDEST PUSH1 0x20 DUP3 ADD SWAP1 POP SWAP2 SWAP1 POP JUMP JUMPDEST PUSH1 0x0 PUSH1 0x20 DUP3 ADD SWAP1 POP DUP2 DUP2 SUB PUSH1 0x0 DUP4 ADD MSTORE PUSH2 0x125C DUP2 PUSH2 0x1220 JUMP JUMPDEST SWAP1 POP SWAP2 SWAP1 POP JUMP JUMPDEST PUSH32 0x4E487B7100000000000000000000000000000000000000000000000000000000 PUSH1 0x0 MSTORE PUSH1 0x11 PUSH1 0x4 MSTORE PUSH1 0x24 PUSH1 0x0 REVERT JUMPDEST PUSH1 0x0 PUSH2 0x129D DUP3 PUSH2 0xBDF JUMP JUMPDEST SWAP2 POP PUSH32 0xFFFFFFFFFFFFFFFFFFFFFFFFFFFFFFFFFFFFFFFFFFFFFFFFFFFFFFFFFFFFFFFF DUP3 SUB PUSH2 0x12CF JUMPI PUSH2 0x12CE PUSH2 0x1263 JUMP JUMPDEST JUMPDEST PUSH1 0x1 DUP3 ADD SWAP1 POP SWAP2 SWAP1 POP JUMP JUMPDEST PUSH1 0x0 DUP2 SWAP1 POP DUP2 PUSH1 0x0 MSTORE PUSH1 0x20 PUSH1 0x0 KECCAK256 SWAP1 POP SWAP2 SWAP1 POP JUMP JUMPDEST PUSH1 0x0 PUSH1 0x20 PUSH1 0x1F DUP4 ADD DIV SWAP1 POP SWAP2 SWAP1 POP JUMP JUMPDEST PUSH1 0x0 DUP3 DUP3 SHL SWAP1 POP SWAP3 SWAP2 POP POP JUMP JUMPDEST PUSH1 0x0 PUSH1 0x8 DUP4 MUL PUSH2 0x133C PUSH32 0xFFFFFFFFFFFFFFFFFFFFFFFFFFFFFFFFFFFFFFFFFFFFFFFFFFFFFFFFFFFFFFFF DUP3 PUSH2 0x12FF JUMP JUMPDEST PUSH2 0x1346 DUP7 DUP4 PUSH2 0x12FF JUMP JUMPDEST SWAP6 POP DUP1 NOT DUP5 AND SWAP4 POP DUP1 DUP7 AND DUP5 OR SWAP3 POP POP POP SWAP4 SWAP3 POP POP POP JUMP JUMPDEST PUSH1 0x0 DUP2 SWAP1 POP SWAP2 SWAP1 POP JUMP JUMPDEST PUSH1 0x0 PUSH2 0x1383 PUSH2 0x137E PUSH2 0x1379 DUP5 PUSH2 0xBDF JUMP JUMPDEST PUSH2 0x135E JUMP JUMPDEST PUSH2 0xBDF JUMP JUMPDEST SWAP1 POP SWAP2 SWAP1 POP JUMP JUMPDEST PUSH1 0x0 DUP2 SWAP1 POP SWAP2 SWAP1 POP JUMP JUMPDEST PUSH2 0x139D DUP4 PUSH2 0x1368 JUMP JUMPDEST PUSH2 0x13B1 PUSH2 0x13A9 DUP3 PUSH2 0x138A JUMP JUMPDEST DUP5 DUP5 SLOAD PUSH2 0x130C JUMP JUMPDEST DUP3 SSTORE POP POP POP POP JUMP JUMPDEST PUSH1 0x0 SWAP1 JUMP JUMPDEST PUSH2 0x13C6 PUSH2 0x13B9 JUMP JUMPDEST PUSH2 0x13D1 DUP2 DUP5 DUP5 PUSH2 0x1394 JUMP JUMPDEST POP POP POP JUMP JUMPDEST JUMPDEST DUP2 DUP2 LT ISZERO PUSH2 0x13F5 JUMPI PUSH2 0x13EA PUSH1 0x0 DUP3 PUSH2 0x13BE JUMP JUMPDEST PUSH1 0x1 DUP2 ADD SWAP1 POP PUSH2 0x13D7 JUMP JUMPDEST POP POP JUMP JUMPDEST PUSH1 0x1F DUP3 GT ISZERO PUSH2 0x143A JUMPI PUSH2 0x140B DUP2 PUSH2 0x12DA JUMP JUMPDEST PUSH2 0x1414 DUP5 PUSH2 0x12EF JUMP JUMPDEST DUP2 ADD PUSH1 0x20 DUP6 LT ISZERO PUSH2 0x1423 JUMPI DUP2 SWAP1 POP JUMPDEST PUSH2 0x1437 PUSH2 0x142F DUP6 PUSH2 0x12EF JUMP JUMPDEST DUP4 ADD DUP3 PUSH2 0x13D6 JUMP JUMPDEST POP POP JUMPDEST POP POP POP JUMP JUMPDEST PUSH1 0x0 DUP3 DUP3 SHR SWAP1 POP SWAP3 SWAP2 POP POP JUMP JUMPDEST PUSH1 0x0 PUSH2 0x145D PUSH1 0x0 NOT DUP5 PUSH1 0x8 MUL PUSH2 0x143F JUMP JUMPDEST NOT DUP1 DUP4 AND SWAP2 POP POP SWAP3 SWAP2 POP POP JUMP JUMPDEST PUSH1 0x0 PUSH2 0x1476 DUP4 DUP4 PUSH2 0x144C JUMP JUMPDEST SWAP2 POP DUP3 PUSH1 0x2 MUL DUP3 OR SWAP1 POP SWAP3 SWAP2 POP POP JUMP JUMPDEST PUSH2 0x148F DUP3 PUSH2 0xC6C JUMP JUMPDEST PUSH8 0xFFFFFFFFFFFFFFFF DUP2 GT ISZERO PUSH2 0x14A8 JUMPI PUSH2 0x14A7 PUSH2 0xE42 JUMP JUMPDEST JUMPDEST PUSH2 0x14B2 DUP3 SLOAD PUSH2 0x11C6 JUMP JUMPDEST PUSH2 0x14BD DUP3 DUP3 DUP6 PUSH2 0x13F9 JUMP JUMPDEST PUSH1 0x0 PUSH1 0x20 SWAP1 POP PUSH1 0x1F DUP4 GT PUSH1 0x1 DUP2 EQ PUSH2 0x14F0 JUMPI PUSH1 0x0 DUP5 ISZERO PUSH2 0x14DE JUMPI DUP3 DUP8 ADD MLOAD SWAP1 POP JUMPDEST PUSH2 0x14E8 DUP6 DUP3 PUSH2 0x146A JUMP JUMPDEST DUP7 SSTORE POP PUSH2 0x1550 JUMP JUMPDEST PUSH1 0x1F NOT DUP5 AND PUSH2 0x14FE DUP7 PUSH2 0x12DA JUMP JUMPDEST PUSH1 0x0 JUMPDEST DUP3 DUP2 LT ISZERO PUSH2 0x1526 JUMPI DUP5 DUP10 ADD MLOAD DUP3 SSTORE PUSH1 0x1 DUP3 ADD SWAP2 POP PUSH1 0x20 DUP6 ADD SWAP5 POP PUSH1 0x20 DUP2 ADD SWAP1 POP PUSH2 0x1501 JUMP JUMPDEST DUP7 DUP4 LT ISZERO PUSH2 0x1543 JUMPI DUP5 DUP10 ADD MLOAD PUSH2 0x153F PUSH1 0x1F DUP10 AND DUP3 PUSH2 0x144C JUMP JUMPDEST DUP4 SSTORE POP JUMPDEST PUSH1 0x1 PUSH1 0x2 DUP9 MUL ADD DUP9 SSTORE POP POP POP JUMPDEST POP POP POP POP POP POP JUMP JUMPDEST PUSH1 0x0 PUSH1 0x80 DUP3 ADD SWAP1 POP PUSH2 0x156D PUSH1 0x0 DUP4 ADD DUP8 PUSH2 0xC42 JUMP JUMPDEST PUSH2 0x157A PUSH1 0x20 DUP4 ADD DUP7 PUSH2 0xC42 JUMP JUMPDEST DUP2 DUP2 SUB PUSH1 0x40 DUP4 ADD MSTORE PUSH2 0x158C DUP2 DUP6 PUSH2 0xCC3 JUMP JUMPDEST SWAP1 POP PUSH2 0x159B PUSH1 0x60 DUP4 ADD DUP5 PUSH2 0xC42 JUMP JUMPDEST SWAP6 SWAP5 POP POP POP POP POP JUMP JUMPDEST PUSH1 0x0 PUSH1 0xA0 DUP3 ADD SWAP1 POP PUSH2 0x15B9 PUSH1 0x0 DUP4 ADD DUP9 PUSH2 0xC42 JUMP JUMPDEST DUP2 DUP2 SUB PUSH1 0x20 DUP4 ADD MSTORE PUSH2 0x15CB DUP2 DUP8 PUSH2 0xCC3 JUMP JUMPDEST SWAP1 POP DUP2 DUP2 SUB PUSH1 0x40 DUP4 ADD MSTORE PUSH2 0x15DF DUP2 DUP7 PUSH2 0xCC3 JUMP JUMPDEST SWAP1 POP DUP2 DUP2 SUB PUSH1 0x60 DUP4 ADD MSTORE PUSH2 0x15F3 DUP2 DUP6 PUSH2 0xCC3 JUMP JUMPDEST SWAP1 POP PUSH2 0x1602 PUSH1 0x80 DUP4 ADD DUP5 PUSH2 0xC42 JUMP JUMPDEST SWAP7 SWAP6 POP POP POP POP POP POP JUMP INVALID LOG2 PUSH5 0x6970667358 0x22 SLT KECCAK256 CREATE2 0x4A PUSH32 0xD808D9712857B6556F0700E22D75296E62D35B54E14177F2F6D11BC51364736F PUSH13 0x63430008120033000000000000 "
				},
				"gasEstimates": {
					"creation": {
						"codeDepositCost": "1139600",
						"executionCost": "6193",
						"totalCost": "1145793"
					},
					"external": {
						"addComment(uint256,string)": "infinite",
						"getComment(uint256,uint256)": "infinite",
						"getCommentCount(uint256)": "infinite",
						"getVideo(uint256)": "infinite",
						"getVideoCount()": "2504",
						"uploadVideo(string,string,string,string)": "infinite",
						"videoCount()": "2451",
						"videos(uint256)": "infinite"
					}
				},
				"methodIdentifiers": {
					"addComment(uint256,string)": "aa7e5683",
					"getComment(uint256,uint256)": "48892753",
					"getCommentCount(uint256)": "0d4bfb4f",
					"getVideo(uint256)": "2893eca2",
					"getVideoCount()": "a286c0b9",
					"uploadVideo(string,string,string,string)": "db83644b",
					"videoCount()": "c61b5f4c",
					"videos(uint256)": "e6821bf5"
				}
			},
			"storageLayout": {
				"storage": [
					{
						"astId": 33,
						"contract": "contract.sol:VideoShare",
						"label": "videos",
						"offset": 0,
						"slot": "0",
						"type": "t_mapping(t_uint256,t_struct(Video)21_storage)"
					},
					{
						"astId": 36,
						"contract": "contract.sol:VideoShare",
						"label": "videoCount",
						"offset": 0,
						"slot": "1",
						"type": "t_uint256"
					}
				],
				"types": {
					"t_address": {
						"encoding": "inplace",
						"label": "address",
						"numberOfBytes": "20"
					},
					"t_mapping(t_uint256,t_struct(Comment)28_storage)": {
						"encoding": "mapping",
						"key": "t_uint256",
						"label": "mapping(uint256 => struct VideoShare.Comment)",
						"numberOfBytes": "32",
						"value": "t_struct(Comment)28_storage"
					},
					"t_mapping(t_uint256,t_struct(Video)21_storage)": {
						"encoding": "mapping",
						"key": "t_uint256",
						"label": "mapping(uint256 => struct VideoShare.Video)",
						"numberOfBytes": "32",
						"value": "t_struct(Video)21_storage"
					},
					"t_string_storage": {
						"encoding": "bytes",
						"label": "string",
						"numberOfBytes": "32"
					},
					"t_struct(Comment)28_storage": {
						"encoding": "inplace",
						"label": "struct VideoShare.Comment",
						"members": [
							{
								"astId": 23,
								"contract": "contract.sol:VideoShare",
								"label": "commenter",
								"offset": 0,
								"slot": "0",
								"type": "t_address"
							},
							{
								"astId": 25,
								"contract": "contract.sol:VideoShare",
								"label": "text",
								"offset": 0,
								"slot": "1",
								"type": "t_string_storage"
							},
							{
								"astId": 27,
								"contract": "contract.sol:VideoShare",
								"label": "timestamp",
								"offset": 0,
								"slot": "2",
								"type": "t_uint256"
							}
						],
						"numberOfBytes": "96"
					},
					"t_struct(Video)21_storage": {
						"encoding": "inplace",
						"label": "struct VideoShare.Video",
						"members": [
							{
								"astId": 3,
								"contract": "contract.sol:VideoShare",
								"label": "owner",
								"offset": 0,
								"slot": "0",
								"type": "t_address"
							},
							{
								"astId": 5,
								"contract": "contract.sol:VideoShare",
								"label": "title",
								"offset": 0,
								"slot": "1",
								"type": "t_string_storage"
							},
							{
								"astId": 7,
								"contract": "contract.sol:VideoShare",
								"label": "description",
								"offset": 0,
								"slot": "2",
								"type": "t_string_storage"
							},
							{
								"astId": 9,
								"contract": "contract.sol:VideoShare",
								"label": "videoHash",
								"offset": 0,
								"slot": "3",
								"type": "t_string_storage"
							},
							{
								"astId": 11,
								"contract": "contract.sol:VideoShare",
								"label": "url",
								"offset": 0,
								"slot": "4",
								"type": "t_string_storage"
							},
							{
								"astId": 13,
								"contract": "contract.sol:VideoShare",
								"label": "timestamp",
								"offset": 0,
								"slot": "5",
								"type": "t_uint256"
							},
							{
								"astId": 18,
								"contract": "contract.sol:VideoShare",
								"label": "comments",
								"offset": 0,
								"slot": "6",
								"type": "t_mapping(t_uint256,t_struct(Comment)28_storage)"
							},
							{
								"astId": 20,
								"contract": "contract.sol:VideoShare",
								"label": "commentCount",
								"offset": 0,
								"slot": "7",
								"type": "t_uint256"
							}
						],
						"numberOfBytes": "256"
					},
					"t_uint256": {
						"encoding": "inplace",
						"label": "uint256",
						"numberOfBytes": "32"
					}
				}
			},
			"userdoc": {
				"kind": "user",
				"methods": {},
				"version": 1
			}
		}
	}
}